{
  "_format": "hh-sol-artifact-1",
  "contractName": "PropertyBooking",
  "sourceName": "contracts/PropertyBooking.sol",
  "abi": [
    {
      "inputs": [
        {
          "internalType": "address",
          "name": "_propertyHostingAddress",
          "type": "address"
        }
      ],
      "stateMutability": "nonpayable",
      "type": "constructor"
    },
    {
      "inputs": [
        {
          "internalType": "address",
          "name": "owner",
          "type": "address"
        }
      ],
      "name": "OwnableInvalidOwner",
      "type": "error"
    },
    {
      "inputs": [
        {
          "internalType": "address",
          "name": "account",
          "type": "address"
        }
      ],
      "name": "OwnableUnauthorizedAccount",
      "type": "error"
    },
    {
      "inputs": [],
      "name": "ReentrancyGuardReentrantCall",
      "type": "error"
    },
    {
      "anonymous": false,
      "inputs": [
        {
          "indexed": true,
          "internalType": "uint256",
          "name": "bookingId",
          "type": "uint256"
        },
        {
          "indexed": true,
          "internalType": "address",
          "name": "guest",
          "type": "address"
        },
        {
          "indexed": false,
          "internalType": "string",
          "name": "reason",
          "type": "string"
        }
      ],
      "name": "BookingCancelled",
      "type": "event"
    },
    {
      "anonymous": false,
      "inputs": [
        {
          "indexed": true,
          "internalType": "uint256",
          "name": "bookingId",
          "type": "uint256"
        },
        {
          "indexed": true,
          "internalType": "address",
          "name": "host",
          "type": "address"
        }
      ],
      "name": "BookingConfirmed",
      "type": "event"
    },
    {
      "anonymous": false,
      "inputs": [
        {
          "indexed": true,
          "internalType": "uint256",
          "name": "bookingId",
          "type": "uint256"
        },
        {
          "indexed": true,
          "internalType": "uint256",
          "name": "propertyId",
          "type": "uint256"
        },
        {
          "indexed": true,
          "internalType": "address",
          "name": "guest",
          "type": "address"
        },
        {
          "indexed": false,
          "internalType": "address",
          "name": "host",
          "type": "address"
        },
        {
          "indexed": false,
          "internalType": "uint256",
          "name": "checkInDate",
          "type": "uint256"
        },
        {
          "indexed": false,
          "internalType": "uint256",
          "name": "checkOutDate",
          "type": "uint256"
        },
        {
          "indexed": false,
          "internalType": "uint256",
          "name": "totalAmount",
          "type": "uint256"
        },
        {
          "indexed": false,
          "internalType": "string",
          "name": "paymentReference",
          "type": "string"
        }
      ],
      "name": "BookingCreated",
      "type": "event"
    },
    {
      "anonymous": false,
      "inputs": [
        {
          "indexed": true,
          "internalType": "address",
          "name": "previousOwner",
          "type": "address"
        },
        {
          "indexed": true,
          "internalType": "address",
          "name": "newOwner",
          "type": "address"
        }
      ],
      "name": "OwnershipTransferred",
      "type": "event"
    },
    {
      "inputs": [
        {
          "internalType": "uint256",
          "name": "",
          "type": "uint256"
        }
      ],
      "name": "bookings",
      "outputs": [
        {
          "internalType": "uint256",
          "name": "id",
          "type": "uint256"
        },
        {
          "internalType": "uint256",
          "name": "propertyId",
          "type": "uint256"
        },
        {
          "internalType": "address",
          "name": "guest",
          "type": "address"
        },
        {
          "internalType": "address",
          "name": "host",
          "type": "address"
        },
        {
          "internalType": "uint256",
          "name": "checkInDate",
          "type": "uint256"
        },
        {
          "internalType": "uint256",
          "name": "checkOutDate",
          "type": "uint256"
        },
        {
          "internalType": "uint256",
          "name": "totalAmount",
          "type": "uint256"
        },
        {
          "internalType": "bool",
          "name": "isConfirmed",
          "type": "bool"
        },
        {
          "internalType": "bool",
          "name": "isCancelled",
          "type": "bool"
        },
        {
          "internalType": "uint256",
          "name": "createdAt",
          "type": "uint256"
        },
        {
          "internalType": "string",
          "name": "paymentReference",
          "type": "string"
        }
      ],
      "stateMutability": "view",
      "type": "function"
    },
    {
      "inputs": [
        {
          "internalType": "uint256",
          "name": "_bookingId",
          "type": "uint256"
        },
        {
          "internalType": "string",
          "name": "_reason",
          "type": "string"
        }
      ],
      "name": "cancelBooking",
      "outputs": [],
      "stateMutability": "nonpayable",
      "type": "function"
    },
    {
      "inputs": [
        {
          "internalType": "uint256",
          "name": "_bookingId",
          "type": "uint256"
        }
      ],
      "name": "confirmBooking",
      "outputs": [],
      "stateMutability": "nonpayable",
      "type": "function"
    },
    {
      "inputs": [
        {
          "internalType": "uint256",
          "name": "_propertyId",
          "type": "uint256"
        },
        {
          "internalType": "uint256",
          "name": "_checkInDate",
          "type": "uint256"
        },
        {
          "internalType": "uint256",
          "name": "_checkOutDate",
          "type": "uint256"
        },
        {
          "internalType": "string",
          "name": "_paymentReference",
          "type": "string"
        }
      ],
      "name": "createBooking",
      "outputs": [
        {
          "internalType": "uint256",
          "name": "",
          "type": "uint256"
        }
      ],
      "stateMutability": "nonpayable",
      "type": "function"
    },
    {
      "inputs": [
        {
          "internalType": "uint256",
          "name": "_bookingId",
          "type": "uint256"
        }
      ],
      "name": "getBooking",
      "outputs": [
        {
          "components": [
            {
              "internalType": "uint256",
              "name": "id",
              "type": "uint256"
            },
            {
              "internalType": "uint256",
              "name": "propertyId",
              "type": "uint256"
            },
            {
              "internalType": "address",
              "name": "guest",
              "type": "address"
            },
            {
              "internalType": "address",
              "name": "host",
              "type": "address"
            },
            {
              "internalType": "uint256",
              "name": "checkInDate",
              "type": "uint256"
            },
            {
              "internalType": "uint256",
              "name": "checkOutDate",
              "type": "uint256"
            },
            {
              "internalType": "uint256",
              "name": "totalAmount",
              "type": "uint256"
            },
            {
              "internalType": "bool",
              "name": "isConfirmed",
              "type": "bool"
            },
            {
              "internalType": "bool",
              "name": "isCancelled",
              "type": "bool"
            },
            {
              "internalType": "uint256",
              "name": "createdAt",
              "type": "uint256"
            },
            {
              "internalType": "string",
              "name": "paymentReference",
              "type": "string"
            }
          ],
          "internalType": "struct PropertyBooking.Booking",
          "name": "",
          "type": "tuple"
        }
      ],
      "stateMutability": "view",
      "type": "function"
    },
    {
      "inputs": [
        {
          "internalType": "string",
          "name": "_paymentReference",
          "type": "string"
        }
      ],
      "name": "getBookingByPaymentReference",
      "outputs": [
        {
          "internalType": "uint256",
          "name": "",
          "type": "uint256"
        }
      ],
      "stateMutability": "view",
      "type": "function"
    },
    {
      "inputs": [],
      "name": "getBookingsCount",
      "outputs": [
        {
          "internalType": "uint256",
          "name": "",
          "type": "uint256"
        }
      ],
      "stateMutability": "view",
      "type": "function"
    },
    {
      "inputs": [
        {
          "internalType": "address",
          "name": "_guest",
          "type": "address"
        }
      ],
      "name": "getGuestBookings",
      "outputs": [
        {
          "internalType": "uint256[]",
          "name": "",
          "type": "uint256[]"
        }
      ],
      "stateMutability": "view",
      "type": "function"
    },
    {
      "inputs": [
        {
          "internalType": "address",
          "name": "_host",
          "type": "address"
        }
      ],
      "name": "getHostBookings",
      "outputs": [
        {
          "internalType": "uint256[]",
          "name": "",
          "type": "uint256[]"
        }
      ],
      "stateMutability": "view",
      "type": "function"
    },
    {
      "inputs": [
        {
          "internalType": "uint256",
          "name": "_propertyId",
          "type": "uint256"
        }
      ],
      "name": "getPropertyBookings",
      "outputs": [
        {
          "internalType": "uint256[]",
          "name": "",
          "type": "uint256[]"
        }
      ],
      "stateMutability": "view",
      "type": "function"
    },
    {
      "inputs": [
        {
          "internalType": "address",
          "name": "",
          "type": "address"
        },
        {
          "internalType": "uint256",
          "name": "",
          "type": "uint256"
        }
      ],
      "name": "guestBookings",
      "outputs": [
        {
          "internalType": "uint256",
          "name": "",
          "type": "uint256"
        }
      ],
      "stateMutability": "view",
      "type": "function"
    },
    {
      "inputs": [
        {
          "internalType": "address",
          "name": "",
          "type": "address"
        },
        {
          "internalType": "uint256",
          "name": "",
          "type": "uint256"
        }
      ],
      "name": "hostBookings",
      "outputs": [
        {
          "internalType": "uint256",
          "name": "",
          "type": "uint256"
        }
      ],
      "stateMutability": "view",
      "type": "function"
    },
    {
      "inputs": [
        {
          "internalType": "uint256",
          "name": "_propertyId",
          "type": "uint256"
        },
        {
          "internalType": "uint256",
          "name": "_checkIn",
          "type": "uint256"
        },
        {
          "internalType": "uint256",
          "name": "_checkOut",
          "type": "uint256"
        }
      ],
      "name": "isDateRangeAvailable",
      "outputs": [
        {
          "internalType": "bool",
          "name": "",
          "type": "bool"
        }
      ],
      "stateMutability": "view",
      "type": "function"
    },
    {
      "inputs": [
        {
          "internalType": "uint256",
          "name": "_propertyId",
          "type": "uint256"
        },
        {
          "internalType": "uint256",
          "name": "_checkIn",
          "type": "uint256"
        },
        {
          "internalType": "uint256",
          "name": "_checkOut",
          "type": "uint256"
        }
      ],
      "name": "isPropertyAvailable",
      "outputs": [
        {
          "internalType": "bool",
          "name": "",
          "type": "bool"
        }
      ],
      "stateMutability": "view",
      "type": "function"
    },
    {
      "inputs": [],
      "name": "nextBookingId",
      "outputs": [
        {
          "internalType": "uint256",
          "name": "",
          "type": "uint256"
        }
      ],
      "stateMutability": "view",
      "type": "function"
    },
    {
      "inputs": [],
      "name": "owner",
      "outputs": [
        {
          "internalType": "address",
          "name": "",
          "type": "address"
        }
      ],
      "stateMutability": "view",
      "type": "function"
    },
    {
      "inputs": [
        {
          "internalType": "string",
          "name": "",
          "type": "string"
        }
      ],
      "name": "paymentReferenceToBooking",
      "outputs": [
        {
          "internalType": "uint256",
          "name": "",
          "type": "uint256"
        }
      ],
      "stateMutability": "view",
      "type": "function"
    },
    {
      "inputs": [
        {
          "internalType": "uint256",
          "name": "",
          "type": "uint256"
        },
        {
          "internalType": "uint256",
          "name": "",
          "type": "uint256"
        }
      ],
      "name": "propertyDateBooked",
      "outputs": [
        {
          "internalType": "bool",
          "name": "",
          "type": "bool"
        }
      ],
      "stateMutability": "view",
      "type": "function"
    },
    {
      "inputs": [],
      "name": "propertyHosting",
      "outputs": [
        {
          "internalType": "contract PropertyHosting",
          "name": "",
          "type": "address"
        }
      ],
      "stateMutability": "view",
      "type": "function"
    },
    {
      "inputs": [],
      "name": "renounceOwnership",
      "outputs": [],
      "stateMutability": "nonpayable",
      "type": "function"
    },
    {
      "inputs": [
        {
          "internalType": "address",
          "name": "newOwner",
          "type": "address"
        }
      ],
      "name": "transferOwnership",
      "outputs": [],
      "stateMutability": "nonpayable",
      "type": "function"
    }
  ],
  "bytecode": "0x6080346100d257601f61188e38819003918201601f19168301916001600160401b038311848410176100d7578084926020946040528339810103126100d257516001600160a01b0390818116908190036100d257600160005533156100b95760018054336001600160a01b03198083168217909355604051949091167f8be0079c531659141344cd1fd0a4f28419497f9722a3daafe3b4186f6b6457e0600080a3600160025560085416176008556117a090816100ee8239f35b604051631e4fbdf760e01b815260006004820152602490fd5b600080fd5b634e487b7160e01b600052604160045260246000fdfe608080604052600436101561001357600080fd5b60003560e01c9081630642f89e146112f457508063097b6be31461122e5780630f867798146101065780631dab301e1461116e57806322eb77ee146109b057806326f20c7914610992578063405505b11461091a57806354056b69146107b357806363809aef1461072f5780636a5c841a1461056a578063715018a61461050d578063794239cc146104e45780638da5cb5b146104bb578063a41cfa6914610471578063a93db7d01461024d578063d27d559f14610293578063d8012a2a14610252578063e834016e1461024d578063f2fde38b146101bf578063f91f859a146101675763fe909cac1461010657600080fd5b34610162576020366003190112610162576004356001600160401b0381116101625761014f602061013c819336906004016113c1565b8160405193828580945193849201611408565b8101600781520301902054604051908152f35b600080fd5b3461016257604036600319011261016257610180611530565b6001600160a01b0316600090815260056020526040902080546024359190821015610162576020916101b191611546565b90546040519160031b1c8152f35b34610162576020366003190112610162576101d8611530565b6101e06115a2565b6001600160a01b0390811690811561023457600154826bffffffffffffffffffffffff60a01b821617600155167f8be0079c531659141344cd1fd0a4f28419497f9722a3daafe3b4186f6b6457e0600080a3005b604051631e4fbdf760e01b815260006004820152602490fd5b611574565b3461016257600036600319011261016257600254600019810190811161027d57602090604051908152f35b634e487b7160e01b600052601160045260246000fd5b3461016257604036600319011261016257602460043581356001600160401b038111610162576102c79036906004016113c1565b81151580610466575b6102d990611669565b816000526020926003845260406000209060078201805460ff8160081c16610422576002840154336001600160a01b0391821614908115610412575b50156103c05761ff00191661010017905560018201546004830154600590930154925b83811061037d57604051878152339087907f91e5bffd4ffdc5b054ce786ea6269e6e8c1fe4bb5cdb4d14f249c1ec59e3908c9080610378818d018b61150b565b0390a3005b81600052600687526040600020816000528752604060002060ff198154169055620151808101809111156103385782634e487b7160e01b60005260116004526000fd5b60405162461bcd60e51b8152600481018890526025818501527f4e6f7420617574686f72697a656420746f2063616e63656c207468697320626f6044820152646f6b696e6760d81b6064820152608490fd5b9050600385015416331488610315565b60405162461bcd60e51b8152600481018890526019818501527f426f6f6b696e6720616c72656164792063616e63656c6c6564000000000000006044820152606490fd5b5060025482106102d0565b346101625760403660031901126101625761048a611530565b6001600160a01b0316600090815260046020526040902080546024359190821015610162576020916101b191611546565b34610162576000366003190112610162576001546040516001600160a01b039091168152602090f35b34610162576000366003190112610162576008546040516001600160a01b039091168152602090f35b34610162576000366003190112610162576105266115a2565b600180546001600160a01b031981169091556000906001600160a01b03167f8be0079c531659141344cd1fd0a4f28419497f9722a3daafe3b4186f6b6457e08280a3005b3461016257602036600319011261016257600435606061014060405161058f81611369565b60008152600060208201526000604082015260008382015260006080820152600060a0820152600060c0820152600060e082015260006101008201526000610120820152015280151580610724575b6105e790611669565b6000526003602052610140604060002061068360096040519261060984611369565b805484526001810154602085015260028101546001600160a01b039081166040860152600382015416606085015260048101546080850152600581015460a0850152600681015460c0850152600781015460ff818116151560e0870152600891821c16151561010086015281015461012085015201611465565b8282015261072060405192839260208452805160208501526020810151604085015260018060a01b03604082015116606085015260018060a01b036060820151166080850152608081015160a085015260a081015160c085015260c081015160e085015260e0810151151561010085015261010081015115156101208501526101208101518285015201516101608084015261018083019061150b565b0390f35b5060025481106105de565b3461016257602080600319360112610162576001600160a01b03610751611530565b1660005260048152604060002090604051908181845491828152019360005281600020916000905b82821061079c576107208561079081890382611385565b6040519182918261132e565b835486529485019460019384019390910190610779565b346101625760208060031936011261016257600435908115158061090f575b6107db90611669565b60008281526003808352604090912001546001600160a01b031633036108d457816000526003815260076040600020019081549060ff82166108905760ff8260081c16610855575060ff1916600117905533907f32a6eab1f4a0177609cc24472e391822aae8a497472601ef3f98523b4bc7bd31600080a3005b6064906040519062461bcd60e51b825260048201526014602482015273109bdbdada5b99c81a5cc818d85b98d95b1b195960621b6044820152fd5b6064906040519062461bcd60e51b82526004820152601960248201527f426f6f6b696e6720616c726561647920636f6e6669726d6564000000000000006044820152fd5b6064906040519062461bcd60e51b825260048201526014602482015273139bdd081d1a1948189bdbdada5b99c81a1bdcdd60621b6044820152fd5b5060025482106107d2565b3461016257602080600319360112610162576001600160a01b0361093c611530565b1660005260058152604060002090604051908181845491828152019360005281600020916000905b82821061097b576107208561079081890382611385565b835486529485019460019384019390910190610964565b34610162576000366003190112610162576020600254604051908152f35b34610162576080366003190112610162576064356001600160401b038111610162576109e09036906004016113c1565b426024351061111d5760243560443511156110ca576301e13380610a086024356044356115ce565b116110855760026000541461107357600260009081556008546040516332665ffb60e01b81526004803590820152929190839060249082906001600160a01b03165afa91821561106757600092610f0d575b5060c082015115610ecf5760208201516001600160a01b031615610e8a57610a896044356024356004356116ae565b15610e455762015180610aa06024356044356115ce565b049060a083015190818381020483148215171561027d5782820215610e07576040516020818351610ad48183858801611408565b8101600781520301902054610dc25760025492610af084611620565b60025583600052600360205260406000208481556004356001820155600281016bffffffffffffffffffffffff60a01b90338282541617905560018060a01b0360208801511660038301918254161790556024356004820155604435600582015581840260068201556007810161ffff19815416905542600882015582516001600160401b038111610dac57610b89600983015461142b565b601f8111610d65575b506020601f8211600114610cf8579080600992600091610ced575b508160011b916000199060031b1c1916179101555b336000526004602052610bd984604060002061162f565b60018060a01b036020860151166000526005602052610bfc84604060002061162f565b6024355b6044358110610ca257506020948460405187818651610c228183858b01611408565b81016007815203019020558560018060a01b03910151169260405193845260243586850152604435604085015202606083015260a06080830152827f9f1b7faa054a0e9ad5d65692eb3c5f6123f8255c76e52589a673128083f8e0af339380610c926004359560a083019061150b565b0390a46001600055604051908152f35b60043560005260066020526040600020816000526020526040600020600160ff1982541617905562015180810180911115610c0057634e487b7160e01b600052601160045260246000fd5b905085015189610bad565b6009830160005260206000209060005b601f1984168110610d4d57509160019160099382601f19811610610d34575b5050811b01910155610bc2565b87015160001960f88460031b161c191690558980610d27565b9091602060018192858a015181550193019101610d08565b600983016000526020600020601f830160051c810160208410610da5575b601f830160051c82018110610d99575050610b92565b60008155600101610d83565b5080610d83565b634e487b7160e01b600052604160045260246000fd5b60405162461bcd60e51b815260206004820152601e60248201527f5061796d656e74207265666572656e636520616c7265616479207573656400006044820152606490fd5b60405162461bcd60e51b8152602060048201526016602482015275125b9d985b1a5908189bdbdada5b99c8185b5bdd5b9d60521b6044820152606490fd5b60405162461bcd60e51b815260206004820152601760248201527f446174657320617265206e6f7420617661696c61626c650000000000000000006044820152606490fd5b60405162461bcd60e51b815260206004820152601760248201527f50726f706572747920646f6573206e6f742065786973740000000000000000006044820152606490fd5b60405162461bcd60e51b815260206004820152601660248201527550726f7065727479206973206e6f742061637469766560501b6044820152606490fd5b9091503d806000833e610f208183611385565b6020828281010312610162578151906001600160401b0382116101625761012092838382018383010312610162576040519384018481106001600160401b03821117610dac5760405280830180518552602001516001600160a01b0381168103610162576020850152604083820101516001600160401b03811161016257610faf9083830190858401016115db565b6040850152606083820101516001600160401b03811161016257610fda9083830190858401016115db565b6060850152608083820101516001600160401b038111610162576110059083830190858401016115db565b608085015280830160a0818101519086015260c0015180151581036101625760c085015260e0838201015160e085015261010092838183010151906001600160401b0382116101625761105c9383019201016115db565b908201529082610a5a565b6040513d6000823e3d90fd5b604051633ee5aeb560e01b8152600490fd5b60405162461bcd60e51b815260206004820152601b60248201527f537461792063616e6e6f742065786365656420333635206461797300000000006044820152606490fd5b60405162461bcd60e51b815260206004820152602560248201527f436865636b2d6f75742064617465206d7573742062652061667465722063686560448201526431b596b4b760d91b6064820152608490fd5b60405162461bcd60e51b815260206004820152602360248201527f436865636b2d696e2064617465206d75737420626520696e207468652066757460448201526275726560e81b6064820152608490fd5b346101625760203660031901126101625760043560005260036020526040600020805461072060018301549260018060a01b039060ff8260028301541692600383015416600483015460058401546006850154916007860154936111d9600960088901549801611465565b976040519b8c9b8c5260208c015260408b015260608a0152608089015260a088015260c0870152818116151560e087015260081c1615156101008501526101208401526101608061014085015283019061150b565b34610162576020806003193601126101625760043590600254600019810181811161027d5761125c90611724565b92600092600190815b8481106112b457868661127781611724565b9160005b8281106112905760405180610720868261132e565b8061129e6112af9284611756565b516112a98287611756565b52611620565b61127b565b8060005260038252838360406000200154146112d9575b6112d490611620565b611265565b946112ec81876112a96112d4948b611756565b9590506112cb565b3461016257604036600319011261016257602090600435600052600682526040600020602435600052825260ff6040600020541615158152f35b6020908160408183019282815285518094520193019160005b828110611355575050505090565b835185529381019392810192600101611347565b61016081019081106001600160401b03821117610dac57604052565b90601f801991011681019081106001600160401b03821117610dac57604052565b6001600160401b038111610dac57601f01601f191660200190565b81601f82011215610162578035906113d8826113a6565b926113e66040519485611385565b8284526020838301011161016257816000926020809301838601378301015290565b60005b83811061141b5750506000910152565b818101518382015260200161140b565b90600182811c9216801561145b575b602083101461144557565b634e487b7160e01b600052602260045260246000fd5b91607f169161143a565b90604051918260008254926114798461142b565b9081845260019485811690816000146114e857506001146114a5575b50506114a392500383611385565b565b9093915060005260209081600020936000915b8183106114d05750506114a393508201013880611495565b855488840185015294850194879450918301916114b8565b9150506114a394506020925060ff191682840152151560051b8201013880611495565b9060209161152481518092818552858086019101611408565b601f01601f1916010190565b600435906001600160a01b038216820361016257565b805482101561155e5760005260206000200190600090565b634e487b7160e01b600052603260045260246000fd5b346101625760603660031901126101625760206115986044356024356004356116ae565b6040519015158152f35b6001546001600160a01b031633036115b657565b60405163118cdaa760e01b8152336004820152602490fd5b9190820391821161027d57565b81601f820112156101625780516115f1816113a6565b926115ff6040519485611385565b818452602082840101116101625761161d9160208085019101611408565b90565b600019811461027d5760010190565b805468010000000000000000811015610dac5761165191600182018155611546565b819291549060031b91821b91600019901b1916179055565b1561167057565b60405162461bcd60e51b8152602060048201526016602482015275109bdbdada5b99c8191bd95cc81b9bdd08195e1a5cdd60521b6044820152606490fd5b905b8281106116bf57505050600190565b600082815260ff602060068152604090818420908585525282205416611706576201518082018092116116f257506116b0565b634e487b7160e01b81526011600452602490fd5b9250505090565b6001600160401b038111610dac5760051b60200190565b9061172e8261170d565b61173b6040519182611385565b828152809261174c601f199161170d565b0190602036910137565b805182101561155e5760209160051b01019056fea2646970667358221220dcf5f4b42f5df75cf73bd68beb4bb413d99b3ff19521dc731a9e92d269a6d02d64736f6c63430008140033",
  "linkReferences": {},
  "deployedLinkReferences": {}
}