{
  "_format": "hh-sol-artifact-1",
  "contractName": "PropertyBooking",
  "sourceName": "contracts/PropertyBooking.sol",
  "abi": [
    {
      "inputs": [
        {
          "internalType": "address",
          "name": "_propertyHostingAddress",
          "type": "address"
        },
        {
          "internalType": "address",
          "name": "_platformWallet",
          "type": "address"
        }
      ],
      "stateMutability": "nonpayable",
      "type": "constructor"
    },
    {
      "inputs": [
        {
          "internalType": "address",
          "name": "owner",
          "type": "address"
        }
      ],
      "name": "OwnableInvalidOwner",
      "type": "error"
    },
    {
      "inputs": [
        {
          "internalType": "address",
          "name": "account",
          "type": "address"
        }
      ],
      "name": "OwnableUnauthorizedAccount",
      "type": "error"
    },
    {
      "inputs": [],
      "name": "ReentrancyGuardReentrantCall",
      "type": "error"
    },
    {
      "anonymous": false,
      "inputs": [
        {
          "indexed": true,
          "internalType": "uint256",
          "name": "bookingId",
          "type": "uint256"
        },
        {
          "indexed": true,
          "internalType": "address",
          "name": "guest",
          "type": "address"
        },
        {
          "indexed": false,
          "internalType": "string",
          "name": "reason",
          "type": "string"
        }
      ],
      "name": "BookingCancelled",
      "type": "event"
    },
    {
      "anonymous": false,
      "inputs": [
        {
          "indexed": true,
          "internalType": "uint256",
          "name": "bookingId",
          "type": "uint256"
        },
        {
          "indexed": true,
          "internalType": "address",
          "name": "host",
          "type": "address"
        }
      ],
      "name": "BookingConfirmed",
      "type": "event"
    },
    {
      "anonymous": false,
      "inputs": [
        {
          "indexed": true,
          "internalType": "uint256",
          "name": "bookingId",
          "type": "uint256"
        },
        {
          "indexed": true,
          "internalType": "uint256",
          "name": "propertyId",
          "type": "uint256"
        },
        {
          "indexed": true,
          "internalType": "address",
          "name": "guest",
          "type": "address"
        },
        {
          "indexed": false,
          "internalType": "address",
          "name": "host",
          "type": "address"
        },
        {
          "indexed": false,
          "internalType": "uint256",
          "name": "checkInDate",
          "type": "uint256"
        },
        {
          "indexed": false,
          "internalType": "uint256",
          "name": "checkOutDate",
          "type": "uint256"
        },
        {
          "indexed": false,
          "internalType": "uint256",
          "name": "totalAmount",
          "type": "uint256"
        },
        {
          "indexed": false,
          "internalType": "uint256",
          "name": "platformFee",
          "type": "uint256"
        },
        {
          "indexed": false,
          "internalType": "uint256",
          "name": "hostAmount",
          "type": "uint256"
        },
        {
          "indexed": false,
          "internalType": "string",
          "name": "paymentReference",
          "type": "string"
        }
      ],
      "name": "BookingCreated",
      "type": "event"
    },
    {
      "anonymous": false,
      "inputs": [
        {
          "indexed": true,
          "internalType": "uint256",
          "name": "bookingId",
          "type": "uint256"
        },
        {
          "indexed": true,
          "internalType": "address",
          "name": "host",
          "type": "address"
        },
        {
          "indexed": false,
          "internalType": "uint256",
          "name": "amount",
          "type": "uint256"
        }
      ],
      "name": "FundsReleased",
      "type": "event"
    },
    {
      "anonymous": false,
      "inputs": [
        {
          "indexed": true,
          "internalType": "uint256",
          "name": "bookingId",
          "type": "uint256"
        },
        {
          "indexed": true,
          "internalType": "address",
          "name": "guest",
          "type": "address"
        },
        {
          "indexed": false,
          "internalType": "uint256",
          "name": "amount",
          "type": "uint256"
        }
      ],
      "name": "GuestRefunded",
      "type": "event"
    },
    {
      "anonymous": false,
      "inputs": [
        {
          "indexed": true,
          "internalType": "address",
          "name": "previousOwner",
          "type": "address"
        },
        {
          "indexed": true,
          "internalType": "address",
          "name": "newOwner",
          "type": "address"
        }
      ],
      "name": "OwnershipTransferred",
      "type": "event"
    },
    {
      "inputs": [
        {
          "internalType": "uint256",
          "name": "",
          "type": "uint256"
        }
      ],
      "name": "bookings",
      "outputs": [
        {
          "internalType": "uint256",
          "name": "id",
          "type": "uint256"
        },
        {
          "internalType": "uint256",
          "name": "propertyId",
          "type": "uint256"
        },
        {
          "internalType": "address",
          "name": "guest",
          "type": "address"
        },
        {
          "internalType": "address",
          "name": "host",
          "type": "address"
        },
        {
          "internalType": "uint256",
          "name": "checkInDate",
          "type": "uint256"
        },
        {
          "internalType": "uint256",
          "name": "checkOutDate",
          "type": "uint256"
        },
        {
          "internalType": "uint256",
          "name": "totalAmount",
          "type": "uint256"
        },
        {
          "internalType": "uint256",
          "name": "platformFee",
          "type": "uint256"
        },
        {
          "internalType": "uint256",
          "name": "hostAmount",
          "type": "uint256"
        },
        {
          "internalType": "bool",
          "name": "isConfirmed",
          "type": "bool"
        },
        {
          "internalType": "bool",
          "name": "isCancelled",
          "type": "bool"
        },
        {
          "internalType": "bool",
          "name": "fundsReleased",
          "type": "bool"
        },
        {
          "internalType": "uint256",
          "name": "createdAt",
          "type": "uint256"
        },
        {
          "internalType": "string",
          "name": "paymentReference",
          "type": "string"
        }
      ],
      "stateMutability": "view",
      "type": "function"
    },
    {
      "inputs": [
        {
          "internalType": "uint256",
          "name": "_bookingId",
          "type": "uint256"
        },
        {
          "internalType": "string",
          "name": "_reason",
          "type": "string"
        }
      ],
      "name": "cancelBooking",
      "outputs": [],
      "stateMutability": "nonpayable",
      "type": "function"
    },
    {
      "inputs": [
        {
          "internalType": "uint256",
          "name": "_bookingId",
          "type": "uint256"
        }
      ],
      "name": "claimHostFunds",
      "outputs": [],
      "stateMutability": "nonpayable",
      "type": "function"
    },
    {
      "inputs": [
        {
          "internalType": "uint256",
          "name": "_bookingId",
          "type": "uint256"
        }
      ],
      "name": "confirmBooking",
      "outputs": [],
      "stateMutability": "nonpayable",
      "type": "function"
    },
    {
      "inputs": [
        {
          "internalType": "uint256",
          "name": "_propertyId",
          "type": "uint256"
        },
        {
          "internalType": "uint256",
          "name": "_checkInDate",
          "type": "uint256"
        },
        {
          "internalType": "uint256",
          "name": "_checkOutDate",
          "type": "uint256"
        },
        {
          "internalType": "string",
          "name": "_paymentReference",
          "type": "string"
        }
      ],
      "name": "createBooking",
      "outputs": [
        {
          "internalType": "uint256",
          "name": "",
          "type": "uint256"
        }
      ],
      "stateMutability": "nonpayable",
      "type": "function"
    },
    {
      "inputs": [
        {
          "internalType": "uint256",
          "name": "_bookingId",
          "type": "uint256"
        }
      ],
      "name": "getBooking",
      "outputs": [
        {
          "components": [
            {
              "internalType": "uint256",
              "name": "id",
              "type": "uint256"
            },
            {
              "internalType": "uint256",
              "name": "propertyId",
              "type": "uint256"
            },
            {
              "internalType": "address",
              "name": "guest",
              "type": "address"
            },
            {
              "internalType": "address",
              "name": "host",
              "type": "address"
            },
            {
              "internalType": "uint256",
              "name": "checkInDate",
              "type": "uint256"
            },
            {
              "internalType": "uint256",
              "name": "checkOutDate",
              "type": "uint256"
            },
            {
              "internalType": "uint256",
              "name": "totalAmount",
              "type": "uint256"
            },
            {
              "internalType": "uint256",
              "name": "platformFee",
              "type": "uint256"
            },
            {
              "internalType": "uint256",
              "name": "hostAmount",
              "type": "uint256"
            },
            {
              "internalType": "bool",
              "name": "isConfirmed",
              "type": "bool"
            },
            {
              "internalType": "bool",
              "name": "isCancelled",
              "type": "bool"
            },
            {
              "internalType": "bool",
              "name": "fundsReleased",
              "type": "bool"
            },
            {
              "internalType": "uint256",
              "name": "createdAt",
              "type": "uint256"
            },
            {
              "internalType": "string",
              "name": "paymentReference",
              "type": "string"
            }
          ],
          "internalType": "struct PropertyBooking.Booking",
          "name": "",
          "type": "tuple"
        }
      ],
      "stateMutability": "view",
      "type": "function"
    },
    {
      "inputs": [
        {
          "internalType": "string",
          "name": "_paymentReference",
          "type": "string"
        }
      ],
      "name": "getBookingByPaymentReference",
      "outputs": [
        {
          "internalType": "uint256",
          "name": "",
          "type": "uint256"
        }
      ],
      "stateMutability": "view",
      "type": "function"
    },
    {
      "inputs": [
        {
          "internalType": "uint256",
          "name": "_bookingId",
          "type": "uint256"
        }
      ],
      "name": "getBookingEscrowInfo",
      "outputs": [
        {
          "internalType": "uint256",
          "name": "totalAmount",
          "type": "uint256"
        },
        {
          "internalType": "uint256",
          "name": "platformFee",
          "type": "uint256"
        },
        {
          "internalType": "uint256",
          "name": "hostAmount",
          "type": "uint256"
        },
        {
          "internalType": "bool",
          "name": "fundsReleased",
          "type": "bool"
        },
        {
          "internalType": "bool",
          "name": "canClaim",
          "type": "bool"
        }
      ],
      "stateMutability": "view",
      "type": "function"
    },
    {
      "inputs": [],
      "name": "getBookingsCount",
      "outputs": [
        {
          "internalType": "uint256",
          "name": "",
          "type": "uint256"
        }
      ],
      "stateMutability": "view",
      "type": "function"
    },
    {
      "inputs": [
        {
          "internalType": "address",
          "name": "_guest",
          "type": "address"
        }
      ],
      "name": "getGuestBookings",
      "outputs": [
        {
          "internalType": "uint256[]",
          "name": "",
          "type": "uint256[]"
        }
      ],
      "stateMutability": "view",
      "type": "function"
    },
    {
      "inputs": [
        {
          "internalType": "address",
          "name": "_host",
          "type": "address"
        }
      ],
      "name": "getHostBookings",
      "outputs": [
        {
          "internalType": "uint256[]",
          "name": "",
          "type": "uint256[]"
        }
      ],
      "stateMutability": "view",
      "type": "function"
    },
    {
      "inputs": [
        {
          "internalType": "uint256",
          "name": "_propertyId",
          "type": "uint256"
        }
      ],
      "name": "getPropertyBookings",
      "outputs": [
        {
          "internalType": "uint256[]",
          "name": "",
          "type": "uint256[]"
        }
      ],
      "stateMutability": "view",
      "type": "function"
    },
    {
      "inputs": [],
      "name": "getTotalPlatformFees",
      "outputs": [
        {
          "internalType": "uint256",
          "name": "",
          "type": "uint256"
        }
      ],
      "stateMutability": "view",
      "type": "function"
    },
    {
      "inputs": [
        {
          "internalType": "address",
          "name": "",
          "type": "address"
        },
        {
          "internalType": "uint256",
          "name": "",
          "type": "uint256"
        }
      ],
      "name": "guestBookings",
      "outputs": [
        {
          "internalType": "uint256",
          "name": "",
          "type": "uint256"
        }
      ],
      "stateMutability": "view",
      "type": "function"
    },
    {
      "inputs": [
        {
          "internalType": "address",
          "name": "",
          "type": "address"
        },
        {
          "internalType": "uint256",
          "name": "",
          "type": "uint256"
        }
      ],
      "name": "hostBookings",
      "outputs": [
        {
          "internalType": "uint256",
          "name": "",
          "type": "uint256"
        }
      ],
      "stateMutability": "view",
      "type": "function"
    },
    {
      "inputs": [
        {
          "internalType": "uint256",
          "name": "_propertyId",
          "type": "uint256"
        },
        {
          "internalType": "uint256",
          "name": "_checkIn",
          "type": "uint256"
        },
        {
          "internalType": "uint256",
          "name": "_checkOut",
          "type": "uint256"
        }
      ],
      "name": "isDateRangeAvailable",
      "outputs": [
        {
          "internalType": "bool",
          "name": "",
          "type": "bool"
        }
      ],
      "stateMutability": "view",
      "type": "function"
    },
    {
      "inputs": [
        {
          "internalType": "uint256",
          "name": "_propertyId",
          "type": "uint256"
        },
        {
          "internalType": "uint256",
          "name": "_checkIn",
          "type": "uint256"
        },
        {
          "internalType": "uint256",
          "name": "_checkOut",
          "type": "uint256"
        }
      ],
      "name": "isPropertyAvailable",
      "outputs": [
        {
          "internalType": "bool",
          "name": "",
          "type": "bool"
        }
      ],
      "stateMutability": "view",
      "type": "function"
    },
    {
      "inputs": [],
      "name": "nextBookingId",
      "outputs": [
        {
          "internalType": "uint256",
          "name": "",
          "type": "uint256"
        }
      ],
      "stateMutability": "view",
      "type": "function"
    },
    {
      "inputs": [],
      "name": "owner",
      "outputs": [
        {
          "internalType": "address",
          "name": "",
          "type": "address"
        }
      ],
      "stateMutability": "view",
      "type": "function"
    },
    {
      "inputs": [
        {
          "internalType": "string",
          "name": "",
          "type": "string"
        }
      ],
      "name": "paymentReferenceToBooking",
      "outputs": [
        {
          "internalType": "uint256",
          "name": "",
          "type": "uint256"
        }
      ],
      "stateMutability": "view",
      "type": "function"
    },
    {
      "inputs": [],
      "name": "platformFeeBasisPoints",
      "outputs": [
        {
          "internalType": "uint256",
          "name": "",
          "type": "uint256"
        }
      ],
      "stateMutability": "view",
      "type": "function"
    },
    {
      "inputs": [],
      "name": "platformWallet",
      "outputs": [
        {
          "internalType": "address",
          "name": "",
          "type": "address"
        }
      ],
      "stateMutability": "view",
      "type": "function"
    },
    {
      "inputs": [
        {
          "internalType": "uint256",
          "name": "",
          "type": "uint256"
        },
        {
          "internalType": "uint256",
          "name": "",
          "type": "uint256"
        }
      ],
      "name": "propertyDateBooked",
      "outputs": [
        {
          "internalType": "bool",
          "name": "",
          "type": "bool"
        }
      ],
      "stateMutability": "view",
      "type": "function"
    },
    {
      "inputs": [],
      "name": "propertyHosting",
      "outputs": [
        {
          "internalType": "contract PropertyHosting",
          "name": "",
          "type": "address"
        }
      ],
      "stateMutability": "view",
      "type": "function"
    },
    {
      "inputs": [
        {
          "internalType": "uint256",
          "name": "_bookingId",
          "type": "uint256"
        }
      ],
      "name": "refundGuest",
      "outputs": [],
      "stateMutability": "nonpayable",
      "type": "function"
    },
    {
      "inputs": [],
      "name": "renounceOwnership",
      "outputs": [],
      "stateMutability": "nonpayable",
      "type": "function"
    },
    {
      "inputs": [
        {
          "internalType": "uint256",
          "name": "_newFeeBasisPoints",
          "type": "uint256"
        }
      ],
      "name": "setPlatformFee",
      "outputs": [],
      "stateMutability": "nonpayable",
      "type": "function"
    },
    {
      "inputs": [
        {
          "internalType": "address",
          "name": "_newPlatformWallet",
          "type": "address"
        }
      ],
      "name": "setPlatformWallet",
      "outputs": [],
      "stateMutability": "nonpayable",
      "type": "function"
    },
    {
      "inputs": [],
      "name": "totalPlatformFees",
      "outputs": [
        {
          "internalType": "uint256",
          "name": "",
          "type": "uint256"
        }
      ],
      "stateMutability": "view",
      "type": "function"
    },
    {
      "inputs": [
        {
          "internalType": "address",
          "name": "newOwner",
          "type": "address"
        }
      ],
      "name": "transferOwnership",
      "outputs": [],
      "stateMutability": "nonpayable",
      "type": "function"
    },
    {
      "inputs": [],
      "name": "withdrawPlatformFees",
      "outputs": [],
      "stateMutability": "nonpayable",
      "type": "function"
    }
  ],
  "bytecode": "0x608034620000fc57601f62001f7b38819003918201601f19168301916001600160401b0383118484101762000101578084926040948552833981010312620000fc576200005a6020620000528362000117565b920162000117565b60016000553315620000e35760018054336001600160a01b031980831682179093556040519492936001600160a01b0393909284929083167f8be0079c531659141344cd1fd0a4f28419497f9722a3daafe3b4186f6b6457e0600080a3600160025561012c600955168360085416176008551690600a541617600a55611e4e90816200012d8239f35b604051631e4fbdf760e01b815260006004820152602490fd5b600080fd5b634e487b7160e01b600052604160045260246000fd5b51906001600160a01b0382168203620000fc5756fe608080604052600436101561001357600080fd5b60003560e01c9081630642f89e146118e657508063097b6be3146118205780630f8677981461017457806312e8e2c3146117b95780631dab301e146116d25780632026d98b146114ff57806322eb77ee14610d5e57806326f20c7914610d4057806331521d5714610521578063405505b114610cc857806354056b6914610bd057806363809aef14610b4c5780636a5c841a14610924578063715018a6146108c7578063794239cc1461089e5780638831e9cf146108115780638da5cb5b146107e8578063a41cfa691461079e578063a93db7d0146104db578063c58bfb6614610780578063d0b7830b1461071d578063d27d559f1461053f578063d3631fa514610521578063d8012a2a146104e0578063e834016e146104db578063eb79f2241461039e578063f2fde38b14610315578063f91f859a146102bd578063fa2af9da14610294578063fb152eb4146101d55763fe909cac1461017457600080fd5b346101d05760203660031901126101d0576004356001600160401b0381116101d0576101bd60206101aa819336906004016119b3565b81604051938285809451938492016119fa565b8101600781520301902054604051908152f35b600080fd5b346101d05760203660031901126101d05760043580151580610289575b6101fb90611c91565b600052600360205260a06040600020600681015490600781015490600881015460098201549260ff8460101c169260ff85169485610280575b85610271575b5084610262575b50604051948552602085015260408401521515606083015215156080820152f35b60040154421015935086610241565b60081c60ff161594508761023a565b84159550610234565b5060025481106101f2565b346101d05760003660031901126101d057600a546040516001600160a01b039091168152602090f35b346101d05760403660031901126101d0576102d6611b22565b6001600160a01b03166000908152600560205260409020805460243591908210156101d05760209161030791611b38565b90546040519160031b1c8152f35b346101d05760203660031901126101d05761032e611b22565b610336611b94565b6001600160a01b0390811690811561038557600154826001600160601b0360a01b821617600155167f8be0079c531659141344cd1fd0a4f28419497f9722a3daafe3b4186f6b6457e0600080a3005b604051631e4fbdf760e01b815260006004820152602490fd5b346101d05760203660031901126101d057600435801515806104d0575b6103c490611c91565b6103cc611b94565b6103d4611c6e565b806000526003602052604060002090600982015460ff8160101c166104925760081c60ff1615610441577f9ed4c791fe4fecb17bdfc7d28ed5925d2fb7719de842516ff7183221ad87a1786020600660018060a01b03600286015416940154604051908152a36001600055005b60405162461bcd60e51b815260206004820152602360248201527f426f6f6b696e67206d7573742062652063616e63656c6c656420746f207265666044820152621d5b9960ea1b6064820152608490fd5b60405162461bcd60e51b8152602060048201526016602482015275119d5b991cc8185b1c9958591e481c995b19585cd95960521b6044820152606490fd5b5060025481106103bb565b611b66565b346101d05760003660031901126101d057600254600019810190811161050b57602090604051908152f35b634e487b7160e01b600052601160045260246000fd5b346101d05760003660031901126101d0576020600b54604051908152f35b346101d05760403660031901126101d057602460043581356001600160401b0381116101d0576105739036906004016119b3565b81151580610712575b61058590611c91565b816000526020926003845260406000209060098201805460ff8160081c166106ce576002840154336001600160a01b03918216149081156106be575b501561066c5761ff00191661010017905560018201546004830154600590930154925b83811061062957604051878152339087907f91e5bffd4ffdc5b054ce786ea6269e6e8c1fe4bb5cdb4d14f249c1ec59e3908c9080610624818d018b611afd565b0390a3005b81600052600687526040600020816000528752604060002060ff198154169055620151808101809111156105e45782634e487b7160e01b60005260116004526000fd5b60405162461bcd60e51b8152600481018890526025818501527f4e6f7420617574686f72697a656420746f2063616e63656c207468697320626f6044820152646f6b696e6760d81b6064820152608490fd5b90506003850154163314886105c1565b60405162461bcd60e51b8152600481018890526019818501527f426f6f6b696e6720616c72656164792063616e63656c6c6564000000000000006044820152606490fd5b50600254821061057c565b346101d05760003660031901126101d057610736611b94565b600b5415610745576000600b55005b60405162461bcd60e51b81526020600482015260136024820152724e6f206665657320746f20776974686472617760681b6044820152606490fd5b346101d05760003660031901126101d0576020600954604051908152f35b346101d05760403660031901126101d0576107b7611b22565b6001600160a01b03166000908152600460205260409020805460243591908210156101d05760209161030791611b38565b346101d05760003660031901126101d0576001546040516001600160a01b039091168152602090f35b346101d05760203660031901126101d05761082a611b22565b610832611b94565b6001600160a01b03168015610859576001600160601b0360a01b600a541617600a55600080f35b60405162461bcd60e51b815260206004820152601760248201527f496e76616c696420706c6174666f726d2077616c6c65740000000000000000006044820152606490fd5b346101d05760003660031901126101d0576008546040516001600160a01b039091168152602090f35b346101d05760003660031901126101d0576108e0611b94565b600180546001600160a01b031981169091556000906001600160a01b03167f8be0079c531659141344cd1fd0a4f28419497f9722a3daafe3b4186f6b6457e08280a3005b346101d05760203660031901126101d05760606101a06040516109468161195b565b60008152600060208201526000604082015260008382015260006080820152600060a0820152600060c0820152600060e082015260006101008201526000610120820152600061014082015260006101608201526000610180820152015260043580151580610b41575b6109b990611c91565b60005260036020526101a06040600020610a7a600b604051926109db8461195b565b805484526001810154602085015260028101546001600160a01b039081166040860152600382015416606085015260048101546080850152600581015460a0850152600681015460c0850152600781015460e0850152600880820154610100860152600982015460ff81811615156101208801529181901c8216151561014087015260101c161515610160850152600a81015461018085015201611a57565b82820152610b3d60405192839260208452805160208501526020810151604085015260018060a01b03604082015116606085015260018060a01b036060820151166080850152608081015160a085015260a081015160c085015260c081015160e085015260e08101516101008501526101008101516101208501526101208101511515610140850152610140810151151561016085015261016081015115156101808501526101808101518285015201516101c0808401526101e0830190611afd565b0390f35b5060025481106109b0565b346101d0576020806003193601126101d0576001600160a01b03610b6e611b22565b1660005260048152604060002090604051908181845491828152019360005281600020916000905b828210610bb957610b3d85610bad81890382611977565b60405191829182611920565b835486529485019460019384019390910190610b96565b346101d05760203660031901126101d05760043580151580610cbd575b610bf690611c91565b806000526003602052610c1a60018060a01b03600360406000200154163314611cd6565b8060005260036020526009604060002001805460ff8116610c785780610c4860ff60019360081c1615611d19565b60ff191617905533907f32a6eab1f4a0177609cc24472e391822aae8a497472601ef3f98523b4bc7bd31600080a3005b60405162461bcd60e51b815260206004820152601960248201527f426f6f6b696e6720616c726561647920636f6e6669726d6564000000000000006044820152606490fd5b506002548110610bed565b346101d0576020806003193601126101d0576001600160a01b03610cea611b22565b1660005260058152604060002090604051908181845491828152019360005281600020916000905b828210610d2957610b3d85610bad81890382611977565b835486529485019460019384019390910190610d12565b346101d05760003660031901126101d0576020600254604051908152f35b346101d05760803660031901126101d0576064356001600160401b0381116101d057610d8e9036906004016119b3565b42602435106114ae57602435604435111561145b576301e13380610db6602435604435611bc0565b1161141657602490610dc6611c6e565b6008546040516332665ffb60e01b815260048035908201529260009184919082906001600160a01b03165afa91821561140a576000926112d3575b5060c0820151156112955760208201516001600160a01b03161561125057610e30604435602435600435611d5c565b1561120b57610e5562015180610e4a602435604435611bc0565b0460a0840151611c12565b80156111cd57612710610e6a60095483611c12565b0491610e768383611bc0565b6040516020818451610e8b81838589016119fa565b81016007815203019020546111885760025493610ea785611c25565b60025584600052600360205260406000208581556004356001820155600281016001600160601b0360a01b90338282541617905560018060a01b036020890151166003830191825416179055602435600482015560443560058201558460068201558160078201558260088201556009810162ffffff19815416905542600a82015583516001600160401b03811161117257610f46600b830154611a1d565b601f811161112b575b506020601f82116001146110be579080600b926000916110b3575b508160011b916000199060031b1c1916179101555b336000526004602052610f96856040600020611c34565b60018060a01b036020870151166000526005602052610fb9856040600020611c34565b6024355b604435811061106857506020958560405188818751610fdf8183858c016119fa565b81016007815203019020558660018060a01b0391015116936040519485526024358786015260443560408601526060850152608084015260a083015260e060c0830152827fcf9663afffe3119215af7b8329abc00c2e2bb74f559f37188e7193ebd58ec14a3393806110586004359560e0830190611afd565b0390a46001600055604051908152f35b60043560005260066020526040600020816000526020526040600020600160ff1982541617905562015180810180911115610fbd57634e487b7160e01b600052601160045260246000fd5b90508601518a610f6a565b600b830160005260206000209060005b601f1984168110611113575091600191600b9382601f198116106110fa575b5050811b01910155610f7f565b88015160001960f88460031b161c191690558a806110ed565b9091602060018192858b0151815501930191016110ce565b600b83016000526020600020601f830160051c81016020841061116b575b601f830160051c8201811061115f575050610f4f565b60008155600101611149565b5080611149565b634e487b7160e01b600052604160045260246000fd5b60405162461bcd60e51b815260206004820152601e60248201527f5061796d656e74207265666572656e636520616c7265616479207573656400006044820152606490fd5b60405162461bcd60e51b8152602060048201526016602482015275125b9d985b1a5908189bdbdada5b99c8185b5bdd5b9d60521b6044820152606490fd5b60405162461bcd60e51b815260206004820152601760248201527f446174657320617265206e6f7420617661696c61626c650000000000000000006044820152606490fd5b60405162461bcd60e51b815260206004820152601760248201527f50726f706572747920646f6573206e6f742065786973740000000000000000006044820152606490fd5b60405162461bcd60e51b815260206004820152601660248201527550726f7065727479206973206e6f742061637469766560501b6044820152606490fd5b9091503d806000833e6112e68183611977565b8101906020818303126101d0578051906001600160401b0382116101d05701906101209182818303126101d0576040519283018381106001600160401b03821117611172576040528051835260208101516001600160a01b03811681036101d057602084015260408101516001600160401b0381116101d0578261136b918301611bcd565b604084015260608101516001600160401b0381116101d0578261138f918301611bcd565b606084015260808101516001600160401b0381116101d057826113b3918301611bcd565b608084015260a081015160a084015260c081015180151581036101d05760c084015260e081015160e084015261010091828201516001600160401b0381116101d0576113ff9201611bcd565b908201529082610e01565b6040513d6000823e3d90fd5b60405162461bcd60e51b815260206004820152601b60248201527f537461792063616e6e6f742065786365656420333635206461797300000000006044820152606490fd5b60405162461bcd60e51b815260206004820152602560248201527f436865636b2d6f75742064617465206d7573742062652061667465722063686560448201526431b596b4b760d91b6064820152608490fd5b60405162461bcd60e51b815260206004820152602360248201527f436865636b2d696e2064617465206d75737420626520696e207468652066757460448201526275726560e81b6064820152608490fd5b346101d0576020806003193601126101d057600435801515806116c7575b61152690611c91565b806000526003825260018060a01b0361154a81600360406000200154163314611cd6565b611552611c6e565b816000526003835260406000209260098401805460ff8116156116825760ff8160101c166116455761158a60ff8260081c1615611d19565b600486015442106116005762ff00001916620100001790556007840154806115e9575b5060087f6e3c6096795c8298a218b2cfb8bde42726ff7c9a3d27b4d3ba41ab7f74feb5fb92600386015416940154604051908152a36001600055005b600b5490810180911161050b57600b5560086115ad565b60405162461bcd60e51b815260048101849052601c60248201527f43616e6e6f7420636c61696d206265666f726520636865636b2d696e000000006044820152606490fd5b60405162461bcd60e51b8152600481018490526015602482015274119d5b991cc8185b1c9958591e4818db185a5b5959605a1b6044820152606490fd5b60405162461bcd60e51b815260048101849052601960248201527f426f6f6b696e67206d75737420626520636f6e6669726d6564000000000000006044820152606490fd5b50600254811061151d565b346101d05760203660031901126101d057600435600052600360205260206040600020610b3d81549160018101549060ff60018060a01b0380600284015416906003840154166004840154600585015460068601549060078701549260088801549460098901549661174b600b600a8c01549b01611a57565b9a6040519e8f9e8f908152015260408d015260608c015260808b015260a08a015260c089015260e08801526101008701528181161515610120870152818160081c16151561014087015260101c1615156101608501526101808401526101c0806101a0850152830190611afd565b346101d05760203660031901126101d0576004356117d5611b94565b6103e881116117e357600955005b60405162461bcd60e51b81526020600482015260156024820152744665652063616e6e6f74206578636565642031302560581b6044820152606490fd5b346101d0576020806003193601126101d05760043590600254600019810181811161050b5761184e90611dd2565b92600092600190815b8481106118a657868661186981611dd2565b9160005b8281106118825760405180610b3d8682611920565b806118906118a19284611e04565b5161189b8287611e04565b52611c25565b61186d565b8060005260038252838360406000200154146118cb575b6118c690611c25565b611857565b946118de818761189b6118c6948b611e04565b9590506118bd565b346101d05760403660031901126101d057602090600435600052600682526040600020602435600052825260ff6040600020541615158152f35b6020908160408183019282815285518094520193019160005b828110611947575050505090565b835185529381019392810192600101611939565b6101c081019081106001600160401b0382111761117257604052565b90601f801991011681019081106001600160401b0382111761117257604052565b6001600160401b03811161117257601f01601f191660200190565b81601f820112156101d0578035906119ca82611998565b926119d86040519485611977565b828452602083830101116101d057816000926020809301838601378301015290565b60005b838110611a0d5750506000910152565b81810151838201526020016119fd565b90600182811c92168015611a4d575b6020831014611a3757565b634e487b7160e01b600052602260045260246000fd5b91607f1691611a2c565b9060405191826000825492611a6b84611a1d565b908184526001948581169081600014611ada5750600114611a97575b5050611a9592500383611977565b565b9093915060005260209081600020936000915b818310611ac2575050611a9593508201013880611a87565b85548884018501529485019487945091830191611aaa565b915050611a9594506020925060ff191682840152151560051b8201013880611a87565b90602091611b16815180928185528580860191016119fa565b601f01601f1916010190565b600435906001600160a01b03821682036101d057565b8054821015611b505760005260206000200190600090565b634e487b7160e01b600052603260045260246000fd5b346101d05760603660031901126101d0576020611b8a604435602435600435611d5c565b6040519015158152f35b6001546001600160a01b03163303611ba857565b60405163118cdaa760e01b8152336004820152602490fd5b9190820391821161050b57565b81601f820112156101d0578051611be381611998565b92611bf16040519485611977565b818452602082840101116101d057611c0f91602080850191016119fa565b90565b8181029291811591840414171561050b57565b600019811461050b5760010190565b80546801000000000000000081101561117257611c5691600182018155611b38565b819291549060031b91821b91600019901b1916179055565b600260005414611c7f576002600055565b604051633ee5aeb560e01b8152600490fd5b15611c9857565b60405162461bcd60e51b8152602060048201526016602482015275109bdbdada5b99c8191bd95cc81b9bdd08195e1a5cdd60521b6044820152606490fd5b15611cdd57565b60405162461bcd60e51b8152602060048201526014602482015273139bdd081d1a1948189bdbdada5b99c81a1bdcdd60621b6044820152606490fd5b15611d2057565b60405162461bcd60e51b8152602060048201526014602482015273109bdbdada5b99c81a5cc818d85b98d95b1b195960621b6044820152606490fd5b905b828110611d6d57505050600190565b600082815260ff602060068152604090818420908585525282205416611db457620151808201809211611da05750611d5e565b634e487b7160e01b81526011600452602490fd5b9250505090565b6001600160401b0381116111725760051b60200190565b90611ddc82611dbb565b611de96040519182611977565b8281528092611dfa601f1991611dbb565b0190602036910137565b8051821015611b505760209160051b01019056fea264697066735822122080378e0f4157821a009fd20621329e1e92b7be893669d3424d009147e6ff99aa64736f6c63430008140033",
  "linkReferences": {},
  "deployedLinkReferences": {}
}