{"contracts/PropertyHosting.sol":{"PropertyHosting":{"abi":[{"inputs":[],"stateMutability":"nonpayable","type":"constructor"},{"inputs":[{"internalType":"address","name":"owner","type":"address"}],"name":"OwnableInvalidOwner","type":"error"},{"inputs":[{"internalType":"address","name":"account","type":"address"}],"name":"OwnableUnauthorizedAccount","type":"error"},{"inputs":[],"name":"ReentrancyGuardReentrantCall","type":"error"},{"anonymous":false,"inputs":[{"indexed":true,"internalType":"address","name":"previousOwner","type":"address"},{"indexed":true,"internalType":"address","name":"newOwner","type":"address"}],"name":"OwnershipTransferred","type":"event"},{"anonymous":false,"inputs":[{"indexed":true,"internalType":"uint256","name":"propertyId","type":"uint256"},{"indexed":true,"internalType":"address","name":"host","type":"address"}],"name":"PropertyDeactivated","type":"event"},{"anonymous":false,"inputs":[{"indexed":true,"internalType":"uint256","name":"propertyId","type":"uint256"},{"indexed":true,"internalType":"address","name":"host","type":"address"},{"indexed":false,"internalType":"string","name":"name","type":"string"},{"indexed":false,"internalType":"uint256","name":"price","type":"uint256"}],"name":"PropertyListed","type":"event"},{"anonymous":false,"inputs":[{"indexed":true,"internalType":"uint256","name":"propertyId","type":"uint256"},{"indexed":true,"internalType":"address","name":"host","type":"address"}],"name":"PropertyUpdated","type":"event"},{"inputs":[{"internalType":"uint256","name":"","type":"uint256"}],"name":"allPropertyIds","outputs":[{"internalType":"uint256","name":"","type":"uint256"}],"stateMutability":"view","type":"function"},{"inputs":[{"internalType":"uint256","name":"_propertyId","type":"uint256"}],"name":"deactivateProperty","outputs":[],"stateMutability":"nonpayable","type":"function"},{"inputs":[],"name":"getActiveProperties","outputs":[{"internalType":"uint256[]","name":"","type":"uint256[]"}],"stateMutability":"view","type":"function"},{"inputs":[],"name":"getActivePropertiesCount","outputs":[{"internalType":"uint256","name":"","type":"uint256"}],"stateMutability":"view","type":"function"},{"inputs":[],"name":"getAllProperties","outputs":[{"internalType":"uint256[]","name":"","type":"uint256[]"}],"stateMutability":"view","type":"function"},{"inputs":[{"internalType":"address","name":"_host","type":"address"}],"name":"getHostProperties","outputs":[{"internalType":"uint256[]","name":"","type":"uint256[]"}],"stateMutability":"view","type":"function"},{"inputs":[],"name":"getPropertiesCount","outputs":[{"internalType":"uint256","name":"","type":"uint256"}],"stateMutability":"view","type":"function"},{"inputs":[{"internalType":"uint256","name":"_propertyId","type":"uint256"}],"name":"getProperty","outputs":[{"components":[{"internalType":"uint256","name":"id","type":"uint256"},{"internalType":"address","name":"host","type":"address"},{"internalType":"string","name":"name","type":"string"},{"internalType":"string","name":"description","type":"string"},{"internalType":"string","name":"location","type":"string"},{"internalType":"uint256","name":"pricePerNight","type":"uint256"},{"internalType":"bool","name":"isActive","type":"bool"},{"internalType":"uint256","name":"createdAt","type":"uint256"},{"internalType":"string","name":"imageHash","type":"string"}],"internalType":"struct PropertyHosting.Property","name":"","type":"tuple"}],"stateMutability":"view","type":"function"},{"inputs":[{"internalType":"address","name":"","type":"address"},{"internalType":"uint256","name":"","type":"uint256"}],"name":"hostProperties","outputs":[{"internalType":"uint256","name":"","type":"uint256"}],"stateMutability":"view","type":"function"},{"inputs":[{"internalType":"string","name":"_name","type":"string"},{"internalType":"string","name":"_description","type":"string"},{"internalType":"string","name":"_location","type":"string"},{"internalType":"uint256","name":"_pricePerNight","type":"uint256"},{"internalType":"string","name":"_imageHash","type":"string"}],"name":"listProperty","outputs":[{"internalType":"uint256","name":"","type":"uint256"}],"stateMutability":"nonpayable","type":"function"},{"inputs":[],"name":"nextPropertyId","outputs":[{"internalType":"uint256","name":"","type":"uint256"}],"stateMutability":"view","type":"function"},{"inputs":[],"name":"owner","outputs":[{"internalType":"address","name":"","type":"address"}],"stateMutability":"view","type":"function"},{"inputs":[{"internalType":"uint256","name":"","type":"uint256"}],"name":"properties","outputs":[{"internalType":"uint256","name":"id","type":"uint256"},{"internalType":"address","name":"host","type":"address"},{"internalType":"string","name":"name","type":"string"},{"internalType":"string","name":"description","type":"string"},{"internalType":"string","name":"location","type":"string"},{"internalType":"uint256","name":"pricePerNight","type":"uint256"},{"internalType":"bool","name":"isActive","type":"bool"},{"internalType":"uint256","name":"createdAt","type":"uint256"},{"internalType":"string","name":"imageHash","type":"string"}],"stateMutability":"view","type":"function"},{"inputs":[{"internalType":"uint256","name":"_propertyId","type":"uint256"}],"name":"reactivateProperty","outputs":[],"stateMutability":"nonpayable","type":"function"},{"inputs":[],"name":"renounceOwnership","outputs":[],"stateMutability":"nonpayable","type":"function"},{"inputs":[{"internalType":"address","name":"newOwner","type":"address"}],"name":"transferOwnership","outputs":[],"stateMutability":"nonpayable","type":"function"},{"inputs":[{"internalType":"uint256","name":"_propertyId","type":"uint256"},{"internalType":"string","name":"_name","type":"string"},{"internalType":"string","name":"_description","type":"string"},{"internalType":"string","name":"_location","type":"string"},{"internalType":"uint256","name":"_pricePerNight","type":"uint256"},{"internalType":"string","name":"_imageHash","type":"string"}],"name":"updateProperty","outputs":[],"stateMutability":"nonpayable","type":"function"}],"evm":{"bytecode":{"linkReferences":{},"object":"60808060405234610084576001600055331561006e5760018054336001600160a01b03198216811790925560405191906001600160a01b03167f8be0079c531659141344cd1fd0a4f28419497f9722a3daafe3b4186f6b6457e0600080a36001600255611af4908161008a8239f35b631e4fbdf760e01b815260006004820152602490fd5b600080fdfe608080604052600436101561001357600080fd5b60003560e01c908163174000bc146115d55750806332665ffb1461142b57806339500f341461140d578063396a6deb146113955780633d51402c1461130e578063473ce77014610cfc5780634efcaca514610cd3578063603ddf1114610c5d578063715018a614610c005780637ca28bc614610b0a5780638d82fada14610ab25780638da5cb5b14610a89578063b416eaa514610991578063bdcf79fe14610327578063eb81e09814610254578063f2fde38b146101c65763f7b10808146100da57600080fd5b346101c15760203660031901126101c1576004356000908152600360205260409020805460018201546001600160a01b0316916101bd9061011d600282016117b3565b610129600383016117b3565b91610136600482016117b3565b9261019d60058301549461018f60ff600686015416936101816101606008600789015498016117b3565b976040519c8d9c8d5260208d015260408c61012091829101528c01906115f0565b908a820360608c01526115f0565b9088820360808a01526115f0565b9360a0870152151560c086015260e08501528382036101008501526115f0565b0390f35b600080fd5b346101c15760203660031901126101c1576101df611630565b6101e7611859565b6001600160a01b0390811690811561023b57600154826bffffffffffffffffffffffff60a01b821617600155167f8be0079c531659141344cd1fd0a4f28419497f9722a3daafe3b4186f6b6457e0600080a3005b604051631e4fbdf760e01b815260006004820152602490fd5b346101c15760003660031901126101c15760055461027181611a78565b9060009060005b8181106102c757505061028a81611a78565b9160005b8281106102a357604051806101bd8682611646565b806102b16102c29284611aaa565b516102bc8287611aaa565b526119ac565b61028e565b6102d081611714565b9054600391821b1c6000528060205260ff600660406000200154166102ff575b506102fa906119ac565b610278565b8193610320916103116102fa94611714565b9054911b1c6102bc8288611aaa565b92906102f0565b346101c15760a03660031901126101c1576004356001600160401b0381116101c1576103579036906004016116be565b6024356001600160401b0381116101c1576103769036906004016116be565b6044356001600160401b0381116101c1576103959036906004016116be565b906084356001600160401b0381116101c1576103b59036906004016116be565b6103c184511515611885565b6103cd825115156118c8565b6103d983511515611914565b6103e66064351515611960565b600254926103f3846119ac565b60025583600052600360205260406000209284845560018401336bffffffffffffffffffffffff60a01b82541617905585516001600160401b03811161065d576104406002860154611779565b601f811161094a575b50806020601f82116001146108dd576000916108d2575b508160011b916000199060031b1c19161760028501555b8051906001600160401b03821161065d5781906104976003870154611779565b601f811161087f575b50602090601f831160011461080d57600092610802575b50508160011b916000199060031b1c19161760038401555b8051906001600160401b03821161065d5781906104ef6004860154611779565b601f81116107af575b50602090601f831160011461074257600092610737575b50508160011b916000199060031b1c19161760048301555b606435600583015560068201805460ff191660011790554260078301558051906001600160401b03821161065d576105626008840154611779565b601f81116106ec575b50602090601f831160011461067e576008929160009183610673575b50508160011b916000199060031b1c1916179101555b33600052600460205260406000209182549268010000000000000000938481101561065d576105d6816105ef9360018794018155611761565b90919082549060031b91821b91600019901b1916179055565b6005549283101561065d57610610826105d685600160209701600555611714565b817f4faf3c72065aaaddb6b745e48ea5a8933818b2a856fb6b21dd04b6ac9812b042610647604051936040855260408501906115f0565b92606435868201528033940390a3604051908152f35b634e487b7160e01b600052604160045260246000fd5b015190508680610587565b90601f198316916008850160005260206000209260005b8181106106d4575091600193918560089694106106bb575b505050811b0191015561059d565b015160001960f88460031b161c191690558680806106ad565b92936020600181928786015181550195019301610695565b600884016000526020600020601f840160051c8101916020851061072d575b601f0160051c01905b818110610721575061056b565b60008155600101610714565b909150819061070b565b01519050868061050f565b600486016000908152602081209350601f198516905b818110610797575090846001959493921061077e575b505050811b016004830155610527565b015160001960f88460031b161c1916905586808061076e565b92936020600181928786015181550195019301610758565b909150600485016000526020600020601f840160051c8101602085106107fb575b90849392915b601f830160051c820181106107ec5750506104f8565b600081558594506001016107d6565b50806107d0565b0151905087806104b7565b9250600386016000526020600020906000935b601f1984168510610864576001945083601f1981161061084b575b505050811b0160038401556104cf565b015160001960f88460031b161c1916905587808061083b565b81810151835560209485019460019093019290910190610820565b909150600386016000526020600020601f840160051c8101602085106108cb575b90849392915b601f830160051c820181106108bc5750506104a0565b600081558594506001016108a6565b50806108a0565b905087015188610460565b91506002860160005260206000206000925b601f1983168410610932576001935082601f19811610610919575b5050811b016002850155610477565b89015160001960f88460031b161c19169055888061090a565b898101518255602093840193600190920191016108ef565b600286016000526020600020601f830160051c81016020841061098a575b601f830160051c8201811061097e575050610449565b60008155600101610968565b5080610968565b346101c15760203660031901126101c15760043580151580610a7e575b6109b7906119d1565b8060005260036020526109db60018060a01b03600160406000200154163314611a1d565b80600052600360205260ff60066040600020015416610a39578060005260036020526006604060002001600160ff1982541617905533907f885782b6fe94c078f3ed4cb815a599a818040cc046f696e901a6b03df8dc917a600080a3005b60405162461bcd60e51b815260206004820152601760248201527f50726f706572747920616c7265616479206163746976650000000000000000006044820152606490fd5b5060025481106109ae565b346101c15760003660031901126101c1576001546040516001600160a01b039091168152602090f35b346101c15760403660031901126101c157610acb611630565b6001600160a01b03166000908152600460205260409020805460243591908210156101c157602091610afc91611761565b90546040519160031b1c8152f35b346101c15760203660031901126101c15760043580151580610bf5575b610b30906119d1565b806000526003602052610b5460018060a01b03600160406000200154163314611a1d565b80600052600360205260ff6006604060002001541615610bb057806000526003602052600660406000200160ff19815416905533907ff39d3b59eafc983e858c88044c0f5b4dab6f687310c0830e10d96f47c80eb902600080a3005b60405162461bcd60e51b815260206004820152601960248201527f50726f706572747920616c726561647920696e616374697665000000000000006044820152606490fd5b506002548110610b27565b346101c15760003660031901126101c157610c19611859565b600180546001600160a01b031981169091556000906001600160a01b03167f8be0079c531659141344cd1fd0a4f28419497f9722a3daafe3b4186f6b6457e08280a3005b346101c15760003660031901126101c157600080600554905b818110610c8857602083604051908152f35b610c9181611714565b9054600391821b1c60005260205260ff60066040600020015416610cbe575b610cb9906119ac565b610c76565b91610ccb610cb9916119ac565b929050610cb0565b346101c15760203660031901126101c1576004356005548110156101c157610afc602091611714565b346101c15760c03660031901126101c1576024356001600160401b0381116101c157610d2c9036906004016116be565b6044356001600160401b0381116101c157610d4b9036906004016116be565b906064356001600160401b0381116101c157610d6b9036906004016116be565b9060a4356001600160401b0381116101c157610d8b9036906004016116be565b91600435151580611301575b610da0906119d1565b6004356000526003602052610dc660018060a01b03600160406000200154163314611a1d565b600435600052600360205260ff60066040600020015416156112c357610dee82511515611885565b610dfa845115156118c8565b610e0681511515611914565b610e136084351515611960565b60043560005260036020526040600020918051906001600160401b03821161065d578190610e446002860154611779565b601f8111611270575b50602090601f83116001146111fe576000926111f3575b50508160011b916000199060031b1c19161760028301555b83516001600160401b03811161065d57610e996003840154611779565b601f81116111ac575b506020601f821160011461113d578192939495600092611132575b50508160011b916000199060031b1c19161760038301555b8051906001600160401b03821161065d57610ef36004840154611779565b601f81116110eb575b50602090601f831160011461107a5760089392916000918361106f575b50508160011b916000199060031b1c19161760048201555b60843560058201550181516001600160401b03811161065d57610f548254611779565b601f8111611027575b50602092601f8211600114610fc35792819293600092610fb8575b50508160011b916000199060031b1c19161790555b336004357f885782b6fe94c078f3ed4cb815a599a818040cc046f696e901a6b03df8dc917a600080a3005b015190508380610f78565b601f198216938360005260206000209160005b86811061100f5750836001959610610ff6575b505050811b019055610f8d565b015160001960f88460031b161c19169055838080610fe9565b91926020600181928685015181550194019201610fd6565b826000526020600020601f830160051c81019160208410611065575b601f0160051c01905b8181106110595750610f5d565b6000815560010161104c565b9091508190611043565b015190508580610f19565b90601f198316916004850160005260206000209260005b8181106110d357509160019391856008979694106110ba575b505050811b016004820155610f31565b015160001960f88460031b161c191690558580806110aa565b92936020600181928786015181550195019301611091565b600484016000526020600020601f840160051c81016020851061112b575b601f830160051c8201811061111f575050610efc565b60008155600101611109565b5080611109565b015190508580610ebd565b6003840160005260206000209060005b601f1984168110611194575060019394959683601f1981161061117b575b505050811b016003830155610ed5565b015160001960f88460031b161c1916905585808061116b565b9091602060018192858b01518155019301910161114d565b600384016000526020600020601f830160051c8101602084106111ec575b601f830160051c820181106111e0575050610ea2565b600081556001016111ca565b50806111ca565b015190508680610e64565b9250600285016000526020600020906000935b601f1984168510611255576001945083601f1981161061123c575b505050811b016002830155610e7c565b015160001960f88460031b161c1916905586808061122c565b81810151835560209485019460019093019290910190611211565b909150600285016000526020600020601f840160051c8101602085106112bc575b90849392915b601f830160051c820181106112ad575050610e4d565b60008155859450600101611297565b5080611291565b60405162461bcd60e51b815260206004820152601660248201527550726f7065727479206973206e6f742061637469766560501b6044820152606490fd5b5060025460043510610d97565b346101c15760003660031901126101c157604051806005549182815260208091019260056000527f036b6384b5eca791c62761152d0c79bb0604c104a5fb6f4eb0703f3154bb3db0916000905b82821061137e576101bd856113728189038261169d565b60405191829182611646565b83548652948501946001938401939091019061135b565b346101c1576020806003193601126101c1576001600160a01b036113b7611630565b1660005260048152604060002090604051908181845491828152019360005281600020916000905b8282106113f6576101bd856113728189038261169d565b8354865294850194600193840193909101906113df565b346101c15760003660031901126101c1576020600254604051908152f35b346101c1576020806003193601126101c1576004359060405161144d81611681565b600081526000828201526060928360408301528380830152836080830152600060a0830152600060c0830152600060e08301528361010080930152801515806115ca575b61149a906119d1565b600052600382526040600020604051936114b385611681565b8154855260018201546001600160a01b0390811685870190815290936114db600285016117b3565b60408801908152936114ef600382016117b3565b88850190815295611502600483016117b3565b60808a0190815260058301549660a08b01978852600684015460ff169260c08c01931515845260078501549460e08d01958652600801611541906117b3565b96868d019788528b6040519d8e9d8e5251908d0152511660408b01525161012080978b01526101408a01611574916115f0565b9751601f1998898b82030160808c015261158d916115f0565b905190888a82030160a08b01526115a3916115f0565b955160c089015251151560e08801525190860152519284830301908401526101bd916115f0565b506002548110611491565b346101c15760003660031901126101c1576020906005548152f35b919082519283825260005b84811061161c575050826000602080949584010152601f8019910116010190565b6020818301810151848301820152016115fb565b600435906001600160a01b03821682036101c157565b6020908160408183019282815285518094520193019160005b82811061166d575050505090565b83518552938101939281019260010161165f565b61012081019081106001600160401b0382111761065d57604052565b90601f801991011681019081106001600160401b0382111761065d57604052565b81601f820112156101c1578035906001600160401b03821161065d57604051926116f2601f8401601f19166020018561169d565b828452602083830101116101c157816000926020809301838601378301015290565b60055481101561174b5760056000527f036b6384b5eca791c62761152d0c79bb0604c104a5fb6f4eb0703f3154bb3db00190600090565b634e487b7160e01b600052603260045260246000fd5b805482101561174b5760005260206000200190600090565b90600182811c921680156117a9575b602083101461179357565b634e487b7160e01b600052602260045260246000fd5b91607f1691611788565b90604051918260008254926117c784611779565b90818452600194858116908160001461183657506001146117f3575b50506117f19250038361169d565b565b9093915060005260209081600020936000915b81831061181e5750506117f1935082010138806117e3565b85548884018501529485019487945091830191611806565b9150506117f194506020925060ff191682840152151560051b82010138806117e3565b6001546001600160a01b0316330361186d57565b60405163118cdaa760e01b8152336004820152602490fd5b1561188c57565b60405162461bcd60e51b81526020600482015260146024820152734e616d652063616e6e6f7420626520656d70747960601b6044820152606490fd5b156118cf57565b60405162461bcd60e51b815260206004820152601b60248201527f4465736372697074696f6e2063616e6e6f7420626520656d70747900000000006044820152606490fd5b1561191b57565b60405162461bcd60e51b815260206004820152601860248201527f4c6f636174696f6e2063616e6e6f7420626520656d70747900000000000000006044820152606490fd5b1561196757565b60405162461bcd60e51b815260206004820152601c60248201527f5072696365206d7573742062652067726561746572207468616e2030000000006044820152606490fd5b60001981146119bb5760010190565b634e487b7160e01b600052601160045260246000fd5b156119d857565b60405162461bcd60e51b815260206004820152601760248201527f50726f706572747920646f6573206e6f742065786973740000000000000000006044820152606490fd5b15611a2457565b60405162461bcd60e51b8152602060048201526015602482015274139bdd081d1a19481c1c9bdc195c9d1e481a1bdcdd605a1b6044820152606490fd5b6001600160401b03811161065d5760051b60200190565b90611a8282611a61565b611a8f604051918261169d565b8281528092611aa0601f1991611a61565b0190602036910137565b805182101561174b5760209160051b01019056fea264697066735822122011caf53bc3a7494104e32bc336a1cd2789e957897dcfa7db696ac48c37819e6b64736f6c63430008140033","opcodes":"PUSH1 0x80 DUP1 PUSH1 0x40 MSTORE CALLVALUE PUSH2 0x84 JUMPI PUSH1 0x1 PUSH1 0x0 SSTORE CALLER ISZERO PUSH2 0x6E JUMPI PUSH1 0x1 DUP1 SLOAD CALLER PUSH1 0x1 PUSH1 0x1 PUSH1 0xA0 SHL SUB NOT DUP3 AND DUP2 OR SWAP1 SWAP3 SSTORE PUSH1 0x40 MLOAD SWAP2 SWAP1 PUSH1 0x1 PUSH1 0x1 PUSH1 0xA0 SHL SUB AND PUSH32 0x8BE0079C531659141344CD1FD0A4F28419497F9722A3DAAFE3B4186F6B6457E0 PUSH1 0x0 DUP1 LOG3 PUSH1 0x1 PUSH1 0x2 SSTORE PUSH2 0x1AF4 SWAP1 DUP2 PUSH2 0x8A DUP3 CODECOPY RETURN JUMPDEST PUSH4 0x1E4FBDF7 PUSH1 0xE0 SHL DUP2 MSTORE PUSH1 0x0 PUSH1 0x4 DUP3 ADD MSTORE PUSH1 0x24 SWAP1 REVERT JUMPDEST PUSH1 0x0 DUP1 REVERT INVALID PUSH1 0x80 DUP1 PUSH1 0x40 MSTORE PUSH1 0x4 CALLDATASIZE LT ISZERO PUSH2 0x13 JUMPI PUSH1 0x0 DUP1 REVERT JUMPDEST PUSH1 0x0 CALLDATALOAD PUSH1 0xE0 SHR SWAP1 DUP2 PUSH4 0x174000BC EQ PUSH2 0x15D5 JUMPI POP DUP1 PUSH4 0x32665FFB EQ PUSH2 0x142B JUMPI DUP1 PUSH4 0x39500F34 EQ PUSH2 0x140D JUMPI DUP1 PUSH4 0x396A6DEB EQ PUSH2 0x1395 JUMPI DUP1 PUSH4 0x3D51402C EQ PUSH2 0x130E JUMPI DUP1 PUSH4 0x473CE770 EQ PUSH2 0xCFC JUMPI DUP1 PUSH4 0x4EFCACA5 EQ PUSH2 0xCD3 JUMPI DUP1 PUSH4 0x603DDF11 EQ PUSH2 0xC5D JUMPI DUP1 PUSH4 0x715018A6 EQ PUSH2 0xC00 JUMPI DUP1 PUSH4 0x7CA28BC6 EQ PUSH2 0xB0A JUMPI DUP1 PUSH4 0x8D82FADA EQ PUSH2 0xAB2 JUMPI DUP1 PUSH4 0x8DA5CB5B EQ PUSH2 0xA89 JUMPI DUP1 PUSH4 0xB416EAA5 EQ PUSH2 0x991 JUMPI DUP1 PUSH4 0xBDCF79FE EQ PUSH2 0x327 JUMPI DUP1 PUSH4 0xEB81E098 EQ PUSH2 0x254 JUMPI DUP1 PUSH4 0xF2FDE38B EQ PUSH2 0x1C6 JUMPI PUSH4 0xF7B10808 EQ PUSH2 0xDA JUMPI PUSH1 0x0 DUP1 REVERT JUMPDEST CALLVALUE PUSH2 0x1C1 JUMPI PUSH1 0x20 CALLDATASIZE PUSH1 0x3 NOT ADD SLT PUSH2 0x1C1 JUMPI PUSH1 0x4 CALLDATALOAD PUSH1 0x0 SWAP1 DUP2 MSTORE PUSH1 0x3 PUSH1 0x20 MSTORE PUSH1 0x40 SWAP1 KECCAK256 DUP1 SLOAD PUSH1 0x1 DUP3 ADD SLOAD PUSH1 0x1 PUSH1 0x1 PUSH1 0xA0 SHL SUB AND SWAP2 PUSH2 0x1BD SWAP1 PUSH2 0x11D PUSH1 0x2 DUP3 ADD PUSH2 0x17B3 JUMP JUMPDEST PUSH2 0x129 PUSH1 0x3 DUP4 ADD PUSH2 0x17B3 JUMP JUMPDEST SWAP2 PUSH2 0x136 PUSH1 0x4 DUP3 ADD PUSH2 0x17B3 JUMP JUMPDEST SWAP3 PUSH2 0x19D PUSH1 0x5 DUP4 ADD SLOAD SWAP5 PUSH2 0x18F PUSH1 0xFF PUSH1 0x6 DUP7 ADD SLOAD AND SWAP4 PUSH2 0x181 PUSH2 0x160 PUSH1 0x8 PUSH1 0x7 DUP10 ADD SLOAD SWAP9 ADD PUSH2 0x17B3 JUMP JUMPDEST SWAP8 PUSH1 0x40 MLOAD SWAP13 DUP14 SWAP13 DUP14 MSTORE PUSH1 0x20 DUP14 ADD MSTORE PUSH1 0x40 DUP13 PUSH2 0x120 SWAP2 DUP3 SWAP2 ADD MSTORE DUP13 ADD SWAP1 PUSH2 0x15F0 JUMP JUMPDEST SWAP1 DUP11 DUP3 SUB PUSH1 0x60 DUP13 ADD MSTORE PUSH2 0x15F0 JUMP JUMPDEST SWAP1 DUP9 DUP3 SUB PUSH1 0x80 DUP11 ADD MSTORE PUSH2 0x15F0 JUMP JUMPDEST SWAP4 PUSH1 0xA0 DUP8 ADD MSTORE ISZERO ISZERO PUSH1 0xC0 DUP7 ADD MSTORE PUSH1 0xE0 DUP6 ADD MSTORE DUP4 DUP3 SUB PUSH2 0x100 DUP6 ADD MSTORE PUSH2 0x15F0 JUMP JUMPDEST SUB SWAP1 RETURN JUMPDEST PUSH1 0x0 DUP1 REVERT JUMPDEST CALLVALUE PUSH2 0x1C1 JUMPI PUSH1 0x20 CALLDATASIZE PUSH1 0x3 NOT ADD SLT PUSH2 0x1C1 JUMPI PUSH2 0x1DF PUSH2 0x1630 JUMP JUMPDEST PUSH2 0x1E7 PUSH2 0x1859 JUMP JUMPDEST PUSH1 0x1 PUSH1 0x1 PUSH1 0xA0 SHL SUB SWAP1 DUP2 AND SWAP1 DUP2 ISZERO PUSH2 0x23B JUMPI PUSH1 0x1 SLOAD DUP3 PUSH12 0xFFFFFFFFFFFFFFFFFFFFFFFF PUSH1 0xA0 SHL DUP3 AND OR PUSH1 0x1 SSTORE AND PUSH32 0x8BE0079C531659141344CD1FD0A4F28419497F9722A3DAAFE3B4186F6B6457E0 PUSH1 0x0 DUP1 LOG3 STOP JUMPDEST PUSH1 0x40 MLOAD PUSH4 0x1E4FBDF7 PUSH1 0xE0 SHL DUP2 MSTORE PUSH1 0x0 PUSH1 0x4 DUP3 ADD MSTORE PUSH1 0x24 SWAP1 REVERT JUMPDEST CALLVALUE PUSH2 0x1C1 JUMPI PUSH1 0x0 CALLDATASIZE PUSH1 0x3 NOT ADD SLT PUSH2 0x1C1 JUMPI PUSH1 0x5 SLOAD PUSH2 0x271 DUP2 PUSH2 0x1A78 JUMP JUMPDEST SWAP1 PUSH1 0x0 SWAP1 PUSH1 0x0 JUMPDEST DUP2 DUP2 LT PUSH2 0x2C7 JUMPI POP POP PUSH2 0x28A DUP2 PUSH2 0x1A78 JUMP JUMPDEST SWAP2 PUSH1 0x0 JUMPDEST DUP3 DUP2 LT PUSH2 0x2A3 JUMPI PUSH1 0x40 MLOAD DUP1 PUSH2 0x1BD DUP7 DUP3 PUSH2 0x1646 JUMP JUMPDEST DUP1 PUSH2 0x2B1 PUSH2 0x2C2 SWAP3 DUP5 PUSH2 0x1AAA JUMP JUMPDEST MLOAD PUSH2 0x2BC DUP3 DUP8 PUSH2 0x1AAA JUMP JUMPDEST MSTORE PUSH2 0x19AC JUMP JUMPDEST PUSH2 0x28E JUMP JUMPDEST PUSH2 0x2D0 DUP2 PUSH2 0x1714 JUMP JUMPDEST SWAP1 SLOAD PUSH1 0x3 SWAP2 DUP3 SHL SHR PUSH1 0x0 MSTORE DUP1 PUSH1 0x20 MSTORE PUSH1 0xFF PUSH1 0x6 PUSH1 0x40 PUSH1 0x0 KECCAK256 ADD SLOAD AND PUSH2 0x2FF JUMPI JUMPDEST POP PUSH2 0x2FA SWAP1 PUSH2 0x19AC JUMP JUMPDEST PUSH2 0x278 JUMP JUMPDEST DUP2 SWAP4 PUSH2 0x320 SWAP2 PUSH2 0x311 PUSH2 0x2FA SWAP5 PUSH2 0x1714 JUMP JUMPDEST SWAP1 SLOAD SWAP2 SHL SHR PUSH2 0x2BC DUP3 DUP9 PUSH2 0x1AAA JUMP JUMPDEST SWAP3 SWAP1 PUSH2 0x2F0 JUMP JUMPDEST CALLVALUE PUSH2 0x1C1 JUMPI PUSH1 0xA0 CALLDATASIZE PUSH1 0x3 NOT ADD SLT PUSH2 0x1C1 JUMPI PUSH1 0x4 CALLDATALOAD PUSH1 0x1 PUSH1 0x1 PUSH1 0x40 SHL SUB DUP2 GT PUSH2 0x1C1 JUMPI PUSH2 0x357 SWAP1 CALLDATASIZE SWAP1 PUSH1 0x4 ADD PUSH2 0x16BE JUMP JUMPDEST PUSH1 0x24 CALLDATALOAD PUSH1 0x1 PUSH1 0x1 PUSH1 0x40 SHL SUB DUP2 GT PUSH2 0x1C1 JUMPI PUSH2 0x376 SWAP1 CALLDATASIZE SWAP1 PUSH1 0x4 ADD PUSH2 0x16BE JUMP JUMPDEST PUSH1 0x44 CALLDATALOAD PUSH1 0x1 PUSH1 0x1 PUSH1 0x40 SHL SUB DUP2 GT PUSH2 0x1C1 JUMPI PUSH2 0x395 SWAP1 CALLDATASIZE SWAP1 PUSH1 0x4 ADD PUSH2 0x16BE JUMP JUMPDEST SWAP1 PUSH1 0x84 CALLDATALOAD PUSH1 0x1 PUSH1 0x1 PUSH1 0x40 SHL SUB DUP2 GT PUSH2 0x1C1 JUMPI PUSH2 0x3B5 SWAP1 CALLDATASIZE SWAP1 PUSH1 0x4 ADD PUSH2 0x16BE JUMP JUMPDEST PUSH2 0x3C1 DUP5 MLOAD ISZERO ISZERO PUSH2 0x1885 JUMP JUMPDEST PUSH2 0x3CD DUP3 MLOAD ISZERO ISZERO PUSH2 0x18C8 JUMP JUMPDEST PUSH2 0x3D9 DUP4 MLOAD ISZERO ISZERO PUSH2 0x1914 JUMP JUMPDEST PUSH2 0x3E6 PUSH1 0x64 CALLDATALOAD ISZERO ISZERO PUSH2 0x1960 JUMP JUMPDEST PUSH1 0x2 SLOAD SWAP3 PUSH2 0x3F3 DUP5 PUSH2 0x19AC JUMP JUMPDEST PUSH1 0x2 SSTORE DUP4 PUSH1 0x0 MSTORE PUSH1 0x3 PUSH1 0x20 MSTORE PUSH1 0x40 PUSH1 0x0 KECCAK256 SWAP3 DUP5 DUP5 SSTORE PUSH1 0x1 DUP5 ADD CALLER PUSH12 0xFFFFFFFFFFFFFFFFFFFFFFFF PUSH1 0xA0 SHL DUP3 SLOAD AND OR SWAP1 SSTORE DUP6 MLOAD PUSH1 0x1 PUSH1 0x1 PUSH1 0x40 SHL SUB DUP2 GT PUSH2 0x65D JUMPI PUSH2 0x440 PUSH1 0x2 DUP7 ADD SLOAD PUSH2 0x1779 JUMP JUMPDEST PUSH1 0x1F DUP2 GT PUSH2 0x94A JUMPI JUMPDEST POP DUP1 PUSH1 0x20 PUSH1 0x1F DUP3 GT PUSH1 0x1 EQ PUSH2 0x8DD JUMPI PUSH1 0x0 SWAP2 PUSH2 0x8D2 JUMPI JUMPDEST POP DUP2 PUSH1 0x1 SHL SWAP2 PUSH1 0x0 NOT SWAP1 PUSH1 0x3 SHL SHR NOT AND OR PUSH1 0x2 DUP6 ADD SSTORE JUMPDEST DUP1 MLOAD SWAP1 PUSH1 0x1 PUSH1 0x1 PUSH1 0x40 SHL SUB DUP3 GT PUSH2 0x65D JUMPI DUP2 SWAP1 PUSH2 0x497 PUSH1 0x3 DUP8 ADD SLOAD PUSH2 0x1779 JUMP JUMPDEST PUSH1 0x1F DUP2 GT PUSH2 0x87F JUMPI JUMPDEST POP PUSH1 0x20 SWAP1 PUSH1 0x1F DUP4 GT PUSH1 0x1 EQ PUSH2 0x80D JUMPI PUSH1 0x0 SWAP3 PUSH2 0x802 JUMPI JUMPDEST POP POP DUP2 PUSH1 0x1 SHL SWAP2 PUSH1 0x0 NOT SWAP1 PUSH1 0x3 SHL SHR NOT AND OR PUSH1 0x3 DUP5 ADD SSTORE JUMPDEST DUP1 MLOAD SWAP1 PUSH1 0x1 PUSH1 0x1 PUSH1 0x40 SHL SUB DUP3 GT PUSH2 0x65D JUMPI DUP2 SWAP1 PUSH2 0x4EF PUSH1 0x4 DUP7 ADD SLOAD PUSH2 0x1779 JUMP JUMPDEST PUSH1 0x1F DUP2 GT PUSH2 0x7AF JUMPI JUMPDEST POP PUSH1 0x20 SWAP1 PUSH1 0x1F DUP4 GT PUSH1 0x1 EQ PUSH2 0x742 JUMPI PUSH1 0x0 SWAP3 PUSH2 0x737 JUMPI JUMPDEST POP POP DUP2 PUSH1 0x1 SHL SWAP2 PUSH1 0x0 NOT SWAP1 PUSH1 0x3 SHL SHR NOT AND OR PUSH1 0x4 DUP4 ADD SSTORE JUMPDEST PUSH1 0x64 CALLDATALOAD PUSH1 0x5 DUP4 ADD SSTORE PUSH1 0x6 DUP3 ADD DUP1 SLOAD PUSH1 0xFF NOT AND PUSH1 0x1 OR SWAP1 SSTORE TIMESTAMP PUSH1 0x7 DUP4 ADD SSTORE DUP1 MLOAD SWAP1 PUSH1 0x1 PUSH1 0x1 PUSH1 0x40 SHL SUB DUP3 GT PUSH2 0x65D JUMPI PUSH2 0x562 PUSH1 0x8 DUP5 ADD SLOAD PUSH2 0x1779 JUMP JUMPDEST PUSH1 0x1F DUP2 GT PUSH2 0x6EC JUMPI JUMPDEST POP PUSH1 0x20 SWAP1 PUSH1 0x1F DUP4 GT PUSH1 0x1 EQ PUSH2 0x67E JUMPI PUSH1 0x8 SWAP3 SWAP2 PUSH1 0x0 SWAP2 DUP4 PUSH2 0x673 JUMPI JUMPDEST POP POP DUP2 PUSH1 0x1 SHL SWAP2 PUSH1 0x0 NOT SWAP1 PUSH1 0x3 SHL SHR NOT AND OR SWAP2 ADD SSTORE JUMPDEST CALLER PUSH1 0x0 MSTORE PUSH1 0x4 PUSH1 0x20 MSTORE PUSH1 0x40 PUSH1 0x0 KECCAK256 SWAP2 DUP3 SLOAD SWAP3 PUSH9 0x10000000000000000 SWAP4 DUP5 DUP2 LT ISZERO PUSH2 0x65D JUMPI PUSH2 0x5D6 DUP2 PUSH2 0x5EF SWAP4 PUSH1 0x1 DUP8 SWAP5 ADD DUP2 SSTORE PUSH2 0x1761 JUMP JUMPDEST SWAP1 SWAP2 SWAP1 DUP3 SLOAD SWAP1 PUSH1 0x3 SHL SWAP2 DUP3 SHL SWAP2 PUSH1 0x0 NOT SWAP1 SHL NOT AND OR SWAP1 SSTORE JUMP JUMPDEST PUSH1 0x5 SLOAD SWAP3 DUP4 LT ISZERO PUSH2 0x65D JUMPI PUSH2 0x610 DUP3 PUSH2 0x5D6 DUP6 PUSH1 0x1 PUSH1 0x20 SWAP8 ADD PUSH1 0x5 SSTORE PUSH2 0x1714 JUMP JUMPDEST DUP2 PUSH32 0x4FAF3C72065AAADDB6B745E48EA5A8933818B2A856FB6B21DD04B6AC9812B042 PUSH2 0x647 PUSH1 0x40 MLOAD SWAP4 PUSH1 0x40 DUP6 MSTORE PUSH1 0x40 DUP6 ADD SWAP1 PUSH2 0x15F0 JUMP JUMPDEST SWAP3 PUSH1 0x64 CALLDATALOAD DUP7 DUP3 ADD MSTORE DUP1 CALLER SWAP5 SUB SWAP1 LOG3 PUSH1 0x40 MLOAD SWAP1 DUP2 MSTORE RETURN JUMPDEST PUSH4 0x4E487B71 PUSH1 0xE0 SHL PUSH1 0x0 MSTORE PUSH1 0x41 PUSH1 0x4 MSTORE PUSH1 0x24 PUSH1 0x0 REVERT JUMPDEST ADD MLOAD SWAP1 POP DUP7 DUP1 PUSH2 0x587 JUMP JUMPDEST SWAP1 PUSH1 0x1F NOT DUP4 AND SWAP2 PUSH1 0x8 DUP6 ADD PUSH1 0x0 MSTORE PUSH1 0x20 PUSH1 0x0 KECCAK256 SWAP3 PUSH1 0x0 JUMPDEST DUP2 DUP2 LT PUSH2 0x6D4 JUMPI POP SWAP2 PUSH1 0x1 SWAP4 SWAP2 DUP6 PUSH1 0x8 SWAP7 SWAP5 LT PUSH2 0x6BB JUMPI JUMPDEST POP POP POP DUP2 SHL ADD SWAP2 ADD SSTORE PUSH2 0x59D JUMP JUMPDEST ADD MLOAD PUSH1 0x0 NOT PUSH1 0xF8 DUP5 PUSH1 0x3 SHL AND SHR NOT AND SWAP1 SSTORE DUP7 DUP1 DUP1 PUSH2 0x6AD JUMP JUMPDEST SWAP3 SWAP4 PUSH1 0x20 PUSH1 0x1 DUP2 SWAP3 DUP8 DUP7 ADD MLOAD DUP2 SSTORE ADD SWAP6 ADD SWAP4 ADD PUSH2 0x695 JUMP JUMPDEST PUSH1 0x8 DUP5 ADD PUSH1 0x0 MSTORE PUSH1 0x20 PUSH1 0x0 KECCAK256 PUSH1 0x1F DUP5 ADD PUSH1 0x5 SHR DUP2 ADD SWAP2 PUSH1 0x20 DUP6 LT PUSH2 0x72D JUMPI JUMPDEST PUSH1 0x1F ADD PUSH1 0x5 SHR ADD SWAP1 JUMPDEST DUP2 DUP2 LT PUSH2 0x721 JUMPI POP PUSH2 0x56B JUMP JUMPDEST PUSH1 0x0 DUP2 SSTORE PUSH1 0x1 ADD PUSH2 0x714 JUMP JUMPDEST SWAP1 SWAP2 POP DUP2 SWAP1 PUSH2 0x70B JUMP JUMPDEST ADD MLOAD SWAP1 POP DUP7 DUP1 PUSH2 0x50F JUMP JUMPDEST PUSH1 0x4 DUP7 ADD PUSH1 0x0 SWAP1 DUP2 MSTORE PUSH1 0x20 DUP2 KECCAK256 SWAP4 POP PUSH1 0x1F NOT DUP6 AND SWAP1 JUMPDEST DUP2 DUP2 LT PUSH2 0x797 JUMPI POP SWAP1 DUP5 PUSH1 0x1 SWAP6 SWAP5 SWAP4 SWAP3 LT PUSH2 0x77E JUMPI JUMPDEST POP POP POP DUP2 SHL ADD PUSH1 0x4 DUP4 ADD SSTORE PUSH2 0x527 JUMP JUMPDEST ADD MLOAD PUSH1 0x0 NOT PUSH1 0xF8 DUP5 PUSH1 0x3 SHL AND SHR NOT AND SWAP1 SSTORE DUP7 DUP1 DUP1 PUSH2 0x76E JUMP JUMPDEST SWAP3 SWAP4 PUSH1 0x20 PUSH1 0x1 DUP2 SWAP3 DUP8 DUP7 ADD MLOAD DUP2 SSTORE ADD SWAP6 ADD SWAP4 ADD PUSH2 0x758 JUMP JUMPDEST SWAP1 SWAP2 POP PUSH1 0x4 DUP6 ADD PUSH1 0x0 MSTORE PUSH1 0x20 PUSH1 0x0 KECCAK256 PUSH1 0x1F DUP5 ADD PUSH1 0x5 SHR DUP2 ADD PUSH1 0x20 DUP6 LT PUSH2 0x7FB JUMPI JUMPDEST SWAP1 DUP5 SWAP4 SWAP3 SWAP2 JUMPDEST PUSH1 0x1F DUP4 ADD PUSH1 0x5 SHR DUP3 ADD DUP2 LT PUSH2 0x7EC JUMPI POP POP PUSH2 0x4F8 JUMP JUMPDEST PUSH1 0x0 DUP2 SSTORE DUP6 SWAP5 POP PUSH1 0x1 ADD PUSH2 0x7D6 JUMP JUMPDEST POP DUP1 PUSH2 0x7D0 JUMP JUMPDEST ADD MLOAD SWAP1 POP DUP8 DUP1 PUSH2 0x4B7 JUMP JUMPDEST SWAP3 POP PUSH1 0x3 DUP7 ADD PUSH1 0x0 MSTORE PUSH1 0x20 PUSH1 0x0 KECCAK256 SWAP1 PUSH1 0x0 SWAP4 JUMPDEST PUSH1 0x1F NOT DUP5 AND DUP6 LT PUSH2 0x864 JUMPI PUSH1 0x1 SWAP5 POP DUP4 PUSH1 0x1F NOT DUP2 AND LT PUSH2 0x84B JUMPI JUMPDEST POP POP POP DUP2 SHL ADD PUSH1 0x3 DUP5 ADD SSTORE PUSH2 0x4CF JUMP JUMPDEST ADD MLOAD PUSH1 0x0 NOT PUSH1 0xF8 DUP5 PUSH1 0x3 SHL AND SHR NOT AND SWAP1 SSTORE DUP8 DUP1 DUP1 PUSH2 0x83B JUMP JUMPDEST DUP2 DUP2 ADD MLOAD DUP4 SSTORE PUSH1 0x20 SWAP5 DUP6 ADD SWAP5 PUSH1 0x1 SWAP1 SWAP4 ADD SWAP3 SWAP1 SWAP2 ADD SWAP1 PUSH2 0x820 JUMP JUMPDEST SWAP1 SWAP2 POP PUSH1 0x3 DUP7 ADD PUSH1 0x0 MSTORE PUSH1 0x20 PUSH1 0x0 KECCAK256 PUSH1 0x1F DUP5 ADD PUSH1 0x5 SHR DUP2 ADD PUSH1 0x20 DUP6 LT PUSH2 0x8CB JUMPI JUMPDEST SWAP1 DUP5 SWAP4 SWAP3 SWAP2 JUMPDEST PUSH1 0x1F DUP4 ADD PUSH1 0x5 SHR DUP3 ADD DUP2 LT PUSH2 0x8BC JUMPI POP POP PUSH2 0x4A0 JUMP JUMPDEST PUSH1 0x0 DUP2 SSTORE DUP6 SWAP5 POP PUSH1 0x1 ADD PUSH2 0x8A6 JUMP JUMPDEST POP DUP1 PUSH2 0x8A0 JUMP JUMPDEST SWAP1 POP DUP8 ADD MLOAD DUP9 PUSH2 0x460 JUMP JUMPDEST SWAP2 POP PUSH1 0x2 DUP7 ADD PUSH1 0x0 MSTORE PUSH1 0x20 PUSH1 0x0 KECCAK256 PUSH1 0x0 SWAP3 JUMPDEST PUSH1 0x1F NOT DUP4 AND DUP5 LT PUSH2 0x932 JUMPI PUSH1 0x1 SWAP4 POP DUP3 PUSH1 0x1F NOT DUP2 AND LT PUSH2 0x919 JUMPI JUMPDEST POP POP DUP2 SHL ADD PUSH1 0x2 DUP6 ADD SSTORE PUSH2 0x477 JUMP JUMPDEST DUP10 ADD MLOAD PUSH1 0x0 NOT PUSH1 0xF8 DUP5 PUSH1 0x3 SHL AND SHR NOT AND SWAP1 SSTORE DUP9 DUP1 PUSH2 0x90A JUMP JUMPDEST DUP10 DUP2 ADD MLOAD DUP3 SSTORE PUSH1 0x20 SWAP4 DUP5 ADD SWAP4 PUSH1 0x1 SWAP1 SWAP3 ADD SWAP2 ADD PUSH2 0x8EF JUMP JUMPDEST PUSH1 0x2 DUP7 ADD PUSH1 0x0 MSTORE PUSH1 0x20 PUSH1 0x0 KECCAK256 PUSH1 0x1F DUP4 ADD PUSH1 0x5 SHR DUP2 ADD PUSH1 0x20 DUP5 LT PUSH2 0x98A JUMPI JUMPDEST PUSH1 0x1F DUP4 ADD PUSH1 0x5 SHR DUP3 ADD DUP2 LT PUSH2 0x97E JUMPI POP POP PUSH2 0x449 JUMP JUMPDEST PUSH1 0x0 DUP2 SSTORE PUSH1 0x1 ADD PUSH2 0x968 JUMP JUMPDEST POP DUP1 PUSH2 0x968 JUMP JUMPDEST CALLVALUE PUSH2 0x1C1 JUMPI PUSH1 0x20 CALLDATASIZE PUSH1 0x3 NOT ADD SLT PUSH2 0x1C1 JUMPI PUSH1 0x4 CALLDATALOAD DUP1 ISZERO ISZERO DUP1 PUSH2 0xA7E JUMPI JUMPDEST PUSH2 0x9B7 SWAP1 PUSH2 0x19D1 JUMP JUMPDEST DUP1 PUSH1 0x0 MSTORE PUSH1 0x3 PUSH1 0x20 MSTORE PUSH2 0x9DB PUSH1 0x1 DUP1 PUSH1 0xA0 SHL SUB PUSH1 0x1 PUSH1 0x40 PUSH1 0x0 KECCAK256 ADD SLOAD AND CALLER EQ PUSH2 0x1A1D JUMP JUMPDEST DUP1 PUSH1 0x0 MSTORE PUSH1 0x3 PUSH1 0x20 MSTORE PUSH1 0xFF PUSH1 0x6 PUSH1 0x40 PUSH1 0x0 KECCAK256 ADD SLOAD AND PUSH2 0xA39 JUMPI DUP1 PUSH1 0x0 MSTORE PUSH1 0x3 PUSH1 0x20 MSTORE PUSH1 0x6 PUSH1 0x40 PUSH1 0x0 KECCAK256 ADD PUSH1 0x1 PUSH1 0xFF NOT DUP3 SLOAD AND OR SWAP1 SSTORE CALLER SWAP1 PUSH32 0x885782B6FE94C078F3ED4CB815A599A818040CC046F696E901A6B03DF8DC917A PUSH1 0x0 DUP1 LOG3 STOP JUMPDEST PUSH1 0x40 MLOAD PUSH3 0x461BCD PUSH1 0xE5 SHL DUP2 MSTORE PUSH1 0x20 PUSH1 0x4 DUP3 ADD MSTORE PUSH1 0x17 PUSH1 0x24 DUP3 ADD MSTORE PUSH32 0x50726F706572747920616C726561647920616374697665000000000000000000 PUSH1 0x44 DUP3 ADD MSTORE PUSH1 0x64 SWAP1 REVERT JUMPDEST POP PUSH1 0x2 SLOAD DUP2 LT PUSH2 0x9AE JUMP JUMPDEST CALLVALUE PUSH2 0x1C1 JUMPI PUSH1 0x0 CALLDATASIZE PUSH1 0x3 NOT ADD SLT PUSH2 0x1C1 JUMPI PUSH1 0x1 SLOAD PUSH1 0x40 MLOAD PUSH1 0x1 PUSH1 0x1 PUSH1 0xA0 SHL SUB SWAP1 SWAP2 AND DUP2 MSTORE PUSH1 0x20 SWAP1 RETURN JUMPDEST CALLVALUE PUSH2 0x1C1 JUMPI PUSH1 0x40 CALLDATASIZE PUSH1 0x3 NOT ADD SLT PUSH2 0x1C1 JUMPI PUSH2 0xACB PUSH2 0x1630 JUMP JUMPDEST PUSH1 0x1 PUSH1 0x1 PUSH1 0xA0 SHL SUB AND PUSH1 0x0 SWAP1 DUP2 MSTORE PUSH1 0x4 PUSH1 0x20 MSTORE PUSH1 0x40 SWAP1 KECCAK256 DUP1 SLOAD PUSH1 0x24 CALLDATALOAD SWAP2 SWAP1 DUP3 LT ISZERO PUSH2 0x1C1 JUMPI PUSH1 0x20 SWAP2 PUSH2 0xAFC SWAP2 PUSH2 0x1761 JUMP JUMPDEST SWAP1 SLOAD PUSH1 0x40 MLOAD SWAP2 PUSH1 0x3 SHL SHR DUP2 MSTORE RETURN JUMPDEST CALLVALUE PUSH2 0x1C1 JUMPI PUSH1 0x20 CALLDATASIZE PUSH1 0x3 NOT ADD SLT PUSH2 0x1C1 JUMPI PUSH1 0x4 CALLDATALOAD DUP1 ISZERO ISZERO DUP1 PUSH2 0xBF5 JUMPI JUMPDEST PUSH2 0xB30 SWAP1 PUSH2 0x19D1 JUMP JUMPDEST DUP1 PUSH1 0x0 MSTORE PUSH1 0x3 PUSH1 0x20 MSTORE PUSH2 0xB54 PUSH1 0x1 DUP1 PUSH1 0xA0 SHL SUB PUSH1 0x1 PUSH1 0x40 PUSH1 0x0 KECCAK256 ADD SLOAD AND CALLER EQ PUSH2 0x1A1D JUMP JUMPDEST DUP1 PUSH1 0x0 MSTORE PUSH1 0x3 PUSH1 0x20 MSTORE PUSH1 0xFF PUSH1 0x6 PUSH1 0x40 PUSH1 0x0 KECCAK256 ADD SLOAD AND ISZERO PUSH2 0xBB0 JUMPI DUP1 PUSH1 0x0 MSTORE PUSH1 0x3 PUSH1 0x20 MSTORE PUSH1 0x6 PUSH1 0x40 PUSH1 0x0 KECCAK256 ADD PUSH1 0xFF NOT DUP2 SLOAD AND SWAP1 SSTORE CALLER SWAP1 PUSH32 0xF39D3B59EAFC983E858C88044C0F5B4DAB6F687310C0830E10D96F47C80EB902 PUSH1 0x0 DUP1 LOG3 STOP JUMPDEST PUSH1 0x40 MLOAD PUSH3 0x461BCD PUSH1 0xE5 SHL DUP2 MSTORE PUSH1 0x20 PUSH1 0x4 DUP3 ADD MSTORE PUSH1 0x19 PUSH1 0x24 DUP3 ADD MSTORE PUSH32 0x50726F706572747920616C726561647920696E61637469766500000000000000 PUSH1 0x44 DUP3 ADD MSTORE PUSH1 0x64 SWAP1 REVERT JUMPDEST POP PUSH1 0x2 SLOAD DUP2 LT PUSH2 0xB27 JUMP JUMPDEST CALLVALUE PUSH2 0x1C1 JUMPI PUSH1 0x0 CALLDATASIZE PUSH1 0x3 NOT ADD SLT PUSH2 0x1C1 JUMPI PUSH2 0xC19 PUSH2 0x1859 JUMP JUMPDEST PUSH1 0x1 DUP1 SLOAD PUSH1 0x1 PUSH1 0x1 PUSH1 0xA0 SHL SUB NOT DUP2 AND SWAP1 SWAP2 SSTORE PUSH1 0x0 SWAP1 PUSH1 0x1 PUSH1 0x1 PUSH1 0xA0 SHL SUB AND PUSH32 0x8BE0079C531659141344CD1FD0A4F28419497F9722A3DAAFE3B4186F6B6457E0 DUP3 DUP1 LOG3 STOP JUMPDEST CALLVALUE PUSH2 0x1C1 JUMPI PUSH1 0x0 CALLDATASIZE PUSH1 0x3 NOT ADD SLT PUSH2 0x1C1 JUMPI PUSH1 0x0 DUP1 PUSH1 0x5 SLOAD SWAP1 JUMPDEST DUP2 DUP2 LT PUSH2 0xC88 JUMPI PUSH1 0x20 DUP4 PUSH1 0x40 MLOAD SWAP1 DUP2 MSTORE RETURN JUMPDEST PUSH2 0xC91 DUP2 PUSH2 0x1714 JUMP JUMPDEST SWAP1 SLOAD PUSH1 0x3 SWAP2 DUP3 SHL SHR PUSH1 0x0 MSTORE PUSH1 0x20 MSTORE PUSH1 0xFF PUSH1 0x6 PUSH1 0x40 PUSH1 0x0 KECCAK256 ADD SLOAD AND PUSH2 0xCBE JUMPI JUMPDEST PUSH2 0xCB9 SWAP1 PUSH2 0x19AC JUMP JUMPDEST PUSH2 0xC76 JUMP JUMPDEST SWAP2 PUSH2 0xCCB PUSH2 0xCB9 SWAP2 PUSH2 0x19AC JUMP JUMPDEST SWAP3 SWAP1 POP PUSH2 0xCB0 JUMP JUMPDEST CALLVALUE PUSH2 0x1C1 JUMPI PUSH1 0x20 CALLDATASIZE PUSH1 0x3 NOT ADD SLT PUSH2 0x1C1 JUMPI PUSH1 0x4 CALLDATALOAD PUSH1 0x5 SLOAD DUP2 LT ISZERO PUSH2 0x1C1 JUMPI PUSH2 0xAFC PUSH1 0x20 SWAP2 PUSH2 0x1714 JUMP JUMPDEST CALLVALUE PUSH2 0x1C1 JUMPI PUSH1 0xC0 CALLDATASIZE PUSH1 0x3 NOT ADD SLT PUSH2 0x1C1 JUMPI PUSH1 0x24 CALLDATALOAD PUSH1 0x1 PUSH1 0x1 PUSH1 0x40 SHL SUB DUP2 GT PUSH2 0x1C1 JUMPI PUSH2 0xD2C SWAP1 CALLDATASIZE SWAP1 PUSH1 0x4 ADD PUSH2 0x16BE JUMP JUMPDEST PUSH1 0x44 CALLDATALOAD PUSH1 0x1 PUSH1 0x1 PUSH1 0x40 SHL SUB DUP2 GT PUSH2 0x1C1 JUMPI PUSH2 0xD4B SWAP1 CALLDATASIZE SWAP1 PUSH1 0x4 ADD PUSH2 0x16BE JUMP JUMPDEST SWAP1 PUSH1 0x64 CALLDATALOAD PUSH1 0x1 PUSH1 0x1 PUSH1 0x40 SHL SUB DUP2 GT PUSH2 0x1C1 JUMPI PUSH2 0xD6B SWAP1 CALLDATASIZE SWAP1 PUSH1 0x4 ADD PUSH2 0x16BE JUMP JUMPDEST SWAP1 PUSH1 0xA4 CALLDATALOAD PUSH1 0x1 PUSH1 0x1 PUSH1 0x40 SHL SUB DUP2 GT PUSH2 0x1C1 JUMPI PUSH2 0xD8B SWAP1 CALLDATASIZE SWAP1 PUSH1 0x4 ADD PUSH2 0x16BE JUMP JUMPDEST SWAP2 PUSH1 0x4 CALLDATALOAD ISZERO ISZERO DUP1 PUSH2 0x1301 JUMPI JUMPDEST PUSH2 0xDA0 SWAP1 PUSH2 0x19D1 JUMP JUMPDEST PUSH1 0x4 CALLDATALOAD PUSH1 0x0 MSTORE PUSH1 0x3 PUSH1 0x20 MSTORE PUSH2 0xDC6 PUSH1 0x1 DUP1 PUSH1 0xA0 SHL SUB PUSH1 0x1 PUSH1 0x40 PUSH1 0x0 KECCAK256 ADD SLOAD AND CALLER EQ PUSH2 0x1A1D JUMP JUMPDEST PUSH1 0x4 CALLDATALOAD PUSH1 0x0 MSTORE PUSH1 0x3 PUSH1 0x20 MSTORE PUSH1 0xFF PUSH1 0x6 PUSH1 0x40 PUSH1 0x0 KECCAK256 ADD SLOAD AND ISZERO PUSH2 0x12C3 JUMPI PUSH2 0xDEE DUP3 MLOAD ISZERO ISZERO PUSH2 0x1885 JUMP JUMPDEST PUSH2 0xDFA DUP5 MLOAD ISZERO ISZERO PUSH2 0x18C8 JUMP JUMPDEST PUSH2 0xE06 DUP2 MLOAD ISZERO ISZERO PUSH2 0x1914 JUMP JUMPDEST PUSH2 0xE13 PUSH1 0x84 CALLDATALOAD ISZERO ISZERO PUSH2 0x1960 JUMP JUMPDEST PUSH1 0x4 CALLDATALOAD PUSH1 0x0 MSTORE PUSH1 0x3 PUSH1 0x20 MSTORE PUSH1 0x40 PUSH1 0x0 KECCAK256 SWAP2 DUP1 MLOAD SWAP1 PUSH1 0x1 PUSH1 0x1 PUSH1 0x40 SHL SUB DUP3 GT PUSH2 0x65D JUMPI DUP2 SWAP1 PUSH2 0xE44 PUSH1 0x2 DUP7 ADD SLOAD PUSH2 0x1779 JUMP JUMPDEST PUSH1 0x1F DUP2 GT PUSH2 0x1270 JUMPI JUMPDEST POP PUSH1 0x20 SWAP1 PUSH1 0x1F DUP4 GT PUSH1 0x1 EQ PUSH2 0x11FE JUMPI PUSH1 0x0 SWAP3 PUSH2 0x11F3 JUMPI JUMPDEST POP POP DUP2 PUSH1 0x1 SHL SWAP2 PUSH1 0x0 NOT SWAP1 PUSH1 0x3 SHL SHR NOT AND OR PUSH1 0x2 DUP4 ADD SSTORE JUMPDEST DUP4 MLOAD PUSH1 0x1 PUSH1 0x1 PUSH1 0x40 SHL SUB DUP2 GT PUSH2 0x65D JUMPI PUSH2 0xE99 PUSH1 0x3 DUP5 ADD SLOAD PUSH2 0x1779 JUMP JUMPDEST PUSH1 0x1F DUP2 GT PUSH2 0x11AC JUMPI JUMPDEST POP PUSH1 0x20 PUSH1 0x1F DUP3 GT PUSH1 0x1 EQ PUSH2 0x113D JUMPI DUP2 SWAP3 SWAP4 SWAP5 SWAP6 PUSH1 0x0 SWAP3 PUSH2 0x1132 JUMPI JUMPDEST POP POP DUP2 PUSH1 0x1 SHL SWAP2 PUSH1 0x0 NOT SWAP1 PUSH1 0x3 SHL SHR NOT AND OR PUSH1 0x3 DUP4 ADD SSTORE JUMPDEST DUP1 MLOAD SWAP1 PUSH1 0x1 PUSH1 0x1 PUSH1 0x40 SHL SUB DUP3 GT PUSH2 0x65D JUMPI PUSH2 0xEF3 PUSH1 0x4 DUP5 ADD SLOAD PUSH2 0x1779 JUMP JUMPDEST PUSH1 0x1F DUP2 GT PUSH2 0x10EB JUMPI JUMPDEST POP PUSH1 0x20 SWAP1 PUSH1 0x1F DUP4 GT PUSH1 0x1 EQ PUSH2 0x107A JUMPI PUSH1 0x8 SWAP4 SWAP3 SWAP2 PUSH1 0x0 SWAP2 DUP4 PUSH2 0x106F JUMPI JUMPDEST POP POP DUP2 PUSH1 0x1 SHL SWAP2 PUSH1 0x0 NOT SWAP1 PUSH1 0x3 SHL SHR NOT AND OR PUSH1 0x4 DUP3 ADD SSTORE JUMPDEST PUSH1 0x84 CALLDATALOAD PUSH1 0x5 DUP3 ADD SSTORE ADD DUP2 MLOAD PUSH1 0x1 PUSH1 0x1 PUSH1 0x40 SHL SUB DUP2 GT PUSH2 0x65D JUMPI PUSH2 0xF54 DUP3 SLOAD PUSH2 0x1779 JUMP JUMPDEST PUSH1 0x1F DUP2 GT PUSH2 0x1027 JUMPI JUMPDEST POP PUSH1 0x20 SWAP3 PUSH1 0x1F DUP3 GT PUSH1 0x1 EQ PUSH2 0xFC3 JUMPI SWAP3 DUP2 SWAP3 SWAP4 PUSH1 0x0 SWAP3 PUSH2 0xFB8 JUMPI JUMPDEST POP POP DUP2 PUSH1 0x1 SHL SWAP2 PUSH1 0x0 NOT SWAP1 PUSH1 0x3 SHL SHR NOT AND OR SWAP1 SSTORE JUMPDEST CALLER PUSH1 0x4 CALLDATALOAD PUSH32 0x885782B6FE94C078F3ED4CB815A599A818040CC046F696E901A6B03DF8DC917A PUSH1 0x0 DUP1 LOG3 STOP JUMPDEST ADD MLOAD SWAP1 POP DUP4 DUP1 PUSH2 0xF78 JUMP JUMPDEST PUSH1 0x1F NOT DUP3 AND SWAP4 DUP4 PUSH1 0x0 MSTORE PUSH1 0x20 PUSH1 0x0 KECCAK256 SWAP2 PUSH1 0x0 JUMPDEST DUP7 DUP2 LT PUSH2 0x100F JUMPI POP DUP4 PUSH1 0x1 SWAP6 SWAP7 LT PUSH2 0xFF6 JUMPI JUMPDEST POP POP POP DUP2 SHL ADD SWAP1 SSTORE PUSH2 0xF8D JUMP JUMPDEST ADD MLOAD PUSH1 0x0 NOT PUSH1 0xF8 DUP5 PUSH1 0x3 SHL AND SHR NOT AND SWAP1 SSTORE DUP4 DUP1 DUP1 PUSH2 0xFE9 JUMP JUMPDEST SWAP2 SWAP3 PUSH1 0x20 PUSH1 0x1 DUP2 SWAP3 DUP7 DUP6 ADD MLOAD DUP2 SSTORE ADD SWAP5 ADD SWAP3 ADD PUSH2 0xFD6 JUMP JUMPDEST DUP3 PUSH1 0x0 MSTORE PUSH1 0x20 PUSH1 0x0 KECCAK256 PUSH1 0x1F DUP4 ADD PUSH1 0x5 SHR DUP2 ADD SWAP2 PUSH1 0x20 DUP5 LT PUSH2 0x1065 JUMPI JUMPDEST PUSH1 0x1F ADD PUSH1 0x5 SHR ADD SWAP1 JUMPDEST DUP2 DUP2 LT PUSH2 0x1059 JUMPI POP PUSH2 0xF5D JUMP JUMPDEST PUSH1 0x0 DUP2 SSTORE PUSH1 0x1 ADD PUSH2 0x104C JUMP JUMPDEST SWAP1 SWAP2 POP DUP2 SWAP1 PUSH2 0x1043 JUMP JUMPDEST ADD MLOAD SWAP1 POP DUP6 DUP1 PUSH2 0xF19 JUMP JUMPDEST SWAP1 PUSH1 0x1F NOT DUP4 AND SWAP2 PUSH1 0x4 DUP6 ADD PUSH1 0x0 MSTORE PUSH1 0x20 PUSH1 0x0 KECCAK256 SWAP3 PUSH1 0x0 JUMPDEST DUP2 DUP2 LT PUSH2 0x10D3 JUMPI POP SWAP2 PUSH1 0x1 SWAP4 SWAP2 DUP6 PUSH1 0x8 SWAP8 SWAP7 SWAP5 LT PUSH2 0x10BA JUMPI JUMPDEST POP POP POP DUP2 SHL ADD PUSH1 0x4 DUP3 ADD SSTORE PUSH2 0xF31 JUMP JUMPDEST ADD MLOAD PUSH1 0x0 NOT PUSH1 0xF8 DUP5 PUSH1 0x3 SHL AND SHR NOT AND SWAP1 SSTORE DUP6 DUP1 DUP1 PUSH2 0x10AA JUMP JUMPDEST SWAP3 SWAP4 PUSH1 0x20 PUSH1 0x1 DUP2 SWAP3 DUP8 DUP7 ADD MLOAD DUP2 SSTORE ADD SWAP6 ADD SWAP4 ADD PUSH2 0x1091 JUMP JUMPDEST PUSH1 0x4 DUP5 ADD PUSH1 0x0 MSTORE PUSH1 0x20 PUSH1 0x0 KECCAK256 PUSH1 0x1F DUP5 ADD PUSH1 0x5 SHR DUP2 ADD PUSH1 0x20 DUP6 LT PUSH2 0x112B JUMPI JUMPDEST PUSH1 0x1F DUP4 ADD PUSH1 0x5 SHR DUP3 ADD DUP2 LT PUSH2 0x111F JUMPI POP POP PUSH2 0xEFC JUMP JUMPDEST PUSH1 0x0 DUP2 SSTORE PUSH1 0x1 ADD PUSH2 0x1109 JUMP JUMPDEST POP DUP1 PUSH2 0x1109 JUMP JUMPDEST ADD MLOAD SWAP1 POP DUP6 DUP1 PUSH2 0xEBD JUMP JUMPDEST PUSH1 0x3 DUP5 ADD PUSH1 0x0 MSTORE PUSH1 0x20 PUSH1 0x0 KECCAK256 SWAP1 PUSH1 0x0 JUMPDEST PUSH1 0x1F NOT DUP5 AND DUP2 LT PUSH2 0x1194 JUMPI POP PUSH1 0x1 SWAP4 SWAP5 SWAP6 SWAP7 DUP4 PUSH1 0x1F NOT DUP2 AND LT PUSH2 0x117B JUMPI JUMPDEST POP POP POP DUP2 SHL ADD PUSH1 0x3 DUP4 ADD SSTORE PUSH2 0xED5 JUMP JUMPDEST ADD MLOAD PUSH1 0x0 NOT PUSH1 0xF8 DUP5 PUSH1 0x3 SHL AND SHR NOT AND SWAP1 SSTORE DUP6 DUP1 DUP1 PUSH2 0x116B JUMP JUMPDEST SWAP1 SWAP2 PUSH1 0x20 PUSH1 0x1 DUP2 SWAP3 DUP6 DUP12 ADD MLOAD DUP2 SSTORE ADD SWAP4 ADD SWAP2 ADD PUSH2 0x114D JUMP JUMPDEST PUSH1 0x3 DUP5 ADD PUSH1 0x0 MSTORE PUSH1 0x20 PUSH1 0x0 KECCAK256 PUSH1 0x1F DUP4 ADD PUSH1 0x5 SHR DUP2 ADD PUSH1 0x20 DUP5 LT PUSH2 0x11EC JUMPI JUMPDEST PUSH1 0x1F DUP4 ADD PUSH1 0x5 SHR DUP3 ADD DUP2 LT PUSH2 0x11E0 JUMPI POP POP PUSH2 0xEA2 JUMP JUMPDEST PUSH1 0x0 DUP2 SSTORE PUSH1 0x1 ADD PUSH2 0x11CA JUMP JUMPDEST POP DUP1 PUSH2 0x11CA JUMP JUMPDEST ADD MLOAD SWAP1 POP DUP7 DUP1 PUSH2 0xE64 JUMP JUMPDEST SWAP3 POP PUSH1 0x2 DUP6 ADD PUSH1 0x0 MSTORE PUSH1 0x20 PUSH1 0x0 KECCAK256 SWAP1 PUSH1 0x0 SWAP4 JUMPDEST PUSH1 0x1F NOT DUP5 AND DUP6 LT PUSH2 0x1255 JUMPI PUSH1 0x1 SWAP5 POP DUP4 PUSH1 0x1F NOT DUP2 AND LT PUSH2 0x123C JUMPI JUMPDEST POP POP POP DUP2 SHL ADD PUSH1 0x2 DUP4 ADD SSTORE PUSH2 0xE7C JUMP JUMPDEST ADD MLOAD PUSH1 0x0 NOT PUSH1 0xF8 DUP5 PUSH1 0x3 SHL AND SHR NOT AND SWAP1 SSTORE DUP7 DUP1 DUP1 PUSH2 0x122C JUMP JUMPDEST DUP2 DUP2 ADD MLOAD DUP4 SSTORE PUSH1 0x20 SWAP5 DUP6 ADD SWAP5 PUSH1 0x1 SWAP1 SWAP4 ADD SWAP3 SWAP1 SWAP2 ADD SWAP1 PUSH2 0x1211 JUMP JUMPDEST SWAP1 SWAP2 POP PUSH1 0x2 DUP6 ADD PUSH1 0x0 MSTORE PUSH1 0x20 PUSH1 0x0 KECCAK256 PUSH1 0x1F DUP5 ADD PUSH1 0x5 SHR DUP2 ADD PUSH1 0x20 DUP6 LT PUSH2 0x12BC JUMPI JUMPDEST SWAP1 DUP5 SWAP4 SWAP3 SWAP2 JUMPDEST PUSH1 0x1F DUP4 ADD PUSH1 0x5 SHR DUP3 ADD DUP2 LT PUSH2 0x12AD JUMPI POP POP PUSH2 0xE4D JUMP JUMPDEST PUSH1 0x0 DUP2 SSTORE DUP6 SWAP5 POP PUSH1 0x1 ADD PUSH2 0x1297 JUMP JUMPDEST POP DUP1 PUSH2 0x1291 JUMP JUMPDEST PUSH1 0x40 MLOAD PUSH3 0x461BCD PUSH1 0xE5 SHL DUP2 MSTORE PUSH1 0x20 PUSH1 0x4 DUP3 ADD MSTORE PUSH1 0x16 PUSH1 0x24 DUP3 ADD MSTORE PUSH22 0x50726F7065727479206973206E6F7420616374697665 PUSH1 0x50 SHL PUSH1 0x44 DUP3 ADD MSTORE PUSH1 0x64 SWAP1 REVERT JUMPDEST POP PUSH1 0x2 SLOAD PUSH1 0x4 CALLDATALOAD LT PUSH2 0xD97 JUMP JUMPDEST CALLVALUE PUSH2 0x1C1 JUMPI PUSH1 0x0 CALLDATASIZE PUSH1 0x3 NOT ADD SLT PUSH2 0x1C1 JUMPI PUSH1 0x40 MLOAD DUP1 PUSH1 0x5 SLOAD SWAP2 DUP3 DUP2 MSTORE PUSH1 0x20 DUP1 SWAP2 ADD SWAP3 PUSH1 0x5 PUSH1 0x0 MSTORE PUSH32 0x36B6384B5ECA791C62761152D0C79BB0604C104A5FB6F4EB0703F3154BB3DB0 SWAP2 PUSH1 0x0 SWAP1 JUMPDEST DUP3 DUP3 LT PUSH2 0x137E JUMPI PUSH2 0x1BD DUP6 PUSH2 0x1372 DUP2 DUP10 SUB DUP3 PUSH2 0x169D JUMP JUMPDEST PUSH1 0x40 MLOAD SWAP2 DUP3 SWAP2 DUP3 PUSH2 0x1646 JUMP JUMPDEST DUP4 SLOAD DUP7 MSTORE SWAP5 DUP6 ADD SWAP5 PUSH1 0x1 SWAP4 DUP5 ADD SWAP4 SWAP1 SWAP2 ADD SWAP1 PUSH2 0x135B JUMP JUMPDEST CALLVALUE PUSH2 0x1C1 JUMPI PUSH1 0x20 DUP1 PUSH1 0x3 NOT CALLDATASIZE ADD SLT PUSH2 0x1C1 JUMPI PUSH1 0x1 PUSH1 0x1 PUSH1 0xA0 SHL SUB PUSH2 0x13B7 PUSH2 0x1630 JUMP JUMPDEST AND PUSH1 0x0 MSTORE PUSH1 0x4 DUP2 MSTORE PUSH1 0x40 PUSH1 0x0 KECCAK256 SWAP1 PUSH1 0x40 MLOAD SWAP1 DUP2 DUP2 DUP5 SLOAD SWAP2 DUP3 DUP2 MSTORE ADD SWAP4 PUSH1 0x0 MSTORE DUP2 PUSH1 0x0 KECCAK256 SWAP2 PUSH1 0x0 SWAP1 JUMPDEST DUP3 DUP3 LT PUSH2 0x13F6 JUMPI PUSH2 0x1BD DUP6 PUSH2 0x1372 DUP2 DUP10 SUB DUP3 PUSH2 0x169D JUMP JUMPDEST DUP4 SLOAD DUP7 MSTORE SWAP5 DUP6 ADD SWAP5 PUSH1 0x1 SWAP4 DUP5 ADD SWAP4 SWAP1 SWAP2 ADD SWAP1 PUSH2 0x13DF JUMP JUMPDEST CALLVALUE PUSH2 0x1C1 JUMPI PUSH1 0x0 CALLDATASIZE PUSH1 0x3 NOT ADD SLT PUSH2 0x1C1 JUMPI PUSH1 0x20 PUSH1 0x2 SLOAD PUSH1 0x40 MLOAD SWAP1 DUP2 MSTORE RETURN JUMPDEST CALLVALUE PUSH2 0x1C1 JUMPI PUSH1 0x20 DUP1 PUSH1 0x3 NOT CALLDATASIZE ADD SLT PUSH2 0x1C1 JUMPI PUSH1 0x4 CALLDATALOAD SWAP1 PUSH1 0x40 MLOAD PUSH2 0x144D DUP2 PUSH2 0x1681 JUMP JUMPDEST PUSH1 0x0 DUP2 MSTORE PUSH1 0x0 DUP3 DUP3 ADD MSTORE PUSH1 0x60 SWAP3 DUP4 PUSH1 0x40 DUP4 ADD MSTORE DUP4 DUP1 DUP4 ADD MSTORE DUP4 PUSH1 0x80 DUP4 ADD MSTORE PUSH1 0x0 PUSH1 0xA0 DUP4 ADD MSTORE PUSH1 0x0 PUSH1 0xC0 DUP4 ADD MSTORE PUSH1 0x0 PUSH1 0xE0 DUP4 ADD MSTORE DUP4 PUSH2 0x100 DUP1 SWAP4 ADD MSTORE DUP1 ISZERO ISZERO DUP1 PUSH2 0x15CA JUMPI JUMPDEST PUSH2 0x149A SWAP1 PUSH2 0x19D1 JUMP JUMPDEST PUSH1 0x0 MSTORE PUSH1 0x3 DUP3 MSTORE PUSH1 0x40 PUSH1 0x0 KECCAK256 PUSH1 0x40 MLOAD SWAP4 PUSH2 0x14B3 DUP6 PUSH2 0x1681 JUMP JUMPDEST DUP2 SLOAD DUP6 MSTORE PUSH1 0x1 DUP3 ADD SLOAD PUSH1 0x1 PUSH1 0x1 PUSH1 0xA0 SHL SUB SWAP1 DUP2 AND DUP6 DUP8 ADD SWAP1 DUP2 MSTORE SWAP1 SWAP4 PUSH2 0x14DB PUSH1 0x2 DUP6 ADD PUSH2 0x17B3 JUMP JUMPDEST PUSH1 0x40 DUP9 ADD SWAP1 DUP2 MSTORE SWAP4 PUSH2 0x14EF PUSH1 0x3 DUP3 ADD PUSH2 0x17B3 JUMP JUMPDEST DUP9 DUP6 ADD SWAP1 DUP2 MSTORE SWAP6 PUSH2 0x1502 PUSH1 0x4 DUP4 ADD PUSH2 0x17B3 JUMP JUMPDEST PUSH1 0x80 DUP11 ADD SWAP1 DUP2 MSTORE PUSH1 0x5 DUP4 ADD SLOAD SWAP7 PUSH1 0xA0 DUP12 ADD SWAP8 DUP9 MSTORE PUSH1 0x6 DUP5 ADD SLOAD PUSH1 0xFF AND SWAP3 PUSH1 0xC0 DUP13 ADD SWAP4 ISZERO ISZERO DUP5 MSTORE PUSH1 0x7 DUP6 ADD SLOAD SWAP5 PUSH1 0xE0 DUP14 ADD SWAP6 DUP7 MSTORE PUSH1 0x8 ADD PUSH2 0x1541 SWAP1 PUSH2 0x17B3 JUMP JUMPDEST SWAP7 DUP7 DUP14 ADD SWAP8 DUP9 MSTORE DUP12 PUSH1 0x40 MLOAD SWAP14 DUP15 SWAP14 DUP15 MSTORE MLOAD SWAP1 DUP14 ADD MSTORE MLOAD AND PUSH1 0x40 DUP12 ADD MSTORE MLOAD PUSH2 0x120 DUP1 SWAP8 DUP12 ADD MSTORE PUSH2 0x140 DUP11 ADD PUSH2 0x1574 SWAP2 PUSH2 0x15F0 JUMP JUMPDEST SWAP8 MLOAD PUSH1 0x1F NOT SWAP9 DUP10 DUP12 DUP3 SUB ADD PUSH1 0x80 DUP13 ADD MSTORE PUSH2 0x158D SWAP2 PUSH2 0x15F0 JUMP JUMPDEST SWAP1 MLOAD SWAP1 DUP9 DUP11 DUP3 SUB ADD PUSH1 0xA0 DUP12 ADD MSTORE PUSH2 0x15A3 SWAP2 PUSH2 0x15F0 JUMP JUMPDEST SWAP6 MLOAD PUSH1 0xC0 DUP10 ADD MSTORE MLOAD ISZERO ISZERO PUSH1 0xE0 DUP9 ADD MSTORE MLOAD SWAP1 DUP7 ADD MSTORE MLOAD SWAP3 DUP5 DUP4 SUB ADD SWAP1 DUP5 ADD MSTORE PUSH2 0x1BD SWAP2 PUSH2 0x15F0 JUMP JUMPDEST POP PUSH1 0x2 SLOAD DUP2 LT PUSH2 0x1491 JUMP JUMPDEST CALLVALUE PUSH2 0x1C1 JUMPI PUSH1 0x0 CALLDATASIZE PUSH1 0x3 NOT ADD SLT PUSH2 0x1C1 JUMPI PUSH1 0x20 SWAP1 PUSH1 0x5 SLOAD DUP2 MSTORE RETURN JUMPDEST SWAP2 SWAP1 DUP3 MLOAD SWAP3 DUP4 DUP3 MSTORE PUSH1 0x0 JUMPDEST DUP5 DUP2 LT PUSH2 0x161C JUMPI POP POP DUP3 PUSH1 0x0 PUSH1 0x20 DUP1 SWAP5 SWAP6 DUP5 ADD ADD MSTORE PUSH1 0x1F DUP1 NOT SWAP2 ADD AND ADD ADD SWAP1 JUMP JUMPDEST PUSH1 0x20 DUP2 DUP4 ADD DUP2 ADD MLOAD DUP5 DUP4 ADD DUP3 ADD MSTORE ADD PUSH2 0x15FB JUMP JUMPDEST PUSH1 0x4 CALLDATALOAD SWAP1 PUSH1 0x1 PUSH1 0x1 PUSH1 0xA0 SHL SUB DUP3 AND DUP3 SUB PUSH2 0x1C1 JUMPI JUMP JUMPDEST PUSH1 0x20 SWAP1 DUP2 PUSH1 0x40 DUP2 DUP4 ADD SWAP3 DUP3 DUP2 MSTORE DUP6 MLOAD DUP1 SWAP5 MSTORE ADD SWAP4 ADD SWAP2 PUSH1 0x0 JUMPDEST DUP3 DUP2 LT PUSH2 0x166D JUMPI POP POP POP POP SWAP1 JUMP JUMPDEST DUP4 MLOAD DUP6 MSTORE SWAP4 DUP2 ADD SWAP4 SWAP3 DUP2 ADD SWAP3 PUSH1 0x1 ADD PUSH2 0x165F JUMP JUMPDEST PUSH2 0x120 DUP2 ADD SWAP1 DUP2 LT PUSH1 0x1 PUSH1 0x1 PUSH1 0x40 SHL SUB DUP3 GT OR PUSH2 0x65D JUMPI PUSH1 0x40 MSTORE JUMP JUMPDEST SWAP1 PUSH1 0x1F DUP1 NOT SWAP2 ADD AND DUP2 ADD SWAP1 DUP2 LT PUSH1 0x1 PUSH1 0x1 PUSH1 0x40 SHL SUB DUP3 GT OR PUSH2 0x65D JUMPI PUSH1 0x40 MSTORE JUMP JUMPDEST DUP2 PUSH1 0x1F DUP3 ADD SLT ISZERO PUSH2 0x1C1 JUMPI DUP1 CALLDATALOAD SWAP1 PUSH1 0x1 PUSH1 0x1 PUSH1 0x40 SHL SUB DUP3 GT PUSH2 0x65D JUMPI PUSH1 0x40 MLOAD SWAP3 PUSH2 0x16F2 PUSH1 0x1F DUP5 ADD PUSH1 0x1F NOT AND PUSH1 0x20 ADD DUP6 PUSH2 0x169D JUMP JUMPDEST DUP3 DUP5 MSTORE PUSH1 0x20 DUP4 DUP4 ADD ADD GT PUSH2 0x1C1 JUMPI DUP2 PUSH1 0x0 SWAP3 PUSH1 0x20 DUP1 SWAP4 ADD DUP4 DUP7 ADD CALLDATACOPY DUP4 ADD ADD MSTORE SWAP1 JUMP JUMPDEST PUSH1 0x5 SLOAD DUP2 LT ISZERO PUSH2 0x174B JUMPI PUSH1 0x5 PUSH1 0x0 MSTORE PUSH32 0x36B6384B5ECA791C62761152D0C79BB0604C104A5FB6F4EB0703F3154BB3DB0 ADD SWAP1 PUSH1 0x0 SWAP1 JUMP JUMPDEST PUSH4 0x4E487B71 PUSH1 0xE0 SHL PUSH1 0x0 MSTORE PUSH1 0x32 PUSH1 0x4 MSTORE PUSH1 0x24 PUSH1 0x0 REVERT JUMPDEST DUP1 SLOAD DUP3 LT ISZERO PUSH2 0x174B JUMPI PUSH1 0x0 MSTORE PUSH1 0x20 PUSH1 0x0 KECCAK256 ADD SWAP1 PUSH1 0x0 SWAP1 JUMP JUMPDEST SWAP1 PUSH1 0x1 DUP3 DUP2 SHR SWAP3 AND DUP1 ISZERO PUSH2 0x17A9 JUMPI JUMPDEST PUSH1 0x20 DUP4 LT EQ PUSH2 0x1793 JUMPI JUMP JUMPDEST PUSH4 0x4E487B71 PUSH1 0xE0 SHL PUSH1 0x0 MSTORE PUSH1 0x22 PUSH1 0x4 MSTORE PUSH1 0x24 PUSH1 0x0 REVERT JUMPDEST SWAP2 PUSH1 0x7F AND SWAP2 PUSH2 0x1788 JUMP JUMPDEST SWAP1 PUSH1 0x40 MLOAD SWAP2 DUP3 PUSH1 0x0 DUP3 SLOAD SWAP3 PUSH2 0x17C7 DUP5 PUSH2 0x1779 JUMP JUMPDEST SWAP1 DUP2 DUP5 MSTORE PUSH1 0x1 SWAP5 DUP6 DUP2 AND SWAP1 DUP2 PUSH1 0x0 EQ PUSH2 0x1836 JUMPI POP PUSH1 0x1 EQ PUSH2 0x17F3 JUMPI JUMPDEST POP POP PUSH2 0x17F1 SWAP3 POP SUB DUP4 PUSH2 0x169D JUMP JUMPDEST JUMP JUMPDEST SWAP1 SWAP4 SWAP2 POP PUSH1 0x0 MSTORE PUSH1 0x20 SWAP1 DUP2 PUSH1 0x0 KECCAK256 SWAP4 PUSH1 0x0 SWAP2 JUMPDEST DUP2 DUP4 LT PUSH2 0x181E JUMPI POP POP PUSH2 0x17F1 SWAP4 POP DUP3 ADD ADD CODESIZE DUP1 PUSH2 0x17E3 JUMP JUMPDEST DUP6 SLOAD DUP9 DUP5 ADD DUP6 ADD MSTORE SWAP5 DUP6 ADD SWAP5 DUP8 SWAP5 POP SWAP2 DUP4 ADD SWAP2 PUSH2 0x1806 JUMP JUMPDEST SWAP2 POP POP PUSH2 0x17F1 SWAP5 POP PUSH1 0x20 SWAP3 POP PUSH1 0xFF NOT AND DUP3 DUP5 ADD MSTORE ISZERO ISZERO PUSH1 0x5 SHL DUP3 ADD ADD CODESIZE DUP1 PUSH2 0x17E3 JUMP JUMPDEST PUSH1 0x1 SLOAD PUSH1 0x1 PUSH1 0x1 PUSH1 0xA0 SHL SUB AND CALLER SUB PUSH2 0x186D JUMPI JUMP JUMPDEST PUSH1 0x40 MLOAD PUSH4 0x118CDAA7 PUSH1 0xE0 SHL DUP2 MSTORE CALLER PUSH1 0x4 DUP3 ADD MSTORE PUSH1 0x24 SWAP1 REVERT JUMPDEST ISZERO PUSH2 0x188C JUMPI JUMP JUMPDEST PUSH1 0x40 MLOAD PUSH3 0x461BCD PUSH1 0xE5 SHL DUP2 MSTORE PUSH1 0x20 PUSH1 0x4 DUP3 ADD MSTORE PUSH1 0x14 PUSH1 0x24 DUP3 ADD MSTORE PUSH20 0x4E616D652063616E6E6F7420626520656D707479 PUSH1 0x60 SHL PUSH1 0x44 DUP3 ADD MSTORE PUSH1 0x64 SWAP1 REVERT JUMPDEST ISZERO PUSH2 0x18CF JUMPI JUMP JUMPDEST PUSH1 0x40 MLOAD PUSH3 0x461BCD PUSH1 0xE5 SHL DUP2 MSTORE PUSH1 0x20 PUSH1 0x4 DUP3 ADD MSTORE PUSH1 0x1B PUSH1 0x24 DUP3 ADD MSTORE PUSH32 0x4465736372697074696F6E2063616E6E6F7420626520656D7074790000000000 PUSH1 0x44 DUP3 ADD MSTORE PUSH1 0x64 SWAP1 REVERT JUMPDEST ISZERO PUSH2 0x191B JUMPI JUMP JUMPDEST PUSH1 0x40 MLOAD PUSH3 0x461BCD PUSH1 0xE5 SHL DUP2 MSTORE PUSH1 0x20 PUSH1 0x4 DUP3 ADD MSTORE PUSH1 0x18 PUSH1 0x24 DUP3 ADD MSTORE PUSH32 0x4C6F636174696F6E2063616E6E6F7420626520656D7074790000000000000000 PUSH1 0x44 DUP3 ADD MSTORE PUSH1 0x64 SWAP1 REVERT JUMPDEST ISZERO PUSH2 0x1967 JUMPI JUMP JUMPDEST PUSH1 0x40 MLOAD PUSH3 0x461BCD PUSH1 0xE5 SHL DUP2 MSTORE PUSH1 0x20 PUSH1 0x4 DUP3 ADD MSTORE PUSH1 0x1C PUSH1 0x24 DUP3 ADD MSTORE PUSH32 0x5072696365206D7573742062652067726561746572207468616E203000000000 PUSH1 0x44 DUP3 ADD MSTORE PUSH1 0x64 SWAP1 REVERT JUMPDEST PUSH1 0x0 NOT DUP2 EQ PUSH2 0x19BB JUMPI PUSH1 0x1 ADD SWAP1 JUMP JUMPDEST PUSH4 0x4E487B71 PUSH1 0xE0 SHL PUSH1 0x0 MSTORE PUSH1 0x11 PUSH1 0x4 MSTORE PUSH1 0x24 PUSH1 0x0 REVERT JUMPDEST ISZERO PUSH2 0x19D8 JUMPI JUMP JUMPDEST PUSH1 0x40 MLOAD PUSH3 0x461BCD PUSH1 0xE5 SHL DUP2 MSTORE PUSH1 0x20 PUSH1 0x4 DUP3 ADD MSTORE PUSH1 0x17 PUSH1 0x24 DUP3 ADD MSTORE PUSH32 0x50726F706572747920646F6573206E6F74206578697374000000000000000000 PUSH1 0x44 DUP3 ADD MSTORE PUSH1 0x64 SWAP1 REVERT JUMPDEST ISZERO PUSH2 0x1A24 JUMPI JUMP JUMPDEST PUSH1 0x40 MLOAD PUSH3 0x461BCD PUSH1 0xE5 SHL DUP2 MSTORE PUSH1 0x20 PUSH1 0x4 DUP3 ADD MSTORE PUSH1 0x15 PUSH1 0x24 DUP3 ADD MSTORE PUSH21 0x139BDD081D1A19481C1C9BDC195C9D1E481A1BDCDD PUSH1 0x5A SHL PUSH1 0x44 DUP3 ADD MSTORE PUSH1 0x64 SWAP1 REVERT JUMPDEST PUSH1 0x1 PUSH1 0x1 PUSH1 0x40 SHL SUB DUP2 GT PUSH2 0x65D JUMPI PUSH1 0x5 SHL PUSH1 0x20 ADD SWAP1 JUMP JUMPDEST SWAP1 PUSH2 0x1A82 DUP3 PUSH2 0x1A61 JUMP JUMPDEST PUSH2 0x1A8F PUSH1 0x40 MLOAD SWAP2 DUP3 PUSH2 0x169D JUMP JUMPDEST DUP3 DUP2 MSTORE DUP1 SWAP3 PUSH2 0x1AA0 PUSH1 0x1F NOT SWAP2 PUSH2 0x1A61 JUMP JUMPDEST ADD SWAP1 PUSH1 0x20 CALLDATASIZE SWAP2 ADD CALLDATACOPY JUMP JUMPDEST DUP1 MLOAD DUP3 LT ISZERO PUSH2 0x174B JUMPI PUSH1 0x20 SWAP2 PUSH1 0x5 SHL ADD ADD SWAP1 JUMP INVALID LOG2 PUSH5 0x6970667358 0x22 SLT KECCAK256 GT 0xCA CREATE2 EXTCODESIZE 0xC3 0xA7 0x49 COINBASE DIV 0xE3 0x2B 0xC3 CALLDATASIZE LOG1 0xCD 0x27 DUP10 0xE9 JUMPI DUP10 PUSH30 0xCFA7DB696AC48C37819E6B64736F6C634300081400330000000000000000 "},"methodIdentifiers":{"allPropertyIds(uint256)":"4efcaca5","deactivateProperty(uint256)":"7ca28bc6","getActiveProperties()":"eb81e098","getActivePropertiesCount()":"603ddf11","getAllProperties()":"3d51402c","getHostProperties(address)":"396a6deb","getPropertiesCount()":"174000bc","getProperty(uint256)":"32665ffb","hostProperties(address,uint256)":"8d82fada","listProperty(string,string,string,uint256,string)":"bdcf79fe","nextPropertyId()":"39500f34","owner()":"8da5cb5b","properties(uint256)":"f7b10808","reactivateProperty(uint256)":"b416eaa5","renounceOwnership()":"715018a6","transferOwnership(address)":"f2fde38b","updateProperty(uint256,string,string,string,uint256,string)":"473ce770"}}}}}