{"contracts/SimpleStaking.sol":{"SimpleStaking":{"abi":[{"anonymous":false,"inputs":[{"indexed":true,"internalType":"address","name":"user","type":"address"},{"indexed":false,"internalType":"uint256","name":"amount","type":"uint256"}],"name":"Staked","type":"event"},{"anonymous":false,"inputs":[{"indexed":true,"internalType":"address","name":"user","type":"address"},{"indexed":false,"internalType":"uint256","name":"amount","type":"uint256"}],"name":"Unstaked","type":"event"},{"inputs":[],"name":"REQUIRED_STAKE","outputs":[{"internalType":"uint256","name":"","type":"uint256"}],"stateMutability":"view","type":"function"},{"inputs":[{"internalType":"address","name":"user","type":"address"}],"name":"checkStakeStatus","outputs":[{"internalType":"bool","name":"","type":"bool"}],"stateMutability":"view","type":"function"},{"inputs":[{"internalType":"address","name":"","type":"address"}],"name":"isStaked","outputs":[{"internalType":"bool","name":"","type":"bool"}],"stateMutability":"view","type":"function"},{"inputs":[],"name":"stake","outputs":[],"stateMutability":"payable","type":"function"},{"inputs":[{"internalType":"address","name":"","type":"address"}],"name":"stakeAmount","outputs":[{"internalType":"uint256","name":"","type":"uint256"}],"stateMutability":"view","type":"function"},{"inputs":[],"name":"unstake","outputs":[],"stateMutability":"nonpayable","type":"function"}],"evm":{"bytecode":{"linkReferences":{},"object":"6080806040523461001657610306908161001c8239f35b600080fdfe608060408181526004918236101561001657600080fd5b600092833560e01c9182632def6620146101f8575081633a4b66f1146101085781636177fd181461008c578163bf135267146100ce578163e17fe1771461008c575063e32994f91461006757600080fd5b346100885781600319360112610088576020905167016345785d8a00008152f35b5080fd5b9050346100ca5760203660031901126100ca57356001600160a01b038116908190036100ca57818360ff926020955280855220541690519015158152f35b8280fd5b9050346100ca5760203660031901126100ca57356001600160a01b038116908190036100ca57828291602094526001845220549051908152f35b9050826003193601126100ca5767016345785d8a000034036101b6573383528260205260ff8284205416610183575033825281602052808220600160ff1982541617905560016020523481832055513481527f9e71bc8eea02a63969f509818f2dafb9254532904319f9dbda79b67bd34a5f3d60203392a280f35b6020606492519162461bcd60e51b8352820152600e60248201526d105b1c9958591e481cdd185ad95960921b6044820152fd5b6020606492519162461bcd60e51b8352820152601a60248201527f4d757374207374616b652065786163746c7920302e3120574c440000000000006044820152fd5b909150346102cc57836003193601126102cc5733845260209184835260ff8486205416156102a057505033835260018152818320549083815282842060ff1981541690556001815283838120558380838015610296575b8280929181923390f11561028a577f0f5bb82176feb1b5e747e28471aa92156a04d9f3ab9f45f28e2d704232b93f759192519283523392a280f35b505051903d90823e3d90fd5b6108fc915061024f565b9160649262461bcd60e51b8352820152600a602482015269139bdd081cdd185ad95960b21b6044820152fd5b8380fdfea26469706673582212205f204eb1024737fe8f5744ebec316ecf1577642280959b1e1c50e05f5978c64064736f6c63430008140033","opcodes":"PUSH1 0x80 DUP1 PUSH1 0x40 MSTORE CALLVALUE PUSH2 0x16 JUMPI PUSH2 0x306 SWAP1 DUP2 PUSH2 0x1C DUP3 CODECOPY RETURN JUMPDEST PUSH1 0x0 DUP1 REVERT INVALID PUSH1 0x80 PUSH1 0x40 DUP2 DUP2 MSTORE PUSH1 0x4 SWAP2 DUP3 CALLDATASIZE LT ISZERO PUSH2 0x16 JUMPI PUSH1 0x0 DUP1 REVERT JUMPDEST PUSH1 0x0 SWAP3 DUP4 CALLDATALOAD PUSH1 0xE0 SHR SWAP2 DUP3 PUSH4 0x2DEF6620 EQ PUSH2 0x1F8 JUMPI POP DUP2 PUSH4 0x3A4B66F1 EQ PUSH2 0x108 JUMPI DUP2 PUSH4 0x6177FD18 EQ PUSH2 0x8C JUMPI DUP2 PUSH4 0xBF135267 EQ PUSH2 0xCE JUMPI DUP2 PUSH4 0xE17FE177 EQ PUSH2 0x8C JUMPI POP PUSH4 0xE32994F9 EQ PUSH2 0x67 JUMPI PUSH1 0x0 DUP1 REVERT JUMPDEST CALLVALUE PUSH2 0x88 JUMPI DUP2 PUSH1 0x3 NOT CALLDATASIZE ADD SLT PUSH2 0x88 JUMPI PUSH1 0x20 SWAP1 MLOAD PUSH8 0x16345785D8A0000 DUP2 MSTORE RETURN JUMPDEST POP DUP1 REVERT JUMPDEST SWAP1 POP CALLVALUE PUSH2 0xCA JUMPI PUSH1 0x20 CALLDATASIZE PUSH1 0x3 NOT ADD SLT PUSH2 0xCA JUMPI CALLDATALOAD PUSH1 0x1 PUSH1 0x1 PUSH1 0xA0 SHL SUB DUP2 AND SWAP1 DUP2 SWAP1 SUB PUSH2 0xCA JUMPI DUP2 DUP4 PUSH1 0xFF SWAP3 PUSH1 0x20 SWAP6 MSTORE DUP1 DUP6 MSTORE KECCAK256 SLOAD AND SWAP1 MLOAD SWAP1 ISZERO ISZERO DUP2 MSTORE RETURN JUMPDEST DUP3 DUP1 REVERT JUMPDEST SWAP1 POP CALLVALUE PUSH2 0xCA JUMPI PUSH1 0x20 CALLDATASIZE PUSH1 0x3 NOT ADD SLT PUSH2 0xCA JUMPI CALLDATALOAD PUSH1 0x1 PUSH1 0x1 PUSH1 0xA0 SHL SUB DUP2 AND SWAP1 DUP2 SWAP1 SUB PUSH2 0xCA JUMPI DUP3 DUP3 SWAP2 PUSH1 0x20 SWAP5 MSTORE PUSH1 0x1 DUP5 MSTORE KECCAK256 SLOAD SWAP1 MLOAD SWAP1 DUP2 MSTORE RETURN JUMPDEST SWAP1 POP DUP3 PUSH1 0x3 NOT CALLDATASIZE ADD SLT PUSH2 0xCA JUMPI PUSH8 0x16345785D8A0000 CALLVALUE SUB PUSH2 0x1B6 JUMPI CALLER DUP4 MSTORE DUP3 PUSH1 0x20 MSTORE PUSH1 0xFF DUP3 DUP5 KECCAK256 SLOAD AND PUSH2 0x183 JUMPI POP CALLER DUP3 MSTORE DUP2 PUSH1 0x20 MSTORE DUP1 DUP3 KECCAK256 PUSH1 0x1 PUSH1 0xFF NOT DUP3 SLOAD AND OR SWAP1 SSTORE PUSH1 0x1 PUSH1 0x20 MSTORE CALLVALUE DUP2 DUP4 KECCAK256 SSTORE MLOAD CALLVALUE DUP2 MSTORE PUSH32 0x9E71BC8EEA02A63969F509818F2DAFB9254532904319F9DBDA79B67BD34A5F3D PUSH1 0x20 CALLER SWAP3 LOG2 DUP1 RETURN JUMPDEST PUSH1 0x20 PUSH1 0x64 SWAP3 MLOAD SWAP2 PUSH3 0x461BCD PUSH1 0xE5 SHL DUP4 MSTORE DUP3 ADD MSTORE PUSH1 0xE PUSH1 0x24 DUP3 ADD MSTORE PUSH14 0x105B1C9958591E481CDD185AD959 PUSH1 0x92 SHL PUSH1 0x44 DUP3 ADD MSTORE REVERT JUMPDEST PUSH1 0x20 PUSH1 0x64 SWAP3 MLOAD SWAP2 PUSH3 0x461BCD PUSH1 0xE5 SHL DUP4 MSTORE DUP3 ADD MSTORE PUSH1 0x1A PUSH1 0x24 DUP3 ADD MSTORE PUSH32 0x4D757374207374616B652065786163746C7920302E3120574C44000000000000 PUSH1 0x44 DUP3 ADD MSTORE REVERT JUMPDEST SWAP1 SWAP2 POP CALLVALUE PUSH2 0x2CC JUMPI DUP4 PUSH1 0x3 NOT CALLDATASIZE ADD SLT PUSH2 0x2CC JUMPI CALLER DUP5 MSTORE PUSH1 0x20 SWAP2 DUP5 DUP4 MSTORE PUSH1 0xFF DUP5 DUP7 KECCAK256 SLOAD AND ISZERO PUSH2 0x2A0 JUMPI POP POP CALLER DUP4 MSTORE PUSH1 0x1 DUP2 MSTORE DUP2 DUP4 KECCAK256 SLOAD SWAP1 DUP4 DUP2 MSTORE DUP3 DUP5 KECCAK256 PUSH1 0xFF NOT DUP2 SLOAD AND SWAP1 SSTORE PUSH1 0x1 DUP2 MSTORE DUP4 DUP4 DUP2 KECCAK256 SSTORE DUP4 DUP1 DUP4 DUP1 ISZERO PUSH2 0x296 JUMPI JUMPDEST DUP3 DUP1 SWAP3 SWAP2 DUP2 SWAP3 CALLER SWAP1 CALL ISZERO PUSH2 0x28A JUMPI PUSH32 0xF5BB82176FEB1B5E747E28471AA92156A04D9F3AB9F45F28E2D704232B93F75 SWAP2 SWAP3 MLOAD SWAP3 DUP4 MSTORE CALLER SWAP3 LOG2 DUP1 RETURN JUMPDEST POP POP MLOAD SWAP1 RETURNDATASIZE SWAP1 DUP3 RETURNDATACOPY RETURNDATASIZE SWAP1 REVERT JUMPDEST PUSH2 0x8FC SWAP2 POP PUSH2 0x24F JUMP JUMPDEST SWAP2 PUSH1 0x64 SWAP3 PUSH3 0x461BCD PUSH1 0xE5 SHL DUP4 MSTORE DUP3 ADD MSTORE PUSH1 0xA PUSH1 0x24 DUP3 ADD MSTORE PUSH10 0x139BDD081CDD185AD959 PUSH1 0xB2 SHL PUSH1 0x44 DUP3 ADD MSTORE REVERT JUMPDEST DUP4 DUP1 REVERT INVALID LOG2 PUSH5 0x6970667358 0x22 SLT KECCAK256 PUSH0 KECCAK256 0x4E 0xB1 MUL SELFBALANCE CALLDATACOPY INVALID DUP16 JUMPI PREVRANDAO 0xEB 0xEC BALANCE PUSH15 0xCF1577642280959B1E1C50E05F5978 0xC6 BLOCKHASH PUSH5 0x736F6C6343 STOP ADDMOD EQ STOP CALLER "},"methodIdentifiers":{"REQUIRED_STAKE()":"e32994f9","checkStakeStatus(address)":"e17fe177","isStaked(address)":"6177fd18","stake()":"3a4b66f1","stakeAmount(address)":"bf135267","unstake()":"2def6620"}}}}}