{"contracts/PropertyHosting.sol":{"PropertyHosting":{"abi":[{"inputs":[],"stateMutability":"nonpayable","type":"constructor"},{"inputs":[{"internalType":"address","name":"owner","type":"address"}],"name":"OwnableInvalidOwner","type":"error"},{"inputs":[{"internalType":"address","name":"account","type":"address"}],"name":"OwnableUnauthorizedAccount","type":"error"},{"inputs":[],"name":"ReentrancyGuardReentrantCall","type":"error"},{"anonymous":false,"inputs":[{"indexed":true,"internalType":"address","name":"previousOwner","type":"address"},{"indexed":true,"internalType":"address","name":"newOwner","type":"address"}],"name":"OwnershipTransferred","type":"event"},{"anonymous":false,"inputs":[{"indexed":true,"internalType":"uint256","name":"propertyId","type":"uint256"},{"indexed":true,"internalType":"address","name":"host","type":"address"}],"name":"PropertyDeactivated","type":"event"},{"anonymous":false,"inputs":[{"indexed":true,"internalType":"uint256","name":"propertyId","type":"uint256"},{"indexed":true,"internalType":"address","name":"host","type":"address"},{"indexed":false,"internalType":"string","name":"name","type":"string"},{"indexed":false,"internalType":"uint256","name":"price","type":"uint256"}],"name":"PropertyListed","type":"event"},{"anonymous":false,"inputs":[{"indexed":true,"internalType":"uint256","name":"propertyId","type":"uint256"},{"indexed":true,"internalType":"address","name":"host","type":"address"}],"name":"PropertyUpdated","type":"event"},{"inputs":[{"internalType":"uint256","name":"","type":"uint256"}],"name":"allPropertyIds","outputs":[{"internalType":"uint256","name":"","type":"uint256"}],"stateMutability":"view","type":"function"},{"inputs":[{"internalType":"uint256","name":"_propertyId","type":"uint256"}],"name":"deactivateProperty","outputs":[],"stateMutability":"nonpayable","type":"function"},{"inputs":[],"name":"getActiveProperties","outputs":[{"internalType":"uint256[]","name":"","type":"uint256[]"}],"stateMutability":"view","type":"function"},{"inputs":[],"name":"getActivePropertiesCount","outputs":[{"internalType":"uint256","name":"","type":"uint256"}],"stateMutability":"view","type":"function"},{"inputs":[],"name":"getAllProperties","outputs":[{"internalType":"uint256[]","name":"","type":"uint256[]"}],"stateMutability":"view","type":"function"},{"inputs":[{"internalType":"address","name":"_host","type":"address"}],"name":"getHostProperties","outputs":[{"internalType":"uint256[]","name":"","type":"uint256[]"}],"stateMutability":"view","type":"function"},{"inputs":[],"name":"getPropertiesCount","outputs":[{"internalType":"uint256","name":"","type":"uint256"}],"stateMutability":"view","type":"function"},{"inputs":[{"internalType":"uint256","name":"_propertyId","type":"uint256"}],"name":"getProperty","outputs":[{"components":[{"internalType":"uint256","name":"id","type":"uint256"},{"internalType":"address","name":"host","type":"address"},{"internalType":"string","name":"name","type":"string"},{"internalType":"string","name":"description","type":"string"},{"internalType":"string","name":"location","type":"string"},{"internalType":"uint256","name":"pricePerNight","type":"uint256"},{"internalType":"bool","name":"isActive","type":"bool"},{"internalType":"uint256","name":"createdAt","type":"uint256"},{"internalType":"string","name":"imageHash","type":"string"}],"internalType":"struct PropertyHosting.Property","name":"","type":"tuple"}],"stateMutability":"view","type":"function"},{"inputs":[{"internalType":"address","name":"","type":"address"},{"internalType":"uint256","name":"","type":"uint256"}],"name":"hostProperties","outputs":[{"internalType":"uint256","name":"","type":"uint256"}],"stateMutability":"view","type":"function"},{"inputs":[{"internalType":"string","name":"_name","type":"string"},{"internalType":"string","name":"_description","type":"string"},{"internalType":"string","name":"_location","type":"string"},{"internalType":"uint256","name":"_pricePerNight","type":"uint256"},{"internalType":"string","name":"_imageHash","type":"string"}],"name":"listProperty","outputs":[{"internalType":"uint256","name":"","type":"uint256"}],"stateMutability":"nonpayable","type":"function"},{"inputs":[{"internalType":"address","name":"_host","type":"address"},{"internalType":"string","name":"_name","type":"string"},{"internalType":"string","name":"_description","type":"string"},{"internalType":"string","name":"_location","type":"string"},{"internalType":"uint256","name":"_pricePerNight","type":"uint256"},{"internalType":"string","name":"_imageHash","type":"string"}],"name":"listPropertyForHost","outputs":[{"internalType":"uint256","name":"","type":"uint256"}],"stateMutability":"nonpayable","type":"function"},{"inputs":[],"name":"nextPropertyId","outputs":[{"internalType":"uint256","name":"","type":"uint256"}],"stateMutability":"view","type":"function"},{"inputs":[],"name":"owner","outputs":[{"internalType":"address","name":"","type":"address"}],"stateMutability":"view","type":"function"},{"inputs":[{"internalType":"uint256","name":"","type":"uint256"}],"name":"properties","outputs":[{"internalType":"uint256","name":"id","type":"uint256"},{"internalType":"address","name":"host","type":"address"},{"internalType":"string","name":"name","type":"string"},{"internalType":"string","name":"description","type":"string"},{"internalType":"string","name":"location","type":"string"},{"internalType":"uint256","name":"pricePerNight","type":"uint256"},{"internalType":"bool","name":"isActive","type":"bool"},{"internalType":"uint256","name":"createdAt","type":"uint256"},{"internalType":"string","name":"imageHash","type":"string"}],"stateMutability":"view","type":"function"},{"inputs":[{"internalType":"uint256","name":"_propertyId","type":"uint256"}],"name":"reactivateProperty","outputs":[],"stateMutability":"nonpayable","type":"function"},{"inputs":[],"name":"renounceOwnership","outputs":[],"stateMutability":"nonpayable","type":"function"},{"inputs":[{"internalType":"address","name":"newOwner","type":"address"}],"name":"transferOwnership","outputs":[],"stateMutability":"nonpayable","type":"function"},{"inputs":[{"internalType":"uint256","name":"_propertyId","type":"uint256"},{"internalType":"string","name":"_name","type":"string"},{"internalType":"string","name":"_description","type":"string"},{"internalType":"string","name":"_location","type":"string"},{"internalType":"uint256","name":"_pricePerNight","type":"uint256"},{"internalType":"string","name":"_imageHash","type":"string"}],"name":"updateProperty","outputs":[],"stateMutability":"nonpayable","type":"function"}],"evm":{"bytecode":{"linkReferences":{},"object":"60808060405234610084576001600055331561006e5760018054336001600160a01b03198216811790925560405191906001600160a01b03167f8be0079c531659141344cd1fd0a4f28419497f9722a3daafe3b4186f6b6457e0600080a360016002556121a8908161008a8239f35b631e4fbdf760e01b815260006004820152602490fd5b600080fdfe6080604052600436101561001257600080fd5b60003560e01c806307fc77e2146115a4578063174000bc1461158657806332665ffb146113dc57806339500f34146113be578063396a6deb146113465780633d51402c146112bf578063473ce77014610cad5780634efcaca514610c84578063603ddf1114610c0e578063715018a614610bb15780637ca28bc614610abb5780638d82fada14610a635780638da5cb5b14610a3a578063b416eaa514610942578063bdcf79fe1461032f578063eb81e0981461025c578063f2fde38b146101ce5763f7b10808146100e257600080fd5b346101c95760203660031901126101c9576004356000908152600360205260409020805460018201546001600160a01b0316916101c59061012560028201611e08565b61013160038301611e08565b9161013e60048201611e08565b926101a560058301549461019760ff60068601541693610189610168600860078901549801611e08565b976040519c8d9c8d5260208d015260408c61012091829101528c0190611cee565b908a820360608c0152611cee565b9088820360808a0152611cee565b9360a0870152151560c086015260e0850152838203610100850152611cee565b0390f35b600080fd5b346101c95760203660031901126101c9576101e7611c45565b6101ef611eae565b6001600160a01b0390811690811561024357600154826bffffffffffffffffffffffff60a01b821617600155167f8be0079c531659141344cd1fd0a4f28419497f9722a3daafe3b4186f6b6457e0600080a3005b604051631e4fbdf760e01b815260006004820152602490fd5b346101c95760003660031901126101c9576005546102798161212c565b9060009060005b8181106102cf5750506102928161212c565b9160005b8281106102ab57604051806101c58682611d2e565b806102b96102ca928461215e565b516102c4828761215e565b52612001565b610296565b6102d881611d69565b9054600391821b1c6000528060205260ff60066040600020015416610307575b5061030290612001565b610280565b81936103289161031961030294611d69565b9054911b1c6102c4828861215e565b92906102f8565b346101c95760a03660031901126101c9576004356001600160401b0381116101c95761035f903690600401611c98565b6024356001600160401b0381116101c95761037e903690600401611c98565b906044356001600160401b0381116101c95761039e903690600401611c98565b906084356001600160401b0381116101c9576103be903690600401611c98565b926103cb82511515611eda565b6103d781511515611f1d565b6103e383511515611f69565b6103f06064351515611fb5565b600254926103fd84612001565b60025583600052600360205260406000209184835560018301336bffffffffffffffffffffffff60a01b82541617905583516001600160401b0381116106d75761044a6002850154611dce565b601f81116108fb575b50806020601f821160011461088e57600091610883575b508160011b916000199060031b1c19161760028401555b8051906001600160401b0382116106d75781906104a16003860154611dce565b601f8111610830575b50602090601f83116001146107c3576000926107b8575b50508160011b916000199060031b1c19161760038301555b8051906001600160401b0382116106d75781906104f96004850154611dce565b601f8111610765575b50602090601f83116001146106f8576000926106ed575b50508160011b916000199060031b1c19161760048201555b606435600582015560068101805460ff1916600117905542600782015583516001600160401b0381116106d75761056b6008830154611dce565b94601f861161068c575b602095508590601f8311600114610620576008929160009183610615575b50508160011b916000199060031b1c1916179101555b33600052600483526105bf826040600020612062565b6105c882612026565b817f4faf3c72065aaaddb6b745e48ea5a8933818b2a856fb6b21dd04b6ac9812b0426105ff60405193604085526040850190611cee565b92606435868201528033940390a3604051908152f35b015190508780610593565b90601f1983169160088501600052876000209260005b8181106106755750916001939185600896941061065c575b505050811b019101556105a9565b015160001960f88460031b161c1916905587808061064e565b929389600181928786015181550195019301610636565b600883016000526020600020601f830160051c810196602084106106cd575b601f0160051c01955b8681106106c15750610575565b600081556001016106b4565b90965086906106ab565b634e487b7160e01b600052604160045260246000fd5b015190508680610519565b600485016000908152602081209350601f198516905b81811061074d5750908460019594939210610734575b505050811b016004820155610531565b015160001960f88460031b161c19169055868080610724565b9293602060018192878601518155019501930161070e565b909150600484016000526020600020601f840160051c8101602085106107b1575b90849392915b601f830160051c820181106107a2575050610502565b6000815585945060010161078c565b5080610786565b0151905087806104c1565b600386016000908152602081209350601f198516905b81811061081857509084600195949392106107ff575b505050811b0160038301556104d9565b015160001960f88460031b161c191690558780806107ef565b929360206001819287860151815501950193016107d9565b909150600385016000526020600020601f840160051c81016020851061087c575b90849392915b601f830160051c8201811061086d5750506104aa565b60008155859450600101610857565b5080610851565b90508501518861046a565b91506002850160005260206000206000925b601f19831684106108e3576001935082601f198116106108ca575b5050811b016002840155610481565b87015160001960f88460031b161c1916905588806108bb565b878101518255602093840193600190920191016108a0565b600285016000526020600020601f830160051c81016020841061093b575b601f830160051c8201811061092f575050610453565b60008155600101610919565b5080610919565b346101c95760203660031901126101c95760043580151580610a2f575b61096890612085565b80600052600360205261098c60018060a01b036001604060002001541633146120d1565b80600052600360205260ff600660406000200154166109ea578060005260036020526006604060002001600160ff1982541617905533907f885782b6fe94c078f3ed4cb815a599a818040cc046f696e901a6b03df8dc917a600080a3005b60405162461bcd60e51b815260206004820152601760248201527f50726f706572747920616c7265616479206163746976650000000000000000006044820152606490fd5b50600254811061095f565b346101c95760003660031901126101c9576001546040516001600160a01b039091168152602090f35b346101c95760403660031901126101c957610a7c611c45565b6001600160a01b03166000908152600460205260409020805460243591908210156101c957602091610aad91611db6565b90546040519160031b1c8152f35b346101c95760203660031901126101c95760043580151580610ba6575b610ae190612085565b806000526003602052610b0560018060a01b036001604060002001541633146120d1565b80600052600360205260ff6006604060002001541615610b6157806000526003602052600660406000200160ff19815416905533907ff39d3b59eafc983e858c88044c0f5b4dab6f687310c0830e10d96f47c80eb902600080a3005b60405162461bcd60e51b815260206004820152601960248201527f50726f706572747920616c726561647920696e616374697665000000000000006044820152606490fd5b506002548110610ad8565b346101c95760003660031901126101c957610bca611eae565b600180546001600160a01b031981169091556000906001600160a01b03167f8be0079c531659141344cd1fd0a4f28419497f9722a3daafe3b4186f6b6457e08280a3005b346101c95760003660031901126101c957600080600554905b818110610c3957602083604051908152f35b610c4281611d69565b9054600391821b1c60005260205260ff60066040600020015416610c6f575b610c6a90612001565b610c27565b91610c7c610c6a91612001565b929050610c61565b346101c95760203660031901126101c9576004356005548110156101c957610aad602091611d69565b346101c95760c03660031901126101c9576024356001600160401b0381116101c957610cdd903690600401611c98565b6044356001600160401b0381116101c957610cfc903690600401611c98565b906064356001600160401b0381116101c957610d1c903690600401611c98565b9060a4356001600160401b0381116101c957610d3c903690600401611c98565b916004351515806112b2575b610d5190612085565b6004356000526003602052610d7760018060a01b036001604060002001541633146120d1565b600435600052600360205260ff600660406000200154161561127457610d9f82511515611eda565b610dab84511515611f1d565b610db781511515611f69565b610dc46084351515611fb5565b60043560005260036020526040600020918051906001600160401b0382116106d7578190610df56002860154611dce565b601f8111611221575b50602090601f83116001146111af576000926111a4575b50508160011b916000199060031b1c19161760028301555b83516001600160401b0381116106d757610e4a6003840154611dce565b601f811161115d575b506020601f82116001146110ee5781929394956000926110e3575b50508160011b916000199060031b1c19161760038301555b8051906001600160401b0382116106d757610ea46004840154611dce565b601f811161109c575b50602090601f831160011461102b57600893929160009183611020575b50508160011b916000199060031b1c19161760048201555b60843560058201550181516001600160401b0381116106d757610f058254611dce565b601f8111610fd8575b50602092601f8211600114610f745792819293600092610f69575b50508160011b916000199060031b1c19161790555b336004357f885782b6fe94c078f3ed4cb815a599a818040cc046f696e901a6b03df8dc917a600080a3005b015190508380610f29565b601f198216938360005260206000209160005b868110610fc05750836001959610610fa7575b505050811b019055610f3e565b015160001960f88460031b161c19169055838080610f9a565b91926020600181928685015181550194019201610f87565b826000526020600020601f830160051c81019160208410611016575b601f0160051c01905b81811061100a5750610f0e565b60008155600101610ffd565b9091508190610ff4565b015190508580610eca565b90601f198316916004850160005260206000209260005b818110611084575091600193918560089796941061106b575b505050811b016004820155610ee2565b015160001960f88460031b161c1916905585808061105b565b92936020600181928786015181550195019301611042565b600484016000526020600020601f840160051c8101602085106110dc575b601f830160051c820181106110d0575050610ead565b600081556001016110ba565b50806110ba565b015190508580610e6e565b6003840160005260206000209060005b601f1984168110611145575060019394959683601f1981161061112c575b505050811b016003830155610e86565b015160001960f88460031b161c1916905585808061111c565b9091602060018192858b0151815501930191016110fe565b600384016000526020600020601f830160051c81016020841061119d575b601f830160051c82018110611191575050610e53565b6000815560010161117b565b508061117b565b015190508680610e15565b9250600285016000526020600020906000935b601f1984168510611206576001945083601f198116106111ed575b505050811b016002830155610e2d565b015160001960f88460031b161c191690558680806111dd565b818101518355602094850194600190930192909101906111c2565b909150600285016000526020600020601f840160051c81016020851061126d575b90849392915b601f830160051c8201811061125e575050610dfe565b60008155859450600101611248565b5080611242565b60405162461bcd60e51b815260206004820152601660248201527550726f7065727479206973206e6f742061637469766560501b6044820152606490fd5b5060025460043510610d48565b346101c95760003660031901126101c957604051806005549182815260208091019260056000527f036b6384b5eca791c62761152d0c79bb0604c104a5fb6f4eb0703f3154bb3db0916000905b82821061132f576101c58561132381890382611c77565b60405191829182611d2e565b83548652948501946001938401939091019061130c565b346101c9576020806003193601126101c9576001600160a01b03611368611c45565b1660005260048152604060002090604051908181845491828152019360005281600020916000905b8282106113a7576101c58561132381890382611c77565b835486529485019460019384019390910190611390565b346101c95760003660031901126101c9576020600254604051908152f35b346101c9576020806003193601126101c957600435906040516113fe81611c5b565b600081526000828201526060928360408301528380830152836080830152600060a0830152600060c0830152600060e083015283610100809301528015158061157b575b61144b90612085565b6000526003825260406000206040519361146485611c5b565b8154855260018201546001600160a01b03908116858701908152909361148c60028501611e08565b60408801908152936114a060038201611e08565b888501908152956114b360048301611e08565b60808a0190815260058301549660a08b01978852600684015460ff169260c08c01931515845260078501549460e08d019586526008016114f290611e08565b96868d019788528b6040519d8e9d8e5251908d0152511660408b01525161012080978b01526101408a0161152591611cee565b9751601f1998898b82030160808c015261153e91611cee565b905190888a82030160a08b015261155491611cee565b955160c089015251151560e08801525190860152519284830301908401526101c591611cee565b506002548110611442565b346101c95760003660031901126101c9576020600554604051908152f35b346101c95760c03660031901126101c9576115bd611c45565b6024356001600160401b0381116101c9576115dc903690600401611c98565b906044356001600160401b0381116101c9576115fc903690600401611c98565b906064356001600160401b0381116101c95761161c903690600401611c98565b9160a4356001600160401b0381116101c95761163c903690600401611c98565b6001600160a01b03831615611c005761165785511515611eda565b61166382511515611f1d565b61166f84511515611f69565b61167c6084351515611fb5565b6002549361168985612001565b60025560008581526003602052604090208581556001810180546001600160a01b0319166001600160a01b03871617905586519093906001600160401b0381116106d7576116da6002860154611dce565b601f8111611bb9575b50806020601f8211600114611b4b57600091611b40575b508160011b916000199060031b1c19161760028501555b8051906001600160401b0382116106d75781906117316003870154611dce565b601f8111611aed575b50602090601f8311600114611a8057600092611a75575b50508160011b916000199060031b1c19161760038401555b8051906001600160401b0382116106d75781906117896004860154611dce565b601f8111611a22575b50602090601f83116001146119b5576000926119aa575b50508160011b916000199060031b1c19161760048301555b608435600583015560068201805460ff191660011790554260078301558051906001600160401b0382116106d7576117fc6008840154611dce565b601f811161195f575b50916020959185938790601f83116001146118c857827f4faf3c72065aaaddb6b745e48ea5a8933818b2a856fb6b21dd04b6ac9812b042959361189f95936008936000926118bd575b50508160011b916000199060031b1c1916179101555b60018060a01b03851660005260048752611882846040600020612062565b61188b84612026565b604051918291604083526040830190611cee565b608435828901526001600160a01b03909516940390a3604051908152f35b015190508b8061184e565b9060088401600052886000209160005b601f198516811061194557508361189f95936008936001937f4faf3c72065aaaddb6b745e48ea5a8933818b2a856fb6b21dd04b6ac9812b0429997601f1981161061192c575b505050811b01910155611864565b015160001960f88460031b161c191690558b808061191e565b818301518455899750600190930192918a01918a016118d8565b600884016000526020600020601f840160051c810191602085106119a0575b601f0160051c01905b8181106119945750611805565b60008155600101611987565b909150819061197e565b0151905087806117a9565b600486016000908152602081209350601f198516905b818110611a0a57509084600195949392106119f1575b505050811b0160048301556117c1565b015160001960f88460031b161c191690558780806119e1565b929360206001819287860151815501950193016119cb565b909150600485016000526020600020601f840160051c810160208510611a6e575b90849392915b601f830160051c82018110611a5f575050611792565b60008155859450600101611a49565b5080611a43565b015190508880611751565b600387016000908152602081209350601f198516905b818110611ad55750908460019594939210611abc575b505050811b016003840155611769565b015160001960f88460031b161c19169055888080611aac565b92936020600181928786015181550195019301611a96565b909150600386016000526020600020601f840160051c810160208510611b39575b90849392915b601f830160051c82018110611b2a57505061173a565b60008155859450600101611b14565b5080611b0e565b9050880151896116fa565b91506002860160005260206000206000925b8a601f1984168510611ba257506001935082601f19811610611b89575b5050811b016002850155611711565b8a015160001960f88460031b161c191690558980611b7a565b810151825560209384019360019092019101611b5d565b600286016000526020600020601f830160051c810160208410611bf9575b601f830160051c82018110611bed5750506116e3565b60008155600101611bd7565b5080611bd7565b60405162461bcd60e51b815260206004820152601b60248201527f486f737420616464726573732063616e6e6f74206265207a65726f00000000006044820152606490fd5b600435906001600160a01b03821682036101c957565b61012081019081106001600160401b038211176106d757604052565b90601f801991011681019081106001600160401b038211176106d757604052565b81601f820112156101c9578035906001600160401b0382116106d75760405192611ccc601f8401601f191660200185611c77565b828452602083830101116101c957816000926020809301838601378301015290565b919082519283825260005b848110611d1a575050826000602080949584010152601f8019910116010190565b602081830181015184830182015201611cf9565b6020908160408183019282815285518094520193019160005b828110611d55575050505090565b835185529381019392810192600101611d47565b600554811015611da05760056000527f036b6384b5eca791c62761152d0c79bb0604c104a5fb6f4eb0703f3154bb3db00190600090565b634e487b7160e01b600052603260045260246000fd5b8054821015611da05760005260206000200190600090565b90600182811c92168015611dfe575b6020831014611de857565b634e487b7160e01b600052602260045260246000fd5b91607f1691611ddd565b9060405191826000825492611e1c84611dce565b908184526001948581169081600014611e8b5750600114611e48575b5050611e4692500383611c77565b565b9093915060005260209081600020936000915b818310611e73575050611e4693508201013880611e38565b85548884018501529485019487945091830191611e5b565b915050611e4694506020925060ff191682840152151560051b8201013880611e38565b6001546001600160a01b03163303611ec257565b60405163118cdaa760e01b8152336004820152602490fd5b15611ee157565b60405162461bcd60e51b81526020600482015260146024820152734e616d652063616e6e6f7420626520656d70747960601b6044820152606490fd5b15611f2457565b60405162461bcd60e51b815260206004820152601b60248201527f4465736372697074696f6e2063616e6e6f7420626520656d70747900000000006044820152606490fd5b15611f7057565b60405162461bcd60e51b815260206004820152601860248201527f4c6f636174696f6e2063616e6e6f7420626520656d70747900000000000000006044820152606490fd5b15611fbc57565b60405162461bcd60e51b815260206004820152601c60248201527f5072696365206d7573742062652067726561746572207468616e2030000000006044820152606490fd5b60001981146120105760010190565b634e487b7160e01b600052601160045260246000fd5b60055490600160401b8210156106d757612049826001611e469401600555611d69565b90919082549060031b91821b91600019901b1916179055565b90815491600160401b8310156106d75782612049916001611e4695018155611db6565b1561208c57565b60405162461bcd60e51b815260206004820152601760248201527f50726f706572747920646f6573206e6f742065786973740000000000000000006044820152606490fd5b156120d857565b60405162461bcd60e51b8152602060048201526015602482015274139bdd081d1a19481c1c9bdc195c9d1e481a1bdcdd605a1b6044820152606490fd5b6001600160401b0381116106d75760051b60200190565b9061213682612115565b6121436040519182611c77565b8281528092612154601f1991612115565b0190602036910137565b8051821015611da05760209160051b01019056fea2646970667358221220543815c967d6a652cd5f9a76d50f2e6b43c7fb2e01e896bc3a934e90aa72410a64736f6c63430008140033","opcodes":"PUSH1 0x80 DUP1 PUSH1 0x40 MSTORE CALLVALUE PUSH2 0x84 JUMPI PUSH1 0x1 PUSH1 0x0 SSTORE CALLER ISZERO PUSH2 0x6E JUMPI PUSH1 0x1 DUP1 SLOAD CALLER PUSH1 0x1 PUSH1 0x1 PUSH1 0xA0 SHL SUB NOT DUP3 AND DUP2 OR SWAP1 SWAP3 SSTORE PUSH1 0x40 MLOAD SWAP2 SWAP1 PUSH1 0x1 PUSH1 0x1 PUSH1 0xA0 SHL SUB AND PUSH32 0x8BE0079C531659141344CD1FD0A4F28419497F9722A3DAAFE3B4186F6B6457E0 PUSH1 0x0 DUP1 LOG3 PUSH1 0x1 PUSH1 0x2 SSTORE PUSH2 0x21A8 SWAP1 DUP2 PUSH2 0x8A DUP3 CODECOPY RETURN JUMPDEST PUSH4 0x1E4FBDF7 PUSH1 0xE0 SHL DUP2 MSTORE PUSH1 0x0 PUSH1 0x4 DUP3 ADD MSTORE PUSH1 0x24 SWAP1 REVERT JUMPDEST PUSH1 0x0 DUP1 REVERT INVALID PUSH1 0x80 PUSH1 0x40 MSTORE PUSH1 0x4 CALLDATASIZE LT ISZERO PUSH2 0x12 JUMPI PUSH1 0x0 DUP1 REVERT JUMPDEST PUSH1 0x0 CALLDATALOAD PUSH1 0xE0 SHR DUP1 PUSH4 0x7FC77E2 EQ PUSH2 0x15A4 JUMPI DUP1 PUSH4 0x174000BC EQ PUSH2 0x1586 JUMPI DUP1 PUSH4 0x32665FFB EQ PUSH2 0x13DC JUMPI DUP1 PUSH4 0x39500F34 EQ PUSH2 0x13BE JUMPI DUP1 PUSH4 0x396A6DEB EQ PUSH2 0x1346 JUMPI DUP1 PUSH4 0x3D51402C EQ PUSH2 0x12BF JUMPI DUP1 PUSH4 0x473CE770 EQ PUSH2 0xCAD JUMPI DUP1 PUSH4 0x4EFCACA5 EQ PUSH2 0xC84 JUMPI DUP1 PUSH4 0x603DDF11 EQ PUSH2 0xC0E JUMPI DUP1 PUSH4 0x715018A6 EQ PUSH2 0xBB1 JUMPI DUP1 PUSH4 0x7CA28BC6 EQ PUSH2 0xABB JUMPI DUP1 PUSH4 0x8D82FADA EQ PUSH2 0xA63 JUMPI DUP1 PUSH4 0x8DA5CB5B EQ PUSH2 0xA3A JUMPI DUP1 PUSH4 0xB416EAA5 EQ PUSH2 0x942 JUMPI DUP1 PUSH4 0xBDCF79FE EQ PUSH2 0x32F JUMPI DUP1 PUSH4 0xEB81E098 EQ PUSH2 0x25C JUMPI DUP1 PUSH4 0xF2FDE38B EQ PUSH2 0x1CE JUMPI PUSH4 0xF7B10808 EQ PUSH2 0xE2 JUMPI PUSH1 0x0 DUP1 REVERT JUMPDEST CALLVALUE PUSH2 0x1C9 JUMPI PUSH1 0x20 CALLDATASIZE PUSH1 0x3 NOT ADD SLT PUSH2 0x1C9 JUMPI PUSH1 0x4 CALLDATALOAD PUSH1 0x0 SWAP1 DUP2 MSTORE PUSH1 0x3 PUSH1 0x20 MSTORE PUSH1 0x40 SWAP1 KECCAK256 DUP1 SLOAD PUSH1 0x1 DUP3 ADD SLOAD PUSH1 0x1 PUSH1 0x1 PUSH1 0xA0 SHL SUB AND SWAP2 PUSH2 0x1C5 SWAP1 PUSH2 0x125 PUSH1 0x2 DUP3 ADD PUSH2 0x1E08 JUMP JUMPDEST PUSH2 0x131 PUSH1 0x3 DUP4 ADD PUSH2 0x1E08 JUMP JUMPDEST SWAP2 PUSH2 0x13E PUSH1 0x4 DUP3 ADD PUSH2 0x1E08 JUMP JUMPDEST SWAP3 PUSH2 0x1A5 PUSH1 0x5 DUP4 ADD SLOAD SWAP5 PUSH2 0x197 PUSH1 0xFF PUSH1 0x6 DUP7 ADD SLOAD AND SWAP4 PUSH2 0x189 PUSH2 0x168 PUSH1 0x8 PUSH1 0x7 DUP10 ADD SLOAD SWAP9 ADD PUSH2 0x1E08 JUMP JUMPDEST SWAP8 PUSH1 0x40 MLOAD SWAP13 DUP14 SWAP13 DUP14 MSTORE PUSH1 0x20 DUP14 ADD MSTORE PUSH1 0x40 DUP13 PUSH2 0x120 SWAP2 DUP3 SWAP2 ADD MSTORE DUP13 ADD SWAP1 PUSH2 0x1CEE JUMP JUMPDEST SWAP1 DUP11 DUP3 SUB PUSH1 0x60 DUP13 ADD MSTORE PUSH2 0x1CEE JUMP JUMPDEST SWAP1 DUP9 DUP3 SUB PUSH1 0x80 DUP11 ADD MSTORE PUSH2 0x1CEE JUMP JUMPDEST SWAP4 PUSH1 0xA0 DUP8 ADD MSTORE ISZERO ISZERO PUSH1 0xC0 DUP7 ADD MSTORE PUSH1 0xE0 DUP6 ADD MSTORE DUP4 DUP3 SUB PUSH2 0x100 DUP6 ADD MSTORE PUSH2 0x1CEE JUMP JUMPDEST SUB SWAP1 RETURN JUMPDEST PUSH1 0x0 DUP1 REVERT JUMPDEST CALLVALUE PUSH2 0x1C9 JUMPI PUSH1 0x20 CALLDATASIZE PUSH1 0x3 NOT ADD SLT PUSH2 0x1C9 JUMPI PUSH2 0x1E7 PUSH2 0x1C45 JUMP JUMPDEST PUSH2 0x1EF PUSH2 0x1EAE JUMP JUMPDEST PUSH1 0x1 PUSH1 0x1 PUSH1 0xA0 SHL SUB SWAP1 DUP2 AND SWAP1 DUP2 ISZERO PUSH2 0x243 JUMPI PUSH1 0x1 SLOAD DUP3 PUSH12 0xFFFFFFFFFFFFFFFFFFFFFFFF PUSH1 0xA0 SHL DUP3 AND OR PUSH1 0x1 SSTORE AND PUSH32 0x8BE0079C531659141344CD1FD0A4F28419497F9722A3DAAFE3B4186F6B6457E0 PUSH1 0x0 DUP1 LOG3 STOP JUMPDEST PUSH1 0x40 MLOAD PUSH4 0x1E4FBDF7 PUSH1 0xE0 SHL DUP2 MSTORE PUSH1 0x0 PUSH1 0x4 DUP3 ADD MSTORE PUSH1 0x24 SWAP1 REVERT JUMPDEST CALLVALUE PUSH2 0x1C9 JUMPI PUSH1 0x0 CALLDATASIZE PUSH1 0x3 NOT ADD SLT PUSH2 0x1C9 JUMPI PUSH1 0x5 SLOAD PUSH2 0x279 DUP2 PUSH2 0x212C JUMP JUMPDEST SWAP1 PUSH1 0x0 SWAP1 PUSH1 0x0 JUMPDEST DUP2 DUP2 LT PUSH2 0x2CF JUMPI POP POP PUSH2 0x292 DUP2 PUSH2 0x212C JUMP JUMPDEST SWAP2 PUSH1 0x0 JUMPDEST DUP3 DUP2 LT PUSH2 0x2AB JUMPI PUSH1 0x40 MLOAD DUP1 PUSH2 0x1C5 DUP7 DUP3 PUSH2 0x1D2E JUMP JUMPDEST DUP1 PUSH2 0x2B9 PUSH2 0x2CA SWAP3 DUP5 PUSH2 0x215E JUMP JUMPDEST MLOAD PUSH2 0x2C4 DUP3 DUP8 PUSH2 0x215E JUMP JUMPDEST MSTORE PUSH2 0x2001 JUMP JUMPDEST PUSH2 0x296 JUMP JUMPDEST PUSH2 0x2D8 DUP2 PUSH2 0x1D69 JUMP JUMPDEST SWAP1 SLOAD PUSH1 0x3 SWAP2 DUP3 SHL SHR PUSH1 0x0 MSTORE DUP1 PUSH1 0x20 MSTORE PUSH1 0xFF PUSH1 0x6 PUSH1 0x40 PUSH1 0x0 KECCAK256 ADD SLOAD AND PUSH2 0x307 JUMPI JUMPDEST POP PUSH2 0x302 SWAP1 PUSH2 0x2001 JUMP JUMPDEST PUSH2 0x280 JUMP JUMPDEST DUP2 SWAP4 PUSH2 0x328 SWAP2 PUSH2 0x319 PUSH2 0x302 SWAP5 PUSH2 0x1D69 JUMP JUMPDEST SWAP1 SLOAD SWAP2 SHL SHR PUSH2 0x2C4 DUP3 DUP9 PUSH2 0x215E JUMP JUMPDEST SWAP3 SWAP1 PUSH2 0x2F8 JUMP JUMPDEST CALLVALUE PUSH2 0x1C9 JUMPI PUSH1 0xA0 CALLDATASIZE PUSH1 0x3 NOT ADD SLT PUSH2 0x1C9 JUMPI PUSH1 0x4 CALLDATALOAD PUSH1 0x1 PUSH1 0x1 PUSH1 0x40 SHL SUB DUP2 GT PUSH2 0x1C9 JUMPI PUSH2 0x35F SWAP1 CALLDATASIZE SWAP1 PUSH1 0x4 ADD PUSH2 0x1C98 JUMP JUMPDEST PUSH1 0x24 CALLDATALOAD PUSH1 0x1 PUSH1 0x1 PUSH1 0x40 SHL SUB DUP2 GT PUSH2 0x1C9 JUMPI PUSH2 0x37E SWAP1 CALLDATASIZE SWAP1 PUSH1 0x4 ADD PUSH2 0x1C98 JUMP JUMPDEST SWAP1 PUSH1 0x44 CALLDATALOAD PUSH1 0x1 PUSH1 0x1 PUSH1 0x40 SHL SUB DUP2 GT PUSH2 0x1C9 JUMPI PUSH2 0x39E SWAP1 CALLDATASIZE SWAP1 PUSH1 0x4 ADD PUSH2 0x1C98 JUMP JUMPDEST SWAP1 PUSH1 0x84 CALLDATALOAD PUSH1 0x1 PUSH1 0x1 PUSH1 0x40 SHL SUB DUP2 GT PUSH2 0x1C9 JUMPI PUSH2 0x3BE SWAP1 CALLDATASIZE SWAP1 PUSH1 0x4 ADD PUSH2 0x1C98 JUMP JUMPDEST SWAP3 PUSH2 0x3CB DUP3 MLOAD ISZERO ISZERO PUSH2 0x1EDA JUMP JUMPDEST PUSH2 0x3D7 DUP2 MLOAD ISZERO ISZERO PUSH2 0x1F1D JUMP JUMPDEST PUSH2 0x3E3 DUP4 MLOAD ISZERO ISZERO PUSH2 0x1F69 JUMP JUMPDEST PUSH2 0x3F0 PUSH1 0x64 CALLDATALOAD ISZERO ISZERO PUSH2 0x1FB5 JUMP JUMPDEST PUSH1 0x2 SLOAD SWAP3 PUSH2 0x3FD DUP5 PUSH2 0x2001 JUMP JUMPDEST PUSH1 0x2 SSTORE DUP4 PUSH1 0x0 MSTORE PUSH1 0x3 PUSH1 0x20 MSTORE PUSH1 0x40 PUSH1 0x0 KECCAK256 SWAP2 DUP5 DUP4 SSTORE PUSH1 0x1 DUP4 ADD CALLER PUSH12 0xFFFFFFFFFFFFFFFFFFFFFFFF PUSH1 0xA0 SHL DUP3 SLOAD AND OR SWAP1 SSTORE DUP4 MLOAD PUSH1 0x1 PUSH1 0x1 PUSH1 0x40 SHL SUB DUP2 GT PUSH2 0x6D7 JUMPI PUSH2 0x44A PUSH1 0x2 DUP6 ADD SLOAD PUSH2 0x1DCE JUMP JUMPDEST PUSH1 0x1F DUP2 GT PUSH2 0x8FB JUMPI JUMPDEST POP DUP1 PUSH1 0x20 PUSH1 0x1F DUP3 GT PUSH1 0x1 EQ PUSH2 0x88E JUMPI PUSH1 0x0 SWAP2 PUSH2 0x883 JUMPI JUMPDEST POP DUP2 PUSH1 0x1 SHL SWAP2 PUSH1 0x0 NOT SWAP1 PUSH1 0x3 SHL SHR NOT AND OR PUSH1 0x2 DUP5 ADD SSTORE JUMPDEST DUP1 MLOAD SWAP1 PUSH1 0x1 PUSH1 0x1 PUSH1 0x40 SHL SUB DUP3 GT PUSH2 0x6D7 JUMPI DUP2 SWAP1 PUSH2 0x4A1 PUSH1 0x3 DUP7 ADD SLOAD PUSH2 0x1DCE JUMP JUMPDEST PUSH1 0x1F DUP2 GT PUSH2 0x830 JUMPI JUMPDEST POP PUSH1 0x20 SWAP1 PUSH1 0x1F DUP4 GT PUSH1 0x1 EQ PUSH2 0x7C3 JUMPI PUSH1 0x0 SWAP3 PUSH2 0x7B8 JUMPI JUMPDEST POP POP DUP2 PUSH1 0x1 SHL SWAP2 PUSH1 0x0 NOT SWAP1 PUSH1 0x3 SHL SHR NOT AND OR PUSH1 0x3 DUP4 ADD SSTORE JUMPDEST DUP1 MLOAD SWAP1 PUSH1 0x1 PUSH1 0x1 PUSH1 0x40 SHL SUB DUP3 GT PUSH2 0x6D7 JUMPI DUP2 SWAP1 PUSH2 0x4F9 PUSH1 0x4 DUP6 ADD SLOAD PUSH2 0x1DCE JUMP JUMPDEST PUSH1 0x1F DUP2 GT PUSH2 0x765 JUMPI JUMPDEST POP PUSH1 0x20 SWAP1 PUSH1 0x1F DUP4 GT PUSH1 0x1 EQ PUSH2 0x6F8 JUMPI PUSH1 0x0 SWAP3 PUSH2 0x6ED JUMPI JUMPDEST POP POP DUP2 PUSH1 0x1 SHL SWAP2 PUSH1 0x0 NOT SWAP1 PUSH1 0x3 SHL SHR NOT AND OR PUSH1 0x4 DUP3 ADD SSTORE JUMPDEST PUSH1 0x64 CALLDATALOAD PUSH1 0x5 DUP3 ADD SSTORE PUSH1 0x6 DUP2 ADD DUP1 SLOAD PUSH1 0xFF NOT AND PUSH1 0x1 OR SWAP1 SSTORE TIMESTAMP PUSH1 0x7 DUP3 ADD SSTORE DUP4 MLOAD PUSH1 0x1 PUSH1 0x1 PUSH1 0x40 SHL SUB DUP2 GT PUSH2 0x6D7 JUMPI PUSH2 0x56B PUSH1 0x8 DUP4 ADD SLOAD PUSH2 0x1DCE JUMP JUMPDEST SWAP5 PUSH1 0x1F DUP7 GT PUSH2 0x68C JUMPI JUMPDEST PUSH1 0x20 SWAP6 POP DUP6 SWAP1 PUSH1 0x1F DUP4 GT PUSH1 0x1 EQ PUSH2 0x620 JUMPI PUSH1 0x8 SWAP3 SWAP2 PUSH1 0x0 SWAP2 DUP4 PUSH2 0x615 JUMPI JUMPDEST POP POP DUP2 PUSH1 0x1 SHL SWAP2 PUSH1 0x0 NOT SWAP1 PUSH1 0x3 SHL SHR NOT AND OR SWAP2 ADD SSTORE JUMPDEST CALLER PUSH1 0x0 MSTORE PUSH1 0x4 DUP4 MSTORE PUSH2 0x5BF DUP3 PUSH1 0x40 PUSH1 0x0 KECCAK256 PUSH2 0x2062 JUMP JUMPDEST PUSH2 0x5C8 DUP3 PUSH2 0x2026 JUMP JUMPDEST DUP2 PUSH32 0x4FAF3C72065AAADDB6B745E48EA5A8933818B2A856FB6B21DD04B6AC9812B042 PUSH2 0x5FF PUSH1 0x40 MLOAD SWAP4 PUSH1 0x40 DUP6 MSTORE PUSH1 0x40 DUP6 ADD SWAP1 PUSH2 0x1CEE JUMP JUMPDEST SWAP3 PUSH1 0x64 CALLDATALOAD DUP7 DUP3 ADD MSTORE DUP1 CALLER SWAP5 SUB SWAP1 LOG3 PUSH1 0x40 MLOAD SWAP1 DUP2 MSTORE RETURN JUMPDEST ADD MLOAD SWAP1 POP DUP8 DUP1 PUSH2 0x593 JUMP JUMPDEST SWAP1 PUSH1 0x1F NOT DUP4 AND SWAP2 PUSH1 0x8 DUP6 ADD PUSH1 0x0 MSTORE DUP8 PUSH1 0x0 KECCAK256 SWAP3 PUSH1 0x0 JUMPDEST DUP2 DUP2 LT PUSH2 0x675 JUMPI POP SWAP2 PUSH1 0x1 SWAP4 SWAP2 DUP6 PUSH1 0x8 SWAP7 SWAP5 LT PUSH2 0x65C JUMPI JUMPDEST POP POP POP DUP2 SHL ADD SWAP2 ADD SSTORE PUSH2 0x5A9 JUMP JUMPDEST ADD MLOAD PUSH1 0x0 NOT PUSH1 0xF8 DUP5 PUSH1 0x3 SHL AND SHR NOT AND SWAP1 SSTORE DUP8 DUP1 DUP1 PUSH2 0x64E JUMP JUMPDEST SWAP3 SWAP4 DUP10 PUSH1 0x1 DUP2 SWAP3 DUP8 DUP7 ADD MLOAD DUP2 SSTORE ADD SWAP6 ADD SWAP4 ADD PUSH2 0x636 JUMP JUMPDEST PUSH1 0x8 DUP4 ADD PUSH1 0x0 MSTORE PUSH1 0x20 PUSH1 0x0 KECCAK256 PUSH1 0x1F DUP4 ADD PUSH1 0x5 SHR DUP2 ADD SWAP7 PUSH1 0x20 DUP5 LT PUSH2 0x6CD JUMPI JUMPDEST PUSH1 0x1F ADD PUSH1 0x5 SHR ADD SWAP6 JUMPDEST DUP7 DUP2 LT PUSH2 0x6C1 JUMPI POP PUSH2 0x575 JUMP JUMPDEST PUSH1 0x0 DUP2 SSTORE PUSH1 0x1 ADD PUSH2 0x6B4 JUMP JUMPDEST SWAP1 SWAP7 POP DUP7 SWAP1 PUSH2 0x6AB JUMP JUMPDEST PUSH4 0x4E487B71 PUSH1 0xE0 SHL PUSH1 0x0 MSTORE PUSH1 0x41 PUSH1 0x4 MSTORE PUSH1 0x24 PUSH1 0x0 REVERT JUMPDEST ADD MLOAD SWAP1 POP DUP7 DUP1 PUSH2 0x519 JUMP JUMPDEST PUSH1 0x4 DUP6 ADD PUSH1 0x0 SWAP1 DUP2 MSTORE PUSH1 0x20 DUP2 KECCAK256 SWAP4 POP PUSH1 0x1F NOT DUP6 AND SWAP1 JUMPDEST DUP2 DUP2 LT PUSH2 0x74D JUMPI POP SWAP1 DUP5 PUSH1 0x1 SWAP6 SWAP5 SWAP4 SWAP3 LT PUSH2 0x734 JUMPI JUMPDEST POP POP POP DUP2 SHL ADD PUSH1 0x4 DUP3 ADD SSTORE PUSH2 0x531 JUMP JUMPDEST ADD MLOAD PUSH1 0x0 NOT PUSH1 0xF8 DUP5 PUSH1 0x3 SHL AND SHR NOT AND SWAP1 SSTORE DUP7 DUP1 DUP1 PUSH2 0x724 JUMP JUMPDEST SWAP3 SWAP4 PUSH1 0x20 PUSH1 0x1 DUP2 SWAP3 DUP8 DUP7 ADD MLOAD DUP2 SSTORE ADD SWAP6 ADD SWAP4 ADD PUSH2 0x70E JUMP JUMPDEST SWAP1 SWAP2 POP PUSH1 0x4 DUP5 ADD PUSH1 0x0 MSTORE PUSH1 0x20 PUSH1 0x0 KECCAK256 PUSH1 0x1F DUP5 ADD PUSH1 0x5 SHR DUP2 ADD PUSH1 0x20 DUP6 LT PUSH2 0x7B1 JUMPI JUMPDEST SWAP1 DUP5 SWAP4 SWAP3 SWAP2 JUMPDEST PUSH1 0x1F DUP4 ADD PUSH1 0x5 SHR DUP3 ADD DUP2 LT PUSH2 0x7A2 JUMPI POP POP PUSH2 0x502 JUMP JUMPDEST PUSH1 0x0 DUP2 SSTORE DUP6 SWAP5 POP PUSH1 0x1 ADD PUSH2 0x78C JUMP JUMPDEST POP DUP1 PUSH2 0x786 JUMP JUMPDEST ADD MLOAD SWAP1 POP DUP8 DUP1 PUSH2 0x4C1 JUMP JUMPDEST PUSH1 0x3 DUP7 ADD PUSH1 0x0 SWAP1 DUP2 MSTORE PUSH1 0x20 DUP2 KECCAK256 SWAP4 POP PUSH1 0x1F NOT DUP6 AND SWAP1 JUMPDEST DUP2 DUP2 LT PUSH2 0x818 JUMPI POP SWAP1 DUP5 PUSH1 0x1 SWAP6 SWAP5 SWAP4 SWAP3 LT PUSH2 0x7FF JUMPI JUMPDEST POP POP POP DUP2 SHL ADD PUSH1 0x3 DUP4 ADD SSTORE PUSH2 0x4D9 JUMP JUMPDEST ADD MLOAD PUSH1 0x0 NOT PUSH1 0xF8 DUP5 PUSH1 0x3 SHL AND SHR NOT AND SWAP1 SSTORE DUP8 DUP1 DUP1 PUSH2 0x7EF JUMP JUMPDEST SWAP3 SWAP4 PUSH1 0x20 PUSH1 0x1 DUP2 SWAP3 DUP8 DUP7 ADD MLOAD DUP2 SSTORE ADD SWAP6 ADD SWAP4 ADD PUSH2 0x7D9 JUMP JUMPDEST SWAP1 SWAP2 POP PUSH1 0x3 DUP6 ADD PUSH1 0x0 MSTORE PUSH1 0x20 PUSH1 0x0 KECCAK256 PUSH1 0x1F DUP5 ADD PUSH1 0x5 SHR DUP2 ADD PUSH1 0x20 DUP6 LT PUSH2 0x87C JUMPI JUMPDEST SWAP1 DUP5 SWAP4 SWAP3 SWAP2 JUMPDEST PUSH1 0x1F DUP4 ADD PUSH1 0x5 SHR DUP3 ADD DUP2 LT PUSH2 0x86D JUMPI POP POP PUSH2 0x4AA JUMP JUMPDEST PUSH1 0x0 DUP2 SSTORE DUP6 SWAP5 POP PUSH1 0x1 ADD PUSH2 0x857 JUMP JUMPDEST POP DUP1 PUSH2 0x851 JUMP JUMPDEST SWAP1 POP DUP6 ADD MLOAD DUP9 PUSH2 0x46A JUMP JUMPDEST SWAP2 POP PUSH1 0x2 DUP6 ADD PUSH1 0x0 MSTORE PUSH1 0x20 PUSH1 0x0 KECCAK256 PUSH1 0x0 SWAP3 JUMPDEST PUSH1 0x1F NOT DUP4 AND DUP5 LT PUSH2 0x8E3 JUMPI PUSH1 0x1 SWAP4 POP DUP3 PUSH1 0x1F NOT DUP2 AND LT PUSH2 0x8CA JUMPI JUMPDEST POP POP DUP2 SHL ADD PUSH1 0x2 DUP5 ADD SSTORE PUSH2 0x481 JUMP JUMPDEST DUP8 ADD MLOAD PUSH1 0x0 NOT PUSH1 0xF8 DUP5 PUSH1 0x3 SHL AND SHR NOT AND SWAP1 SSTORE DUP9 DUP1 PUSH2 0x8BB JUMP JUMPDEST DUP8 DUP2 ADD MLOAD DUP3 SSTORE PUSH1 0x20 SWAP4 DUP5 ADD SWAP4 PUSH1 0x1 SWAP1 SWAP3 ADD SWAP2 ADD PUSH2 0x8A0 JUMP JUMPDEST PUSH1 0x2 DUP6 ADD PUSH1 0x0 MSTORE PUSH1 0x20 PUSH1 0x0 KECCAK256 PUSH1 0x1F DUP4 ADD PUSH1 0x5 SHR DUP2 ADD PUSH1 0x20 DUP5 LT PUSH2 0x93B JUMPI JUMPDEST PUSH1 0x1F DUP4 ADD PUSH1 0x5 SHR DUP3 ADD DUP2 LT PUSH2 0x92F JUMPI POP POP PUSH2 0x453 JUMP JUMPDEST PUSH1 0x0 DUP2 SSTORE PUSH1 0x1 ADD PUSH2 0x919 JUMP JUMPDEST POP DUP1 PUSH2 0x919 JUMP JUMPDEST CALLVALUE PUSH2 0x1C9 JUMPI PUSH1 0x20 CALLDATASIZE PUSH1 0x3 NOT ADD SLT PUSH2 0x1C9 JUMPI PUSH1 0x4 CALLDATALOAD DUP1 ISZERO ISZERO DUP1 PUSH2 0xA2F JUMPI JUMPDEST PUSH2 0x968 SWAP1 PUSH2 0x2085 JUMP JUMPDEST DUP1 PUSH1 0x0 MSTORE PUSH1 0x3 PUSH1 0x20 MSTORE PUSH2 0x98C PUSH1 0x1 DUP1 PUSH1 0xA0 SHL SUB PUSH1 0x1 PUSH1 0x40 PUSH1 0x0 KECCAK256 ADD SLOAD AND CALLER EQ PUSH2 0x20D1 JUMP JUMPDEST DUP1 PUSH1 0x0 MSTORE PUSH1 0x3 PUSH1 0x20 MSTORE PUSH1 0xFF PUSH1 0x6 PUSH1 0x40 PUSH1 0x0 KECCAK256 ADD SLOAD AND PUSH2 0x9EA JUMPI DUP1 PUSH1 0x0 MSTORE PUSH1 0x3 PUSH1 0x20 MSTORE PUSH1 0x6 PUSH1 0x40 PUSH1 0x0 KECCAK256 ADD PUSH1 0x1 PUSH1 0xFF NOT DUP3 SLOAD AND OR SWAP1 SSTORE CALLER SWAP1 PUSH32 0x885782B6FE94C078F3ED4CB815A599A818040CC046F696E901A6B03DF8DC917A PUSH1 0x0 DUP1 LOG3 STOP JUMPDEST PUSH1 0x40 MLOAD PUSH3 0x461BCD PUSH1 0xE5 SHL DUP2 MSTORE PUSH1 0x20 PUSH1 0x4 DUP3 ADD MSTORE PUSH1 0x17 PUSH1 0x24 DUP3 ADD MSTORE PUSH32 0x50726F706572747920616C726561647920616374697665000000000000000000 PUSH1 0x44 DUP3 ADD MSTORE PUSH1 0x64 SWAP1 REVERT JUMPDEST POP PUSH1 0x2 SLOAD DUP2 LT PUSH2 0x95F JUMP JUMPDEST CALLVALUE PUSH2 0x1C9 JUMPI PUSH1 0x0 CALLDATASIZE PUSH1 0x3 NOT ADD SLT PUSH2 0x1C9 JUMPI PUSH1 0x1 SLOAD PUSH1 0x40 MLOAD PUSH1 0x1 PUSH1 0x1 PUSH1 0xA0 SHL SUB SWAP1 SWAP2 AND DUP2 MSTORE PUSH1 0x20 SWAP1 RETURN JUMPDEST CALLVALUE PUSH2 0x1C9 JUMPI PUSH1 0x40 CALLDATASIZE PUSH1 0x3 NOT ADD SLT PUSH2 0x1C9 JUMPI PUSH2 0xA7C PUSH2 0x1C45 JUMP JUMPDEST PUSH1 0x1 PUSH1 0x1 PUSH1 0xA0 SHL SUB AND PUSH1 0x0 SWAP1 DUP2 MSTORE PUSH1 0x4 PUSH1 0x20 MSTORE PUSH1 0x40 SWAP1 KECCAK256 DUP1 SLOAD PUSH1 0x24 CALLDATALOAD SWAP2 SWAP1 DUP3 LT ISZERO PUSH2 0x1C9 JUMPI PUSH1 0x20 SWAP2 PUSH2 0xAAD SWAP2 PUSH2 0x1DB6 JUMP JUMPDEST SWAP1 SLOAD PUSH1 0x40 MLOAD SWAP2 PUSH1 0x3 SHL SHR DUP2 MSTORE RETURN JUMPDEST CALLVALUE PUSH2 0x1C9 JUMPI PUSH1 0x20 CALLDATASIZE PUSH1 0x3 NOT ADD SLT PUSH2 0x1C9 JUMPI PUSH1 0x4 CALLDATALOAD DUP1 ISZERO ISZERO DUP1 PUSH2 0xBA6 JUMPI JUMPDEST PUSH2 0xAE1 SWAP1 PUSH2 0x2085 JUMP JUMPDEST DUP1 PUSH1 0x0 MSTORE PUSH1 0x3 PUSH1 0x20 MSTORE PUSH2 0xB05 PUSH1 0x1 DUP1 PUSH1 0xA0 SHL SUB PUSH1 0x1 PUSH1 0x40 PUSH1 0x0 KECCAK256 ADD SLOAD AND CALLER EQ PUSH2 0x20D1 JUMP JUMPDEST DUP1 PUSH1 0x0 MSTORE PUSH1 0x3 PUSH1 0x20 MSTORE PUSH1 0xFF PUSH1 0x6 PUSH1 0x40 PUSH1 0x0 KECCAK256 ADD SLOAD AND ISZERO PUSH2 0xB61 JUMPI DUP1 PUSH1 0x0 MSTORE PUSH1 0x3 PUSH1 0x20 MSTORE PUSH1 0x6 PUSH1 0x40 PUSH1 0x0 KECCAK256 ADD PUSH1 0xFF NOT DUP2 SLOAD AND SWAP1 SSTORE CALLER SWAP1 PUSH32 0xF39D3B59EAFC983E858C88044C0F5B4DAB6F687310C0830E10D96F47C80EB902 PUSH1 0x0 DUP1 LOG3 STOP JUMPDEST PUSH1 0x40 MLOAD PUSH3 0x461BCD PUSH1 0xE5 SHL DUP2 MSTORE PUSH1 0x20 PUSH1 0x4 DUP3 ADD MSTORE PUSH1 0x19 PUSH1 0x24 DUP3 ADD MSTORE PUSH32 0x50726F706572747920616C726561647920696E61637469766500000000000000 PUSH1 0x44 DUP3 ADD MSTORE PUSH1 0x64 SWAP1 REVERT JUMPDEST POP PUSH1 0x2 SLOAD DUP2 LT PUSH2 0xAD8 JUMP JUMPDEST CALLVALUE PUSH2 0x1C9 JUMPI PUSH1 0x0 CALLDATASIZE PUSH1 0x3 NOT ADD SLT PUSH2 0x1C9 JUMPI PUSH2 0xBCA PUSH2 0x1EAE JUMP JUMPDEST PUSH1 0x1 DUP1 SLOAD PUSH1 0x1 PUSH1 0x1 PUSH1 0xA0 SHL SUB NOT DUP2 AND SWAP1 SWAP2 SSTORE PUSH1 0x0 SWAP1 PUSH1 0x1 PUSH1 0x1 PUSH1 0xA0 SHL SUB AND PUSH32 0x8BE0079C531659141344CD1FD0A4F28419497F9722A3DAAFE3B4186F6B6457E0 DUP3 DUP1 LOG3 STOP JUMPDEST CALLVALUE PUSH2 0x1C9 JUMPI PUSH1 0x0 CALLDATASIZE PUSH1 0x3 NOT ADD SLT PUSH2 0x1C9 JUMPI PUSH1 0x0 DUP1 PUSH1 0x5 SLOAD SWAP1 JUMPDEST DUP2 DUP2 LT PUSH2 0xC39 JUMPI PUSH1 0x20 DUP4 PUSH1 0x40 MLOAD SWAP1 DUP2 MSTORE RETURN JUMPDEST PUSH2 0xC42 DUP2 PUSH2 0x1D69 JUMP JUMPDEST SWAP1 SLOAD PUSH1 0x3 SWAP2 DUP3 SHL SHR PUSH1 0x0 MSTORE PUSH1 0x20 MSTORE PUSH1 0xFF PUSH1 0x6 PUSH1 0x40 PUSH1 0x0 KECCAK256 ADD SLOAD AND PUSH2 0xC6F JUMPI JUMPDEST PUSH2 0xC6A SWAP1 PUSH2 0x2001 JUMP JUMPDEST PUSH2 0xC27 JUMP JUMPDEST SWAP2 PUSH2 0xC7C PUSH2 0xC6A SWAP2 PUSH2 0x2001 JUMP JUMPDEST SWAP3 SWAP1 POP PUSH2 0xC61 JUMP JUMPDEST CALLVALUE PUSH2 0x1C9 JUMPI PUSH1 0x20 CALLDATASIZE PUSH1 0x3 NOT ADD SLT PUSH2 0x1C9 JUMPI PUSH1 0x4 CALLDATALOAD PUSH1 0x5 SLOAD DUP2 LT ISZERO PUSH2 0x1C9 JUMPI PUSH2 0xAAD PUSH1 0x20 SWAP2 PUSH2 0x1D69 JUMP JUMPDEST CALLVALUE PUSH2 0x1C9 JUMPI PUSH1 0xC0 CALLDATASIZE PUSH1 0x3 NOT ADD SLT PUSH2 0x1C9 JUMPI PUSH1 0x24 CALLDATALOAD PUSH1 0x1 PUSH1 0x1 PUSH1 0x40 SHL SUB DUP2 GT PUSH2 0x1C9 JUMPI PUSH2 0xCDD SWAP1 CALLDATASIZE SWAP1 PUSH1 0x4 ADD PUSH2 0x1C98 JUMP JUMPDEST PUSH1 0x44 CALLDATALOAD PUSH1 0x1 PUSH1 0x1 PUSH1 0x40 SHL SUB DUP2 GT PUSH2 0x1C9 JUMPI PUSH2 0xCFC SWAP1 CALLDATASIZE SWAP1 PUSH1 0x4 ADD PUSH2 0x1C98 JUMP JUMPDEST SWAP1 PUSH1 0x64 CALLDATALOAD PUSH1 0x1 PUSH1 0x1 PUSH1 0x40 SHL SUB DUP2 GT PUSH2 0x1C9 JUMPI PUSH2 0xD1C SWAP1 CALLDATASIZE SWAP1 PUSH1 0x4 ADD PUSH2 0x1C98 JUMP JUMPDEST SWAP1 PUSH1 0xA4 CALLDATALOAD PUSH1 0x1 PUSH1 0x1 PUSH1 0x40 SHL SUB DUP2 GT PUSH2 0x1C9 JUMPI PUSH2 0xD3C SWAP1 CALLDATASIZE SWAP1 PUSH1 0x4 ADD PUSH2 0x1C98 JUMP JUMPDEST SWAP2 PUSH1 0x4 CALLDATALOAD ISZERO ISZERO DUP1 PUSH2 0x12B2 JUMPI JUMPDEST PUSH2 0xD51 SWAP1 PUSH2 0x2085 JUMP JUMPDEST PUSH1 0x4 CALLDATALOAD PUSH1 0x0 MSTORE PUSH1 0x3 PUSH1 0x20 MSTORE PUSH2 0xD77 PUSH1 0x1 DUP1 PUSH1 0xA0 SHL SUB PUSH1 0x1 PUSH1 0x40 PUSH1 0x0 KECCAK256 ADD SLOAD AND CALLER EQ PUSH2 0x20D1 JUMP JUMPDEST PUSH1 0x4 CALLDATALOAD PUSH1 0x0 MSTORE PUSH1 0x3 PUSH1 0x20 MSTORE PUSH1 0xFF PUSH1 0x6 PUSH1 0x40 PUSH1 0x0 KECCAK256 ADD SLOAD AND ISZERO PUSH2 0x1274 JUMPI PUSH2 0xD9F DUP3 MLOAD ISZERO ISZERO PUSH2 0x1EDA JUMP JUMPDEST PUSH2 0xDAB DUP5 MLOAD ISZERO ISZERO PUSH2 0x1F1D JUMP JUMPDEST PUSH2 0xDB7 DUP2 MLOAD ISZERO ISZERO PUSH2 0x1F69 JUMP JUMPDEST PUSH2 0xDC4 PUSH1 0x84 CALLDATALOAD ISZERO ISZERO PUSH2 0x1FB5 JUMP JUMPDEST PUSH1 0x4 CALLDATALOAD PUSH1 0x0 MSTORE PUSH1 0x3 PUSH1 0x20 MSTORE PUSH1 0x40 PUSH1 0x0 KECCAK256 SWAP2 DUP1 MLOAD SWAP1 PUSH1 0x1 PUSH1 0x1 PUSH1 0x40 SHL SUB DUP3 GT PUSH2 0x6D7 JUMPI DUP2 SWAP1 PUSH2 0xDF5 PUSH1 0x2 DUP7 ADD SLOAD PUSH2 0x1DCE JUMP JUMPDEST PUSH1 0x1F DUP2 GT PUSH2 0x1221 JUMPI JUMPDEST POP PUSH1 0x20 SWAP1 PUSH1 0x1F DUP4 GT PUSH1 0x1 EQ PUSH2 0x11AF JUMPI PUSH1 0x0 SWAP3 PUSH2 0x11A4 JUMPI JUMPDEST POP POP DUP2 PUSH1 0x1 SHL SWAP2 PUSH1 0x0 NOT SWAP1 PUSH1 0x3 SHL SHR NOT AND OR PUSH1 0x2 DUP4 ADD SSTORE JUMPDEST DUP4 MLOAD PUSH1 0x1 PUSH1 0x1 PUSH1 0x40 SHL SUB DUP2 GT PUSH2 0x6D7 JUMPI PUSH2 0xE4A PUSH1 0x3 DUP5 ADD SLOAD PUSH2 0x1DCE JUMP JUMPDEST PUSH1 0x1F DUP2 GT PUSH2 0x115D JUMPI JUMPDEST POP PUSH1 0x20 PUSH1 0x1F DUP3 GT PUSH1 0x1 EQ PUSH2 0x10EE JUMPI DUP2 SWAP3 SWAP4 SWAP5 SWAP6 PUSH1 0x0 SWAP3 PUSH2 0x10E3 JUMPI JUMPDEST POP POP DUP2 PUSH1 0x1 SHL SWAP2 PUSH1 0x0 NOT SWAP1 PUSH1 0x3 SHL SHR NOT AND OR PUSH1 0x3 DUP4 ADD SSTORE JUMPDEST DUP1 MLOAD SWAP1 PUSH1 0x1 PUSH1 0x1 PUSH1 0x40 SHL SUB DUP3 GT PUSH2 0x6D7 JUMPI PUSH2 0xEA4 PUSH1 0x4 DUP5 ADD SLOAD PUSH2 0x1DCE JUMP JUMPDEST PUSH1 0x1F DUP2 GT PUSH2 0x109C JUMPI JUMPDEST POP PUSH1 0x20 SWAP1 PUSH1 0x1F DUP4 GT PUSH1 0x1 EQ PUSH2 0x102B JUMPI PUSH1 0x8 SWAP4 SWAP3 SWAP2 PUSH1 0x0 SWAP2 DUP4 PUSH2 0x1020 JUMPI JUMPDEST POP POP DUP2 PUSH1 0x1 SHL SWAP2 PUSH1 0x0 NOT SWAP1 PUSH1 0x3 SHL SHR NOT AND OR PUSH1 0x4 DUP3 ADD SSTORE JUMPDEST PUSH1 0x84 CALLDATALOAD PUSH1 0x5 DUP3 ADD SSTORE ADD DUP2 MLOAD PUSH1 0x1 PUSH1 0x1 PUSH1 0x40 SHL SUB DUP2 GT PUSH2 0x6D7 JUMPI PUSH2 0xF05 DUP3 SLOAD PUSH2 0x1DCE JUMP JUMPDEST PUSH1 0x1F DUP2 GT PUSH2 0xFD8 JUMPI JUMPDEST POP PUSH1 0x20 SWAP3 PUSH1 0x1F DUP3 GT PUSH1 0x1 EQ PUSH2 0xF74 JUMPI SWAP3 DUP2 SWAP3 SWAP4 PUSH1 0x0 SWAP3 PUSH2 0xF69 JUMPI JUMPDEST POP POP DUP2 PUSH1 0x1 SHL SWAP2 PUSH1 0x0 NOT SWAP1 PUSH1 0x3 SHL SHR NOT AND OR SWAP1 SSTORE JUMPDEST CALLER PUSH1 0x4 CALLDATALOAD PUSH32 0x885782B6FE94C078F3ED4CB815A599A818040CC046F696E901A6B03DF8DC917A PUSH1 0x0 DUP1 LOG3 STOP JUMPDEST ADD MLOAD SWAP1 POP DUP4 DUP1 PUSH2 0xF29 JUMP JUMPDEST PUSH1 0x1F NOT DUP3 AND SWAP4 DUP4 PUSH1 0x0 MSTORE PUSH1 0x20 PUSH1 0x0 KECCAK256 SWAP2 PUSH1 0x0 JUMPDEST DUP7 DUP2 LT PUSH2 0xFC0 JUMPI POP DUP4 PUSH1 0x1 SWAP6 SWAP7 LT PUSH2 0xFA7 JUMPI JUMPDEST POP POP POP DUP2 SHL ADD SWAP1 SSTORE PUSH2 0xF3E JUMP JUMPDEST ADD MLOAD PUSH1 0x0 NOT PUSH1 0xF8 DUP5 PUSH1 0x3 SHL AND SHR NOT AND SWAP1 SSTORE DUP4 DUP1 DUP1 PUSH2 0xF9A JUMP JUMPDEST SWAP2 SWAP3 PUSH1 0x20 PUSH1 0x1 DUP2 SWAP3 DUP7 DUP6 ADD MLOAD DUP2 SSTORE ADD SWAP5 ADD SWAP3 ADD PUSH2 0xF87 JUMP JUMPDEST DUP3 PUSH1 0x0 MSTORE PUSH1 0x20 PUSH1 0x0 KECCAK256 PUSH1 0x1F DUP4 ADD PUSH1 0x5 SHR DUP2 ADD SWAP2 PUSH1 0x20 DUP5 LT PUSH2 0x1016 JUMPI JUMPDEST PUSH1 0x1F ADD PUSH1 0x5 SHR ADD SWAP1 JUMPDEST DUP2 DUP2 LT PUSH2 0x100A JUMPI POP PUSH2 0xF0E JUMP JUMPDEST PUSH1 0x0 DUP2 SSTORE PUSH1 0x1 ADD PUSH2 0xFFD JUMP JUMPDEST SWAP1 SWAP2 POP DUP2 SWAP1 PUSH2 0xFF4 JUMP JUMPDEST ADD MLOAD SWAP1 POP DUP6 DUP1 PUSH2 0xECA JUMP JUMPDEST SWAP1 PUSH1 0x1F NOT DUP4 AND SWAP2 PUSH1 0x4 DUP6 ADD PUSH1 0x0 MSTORE PUSH1 0x20 PUSH1 0x0 KECCAK256 SWAP3 PUSH1 0x0 JUMPDEST DUP2 DUP2 LT PUSH2 0x1084 JUMPI POP SWAP2 PUSH1 0x1 SWAP4 SWAP2 DUP6 PUSH1 0x8 SWAP8 SWAP7 SWAP5 LT PUSH2 0x106B JUMPI JUMPDEST POP POP POP DUP2 SHL ADD PUSH1 0x4 DUP3 ADD SSTORE PUSH2 0xEE2 JUMP JUMPDEST ADD MLOAD PUSH1 0x0 NOT PUSH1 0xF8 DUP5 PUSH1 0x3 SHL AND SHR NOT AND SWAP1 SSTORE DUP6 DUP1 DUP1 PUSH2 0x105B JUMP JUMPDEST SWAP3 SWAP4 PUSH1 0x20 PUSH1 0x1 DUP2 SWAP3 DUP8 DUP7 ADD MLOAD DUP2 SSTORE ADD SWAP6 ADD SWAP4 ADD PUSH2 0x1042 JUMP JUMPDEST PUSH1 0x4 DUP5 ADD PUSH1 0x0 MSTORE PUSH1 0x20 PUSH1 0x0 KECCAK256 PUSH1 0x1F DUP5 ADD PUSH1 0x5 SHR DUP2 ADD PUSH1 0x20 DUP6 LT PUSH2 0x10DC JUMPI JUMPDEST PUSH1 0x1F DUP4 ADD PUSH1 0x5 SHR DUP3 ADD DUP2 LT PUSH2 0x10D0 JUMPI POP POP PUSH2 0xEAD JUMP JUMPDEST PUSH1 0x0 DUP2 SSTORE PUSH1 0x1 ADD PUSH2 0x10BA JUMP JUMPDEST POP DUP1 PUSH2 0x10BA JUMP JUMPDEST ADD MLOAD SWAP1 POP DUP6 DUP1 PUSH2 0xE6E JUMP JUMPDEST PUSH1 0x3 DUP5 ADD PUSH1 0x0 MSTORE PUSH1 0x20 PUSH1 0x0 KECCAK256 SWAP1 PUSH1 0x0 JUMPDEST PUSH1 0x1F NOT DUP5 AND DUP2 LT PUSH2 0x1145 JUMPI POP PUSH1 0x1 SWAP4 SWAP5 SWAP6 SWAP7 DUP4 PUSH1 0x1F NOT DUP2 AND LT PUSH2 0x112C JUMPI JUMPDEST POP POP POP DUP2 SHL ADD PUSH1 0x3 DUP4 ADD SSTORE PUSH2 0xE86 JUMP JUMPDEST ADD MLOAD PUSH1 0x0 NOT PUSH1 0xF8 DUP5 PUSH1 0x3 SHL AND SHR NOT AND SWAP1 SSTORE DUP6 DUP1 DUP1 PUSH2 0x111C JUMP JUMPDEST SWAP1 SWAP2 PUSH1 0x20 PUSH1 0x1 DUP2 SWAP3 DUP6 DUP12 ADD MLOAD DUP2 SSTORE ADD SWAP4 ADD SWAP2 ADD PUSH2 0x10FE JUMP JUMPDEST PUSH1 0x3 DUP5 ADD PUSH1 0x0 MSTORE PUSH1 0x20 PUSH1 0x0 KECCAK256 PUSH1 0x1F DUP4 ADD PUSH1 0x5 SHR DUP2 ADD PUSH1 0x20 DUP5 LT PUSH2 0x119D JUMPI JUMPDEST PUSH1 0x1F DUP4 ADD PUSH1 0x5 SHR DUP3 ADD DUP2 LT PUSH2 0x1191 JUMPI POP POP PUSH2 0xE53 JUMP JUMPDEST PUSH1 0x0 DUP2 SSTORE PUSH1 0x1 ADD PUSH2 0x117B JUMP JUMPDEST POP DUP1 PUSH2 0x117B JUMP JUMPDEST ADD MLOAD SWAP1 POP DUP7 DUP1 PUSH2 0xE15 JUMP JUMPDEST SWAP3 POP PUSH1 0x2 DUP6 ADD PUSH1 0x0 MSTORE PUSH1 0x20 PUSH1 0x0 KECCAK256 SWAP1 PUSH1 0x0 SWAP4 JUMPDEST PUSH1 0x1F NOT DUP5 AND DUP6 LT PUSH2 0x1206 JUMPI PUSH1 0x1 SWAP5 POP DUP4 PUSH1 0x1F NOT DUP2 AND LT PUSH2 0x11ED JUMPI JUMPDEST POP POP POP DUP2 SHL ADD PUSH1 0x2 DUP4 ADD SSTORE PUSH2 0xE2D JUMP JUMPDEST ADD MLOAD PUSH1 0x0 NOT PUSH1 0xF8 DUP5 PUSH1 0x3 SHL AND SHR NOT AND SWAP1 SSTORE DUP7 DUP1 DUP1 PUSH2 0x11DD JUMP JUMPDEST DUP2 DUP2 ADD MLOAD DUP4 SSTORE PUSH1 0x20 SWAP5 DUP6 ADD SWAP5 PUSH1 0x1 SWAP1 SWAP4 ADD SWAP3 SWAP1 SWAP2 ADD SWAP1 PUSH2 0x11C2 JUMP JUMPDEST SWAP1 SWAP2 POP PUSH1 0x2 DUP6 ADD PUSH1 0x0 MSTORE PUSH1 0x20 PUSH1 0x0 KECCAK256 PUSH1 0x1F DUP5 ADD PUSH1 0x5 SHR DUP2 ADD PUSH1 0x20 DUP6 LT PUSH2 0x126D JUMPI JUMPDEST SWAP1 DUP5 SWAP4 SWAP3 SWAP2 JUMPDEST PUSH1 0x1F DUP4 ADD PUSH1 0x5 SHR DUP3 ADD DUP2 LT PUSH2 0x125E JUMPI POP POP PUSH2 0xDFE JUMP JUMPDEST PUSH1 0x0 DUP2 SSTORE DUP6 SWAP5 POP PUSH1 0x1 ADD PUSH2 0x1248 JUMP JUMPDEST POP DUP1 PUSH2 0x1242 JUMP JUMPDEST PUSH1 0x40 MLOAD PUSH3 0x461BCD PUSH1 0xE5 SHL DUP2 MSTORE PUSH1 0x20 PUSH1 0x4 DUP3 ADD MSTORE PUSH1 0x16 PUSH1 0x24 DUP3 ADD MSTORE PUSH22 0x50726F7065727479206973206E6F7420616374697665 PUSH1 0x50 SHL PUSH1 0x44 DUP3 ADD MSTORE PUSH1 0x64 SWAP1 REVERT JUMPDEST POP PUSH1 0x2 SLOAD PUSH1 0x4 CALLDATALOAD LT PUSH2 0xD48 JUMP JUMPDEST CALLVALUE PUSH2 0x1C9 JUMPI PUSH1 0x0 CALLDATASIZE PUSH1 0x3 NOT ADD SLT PUSH2 0x1C9 JUMPI PUSH1 0x40 MLOAD DUP1 PUSH1 0x5 SLOAD SWAP2 DUP3 DUP2 MSTORE PUSH1 0x20 DUP1 SWAP2 ADD SWAP3 PUSH1 0x5 PUSH1 0x0 MSTORE PUSH32 0x36B6384B5ECA791C62761152D0C79BB0604C104A5FB6F4EB0703F3154BB3DB0 SWAP2 PUSH1 0x0 SWAP1 JUMPDEST DUP3 DUP3 LT PUSH2 0x132F JUMPI PUSH2 0x1C5 DUP6 PUSH2 0x1323 DUP2 DUP10 SUB DUP3 PUSH2 0x1C77 JUMP JUMPDEST PUSH1 0x40 MLOAD SWAP2 DUP3 SWAP2 DUP3 PUSH2 0x1D2E JUMP JUMPDEST DUP4 SLOAD DUP7 MSTORE SWAP5 DUP6 ADD SWAP5 PUSH1 0x1 SWAP4 DUP5 ADD SWAP4 SWAP1 SWAP2 ADD SWAP1 PUSH2 0x130C JUMP JUMPDEST CALLVALUE PUSH2 0x1C9 JUMPI PUSH1 0x20 DUP1 PUSH1 0x3 NOT CALLDATASIZE ADD SLT PUSH2 0x1C9 JUMPI PUSH1 0x1 PUSH1 0x1 PUSH1 0xA0 SHL SUB PUSH2 0x1368 PUSH2 0x1C45 JUMP JUMPDEST AND PUSH1 0x0 MSTORE PUSH1 0x4 DUP2 MSTORE PUSH1 0x40 PUSH1 0x0 KECCAK256 SWAP1 PUSH1 0x40 MLOAD SWAP1 DUP2 DUP2 DUP5 SLOAD SWAP2 DUP3 DUP2 MSTORE ADD SWAP4 PUSH1 0x0 MSTORE DUP2 PUSH1 0x0 KECCAK256 SWAP2 PUSH1 0x0 SWAP1 JUMPDEST DUP3 DUP3 LT PUSH2 0x13A7 JUMPI PUSH2 0x1C5 DUP6 PUSH2 0x1323 DUP2 DUP10 SUB DUP3 PUSH2 0x1C77 JUMP JUMPDEST DUP4 SLOAD DUP7 MSTORE SWAP5 DUP6 ADD SWAP5 PUSH1 0x1 SWAP4 DUP5 ADD SWAP4 SWAP1 SWAP2 ADD SWAP1 PUSH2 0x1390 JUMP JUMPDEST CALLVALUE PUSH2 0x1C9 JUMPI PUSH1 0x0 CALLDATASIZE PUSH1 0x3 NOT ADD SLT PUSH2 0x1C9 JUMPI PUSH1 0x20 PUSH1 0x2 SLOAD PUSH1 0x40 MLOAD SWAP1 DUP2 MSTORE RETURN JUMPDEST CALLVALUE PUSH2 0x1C9 JUMPI PUSH1 0x20 DUP1 PUSH1 0x3 NOT CALLDATASIZE ADD SLT PUSH2 0x1C9 JUMPI PUSH1 0x4 CALLDATALOAD SWAP1 PUSH1 0x40 MLOAD PUSH2 0x13FE DUP2 PUSH2 0x1C5B JUMP JUMPDEST PUSH1 0x0 DUP2 MSTORE PUSH1 0x0 DUP3 DUP3 ADD MSTORE PUSH1 0x60 SWAP3 DUP4 PUSH1 0x40 DUP4 ADD MSTORE DUP4 DUP1 DUP4 ADD MSTORE DUP4 PUSH1 0x80 DUP4 ADD MSTORE PUSH1 0x0 PUSH1 0xA0 DUP4 ADD MSTORE PUSH1 0x0 PUSH1 0xC0 DUP4 ADD MSTORE PUSH1 0x0 PUSH1 0xE0 DUP4 ADD MSTORE DUP4 PUSH2 0x100 DUP1 SWAP4 ADD MSTORE DUP1 ISZERO ISZERO DUP1 PUSH2 0x157B JUMPI JUMPDEST PUSH2 0x144B SWAP1 PUSH2 0x2085 JUMP JUMPDEST PUSH1 0x0 MSTORE PUSH1 0x3 DUP3 MSTORE PUSH1 0x40 PUSH1 0x0 KECCAK256 PUSH1 0x40 MLOAD SWAP4 PUSH2 0x1464 DUP6 PUSH2 0x1C5B JUMP JUMPDEST DUP2 SLOAD DUP6 MSTORE PUSH1 0x1 DUP3 ADD SLOAD PUSH1 0x1 PUSH1 0x1 PUSH1 0xA0 SHL SUB SWAP1 DUP2 AND DUP6 DUP8 ADD SWAP1 DUP2 MSTORE SWAP1 SWAP4 PUSH2 0x148C PUSH1 0x2 DUP6 ADD PUSH2 0x1E08 JUMP JUMPDEST PUSH1 0x40 DUP9 ADD SWAP1 DUP2 MSTORE SWAP4 PUSH2 0x14A0 PUSH1 0x3 DUP3 ADD PUSH2 0x1E08 JUMP JUMPDEST DUP9 DUP6 ADD SWAP1 DUP2 MSTORE SWAP6 PUSH2 0x14B3 PUSH1 0x4 DUP4 ADD PUSH2 0x1E08 JUMP JUMPDEST PUSH1 0x80 DUP11 ADD SWAP1 DUP2 MSTORE PUSH1 0x5 DUP4 ADD SLOAD SWAP7 PUSH1 0xA0 DUP12 ADD SWAP8 DUP9 MSTORE PUSH1 0x6 DUP5 ADD SLOAD PUSH1 0xFF AND SWAP3 PUSH1 0xC0 DUP13 ADD SWAP4 ISZERO ISZERO DUP5 MSTORE PUSH1 0x7 DUP6 ADD SLOAD SWAP5 PUSH1 0xE0 DUP14 ADD SWAP6 DUP7 MSTORE PUSH1 0x8 ADD PUSH2 0x14F2 SWAP1 PUSH2 0x1E08 JUMP JUMPDEST SWAP7 DUP7 DUP14 ADD SWAP8 DUP9 MSTORE DUP12 PUSH1 0x40 MLOAD SWAP14 DUP15 SWAP14 DUP15 MSTORE MLOAD SWAP1 DUP14 ADD MSTORE MLOAD AND PUSH1 0x40 DUP12 ADD MSTORE MLOAD PUSH2 0x120 DUP1 SWAP8 DUP12 ADD MSTORE PUSH2 0x140 DUP11 ADD PUSH2 0x1525 SWAP2 PUSH2 0x1CEE JUMP JUMPDEST SWAP8 MLOAD PUSH1 0x1F NOT SWAP9 DUP10 DUP12 DUP3 SUB ADD PUSH1 0x80 DUP13 ADD MSTORE PUSH2 0x153E SWAP2 PUSH2 0x1CEE JUMP JUMPDEST SWAP1 MLOAD SWAP1 DUP9 DUP11 DUP3 SUB ADD PUSH1 0xA0 DUP12 ADD MSTORE PUSH2 0x1554 SWAP2 PUSH2 0x1CEE JUMP JUMPDEST SWAP6 MLOAD PUSH1 0xC0 DUP10 ADD MSTORE MLOAD ISZERO ISZERO PUSH1 0xE0 DUP9 ADD MSTORE MLOAD SWAP1 DUP7 ADD MSTORE MLOAD SWAP3 DUP5 DUP4 SUB ADD SWAP1 DUP5 ADD MSTORE PUSH2 0x1C5 SWAP2 PUSH2 0x1CEE JUMP JUMPDEST POP PUSH1 0x2 SLOAD DUP2 LT PUSH2 0x1442 JUMP JUMPDEST CALLVALUE PUSH2 0x1C9 JUMPI PUSH1 0x0 CALLDATASIZE PUSH1 0x3 NOT ADD SLT PUSH2 0x1C9 JUMPI PUSH1 0x20 PUSH1 0x5 SLOAD PUSH1 0x40 MLOAD SWAP1 DUP2 MSTORE RETURN JUMPDEST CALLVALUE PUSH2 0x1C9 JUMPI PUSH1 0xC0 CALLDATASIZE PUSH1 0x3 NOT ADD SLT PUSH2 0x1C9 JUMPI PUSH2 0x15BD PUSH2 0x1C45 JUMP JUMPDEST PUSH1 0x24 CALLDATALOAD PUSH1 0x1 PUSH1 0x1 PUSH1 0x40 SHL SUB DUP2 GT PUSH2 0x1C9 JUMPI PUSH2 0x15DC SWAP1 CALLDATASIZE SWAP1 PUSH1 0x4 ADD PUSH2 0x1C98 JUMP JUMPDEST SWAP1 PUSH1 0x44 CALLDATALOAD PUSH1 0x1 PUSH1 0x1 PUSH1 0x40 SHL SUB DUP2 GT PUSH2 0x1C9 JUMPI PUSH2 0x15FC SWAP1 CALLDATASIZE SWAP1 PUSH1 0x4 ADD PUSH2 0x1C98 JUMP JUMPDEST SWAP1 PUSH1 0x64 CALLDATALOAD PUSH1 0x1 PUSH1 0x1 PUSH1 0x40 SHL SUB DUP2 GT PUSH2 0x1C9 JUMPI PUSH2 0x161C SWAP1 CALLDATASIZE SWAP1 PUSH1 0x4 ADD PUSH2 0x1C98 JUMP JUMPDEST SWAP2 PUSH1 0xA4 CALLDATALOAD PUSH1 0x1 PUSH1 0x1 PUSH1 0x40 SHL SUB DUP2 GT PUSH2 0x1C9 JUMPI PUSH2 0x163C SWAP1 CALLDATASIZE SWAP1 PUSH1 0x4 ADD PUSH2 0x1C98 JUMP JUMPDEST PUSH1 0x1 PUSH1 0x1 PUSH1 0xA0 SHL SUB DUP4 AND ISZERO PUSH2 0x1C00 JUMPI PUSH2 0x1657 DUP6 MLOAD ISZERO ISZERO PUSH2 0x1EDA JUMP JUMPDEST PUSH2 0x1663 DUP3 MLOAD ISZERO ISZERO PUSH2 0x1F1D JUMP JUMPDEST PUSH2 0x166F DUP5 MLOAD ISZERO ISZERO PUSH2 0x1F69 JUMP JUMPDEST PUSH2 0x167C PUSH1 0x84 CALLDATALOAD ISZERO ISZERO PUSH2 0x1FB5 JUMP JUMPDEST PUSH1 0x2 SLOAD SWAP4 PUSH2 0x1689 DUP6 PUSH2 0x2001 JUMP JUMPDEST PUSH1 0x2 SSTORE PUSH1 0x0 DUP6 DUP2 MSTORE PUSH1 0x3 PUSH1 0x20 MSTORE PUSH1 0x40 SWAP1 KECCAK256 DUP6 DUP2 SSTORE PUSH1 0x1 DUP2 ADD DUP1 SLOAD PUSH1 0x1 PUSH1 0x1 PUSH1 0xA0 SHL SUB NOT AND PUSH1 0x1 PUSH1 0x1 PUSH1 0xA0 SHL SUB DUP8 AND OR SWAP1 SSTORE DUP7 MLOAD SWAP1 SWAP4 SWAP1 PUSH1 0x1 PUSH1 0x1 PUSH1 0x40 SHL SUB DUP2 GT PUSH2 0x6D7 JUMPI PUSH2 0x16DA PUSH1 0x2 DUP7 ADD SLOAD PUSH2 0x1DCE JUMP JUMPDEST PUSH1 0x1F DUP2 GT PUSH2 0x1BB9 JUMPI JUMPDEST POP DUP1 PUSH1 0x20 PUSH1 0x1F DUP3 GT PUSH1 0x1 EQ PUSH2 0x1B4B JUMPI PUSH1 0x0 SWAP2 PUSH2 0x1B40 JUMPI JUMPDEST POP DUP2 PUSH1 0x1 SHL SWAP2 PUSH1 0x0 NOT SWAP1 PUSH1 0x3 SHL SHR NOT AND OR PUSH1 0x2 DUP6 ADD SSTORE JUMPDEST DUP1 MLOAD SWAP1 PUSH1 0x1 PUSH1 0x1 PUSH1 0x40 SHL SUB DUP3 GT PUSH2 0x6D7 JUMPI DUP2 SWAP1 PUSH2 0x1731 PUSH1 0x3 DUP8 ADD SLOAD PUSH2 0x1DCE JUMP JUMPDEST PUSH1 0x1F DUP2 GT PUSH2 0x1AED JUMPI JUMPDEST POP PUSH1 0x20 SWAP1 PUSH1 0x1F DUP4 GT PUSH1 0x1 EQ PUSH2 0x1A80 JUMPI PUSH1 0x0 SWAP3 PUSH2 0x1A75 JUMPI JUMPDEST POP POP DUP2 PUSH1 0x1 SHL SWAP2 PUSH1 0x0 NOT SWAP1 PUSH1 0x3 SHL SHR NOT AND OR PUSH1 0x3 DUP5 ADD SSTORE JUMPDEST DUP1 MLOAD SWAP1 PUSH1 0x1 PUSH1 0x1 PUSH1 0x40 SHL SUB DUP3 GT PUSH2 0x6D7 JUMPI DUP2 SWAP1 PUSH2 0x1789 PUSH1 0x4 DUP7 ADD SLOAD PUSH2 0x1DCE JUMP JUMPDEST PUSH1 0x1F DUP2 GT PUSH2 0x1A22 JUMPI JUMPDEST POP PUSH1 0x20 SWAP1 PUSH1 0x1F DUP4 GT PUSH1 0x1 EQ PUSH2 0x19B5 JUMPI PUSH1 0x0 SWAP3 PUSH2 0x19AA JUMPI JUMPDEST POP POP DUP2 PUSH1 0x1 SHL SWAP2 PUSH1 0x0 NOT SWAP1 PUSH1 0x3 SHL SHR NOT AND OR PUSH1 0x4 DUP4 ADD SSTORE JUMPDEST PUSH1 0x84 CALLDATALOAD PUSH1 0x5 DUP4 ADD SSTORE PUSH1 0x6 DUP3 ADD DUP1 SLOAD PUSH1 0xFF NOT AND PUSH1 0x1 OR SWAP1 SSTORE TIMESTAMP PUSH1 0x7 DUP4 ADD SSTORE DUP1 MLOAD SWAP1 PUSH1 0x1 PUSH1 0x1 PUSH1 0x40 SHL SUB DUP3 GT PUSH2 0x6D7 JUMPI PUSH2 0x17FC PUSH1 0x8 DUP5 ADD SLOAD PUSH2 0x1DCE JUMP JUMPDEST PUSH1 0x1F DUP2 GT PUSH2 0x195F JUMPI JUMPDEST POP SWAP2 PUSH1 0x20 SWAP6 SWAP2 DUP6 SWAP4 DUP8 SWAP1 PUSH1 0x1F DUP4 GT PUSH1 0x1 EQ PUSH2 0x18C8 JUMPI DUP3 PUSH32 0x4FAF3C72065AAADDB6B745E48EA5A8933818B2A856FB6B21DD04B6AC9812B042 SWAP6 SWAP4 PUSH2 0x189F SWAP6 SWAP4 PUSH1 0x8 SWAP4 PUSH1 0x0 SWAP3 PUSH2 0x18BD JUMPI JUMPDEST POP POP DUP2 PUSH1 0x1 SHL SWAP2 PUSH1 0x0 NOT SWAP1 PUSH1 0x3 SHL SHR NOT AND OR SWAP2 ADD SSTORE JUMPDEST PUSH1 0x1 DUP1 PUSH1 0xA0 SHL SUB DUP6 AND PUSH1 0x0 MSTORE PUSH1 0x4 DUP8 MSTORE PUSH2 0x1882 DUP5 PUSH1 0x40 PUSH1 0x0 KECCAK256 PUSH2 0x2062 JUMP JUMPDEST PUSH2 0x188B DUP5 PUSH2 0x2026 JUMP JUMPDEST PUSH1 0x40 MLOAD SWAP2 DUP3 SWAP2 PUSH1 0x40 DUP4 MSTORE PUSH1 0x40 DUP4 ADD SWAP1 PUSH2 0x1CEE JUMP JUMPDEST PUSH1 0x84 CALLDATALOAD DUP3 DUP10 ADD MSTORE PUSH1 0x1 PUSH1 0x1 PUSH1 0xA0 SHL SUB SWAP1 SWAP6 AND SWAP5 SUB SWAP1 LOG3 PUSH1 0x40 MLOAD SWAP1 DUP2 MSTORE RETURN JUMPDEST ADD MLOAD SWAP1 POP DUP12 DUP1 PUSH2 0x184E JUMP JUMPDEST SWAP1 PUSH1 0x8 DUP5 ADD PUSH1 0x0 MSTORE DUP9 PUSH1 0x0 KECCAK256 SWAP2 PUSH1 0x0 JUMPDEST PUSH1 0x1F NOT DUP6 AND DUP2 LT PUSH2 0x1945 JUMPI POP DUP4 PUSH2 0x189F SWAP6 SWAP4 PUSH1 0x8 SWAP4 PUSH1 0x1 SWAP4 PUSH32 0x4FAF3C72065AAADDB6B745E48EA5A8933818B2A856FB6B21DD04B6AC9812B042 SWAP10 SWAP8 PUSH1 0x1F NOT DUP2 AND LT PUSH2 0x192C JUMPI JUMPDEST POP POP POP DUP2 SHL ADD SWAP2 ADD SSTORE PUSH2 0x1864 JUMP JUMPDEST ADD MLOAD PUSH1 0x0 NOT PUSH1 0xF8 DUP5 PUSH1 0x3 SHL AND SHR NOT AND SWAP1 SSTORE DUP12 DUP1 DUP1 PUSH2 0x191E JUMP JUMPDEST DUP2 DUP4 ADD MLOAD DUP5 SSTORE DUP10 SWAP8 POP PUSH1 0x1 SWAP1 SWAP4 ADD SWAP3 SWAP2 DUP11 ADD SWAP2 DUP11 ADD PUSH2 0x18D8 JUMP JUMPDEST PUSH1 0x8 DUP5 ADD PUSH1 0x0 MSTORE PUSH1 0x20 PUSH1 0x0 KECCAK256 PUSH1 0x1F DUP5 ADD PUSH1 0x5 SHR DUP2 ADD SWAP2 PUSH1 0x20 DUP6 LT PUSH2 0x19A0 JUMPI JUMPDEST PUSH1 0x1F ADD PUSH1 0x5 SHR ADD SWAP1 JUMPDEST DUP2 DUP2 LT PUSH2 0x1994 JUMPI POP PUSH2 0x1805 JUMP JUMPDEST PUSH1 0x0 DUP2 SSTORE PUSH1 0x1 ADD PUSH2 0x1987 JUMP JUMPDEST SWAP1 SWAP2 POP DUP2 SWAP1 PUSH2 0x197E JUMP JUMPDEST ADD MLOAD SWAP1 POP DUP8 DUP1 PUSH2 0x17A9 JUMP JUMPDEST PUSH1 0x4 DUP7 ADD PUSH1 0x0 SWAP1 DUP2 MSTORE PUSH1 0x20 DUP2 KECCAK256 SWAP4 POP PUSH1 0x1F NOT DUP6 AND SWAP1 JUMPDEST DUP2 DUP2 LT PUSH2 0x1A0A JUMPI POP SWAP1 DUP5 PUSH1 0x1 SWAP6 SWAP5 SWAP4 SWAP3 LT PUSH2 0x19F1 JUMPI JUMPDEST POP POP POP DUP2 SHL ADD PUSH1 0x4 DUP4 ADD SSTORE PUSH2 0x17C1 JUMP JUMPDEST ADD MLOAD PUSH1 0x0 NOT PUSH1 0xF8 DUP5 PUSH1 0x3 SHL AND SHR NOT AND SWAP1 SSTORE DUP8 DUP1 DUP1 PUSH2 0x19E1 JUMP JUMPDEST SWAP3 SWAP4 PUSH1 0x20 PUSH1 0x1 DUP2 SWAP3 DUP8 DUP7 ADD MLOAD DUP2 SSTORE ADD SWAP6 ADD SWAP4 ADD PUSH2 0x19CB JUMP JUMPDEST SWAP1 SWAP2 POP PUSH1 0x4 DUP6 ADD PUSH1 0x0 MSTORE PUSH1 0x20 PUSH1 0x0 KECCAK256 PUSH1 0x1F DUP5 ADD PUSH1 0x5 SHR DUP2 ADD PUSH1 0x20 DUP6 LT PUSH2 0x1A6E JUMPI JUMPDEST SWAP1 DUP5 SWAP4 SWAP3 SWAP2 JUMPDEST PUSH1 0x1F DUP4 ADD PUSH1 0x5 SHR DUP3 ADD DUP2 LT PUSH2 0x1A5F JUMPI POP POP PUSH2 0x1792 JUMP JUMPDEST PUSH1 0x0 DUP2 SSTORE DUP6 SWAP5 POP PUSH1 0x1 ADD PUSH2 0x1A49 JUMP JUMPDEST POP DUP1 PUSH2 0x1A43 JUMP JUMPDEST ADD MLOAD SWAP1 POP DUP9 DUP1 PUSH2 0x1751 JUMP JUMPDEST PUSH1 0x3 DUP8 ADD PUSH1 0x0 SWAP1 DUP2 MSTORE PUSH1 0x20 DUP2 KECCAK256 SWAP4 POP PUSH1 0x1F NOT DUP6 AND SWAP1 JUMPDEST DUP2 DUP2 LT PUSH2 0x1AD5 JUMPI POP SWAP1 DUP5 PUSH1 0x1 SWAP6 SWAP5 SWAP4 SWAP3 LT PUSH2 0x1ABC JUMPI JUMPDEST POP POP POP DUP2 SHL ADD PUSH1 0x3 DUP5 ADD SSTORE PUSH2 0x1769 JUMP JUMPDEST ADD MLOAD PUSH1 0x0 NOT PUSH1 0xF8 DUP5 PUSH1 0x3 SHL AND SHR NOT AND SWAP1 SSTORE DUP9 DUP1 DUP1 PUSH2 0x1AAC JUMP JUMPDEST SWAP3 SWAP4 PUSH1 0x20 PUSH1 0x1 DUP2 SWAP3 DUP8 DUP7 ADD MLOAD DUP2 SSTORE ADD SWAP6 ADD SWAP4 ADD PUSH2 0x1A96 JUMP JUMPDEST SWAP1 SWAP2 POP PUSH1 0x3 DUP7 ADD PUSH1 0x0 MSTORE PUSH1 0x20 PUSH1 0x0 KECCAK256 PUSH1 0x1F DUP5 ADD PUSH1 0x5 SHR DUP2 ADD PUSH1 0x20 DUP6 LT PUSH2 0x1B39 JUMPI JUMPDEST SWAP1 DUP5 SWAP4 SWAP3 SWAP2 JUMPDEST PUSH1 0x1F DUP4 ADD PUSH1 0x5 SHR DUP3 ADD DUP2 LT PUSH2 0x1B2A JUMPI POP POP PUSH2 0x173A JUMP JUMPDEST PUSH1 0x0 DUP2 SSTORE DUP6 SWAP5 POP PUSH1 0x1 ADD PUSH2 0x1B14 JUMP JUMPDEST POP DUP1 PUSH2 0x1B0E JUMP JUMPDEST SWAP1 POP DUP9 ADD MLOAD DUP10 PUSH2 0x16FA JUMP JUMPDEST SWAP2 POP PUSH1 0x2 DUP7 ADD PUSH1 0x0 MSTORE PUSH1 0x20 PUSH1 0x0 KECCAK256 PUSH1 0x0 SWAP3 JUMPDEST DUP11 PUSH1 0x1F NOT DUP5 AND DUP6 LT PUSH2 0x1BA2 JUMPI POP PUSH1 0x1 SWAP4 POP DUP3 PUSH1 0x1F NOT DUP2 AND LT PUSH2 0x1B89 JUMPI JUMPDEST POP POP DUP2 SHL ADD PUSH1 0x2 DUP6 ADD SSTORE PUSH2 0x1711 JUMP JUMPDEST DUP11 ADD MLOAD PUSH1 0x0 NOT PUSH1 0xF8 DUP5 PUSH1 0x3 SHL AND SHR NOT AND SWAP1 SSTORE DUP10 DUP1 PUSH2 0x1B7A JUMP JUMPDEST DUP2 ADD MLOAD DUP3 SSTORE PUSH1 0x20 SWAP4 DUP5 ADD SWAP4 PUSH1 0x1 SWAP1 SWAP3 ADD SWAP2 ADD PUSH2 0x1B5D JUMP JUMPDEST PUSH1 0x2 DUP7 ADD PUSH1 0x0 MSTORE PUSH1 0x20 PUSH1 0x0 KECCAK256 PUSH1 0x1F DUP4 ADD PUSH1 0x5 SHR DUP2 ADD PUSH1 0x20 DUP5 LT PUSH2 0x1BF9 JUMPI JUMPDEST PUSH1 0x1F DUP4 ADD PUSH1 0x5 SHR DUP3 ADD DUP2 LT PUSH2 0x1BED JUMPI POP POP PUSH2 0x16E3 JUMP JUMPDEST PUSH1 0x0 DUP2 SSTORE PUSH1 0x1 ADD PUSH2 0x1BD7 JUMP JUMPDEST POP DUP1 PUSH2 0x1BD7 JUMP JUMPDEST PUSH1 0x40 MLOAD PUSH3 0x461BCD PUSH1 0xE5 SHL DUP2 MSTORE PUSH1 0x20 PUSH1 0x4 DUP3 ADD MSTORE PUSH1 0x1B PUSH1 0x24 DUP3 ADD MSTORE PUSH32 0x486F737420616464726573732063616E6E6F74206265207A65726F0000000000 PUSH1 0x44 DUP3 ADD MSTORE PUSH1 0x64 SWAP1 REVERT JUMPDEST PUSH1 0x4 CALLDATALOAD SWAP1 PUSH1 0x1 PUSH1 0x1 PUSH1 0xA0 SHL SUB DUP3 AND DUP3 SUB PUSH2 0x1C9 JUMPI JUMP JUMPDEST PUSH2 0x120 DUP2 ADD SWAP1 DUP2 LT PUSH1 0x1 PUSH1 0x1 PUSH1 0x40 SHL SUB DUP3 GT OR PUSH2 0x6D7 JUMPI PUSH1 0x40 MSTORE JUMP JUMPDEST SWAP1 PUSH1 0x1F DUP1 NOT SWAP2 ADD AND DUP2 ADD SWAP1 DUP2 LT PUSH1 0x1 PUSH1 0x1 PUSH1 0x40 SHL SUB DUP3 GT OR PUSH2 0x6D7 JUMPI PUSH1 0x40 MSTORE JUMP JUMPDEST DUP2 PUSH1 0x1F DUP3 ADD SLT ISZERO PUSH2 0x1C9 JUMPI DUP1 CALLDATALOAD SWAP1 PUSH1 0x1 PUSH1 0x1 PUSH1 0x40 SHL SUB DUP3 GT PUSH2 0x6D7 JUMPI PUSH1 0x40 MLOAD SWAP3 PUSH2 0x1CCC PUSH1 0x1F DUP5 ADD PUSH1 0x1F NOT AND PUSH1 0x20 ADD DUP6 PUSH2 0x1C77 JUMP JUMPDEST DUP3 DUP5 MSTORE PUSH1 0x20 DUP4 DUP4 ADD ADD GT PUSH2 0x1C9 JUMPI DUP2 PUSH1 0x0 SWAP3 PUSH1 0x20 DUP1 SWAP4 ADD DUP4 DUP7 ADD CALLDATACOPY DUP4 ADD ADD MSTORE SWAP1 JUMP JUMPDEST SWAP2 SWAP1 DUP3 MLOAD SWAP3 DUP4 DUP3 MSTORE PUSH1 0x0 JUMPDEST DUP5 DUP2 LT PUSH2 0x1D1A JUMPI POP POP DUP3 PUSH1 0x0 PUSH1 0x20 DUP1 SWAP5 SWAP6 DUP5 ADD ADD MSTORE PUSH1 0x1F DUP1 NOT SWAP2 ADD AND ADD ADD SWAP1 JUMP JUMPDEST PUSH1 0x20 DUP2 DUP4 ADD DUP2 ADD MLOAD DUP5 DUP4 ADD DUP3 ADD MSTORE ADD PUSH2 0x1CF9 JUMP JUMPDEST PUSH1 0x20 SWAP1 DUP2 PUSH1 0x40 DUP2 DUP4 ADD SWAP3 DUP3 DUP2 MSTORE DUP6 MLOAD DUP1 SWAP5 MSTORE ADD SWAP4 ADD SWAP2 PUSH1 0x0 JUMPDEST DUP3 DUP2 LT PUSH2 0x1D55 JUMPI POP POP POP POP SWAP1 JUMP JUMPDEST DUP4 MLOAD DUP6 MSTORE SWAP4 DUP2 ADD SWAP4 SWAP3 DUP2 ADD SWAP3 PUSH1 0x1 ADD PUSH2 0x1D47 JUMP JUMPDEST PUSH1 0x5 SLOAD DUP2 LT ISZERO PUSH2 0x1DA0 JUMPI PUSH1 0x5 PUSH1 0x0 MSTORE PUSH32 0x36B6384B5ECA791C62761152D0C79BB0604C104A5FB6F4EB0703F3154BB3DB0 ADD SWAP1 PUSH1 0x0 SWAP1 JUMP JUMPDEST PUSH4 0x4E487B71 PUSH1 0xE0 SHL PUSH1 0x0 MSTORE PUSH1 0x32 PUSH1 0x4 MSTORE PUSH1 0x24 PUSH1 0x0 REVERT JUMPDEST DUP1 SLOAD DUP3 LT ISZERO PUSH2 0x1DA0 JUMPI PUSH1 0x0 MSTORE PUSH1 0x20 PUSH1 0x0 KECCAK256 ADD SWAP1 PUSH1 0x0 SWAP1 JUMP JUMPDEST SWAP1 PUSH1 0x1 DUP3 DUP2 SHR SWAP3 AND DUP1 ISZERO PUSH2 0x1DFE JUMPI JUMPDEST PUSH1 0x20 DUP4 LT EQ PUSH2 0x1DE8 JUMPI JUMP JUMPDEST PUSH4 0x4E487B71 PUSH1 0xE0 SHL PUSH1 0x0 MSTORE PUSH1 0x22 PUSH1 0x4 MSTORE PUSH1 0x24 PUSH1 0x0 REVERT JUMPDEST SWAP2 PUSH1 0x7F AND SWAP2 PUSH2 0x1DDD JUMP JUMPDEST SWAP1 PUSH1 0x40 MLOAD SWAP2 DUP3 PUSH1 0x0 DUP3 SLOAD SWAP3 PUSH2 0x1E1C DUP5 PUSH2 0x1DCE JUMP JUMPDEST SWAP1 DUP2 DUP5 MSTORE PUSH1 0x1 SWAP5 DUP6 DUP2 AND SWAP1 DUP2 PUSH1 0x0 EQ PUSH2 0x1E8B JUMPI POP PUSH1 0x1 EQ PUSH2 0x1E48 JUMPI JUMPDEST POP POP PUSH2 0x1E46 SWAP3 POP SUB DUP4 PUSH2 0x1C77 JUMP JUMPDEST JUMP JUMPDEST SWAP1 SWAP4 SWAP2 POP PUSH1 0x0 MSTORE PUSH1 0x20 SWAP1 DUP2 PUSH1 0x0 KECCAK256 SWAP4 PUSH1 0x0 SWAP2 JUMPDEST DUP2 DUP4 LT PUSH2 0x1E73 JUMPI POP POP PUSH2 0x1E46 SWAP4 POP DUP3 ADD ADD CODESIZE DUP1 PUSH2 0x1E38 JUMP JUMPDEST DUP6 SLOAD DUP9 DUP5 ADD DUP6 ADD MSTORE SWAP5 DUP6 ADD SWAP5 DUP8 SWAP5 POP SWAP2 DUP4 ADD SWAP2 PUSH2 0x1E5B JUMP JUMPDEST SWAP2 POP POP PUSH2 0x1E46 SWAP5 POP PUSH1 0x20 SWAP3 POP PUSH1 0xFF NOT AND DUP3 DUP5 ADD MSTORE ISZERO ISZERO PUSH1 0x5 SHL DUP3 ADD ADD CODESIZE DUP1 PUSH2 0x1E38 JUMP JUMPDEST PUSH1 0x1 SLOAD PUSH1 0x1 PUSH1 0x1 PUSH1 0xA0 SHL SUB AND CALLER SUB PUSH2 0x1EC2 JUMPI JUMP JUMPDEST PUSH1 0x40 MLOAD PUSH4 0x118CDAA7 PUSH1 0xE0 SHL DUP2 MSTORE CALLER PUSH1 0x4 DUP3 ADD MSTORE PUSH1 0x24 SWAP1 REVERT JUMPDEST ISZERO PUSH2 0x1EE1 JUMPI JUMP JUMPDEST PUSH1 0x40 MLOAD PUSH3 0x461BCD PUSH1 0xE5 SHL DUP2 MSTORE PUSH1 0x20 PUSH1 0x4 DUP3 ADD MSTORE PUSH1 0x14 PUSH1 0x24 DUP3 ADD MSTORE PUSH20 0x4E616D652063616E6E6F7420626520656D707479 PUSH1 0x60 SHL PUSH1 0x44 DUP3 ADD MSTORE PUSH1 0x64 SWAP1 REVERT JUMPDEST ISZERO PUSH2 0x1F24 JUMPI JUMP JUMPDEST PUSH1 0x40 MLOAD PUSH3 0x461BCD PUSH1 0xE5 SHL DUP2 MSTORE PUSH1 0x20 PUSH1 0x4 DUP3 ADD MSTORE PUSH1 0x1B PUSH1 0x24 DUP3 ADD MSTORE PUSH32 0x4465736372697074696F6E2063616E6E6F7420626520656D7074790000000000 PUSH1 0x44 DUP3 ADD MSTORE PUSH1 0x64 SWAP1 REVERT JUMPDEST ISZERO PUSH2 0x1F70 JUMPI JUMP JUMPDEST PUSH1 0x40 MLOAD PUSH3 0x461BCD PUSH1 0xE5 SHL DUP2 MSTORE PUSH1 0x20 PUSH1 0x4 DUP3 ADD MSTORE PUSH1 0x18 PUSH1 0x24 DUP3 ADD MSTORE PUSH32 0x4C6F636174696F6E2063616E6E6F7420626520656D7074790000000000000000 PUSH1 0x44 DUP3 ADD MSTORE PUSH1 0x64 SWAP1 REVERT JUMPDEST ISZERO PUSH2 0x1FBC JUMPI JUMP JUMPDEST PUSH1 0x40 MLOAD PUSH3 0x461BCD PUSH1 0xE5 SHL DUP2 MSTORE PUSH1 0x20 PUSH1 0x4 DUP3 ADD MSTORE PUSH1 0x1C PUSH1 0x24 DUP3 ADD MSTORE PUSH32 0x5072696365206D7573742062652067726561746572207468616E203000000000 PUSH1 0x44 DUP3 ADD MSTORE PUSH1 0x64 SWAP1 REVERT JUMPDEST PUSH1 0x0 NOT DUP2 EQ PUSH2 0x2010 JUMPI PUSH1 0x1 ADD SWAP1 JUMP JUMPDEST PUSH4 0x4E487B71 PUSH1 0xE0 SHL PUSH1 0x0 MSTORE PUSH1 0x11 PUSH1 0x4 MSTORE PUSH1 0x24 PUSH1 0x0 REVERT JUMPDEST PUSH1 0x5 SLOAD SWAP1 PUSH1 0x1 PUSH1 0x40 SHL DUP3 LT ISZERO PUSH2 0x6D7 JUMPI PUSH2 0x2049 DUP3 PUSH1 0x1 PUSH2 0x1E46 SWAP5 ADD PUSH1 0x5 SSTORE PUSH2 0x1D69 JUMP JUMPDEST SWAP1 SWAP2 SWAP1 DUP3 SLOAD SWAP1 PUSH1 0x3 SHL SWAP2 DUP3 SHL SWAP2 PUSH1 0x0 NOT SWAP1 SHL NOT AND OR SWAP1 SSTORE JUMP JUMPDEST SWAP1 DUP2 SLOAD SWAP2 PUSH1 0x1 PUSH1 0x40 SHL DUP4 LT ISZERO PUSH2 0x6D7 JUMPI DUP3 PUSH2 0x2049 SWAP2 PUSH1 0x1 PUSH2 0x1E46 SWAP6 ADD DUP2 SSTORE PUSH2 0x1DB6 JUMP JUMPDEST ISZERO PUSH2 0x208C JUMPI JUMP JUMPDEST PUSH1 0x40 MLOAD PUSH3 0x461BCD PUSH1 0xE5 SHL DUP2 MSTORE PUSH1 0x20 PUSH1 0x4 DUP3 ADD MSTORE PUSH1 0x17 PUSH1 0x24 DUP3 ADD MSTORE PUSH32 0x50726F706572747920646F6573206E6F74206578697374000000000000000000 PUSH1 0x44 DUP3 ADD MSTORE PUSH1 0x64 SWAP1 REVERT JUMPDEST ISZERO PUSH2 0x20D8 JUMPI JUMP JUMPDEST PUSH1 0x40 MLOAD PUSH3 0x461BCD PUSH1 0xE5 SHL DUP2 MSTORE PUSH1 0x20 PUSH1 0x4 DUP3 ADD MSTORE PUSH1 0x15 PUSH1 0x24 DUP3 ADD MSTORE PUSH21 0x139BDD081D1A19481C1C9BDC195C9D1E481A1BDCDD PUSH1 0x5A SHL PUSH1 0x44 DUP3 ADD MSTORE PUSH1 0x64 SWAP1 REVERT JUMPDEST PUSH1 0x1 PUSH1 0x1 PUSH1 0x40 SHL SUB DUP2 GT PUSH2 0x6D7 JUMPI PUSH1 0x5 SHL PUSH1 0x20 ADD SWAP1 JUMP JUMPDEST SWAP1 PUSH2 0x2136 DUP3 PUSH2 0x2115 JUMP JUMPDEST PUSH2 0x2143 PUSH1 0x40 MLOAD SWAP2 DUP3 PUSH2 0x1C77 JUMP JUMPDEST DUP3 DUP2 MSTORE DUP1 SWAP3 PUSH2 0x2154 PUSH1 0x1F NOT SWAP2 PUSH2 0x2115 JUMP JUMPDEST ADD SWAP1 PUSH1 0x20 CALLDATASIZE SWAP2 ADD CALLDATACOPY JUMP JUMPDEST DUP1 MLOAD DUP3 LT ISZERO PUSH2 0x1DA0 JUMPI PUSH1 0x20 SWAP2 PUSH1 0x5 SHL ADD ADD SWAP1 JUMP INVALID LOG2 PUSH5 0x6970667358 0x22 SLT KECCAK256 SLOAD CODESIZE ISZERO 0xC9 PUSH8 0xD6A652CD5F9A76D5 0xF 0x2E PUSH12 0x43C7FB2E01E896BC3A934E90 0xAA PUSH19 0x410A64736F6C63430008140033000000000000 "},"methodIdentifiers":{"allPropertyIds(uint256)":"4efcaca5","deactivateProperty(uint256)":"7ca28bc6","getActiveProperties()":"eb81e098","getActivePropertiesCount()":"603ddf11","getAllProperties()":"3d51402c","getHostProperties(address)":"396a6deb","getPropertiesCount()":"174000bc","getProperty(uint256)":"32665ffb","hostProperties(address,uint256)":"8d82fada","listProperty(string,string,string,uint256,string)":"bdcf79fe","listPropertyForHost(address,string,string,string,uint256,string)":"07fc77e2","nextPropertyId()":"39500f34","owner()":"8da5cb5b","properties(uint256)":"f7b10808","reactivateProperty(uint256)":"b416eaa5","renounceOwnership()":"715018a6","transferOwnership(address)":"f2fde38b","updateProperty(uint256,string,string,string,uint256,string)":"473ce770"}}}}}