{"contracts/PropertyBooking.sol":{"PropertyBooking":{"abi":[{"inputs":[{"internalType":"address","name":"_propertyHostingAddress","type":"address"},{"internalType":"address","name":"_platformWallet","type":"address"}],"stateMutability":"nonpayable","type":"constructor"},{"inputs":[{"internalType":"address","name":"owner","type":"address"}],"name":"OwnableInvalidOwner","type":"error"},{"inputs":[{"internalType":"address","name":"account","type":"address"}],"name":"OwnableUnauthorizedAccount","type":"error"},{"inputs":[],"name":"ReentrancyGuardReentrantCall","type":"error"},{"anonymous":false,"inputs":[{"indexed":true,"internalType":"uint256","name":"bookingId","type":"uint256"},{"indexed":true,"internalType":"address","name":"guest","type":"address"},{"indexed":false,"internalType":"string","name":"reason","type":"string"}],"name":"BookingCancelled","type":"event"},{"anonymous":false,"inputs":[{"indexed":true,"internalType":"uint256","name":"bookingId","type":"uint256"},{"indexed":true,"internalType":"address","name":"host","type":"address"}],"name":"BookingConfirmed","type":"event"},{"anonymous":false,"inputs":[{"indexed":true,"internalType":"uint256","name":"bookingId","type":"uint256"},{"indexed":true,"internalType":"uint256","name":"propertyId","type":"uint256"},{"indexed":true,"internalType":"address","name":"guest","type":"address"},{"indexed":false,"internalType":"address","name":"host","type":"address"},{"indexed":false,"internalType":"uint256","name":"checkInDate","type":"uint256"},{"indexed":false,"internalType":"uint256","name":"checkOutDate","type":"uint256"},{"indexed":false,"internalType":"uint256","name":"totalAmount","type":"uint256"},{"indexed":false,"internalType":"uint256","name":"platformFee","type":"uint256"},{"indexed":false,"internalType":"uint256","name":"hostAmount","type":"uint256"},{"indexed":false,"internalType":"string","name":"paymentReference","type":"string"}],"name":"BookingCreated","type":"event"},{"anonymous":false,"inputs":[{"indexed":true,"internalType":"uint256","name":"bookingId","type":"uint256"},{"indexed":true,"internalType":"address","name":"host","type":"address"},{"indexed":false,"internalType":"uint256","name":"amount","type":"uint256"}],"name":"FundsReleased","type":"event"},{"anonymous":false,"inputs":[{"indexed":true,"internalType":"uint256","name":"bookingId","type":"uint256"},{"indexed":true,"internalType":"address","name":"guest","type":"address"},{"indexed":false,"internalType":"uint256","name":"amount","type":"uint256"}],"name":"GuestRefunded","type":"event"},{"anonymous":false,"inputs":[{"indexed":true,"internalType":"address","name":"previousOwner","type":"address"},{"indexed":true,"internalType":"address","name":"newOwner","type":"address"}],"name":"OwnershipTransferred","type":"event"},{"inputs":[{"internalType":"uint256","name":"","type":"uint256"}],"name":"bookings","outputs":[{"internalType":"uint256","name":"id","type":"uint256"},{"internalType":"uint256","name":"propertyId","type":"uint256"},{"internalType":"address","name":"guest","type":"address"},{"internalType":"address","name":"host","type":"address"},{"internalType":"uint256","name":"checkInDate","type":"uint256"},{"internalType":"uint256","name":"checkOutDate","type":"uint256"},{"internalType":"uint256","name":"totalAmount","type":"uint256"},{"internalType":"uint256","name":"platformFee","type":"uint256"},{"internalType":"uint256","name":"hostAmount","type":"uint256"},{"internalType":"bool","name":"isConfirmed","type":"bool"},{"internalType":"bool","name":"isCancelled","type":"bool"},{"internalType":"bool","name":"fundsReleased","type":"bool"},{"internalType":"uint256","name":"createdAt","type":"uint256"},{"internalType":"string","name":"paymentReference","type":"string"}],"stateMutability":"view","type":"function"},{"inputs":[{"internalType":"uint256","name":"_bookingId","type":"uint256"},{"internalType":"string","name":"_reason","type":"string"}],"name":"cancelBooking","outputs":[],"stateMutability":"nonpayable","type":"function"},{"inputs":[{"internalType":"uint256","name":"_bookingId","type":"uint256"}],"name":"claimHostFunds","outputs":[],"stateMutability":"nonpayable","type":"function"},{"inputs":[{"internalType":"uint256","name":"_bookingId","type":"uint256"}],"name":"confirmBooking","outputs":[],"stateMutability":"nonpayable","type":"function"},{"inputs":[{"internalType":"uint256","name":"_propertyId","type":"uint256"},{"internalType":"uint256","name":"_checkInDate","type":"uint256"},{"internalType":"uint256","name":"_checkOutDate","type":"uint256"},{"internalType":"string","name":"_paymentReference","type":"string"}],"name":"createBooking","outputs":[{"internalType":"uint256","name":"","type":"uint256"}],"stateMutability":"nonpayable","type":"function"},{"inputs":[{"internalType":"uint256","name":"_bookingId","type":"uint256"}],"name":"getBooking","outputs":[{"components":[{"internalType":"uint256","name":"id","type":"uint256"},{"internalType":"uint256","name":"propertyId","type":"uint256"},{"internalType":"address","name":"guest","type":"address"},{"internalType":"address","name":"host","type":"address"},{"internalType":"uint256","name":"checkInDate","type":"uint256"},{"internalType":"uint256","name":"checkOutDate","type":"uint256"},{"internalType":"uint256","name":"totalAmount","type":"uint256"},{"internalType":"uint256","name":"platformFee","type":"uint256"},{"internalType":"uint256","name":"hostAmount","type":"uint256"},{"internalType":"bool","name":"isConfirmed","type":"bool"},{"internalType":"bool","name":"isCancelled","type":"bool"},{"internalType":"bool","name":"fundsReleased","type":"bool"},{"internalType":"uint256","name":"createdAt","type":"uint256"},{"internalType":"string","name":"paymentReference","type":"string"}],"internalType":"struct PropertyBooking.Booking","name":"","type":"tuple"}],"stateMutability":"view","type":"function"},{"inputs":[{"internalType":"string","name":"_paymentReference","type":"string"}],"name":"getBookingByPaymentReference","outputs":[{"internalType":"uint256","name":"","type":"uint256"}],"stateMutability":"view","type":"function"},{"inputs":[{"internalType":"uint256","name":"_bookingId","type":"uint256"}],"name":"getBookingEscrowInfo","outputs":[{"internalType":"uint256","name":"totalAmount","type":"uint256"},{"internalType":"uint256","name":"platformFee","type":"uint256"},{"internalType":"uint256","name":"hostAmount","type":"uint256"},{"internalType":"bool","name":"fundsReleased","type":"bool"},{"internalType":"bool","name":"canClaim","type":"bool"}],"stateMutability":"view","type":"function"},{"inputs":[],"name":"getBookingsCount","outputs":[{"internalType":"uint256","name":"","type":"uint256"}],"stateMutability":"view","type":"function"},{"inputs":[{"internalType":"address","name":"_guest","type":"address"}],"name":"getGuestBookings","outputs":[{"internalType":"uint256[]","name":"","type":"uint256[]"}],"stateMutability":"view","type":"function"},{"inputs":[{"internalType":"address","name":"_host","type":"address"}],"name":"getHostBookings","outputs":[{"internalType":"uint256[]","name":"","type":"uint256[]"}],"stateMutability":"view","type":"function"},{"inputs":[{"internalType":"uint256","name":"_propertyId","type":"uint256"}],"name":"getPropertyBookings","outputs":[{"internalType":"uint256[]","name":"","type":"uint256[]"}],"stateMutability":"view","type":"function"},{"inputs":[],"name":"getTotalPlatformFees","outputs":[{"internalType":"uint256","name":"","type":"uint256"}],"stateMutability":"view","type":"function"},{"inputs":[{"internalType":"address","name":"","type":"address"},{"internalType":"uint256","name":"","type":"uint256"}],"name":"guestBookings","outputs":[{"internalType":"uint256","name":"","type":"uint256"}],"stateMutability":"view","type":"function"},{"inputs":[{"internalType":"address","name":"","type":"address"},{"internalType":"uint256","name":"","type":"uint256"}],"name":"hostBookings","outputs":[{"internalType":"uint256","name":"","type":"uint256"}],"stateMutability":"view","type":"function"},{"inputs":[{"internalType":"uint256","name":"_propertyId","type":"uint256"},{"internalType":"uint256","name":"_checkIn","type":"uint256"},{"internalType":"uint256","name":"_checkOut","type":"uint256"}],"name":"isDateRangeAvailable","outputs":[{"internalType":"bool","name":"","type":"bool"}],"stateMutability":"view","type":"function"},{"inputs":[{"internalType":"uint256","name":"_propertyId","type":"uint256"},{"internalType":"uint256","name":"_checkIn","type":"uint256"},{"internalType":"uint256","name":"_checkOut","type":"uint256"}],"name":"isPropertyAvailable","outputs":[{"internalType":"bool","name":"","type":"bool"}],"stateMutability":"view","type":"function"},{"inputs":[],"name":"nextBookingId","outputs":[{"internalType":"uint256","name":"","type":"uint256"}],"stateMutability":"view","type":"function"},{"inputs":[],"name":"owner","outputs":[{"internalType":"address","name":"","type":"address"}],"stateMutability":"view","type":"function"},{"inputs":[{"internalType":"string","name":"","type":"string"}],"name":"paymentReferenceToBooking","outputs":[{"internalType":"uint256","name":"","type":"uint256"}],"stateMutability":"view","type":"function"},{"inputs":[],"name":"platformFeeBasisPoints","outputs":[{"internalType":"uint256","name":"","type":"uint256"}],"stateMutability":"view","type":"function"},{"inputs":[],"name":"platformWallet","outputs":[{"internalType":"address","name":"","type":"address"}],"stateMutability":"view","type":"function"},{"inputs":[{"internalType":"uint256","name":"","type":"uint256"},{"internalType":"uint256","name":"","type":"uint256"}],"name":"propertyDateBooked","outputs":[{"internalType":"bool","name":"","type":"bool"}],"stateMutability":"view","type":"function"},{"inputs":[],"name":"propertyHosting","outputs":[{"internalType":"contract PropertyHosting","name":"","type":"address"}],"stateMutability":"view","type":"function"},{"inputs":[{"internalType":"uint256","name":"_bookingId","type":"uint256"}],"name":"refundGuest","outputs":[],"stateMutability":"nonpayable","type":"function"},{"inputs":[],"name":"renounceOwnership","outputs":[],"stateMutability":"nonpayable","type":"function"},{"inputs":[{"internalType":"uint256","name":"_newFeeBasisPoints","type":"uint256"}],"name":"setPlatformFee","outputs":[],"stateMutability":"nonpayable","type":"function"},{"inputs":[{"internalType":"address","name":"_newPlatformWallet","type":"address"}],"name":"setPlatformWallet","outputs":[],"stateMutability":"nonpayable","type":"function"},{"inputs":[],"name":"totalPlatformFees","outputs":[{"internalType":"uint256","name":"","type":"uint256"}],"stateMutability":"view","type":"function"},{"inputs":[{"internalType":"address","name":"newOwner","type":"address"}],"name":"transferOwnership","outputs":[],"stateMutability":"nonpayable","type":"function"},{"inputs":[],"name":"withdrawPlatformFees","outputs":[],"stateMutability":"nonpayable","type":"function"}],"evm":{"bytecode":{"linkReferences":{},"object":"608034620000fc57601f62001f7b38819003918201601f19168301916001600160401b0383118484101762000101578084926040948552833981010312620000fc576200005a6020620000528362000117565b920162000117565b60016000553315620000e35760018054336001600160a01b031980831682179093556040519492936001600160a01b0393909284929083167f8be0079c531659141344cd1fd0a4f28419497f9722a3daafe3b4186f6b6457e0600080a3600160025561012c600955168360085416176008551690600a541617600a55611e4e90816200012d8239f35b604051631e4fbdf760e01b815260006004820152602490fd5b600080fd5b634e487b7160e01b600052604160045260246000fd5b51906001600160a01b0382168203620000fc5756fe608080604052600436101561001357600080fd5b60003560e01c9081630642f89e146118e657508063097b6be3146118205780630f8677981461017457806312e8e2c3146117b95780631dab301e146116d25780632026d98b146114ff57806322eb77ee14610d5e57806326f20c7914610d4057806331521d5714610521578063405505b114610cc857806354056b6914610bd057806363809aef14610b4c5780636a5c841a14610924578063715018a6146108c7578063794239cc1461089e5780638831e9cf146108115780638da5cb5b146107e8578063a41cfa691461079e578063a93db7d0146104db578063c58bfb6614610780578063d0b7830b1461071d578063d27d559f1461053f578063d3631fa514610521578063d8012a2a146104e0578063e834016e146104db578063eb79f2241461039e578063f2fde38b14610315578063f91f859a146102bd578063fa2af9da14610294578063fb152eb4146101d55763fe909cac1461017457600080fd5b346101d05760203660031901126101d0576004356001600160401b0381116101d0576101bd60206101aa819336906004016119b3565b81604051938285809451938492016119fa565b8101600781520301902054604051908152f35b600080fd5b346101d05760203660031901126101d05760043580151580610289575b6101fb90611c91565b600052600360205260a06040600020600681015490600781015490600881015460098201549260ff8460101c169260ff85169485610280575b85610271575b5084610262575b50604051948552602085015260408401521515606083015215156080820152f35b60040154421015935086610241565b60081c60ff161594508761023a565b84159550610234565b5060025481106101f2565b346101d05760003660031901126101d057600a546040516001600160a01b039091168152602090f35b346101d05760403660031901126101d0576102d6611b22565b6001600160a01b03166000908152600560205260409020805460243591908210156101d05760209161030791611b38565b90546040519160031b1c8152f35b346101d05760203660031901126101d05761032e611b22565b610336611b94565b6001600160a01b0390811690811561038557600154826001600160601b0360a01b821617600155167f8be0079c531659141344cd1fd0a4f28419497f9722a3daafe3b4186f6b6457e0600080a3005b604051631e4fbdf760e01b815260006004820152602490fd5b346101d05760203660031901126101d057600435801515806104d0575b6103c490611c91565b6103cc611b94565b6103d4611c6e565b806000526003602052604060002090600982015460ff8160101c166104925760081c60ff1615610441577f9ed4c791fe4fecb17bdfc7d28ed5925d2fb7719de842516ff7183221ad87a1786020600660018060a01b03600286015416940154604051908152a36001600055005b60405162461bcd60e51b815260206004820152602360248201527f426f6f6b696e67206d7573742062652063616e63656c6c656420746f207265666044820152621d5b9960ea1b6064820152608490fd5b60405162461bcd60e51b8152602060048201526016602482015275119d5b991cc8185b1c9958591e481c995b19585cd95960521b6044820152606490fd5b5060025481106103bb565b611b66565b346101d05760003660031901126101d057600254600019810190811161050b57602090604051908152f35b634e487b7160e01b600052601160045260246000fd5b346101d05760003660031901126101d0576020600b54604051908152f35b346101d05760403660031901126101d057602460043581356001600160401b0381116101d0576105739036906004016119b3565b81151580610712575b61058590611c91565b816000526020926003845260406000209060098201805460ff8160081c166106ce576002840154336001600160a01b03918216149081156106be575b501561066c5761ff00191661010017905560018201546004830154600590930154925b83811061062957604051878152339087907f91e5bffd4ffdc5b054ce786ea6269e6e8c1fe4bb5cdb4d14f249c1ec59e3908c9080610624818d018b611afd565b0390a3005b81600052600687526040600020816000528752604060002060ff198154169055620151808101809111156105e45782634e487b7160e01b60005260116004526000fd5b60405162461bcd60e51b8152600481018890526025818501527f4e6f7420617574686f72697a656420746f2063616e63656c207468697320626f6044820152646f6b696e6760d81b6064820152608490fd5b90506003850154163314886105c1565b60405162461bcd60e51b8152600481018890526019818501527f426f6f6b696e6720616c72656164792063616e63656c6c6564000000000000006044820152606490fd5b50600254821061057c565b346101d05760003660031901126101d057610736611b94565b600b5415610745576000600b55005b60405162461bcd60e51b81526020600482015260136024820152724e6f206665657320746f20776974686472617760681b6044820152606490fd5b346101d05760003660031901126101d0576020600954604051908152f35b346101d05760403660031901126101d0576107b7611b22565b6001600160a01b03166000908152600460205260409020805460243591908210156101d05760209161030791611b38565b346101d05760003660031901126101d0576001546040516001600160a01b039091168152602090f35b346101d05760203660031901126101d05761082a611b22565b610832611b94565b6001600160a01b03168015610859576001600160601b0360a01b600a541617600a55600080f35b60405162461bcd60e51b815260206004820152601760248201527f496e76616c696420706c6174666f726d2077616c6c65740000000000000000006044820152606490fd5b346101d05760003660031901126101d0576008546040516001600160a01b039091168152602090f35b346101d05760003660031901126101d0576108e0611b94565b600180546001600160a01b031981169091556000906001600160a01b03167f8be0079c531659141344cd1fd0a4f28419497f9722a3daafe3b4186f6b6457e08280a3005b346101d05760203660031901126101d05760606101a06040516109468161195b565b60008152600060208201526000604082015260008382015260006080820152600060a0820152600060c0820152600060e082015260006101008201526000610120820152600061014082015260006101608201526000610180820152015260043580151580610b41575b6109b990611c91565b60005260036020526101a06040600020610a7a600b604051926109db8461195b565b805484526001810154602085015260028101546001600160a01b039081166040860152600382015416606085015260048101546080850152600581015460a0850152600681015460c0850152600781015460e0850152600880820154610100860152600982015460ff81811615156101208801529181901c8216151561014087015260101c161515610160850152600a81015461018085015201611a57565b82820152610b3d60405192839260208452805160208501526020810151604085015260018060a01b03604082015116606085015260018060a01b036060820151166080850152608081015160a085015260a081015160c085015260c081015160e085015260e08101516101008501526101008101516101208501526101208101511515610140850152610140810151151561016085015261016081015115156101808501526101808101518285015201516101c0808401526101e0830190611afd565b0390f35b5060025481106109b0565b346101d0576020806003193601126101d0576001600160a01b03610b6e611b22565b1660005260048152604060002090604051908181845491828152019360005281600020916000905b828210610bb957610b3d85610bad81890382611977565b60405191829182611920565b835486529485019460019384019390910190610b96565b346101d05760203660031901126101d05760043580151580610cbd575b610bf690611c91565b806000526003602052610c1a60018060a01b03600360406000200154163314611cd6565b8060005260036020526009604060002001805460ff8116610c785780610c4860ff60019360081c1615611d19565b60ff191617905533907f32a6eab1f4a0177609cc24472e391822aae8a497472601ef3f98523b4bc7bd31600080a3005b60405162461bcd60e51b815260206004820152601960248201527f426f6f6b696e6720616c726561647920636f6e6669726d6564000000000000006044820152606490fd5b506002548110610bed565b346101d0576020806003193601126101d0576001600160a01b03610cea611b22565b1660005260058152604060002090604051908181845491828152019360005281600020916000905b828210610d2957610b3d85610bad81890382611977565b835486529485019460019384019390910190610d12565b346101d05760003660031901126101d0576020600254604051908152f35b346101d05760803660031901126101d0576064356001600160401b0381116101d057610d8e9036906004016119b3565b42602435106114ae57602435604435111561145b576301e13380610db6602435604435611bc0565b1161141657602490610dc6611c6e565b6008546040516332665ffb60e01b815260048035908201529260009184919082906001600160a01b03165afa91821561140a576000926112d3575b5060c0820151156112955760208201516001600160a01b03161561125057610e30604435602435600435611d5c565b1561120b57610e5562015180610e4a602435604435611bc0565b0460a0840151611c12565b80156111cd57612710610e6a60095483611c12565b0491610e768383611bc0565b6040516020818451610e8b81838589016119fa565b81016007815203019020546111885760025493610ea785611c25565b60025584600052600360205260406000208581556004356001820155600281016001600160601b0360a01b90338282541617905560018060a01b036020890151166003830191825416179055602435600482015560443560058201558460068201558160078201558260088201556009810162ffffff19815416905542600a82015583516001600160401b03811161117257610f46600b830154611a1d565b601f811161112b575b506020601f82116001146110be579080600b926000916110b3575b508160011b916000199060031b1c1916179101555b336000526004602052610f96856040600020611c34565b60018060a01b036020870151166000526005602052610fb9856040600020611c34565b6024355b604435811061106857506020958560405188818751610fdf8183858c016119fa565b81016007815203019020558660018060a01b0391015116936040519485526024358786015260443560408601526060850152608084015260a083015260e060c0830152827fcf9663afffe3119215af7b8329abc00c2e2bb74f559f37188e7193ebd58ec14a3393806110586004359560e0830190611afd565b0390a46001600055604051908152f35b60043560005260066020526040600020816000526020526040600020600160ff1982541617905562015180810180911115610fbd57634e487b7160e01b600052601160045260246000fd5b90508601518a610f6a565b600b830160005260206000209060005b601f1984168110611113575091600191600b9382601f198116106110fa575b5050811b01910155610f7f565b88015160001960f88460031b161c191690558a806110ed565b9091602060018192858b0151815501930191016110ce565b600b83016000526020600020601f830160051c81016020841061116b575b601f830160051c8201811061115f575050610f4f565b60008155600101611149565b5080611149565b634e487b7160e01b600052604160045260246000fd5b60405162461bcd60e51b815260206004820152601e60248201527f5061796d656e74207265666572656e636520616c7265616479207573656400006044820152606490fd5b60405162461bcd60e51b8152602060048201526016602482015275125b9d985b1a5908189bdbdada5b99c8185b5bdd5b9d60521b6044820152606490fd5b60405162461bcd60e51b815260206004820152601760248201527f446174657320617265206e6f7420617661696c61626c650000000000000000006044820152606490fd5b60405162461bcd60e51b815260206004820152601760248201527f50726f706572747920646f6573206e6f742065786973740000000000000000006044820152606490fd5b60405162461bcd60e51b815260206004820152601660248201527550726f7065727479206973206e6f742061637469766560501b6044820152606490fd5b9091503d806000833e6112e68183611977565b8101906020818303126101d0578051906001600160401b0382116101d05701906101209182818303126101d0576040519283018381106001600160401b03821117611172576040528051835260208101516001600160a01b03811681036101d057602084015260408101516001600160401b0381116101d0578261136b918301611bcd565b604084015260608101516001600160401b0381116101d0578261138f918301611bcd565b606084015260808101516001600160401b0381116101d057826113b3918301611bcd565b608084015260a081015160a084015260c081015180151581036101d05760c084015260e081015160e084015261010091828201516001600160401b0381116101d0576113ff9201611bcd565b908201529082610e01565b6040513d6000823e3d90fd5b60405162461bcd60e51b815260206004820152601b60248201527f537461792063616e6e6f742065786365656420333635206461797300000000006044820152606490fd5b60405162461bcd60e51b815260206004820152602560248201527f436865636b2d6f75742064617465206d7573742062652061667465722063686560448201526431b596b4b760d91b6064820152608490fd5b60405162461bcd60e51b815260206004820152602360248201527f436865636b2d696e2064617465206d75737420626520696e207468652066757460448201526275726560e81b6064820152608490fd5b346101d0576020806003193601126101d057600435801515806116c7575b61152690611c91565b806000526003825260018060a01b0361154a81600360406000200154163314611cd6565b611552611c6e565b816000526003835260406000209260098401805460ff8116156116825760ff8160101c166116455761158a60ff8260081c1615611d19565b600486015442106116005762ff00001916620100001790556007840154806115e9575b5060087f6e3c6096795c8298a218b2cfb8bde42726ff7c9a3d27b4d3ba41ab7f74feb5fb92600386015416940154604051908152a36001600055005b600b5490810180911161050b57600b5560086115ad565b60405162461bcd60e51b815260048101849052601c60248201527f43616e6e6f7420636c61696d206265666f726520636865636b2d696e000000006044820152606490fd5b60405162461bcd60e51b8152600481018490526015602482015274119d5b991cc8185b1c9958591e4818db185a5b5959605a1b6044820152606490fd5b60405162461bcd60e51b815260048101849052601960248201527f426f6f6b696e67206d75737420626520636f6e6669726d6564000000000000006044820152606490fd5b50600254811061151d565b346101d05760203660031901126101d057600435600052600360205260206040600020610b3d81549160018101549060ff60018060a01b0380600284015416906003840154166004840154600585015460068601549060078701549260088801549460098901549661174b600b600a8c01549b01611a57565b9a6040519e8f9e8f908152015260408d015260608c015260808b015260a08a015260c089015260e08801526101008701528181161515610120870152818160081c16151561014087015260101c1615156101608501526101808401526101c0806101a0850152830190611afd565b346101d05760203660031901126101d0576004356117d5611b94565b6103e881116117e357600955005b60405162461bcd60e51b81526020600482015260156024820152744665652063616e6e6f74206578636565642031302560581b6044820152606490fd5b346101d0576020806003193601126101d05760043590600254600019810181811161050b5761184e90611dd2565b92600092600190815b8481106118a657868661186981611dd2565b9160005b8281106118825760405180610b3d8682611920565b806118906118a19284611e04565b5161189b8287611e04565b52611c25565b61186d565b8060005260038252838360406000200154146118cb575b6118c690611c25565b611857565b946118de818761189b6118c6948b611e04565b9590506118bd565b346101d05760403660031901126101d057602090600435600052600682526040600020602435600052825260ff6040600020541615158152f35b6020908160408183019282815285518094520193019160005b828110611947575050505090565b835185529381019392810192600101611939565b6101c081019081106001600160401b0382111761117257604052565b90601f801991011681019081106001600160401b0382111761117257604052565b6001600160401b03811161117257601f01601f191660200190565b81601f820112156101d0578035906119ca82611998565b926119d86040519485611977565b828452602083830101116101d057816000926020809301838601378301015290565b60005b838110611a0d5750506000910152565b81810151838201526020016119fd565b90600182811c92168015611a4d575b6020831014611a3757565b634e487b7160e01b600052602260045260246000fd5b91607f1691611a2c565b9060405191826000825492611a6b84611a1d565b908184526001948581169081600014611ada5750600114611a97575b5050611a9592500383611977565b565b9093915060005260209081600020936000915b818310611ac2575050611a9593508201013880611a87565b85548884018501529485019487945091830191611aaa565b915050611a9594506020925060ff191682840152151560051b8201013880611a87565b90602091611b16815180928185528580860191016119fa565b601f01601f1916010190565b600435906001600160a01b03821682036101d057565b8054821015611b505760005260206000200190600090565b634e487b7160e01b600052603260045260246000fd5b346101d05760603660031901126101d0576020611b8a604435602435600435611d5c565b6040519015158152f35b6001546001600160a01b03163303611ba857565b60405163118cdaa760e01b8152336004820152602490fd5b9190820391821161050b57565b81601f820112156101d0578051611be381611998565b92611bf16040519485611977565b818452602082840101116101d057611c0f91602080850191016119fa565b90565b8181029291811591840414171561050b57565b600019811461050b5760010190565b80546801000000000000000081101561117257611c5691600182018155611b38565b819291549060031b91821b91600019901b1916179055565b600260005414611c7f576002600055565b604051633ee5aeb560e01b8152600490fd5b15611c9857565b60405162461bcd60e51b8152602060048201526016602482015275109bdbdada5b99c8191bd95cc81b9bdd08195e1a5cdd60521b6044820152606490fd5b15611cdd57565b60405162461bcd60e51b8152602060048201526014602482015273139bdd081d1a1948189bdbdada5b99c81a1bdcdd60621b6044820152606490fd5b15611d2057565b60405162461bcd60e51b8152602060048201526014602482015273109bdbdada5b99c81a5cc818d85b98d95b1b195960621b6044820152606490fd5b905b828110611d6d57505050600190565b600082815260ff602060068152604090818420908585525282205416611db457620151808201809211611da05750611d5e565b634e487b7160e01b81526011600452602490fd5b9250505090565b6001600160401b0381116111725760051b60200190565b90611ddc82611dbb565b611de96040519182611977565b8281528092611dfa601f1991611dbb565b0190602036910137565b8051821015611b505760209160051b01019056fea264697066735822122080378e0f4157821a009fd20621329e1e92b7be893669d3424d009147e6ff99aa64736f6c63430008140033","opcodes":"PUSH1 0x80 CALLVALUE PUSH3 0xFC JUMPI PUSH1 0x1F PUSH3 0x1F7B CODESIZE DUP2 SWAP1 SUB SWAP2 DUP3 ADD PUSH1 0x1F NOT AND DUP4 ADD SWAP2 PUSH1 0x1 PUSH1 0x1 PUSH1 0x40 SHL SUB DUP4 GT DUP5 DUP5 LT OR PUSH3 0x101 JUMPI DUP1 DUP5 SWAP3 PUSH1 0x40 SWAP5 DUP6 MSTORE DUP4 CODECOPY DUP2 ADD SUB SLT PUSH3 0xFC JUMPI PUSH3 0x5A PUSH1 0x20 PUSH3 0x52 DUP4 PUSH3 0x117 JUMP JUMPDEST SWAP3 ADD PUSH3 0x117 JUMP JUMPDEST PUSH1 0x1 PUSH1 0x0 SSTORE CALLER ISZERO PUSH3 0xE3 JUMPI PUSH1 0x1 DUP1 SLOAD CALLER PUSH1 0x1 PUSH1 0x1 PUSH1 0xA0 SHL SUB NOT DUP1 DUP4 AND DUP3 OR SWAP1 SWAP4 SSTORE PUSH1 0x40 MLOAD SWAP5 SWAP3 SWAP4 PUSH1 0x1 PUSH1 0x1 PUSH1 0xA0 SHL SUB SWAP4 SWAP1 SWAP3 DUP5 SWAP3 SWAP1 DUP4 AND PUSH32 0x8BE0079C531659141344CD1FD0A4F28419497F9722A3DAAFE3B4186F6B6457E0 PUSH1 0x0 DUP1 LOG3 PUSH1 0x1 PUSH1 0x2 SSTORE PUSH2 0x12C PUSH1 0x9 SSTORE AND DUP4 PUSH1 0x8 SLOAD AND OR PUSH1 0x8 SSTORE AND SWAP1 PUSH1 0xA SLOAD AND OR PUSH1 0xA SSTORE PUSH2 0x1E4E SWAP1 DUP2 PUSH3 0x12D DUP3 CODECOPY RETURN JUMPDEST PUSH1 0x40 MLOAD PUSH4 0x1E4FBDF7 PUSH1 0xE0 SHL DUP2 MSTORE PUSH1 0x0 PUSH1 0x4 DUP3 ADD MSTORE PUSH1 0x24 SWAP1 REVERT JUMPDEST PUSH1 0x0 DUP1 REVERT JUMPDEST PUSH4 0x4E487B71 PUSH1 0xE0 SHL PUSH1 0x0 MSTORE PUSH1 0x41 PUSH1 0x4 MSTORE PUSH1 0x24 PUSH1 0x0 REVERT JUMPDEST MLOAD SWAP1 PUSH1 0x1 PUSH1 0x1 PUSH1 0xA0 SHL SUB DUP3 AND DUP3 SUB PUSH3 0xFC JUMPI JUMP INVALID PUSH1 0x80 DUP1 PUSH1 0x40 MSTORE PUSH1 0x4 CALLDATASIZE LT ISZERO PUSH2 0x13 JUMPI PUSH1 0x0 DUP1 REVERT JUMPDEST PUSH1 0x0 CALLDATALOAD PUSH1 0xE0 SHR SWAP1 DUP2 PUSH4 0x642F89E EQ PUSH2 0x18E6 JUMPI POP DUP1 PUSH4 0x97B6BE3 EQ PUSH2 0x1820 JUMPI DUP1 PUSH4 0xF867798 EQ PUSH2 0x174 JUMPI DUP1 PUSH4 0x12E8E2C3 EQ PUSH2 0x17B9 JUMPI DUP1 PUSH4 0x1DAB301E EQ PUSH2 0x16D2 JUMPI DUP1 PUSH4 0x2026D98B EQ PUSH2 0x14FF JUMPI DUP1 PUSH4 0x22EB77EE EQ PUSH2 0xD5E JUMPI DUP1 PUSH4 0x26F20C79 EQ PUSH2 0xD40 JUMPI DUP1 PUSH4 0x31521D57 EQ PUSH2 0x521 JUMPI DUP1 PUSH4 0x405505B1 EQ PUSH2 0xCC8 JUMPI DUP1 PUSH4 0x54056B69 EQ PUSH2 0xBD0 JUMPI DUP1 PUSH4 0x63809AEF EQ PUSH2 0xB4C JUMPI DUP1 PUSH4 0x6A5C841A EQ PUSH2 0x924 JUMPI DUP1 PUSH4 0x715018A6 EQ PUSH2 0x8C7 JUMPI DUP1 PUSH4 0x794239CC EQ PUSH2 0x89E JUMPI DUP1 PUSH4 0x8831E9CF EQ PUSH2 0x811 JUMPI DUP1 PUSH4 0x8DA5CB5B EQ PUSH2 0x7E8 JUMPI DUP1 PUSH4 0xA41CFA69 EQ PUSH2 0x79E JUMPI DUP1 PUSH4 0xA93DB7D0 EQ PUSH2 0x4DB JUMPI DUP1 PUSH4 0xC58BFB66 EQ PUSH2 0x780 JUMPI DUP1 PUSH4 0xD0B7830B EQ PUSH2 0x71D JUMPI DUP1 PUSH4 0xD27D559F EQ PUSH2 0x53F JUMPI DUP1 PUSH4 0xD3631FA5 EQ PUSH2 0x521 JUMPI DUP1 PUSH4 0xD8012A2A EQ PUSH2 0x4E0 JUMPI DUP1 PUSH4 0xE834016E EQ PUSH2 0x4DB JUMPI DUP1 PUSH4 0xEB79F224 EQ PUSH2 0x39E JUMPI DUP1 PUSH4 0xF2FDE38B EQ PUSH2 0x315 JUMPI DUP1 PUSH4 0xF91F859A EQ PUSH2 0x2BD JUMPI DUP1 PUSH4 0xFA2AF9DA EQ PUSH2 0x294 JUMPI DUP1 PUSH4 0xFB152EB4 EQ PUSH2 0x1D5 JUMPI PUSH4 0xFE909CAC EQ PUSH2 0x174 JUMPI PUSH1 0x0 DUP1 REVERT JUMPDEST CALLVALUE PUSH2 0x1D0 JUMPI PUSH1 0x20 CALLDATASIZE PUSH1 0x3 NOT ADD SLT PUSH2 0x1D0 JUMPI PUSH1 0x4 CALLDATALOAD PUSH1 0x1 PUSH1 0x1 PUSH1 0x40 SHL SUB DUP2 GT PUSH2 0x1D0 JUMPI PUSH2 0x1BD PUSH1 0x20 PUSH2 0x1AA DUP2 SWAP4 CALLDATASIZE SWAP1 PUSH1 0x4 ADD PUSH2 0x19B3 JUMP JUMPDEST DUP2 PUSH1 0x40 MLOAD SWAP4 DUP3 DUP6 DUP1 SWAP5 MLOAD SWAP4 DUP5 SWAP3 ADD PUSH2 0x19FA JUMP JUMPDEST DUP2 ADD PUSH1 0x7 DUP2 MSTORE SUB ADD SWAP1 KECCAK256 SLOAD PUSH1 0x40 MLOAD SWAP1 DUP2 MSTORE RETURN JUMPDEST PUSH1 0x0 DUP1 REVERT JUMPDEST CALLVALUE PUSH2 0x1D0 JUMPI PUSH1 0x20 CALLDATASIZE PUSH1 0x3 NOT ADD SLT PUSH2 0x1D0 JUMPI PUSH1 0x4 CALLDATALOAD DUP1 ISZERO ISZERO DUP1 PUSH2 0x289 JUMPI JUMPDEST PUSH2 0x1FB SWAP1 PUSH2 0x1C91 JUMP JUMPDEST PUSH1 0x0 MSTORE PUSH1 0x3 PUSH1 0x20 MSTORE PUSH1 0xA0 PUSH1 0x40 PUSH1 0x0 KECCAK256 PUSH1 0x6 DUP2 ADD SLOAD SWAP1 PUSH1 0x7 DUP2 ADD SLOAD SWAP1 PUSH1 0x8 DUP2 ADD SLOAD PUSH1 0x9 DUP3 ADD SLOAD SWAP3 PUSH1 0xFF DUP5 PUSH1 0x10 SHR AND SWAP3 PUSH1 0xFF DUP6 AND SWAP5 DUP6 PUSH2 0x280 JUMPI JUMPDEST DUP6 PUSH2 0x271 JUMPI JUMPDEST POP DUP5 PUSH2 0x262 JUMPI JUMPDEST POP PUSH1 0x40 MLOAD SWAP5 DUP6 MSTORE PUSH1 0x20 DUP6 ADD MSTORE PUSH1 0x40 DUP5 ADD MSTORE ISZERO ISZERO PUSH1 0x60 DUP4 ADD MSTORE ISZERO ISZERO PUSH1 0x80 DUP3 ADD MSTORE RETURN JUMPDEST PUSH1 0x4 ADD SLOAD TIMESTAMP LT ISZERO SWAP4 POP DUP7 PUSH2 0x241 JUMP JUMPDEST PUSH1 0x8 SHR PUSH1 0xFF AND ISZERO SWAP5 POP DUP8 PUSH2 0x23A JUMP JUMPDEST DUP5 ISZERO SWAP6 POP PUSH2 0x234 JUMP JUMPDEST POP PUSH1 0x2 SLOAD DUP2 LT PUSH2 0x1F2 JUMP JUMPDEST CALLVALUE PUSH2 0x1D0 JUMPI PUSH1 0x0 CALLDATASIZE PUSH1 0x3 NOT ADD SLT PUSH2 0x1D0 JUMPI PUSH1 0xA SLOAD PUSH1 0x40 MLOAD PUSH1 0x1 PUSH1 0x1 PUSH1 0xA0 SHL SUB SWAP1 SWAP2 AND DUP2 MSTORE PUSH1 0x20 SWAP1 RETURN JUMPDEST CALLVALUE PUSH2 0x1D0 JUMPI PUSH1 0x40 CALLDATASIZE PUSH1 0x3 NOT ADD SLT PUSH2 0x1D0 JUMPI PUSH2 0x2D6 PUSH2 0x1B22 JUMP JUMPDEST PUSH1 0x1 PUSH1 0x1 PUSH1 0xA0 SHL SUB AND PUSH1 0x0 SWAP1 DUP2 MSTORE PUSH1 0x5 PUSH1 0x20 MSTORE PUSH1 0x40 SWAP1 KECCAK256 DUP1 SLOAD PUSH1 0x24 CALLDATALOAD SWAP2 SWAP1 DUP3 LT ISZERO PUSH2 0x1D0 JUMPI PUSH1 0x20 SWAP2 PUSH2 0x307 SWAP2 PUSH2 0x1B38 JUMP JUMPDEST SWAP1 SLOAD PUSH1 0x40 MLOAD SWAP2 PUSH1 0x3 SHL SHR DUP2 MSTORE RETURN JUMPDEST CALLVALUE PUSH2 0x1D0 JUMPI PUSH1 0x20 CALLDATASIZE PUSH1 0x3 NOT ADD SLT PUSH2 0x1D0 JUMPI PUSH2 0x32E PUSH2 0x1B22 JUMP JUMPDEST PUSH2 0x336 PUSH2 0x1B94 JUMP JUMPDEST PUSH1 0x1 PUSH1 0x1 PUSH1 0xA0 SHL SUB SWAP1 DUP2 AND SWAP1 DUP2 ISZERO PUSH2 0x385 JUMPI PUSH1 0x1 SLOAD DUP3 PUSH1 0x1 PUSH1 0x1 PUSH1 0x60 SHL SUB PUSH1 0xA0 SHL DUP3 AND OR PUSH1 0x1 SSTORE AND PUSH32 0x8BE0079C531659141344CD1FD0A4F28419497F9722A3DAAFE3B4186F6B6457E0 PUSH1 0x0 DUP1 LOG3 STOP JUMPDEST PUSH1 0x40 MLOAD PUSH4 0x1E4FBDF7 PUSH1 0xE0 SHL DUP2 MSTORE PUSH1 0x0 PUSH1 0x4 DUP3 ADD MSTORE PUSH1 0x24 SWAP1 REVERT JUMPDEST CALLVALUE PUSH2 0x1D0 JUMPI PUSH1 0x20 CALLDATASIZE PUSH1 0x3 NOT ADD SLT PUSH2 0x1D0 JUMPI PUSH1 0x4 CALLDATALOAD DUP1 ISZERO ISZERO DUP1 PUSH2 0x4D0 JUMPI JUMPDEST PUSH2 0x3C4 SWAP1 PUSH2 0x1C91 JUMP JUMPDEST PUSH2 0x3CC PUSH2 0x1B94 JUMP JUMPDEST PUSH2 0x3D4 PUSH2 0x1C6E JUMP JUMPDEST DUP1 PUSH1 0x0 MSTORE PUSH1 0x3 PUSH1 0x20 MSTORE PUSH1 0x40 PUSH1 0x0 KECCAK256 SWAP1 PUSH1 0x9 DUP3 ADD SLOAD PUSH1 0xFF DUP2 PUSH1 0x10 SHR AND PUSH2 0x492 JUMPI PUSH1 0x8 SHR PUSH1 0xFF AND ISZERO PUSH2 0x441 JUMPI PUSH32 0x9ED4C791FE4FECB17BDFC7D28ED5925D2FB7719DE842516FF7183221AD87A178 PUSH1 0x20 PUSH1 0x6 PUSH1 0x1 DUP1 PUSH1 0xA0 SHL SUB PUSH1 0x2 DUP7 ADD SLOAD AND SWAP5 ADD SLOAD PUSH1 0x40 MLOAD SWAP1 DUP2 MSTORE LOG3 PUSH1 0x1 PUSH1 0x0 SSTORE STOP JUMPDEST PUSH1 0x40 MLOAD PUSH3 0x461BCD PUSH1 0xE5 SHL DUP2 MSTORE PUSH1 0x20 PUSH1 0x4 DUP3 ADD MSTORE PUSH1 0x23 PUSH1 0x24 DUP3 ADD MSTORE PUSH32 0x426F6F6B696E67206D7573742062652063616E63656C6C656420746F20726566 PUSH1 0x44 DUP3 ADD MSTORE PUSH3 0x1D5B99 PUSH1 0xEA SHL PUSH1 0x64 DUP3 ADD MSTORE PUSH1 0x84 SWAP1 REVERT JUMPDEST PUSH1 0x40 MLOAD PUSH3 0x461BCD PUSH1 0xE5 SHL DUP2 MSTORE PUSH1 0x20 PUSH1 0x4 DUP3 ADD MSTORE PUSH1 0x16 PUSH1 0x24 DUP3 ADD MSTORE PUSH22 0x119D5B991CC8185B1C9958591E481C995B19585CD959 PUSH1 0x52 SHL PUSH1 0x44 DUP3 ADD MSTORE PUSH1 0x64 SWAP1 REVERT JUMPDEST POP PUSH1 0x2 SLOAD DUP2 LT PUSH2 0x3BB JUMP JUMPDEST PUSH2 0x1B66 JUMP JUMPDEST CALLVALUE PUSH2 0x1D0 JUMPI PUSH1 0x0 CALLDATASIZE PUSH1 0x3 NOT ADD SLT PUSH2 0x1D0 JUMPI PUSH1 0x2 SLOAD PUSH1 0x0 NOT DUP2 ADD SWAP1 DUP2 GT PUSH2 0x50B JUMPI PUSH1 0x20 SWAP1 PUSH1 0x40 MLOAD SWAP1 DUP2 MSTORE RETURN JUMPDEST PUSH4 0x4E487B71 PUSH1 0xE0 SHL PUSH1 0x0 MSTORE PUSH1 0x11 PUSH1 0x4 MSTORE PUSH1 0x24 PUSH1 0x0 REVERT JUMPDEST CALLVALUE PUSH2 0x1D0 JUMPI PUSH1 0x0 CALLDATASIZE PUSH1 0x3 NOT ADD SLT PUSH2 0x1D0 JUMPI PUSH1 0x20 PUSH1 0xB SLOAD PUSH1 0x40 MLOAD SWAP1 DUP2 MSTORE RETURN JUMPDEST CALLVALUE PUSH2 0x1D0 JUMPI PUSH1 0x40 CALLDATASIZE PUSH1 0x3 NOT ADD SLT PUSH2 0x1D0 JUMPI PUSH1 0x24 PUSH1 0x4 CALLDATALOAD DUP2 CALLDATALOAD PUSH1 0x1 PUSH1 0x1 PUSH1 0x40 SHL SUB DUP2 GT PUSH2 0x1D0 JUMPI PUSH2 0x573 SWAP1 CALLDATASIZE SWAP1 PUSH1 0x4 ADD PUSH2 0x19B3 JUMP JUMPDEST DUP2 ISZERO ISZERO DUP1 PUSH2 0x712 JUMPI JUMPDEST PUSH2 0x585 SWAP1 PUSH2 0x1C91 JUMP JUMPDEST DUP2 PUSH1 0x0 MSTORE PUSH1 0x20 SWAP3 PUSH1 0x3 DUP5 MSTORE PUSH1 0x40 PUSH1 0x0 KECCAK256 SWAP1 PUSH1 0x9 DUP3 ADD DUP1 SLOAD PUSH1 0xFF DUP2 PUSH1 0x8 SHR AND PUSH2 0x6CE JUMPI PUSH1 0x2 DUP5 ADD SLOAD CALLER PUSH1 0x1 PUSH1 0x1 PUSH1 0xA0 SHL SUB SWAP2 DUP3 AND EQ SWAP1 DUP2 ISZERO PUSH2 0x6BE JUMPI JUMPDEST POP ISZERO PUSH2 0x66C JUMPI PUSH2 0xFF00 NOT AND PUSH2 0x100 OR SWAP1 SSTORE PUSH1 0x1 DUP3 ADD SLOAD PUSH1 0x4 DUP4 ADD SLOAD PUSH1 0x5 SWAP1 SWAP4 ADD SLOAD SWAP3 JUMPDEST DUP4 DUP2 LT PUSH2 0x629 JUMPI PUSH1 0x40 MLOAD DUP8 DUP2 MSTORE CALLER SWAP1 DUP8 SWAP1 PUSH32 0x91E5BFFD4FFDC5B054CE786EA6269E6E8C1FE4BB5CDB4D14F249C1EC59E3908C SWAP1 DUP1 PUSH2 0x624 DUP2 DUP14 ADD DUP12 PUSH2 0x1AFD JUMP JUMPDEST SUB SWAP1 LOG3 STOP JUMPDEST DUP2 PUSH1 0x0 MSTORE PUSH1 0x6 DUP8 MSTORE PUSH1 0x40 PUSH1 0x0 KECCAK256 DUP2 PUSH1 0x0 MSTORE DUP8 MSTORE PUSH1 0x40 PUSH1 0x0 KECCAK256 PUSH1 0xFF NOT DUP2 SLOAD AND SWAP1 SSTORE PUSH3 0x15180 DUP2 ADD DUP1 SWAP2 GT ISZERO PUSH2 0x5E4 JUMPI DUP3 PUSH4 0x4E487B71 PUSH1 0xE0 SHL PUSH1 0x0 MSTORE PUSH1 0x11 PUSH1 0x4 MSTORE PUSH1 0x0 REVERT JUMPDEST PUSH1 0x40 MLOAD PUSH3 0x461BCD PUSH1 0xE5 SHL DUP2 MSTORE PUSH1 0x4 DUP2 ADD DUP9 SWAP1 MSTORE PUSH1 0x25 DUP2 DUP6 ADD MSTORE PUSH32 0x4E6F7420617574686F72697A656420746F2063616E63656C207468697320626F PUSH1 0x44 DUP3 ADD MSTORE PUSH5 0x6F6B696E67 PUSH1 0xD8 SHL PUSH1 0x64 DUP3 ADD MSTORE PUSH1 0x84 SWAP1 REVERT JUMPDEST SWAP1 POP PUSH1 0x3 DUP6 ADD SLOAD AND CALLER EQ DUP9 PUSH2 0x5C1 JUMP JUMPDEST PUSH1 0x40 MLOAD PUSH3 0x461BCD PUSH1 0xE5 SHL DUP2 MSTORE PUSH1 0x4 DUP2 ADD DUP9 SWAP1 MSTORE PUSH1 0x19 DUP2 DUP6 ADD MSTORE PUSH32 0x426F6F6B696E6720616C72656164792063616E63656C6C656400000000000000 PUSH1 0x44 DUP3 ADD MSTORE PUSH1 0x64 SWAP1 REVERT JUMPDEST POP PUSH1 0x2 SLOAD DUP3 LT PUSH2 0x57C JUMP JUMPDEST CALLVALUE PUSH2 0x1D0 JUMPI PUSH1 0x0 CALLDATASIZE PUSH1 0x3 NOT ADD SLT PUSH2 0x1D0 JUMPI PUSH2 0x736 PUSH2 0x1B94 JUMP JUMPDEST PUSH1 0xB SLOAD ISZERO PUSH2 0x745 JUMPI PUSH1 0x0 PUSH1 0xB SSTORE STOP JUMPDEST PUSH1 0x40 MLOAD PUSH3 0x461BCD PUSH1 0xE5 SHL DUP2 MSTORE PUSH1 0x20 PUSH1 0x4 DUP3 ADD MSTORE PUSH1 0x13 PUSH1 0x24 DUP3 ADD MSTORE PUSH19 0x4E6F206665657320746F207769746864726177 PUSH1 0x68 SHL PUSH1 0x44 DUP3 ADD MSTORE PUSH1 0x64 SWAP1 REVERT JUMPDEST CALLVALUE PUSH2 0x1D0 JUMPI PUSH1 0x0 CALLDATASIZE PUSH1 0x3 NOT ADD SLT PUSH2 0x1D0 JUMPI PUSH1 0x20 PUSH1 0x9 SLOAD PUSH1 0x40 MLOAD SWAP1 DUP2 MSTORE RETURN JUMPDEST CALLVALUE PUSH2 0x1D0 JUMPI PUSH1 0x40 CALLDATASIZE PUSH1 0x3 NOT ADD SLT PUSH2 0x1D0 JUMPI PUSH2 0x7B7 PUSH2 0x1B22 JUMP JUMPDEST PUSH1 0x1 PUSH1 0x1 PUSH1 0xA0 SHL SUB AND PUSH1 0x0 SWAP1 DUP2 MSTORE PUSH1 0x4 PUSH1 0x20 MSTORE PUSH1 0x40 SWAP1 KECCAK256 DUP1 SLOAD PUSH1 0x24 CALLDATALOAD SWAP2 SWAP1 DUP3 LT ISZERO PUSH2 0x1D0 JUMPI PUSH1 0x20 SWAP2 PUSH2 0x307 SWAP2 PUSH2 0x1B38 JUMP JUMPDEST CALLVALUE PUSH2 0x1D0 JUMPI PUSH1 0x0 CALLDATASIZE PUSH1 0x3 NOT ADD SLT PUSH2 0x1D0 JUMPI PUSH1 0x1 SLOAD PUSH1 0x40 MLOAD PUSH1 0x1 PUSH1 0x1 PUSH1 0xA0 SHL SUB SWAP1 SWAP2 AND DUP2 MSTORE PUSH1 0x20 SWAP1 RETURN JUMPDEST CALLVALUE PUSH2 0x1D0 JUMPI PUSH1 0x20 CALLDATASIZE PUSH1 0x3 NOT ADD SLT PUSH2 0x1D0 JUMPI PUSH2 0x82A PUSH2 0x1B22 JUMP JUMPDEST PUSH2 0x832 PUSH2 0x1B94 JUMP JUMPDEST PUSH1 0x1 PUSH1 0x1 PUSH1 0xA0 SHL SUB AND DUP1 ISZERO PUSH2 0x859 JUMPI PUSH1 0x1 PUSH1 0x1 PUSH1 0x60 SHL SUB PUSH1 0xA0 SHL PUSH1 0xA SLOAD AND OR PUSH1 0xA SSTORE PUSH1 0x0 DUP1 RETURN JUMPDEST PUSH1 0x40 MLOAD PUSH3 0x461BCD PUSH1 0xE5 SHL DUP2 MSTORE PUSH1 0x20 PUSH1 0x4 DUP3 ADD MSTORE PUSH1 0x17 PUSH1 0x24 DUP3 ADD MSTORE PUSH32 0x496E76616C696420706C6174666F726D2077616C6C6574000000000000000000 PUSH1 0x44 DUP3 ADD MSTORE PUSH1 0x64 SWAP1 REVERT JUMPDEST CALLVALUE PUSH2 0x1D0 JUMPI PUSH1 0x0 CALLDATASIZE PUSH1 0x3 NOT ADD SLT PUSH2 0x1D0 JUMPI PUSH1 0x8 SLOAD PUSH1 0x40 MLOAD PUSH1 0x1 PUSH1 0x1 PUSH1 0xA0 SHL SUB SWAP1 SWAP2 AND DUP2 MSTORE PUSH1 0x20 SWAP1 RETURN JUMPDEST CALLVALUE PUSH2 0x1D0 JUMPI PUSH1 0x0 CALLDATASIZE PUSH1 0x3 NOT ADD SLT PUSH2 0x1D0 JUMPI PUSH2 0x8E0 PUSH2 0x1B94 JUMP JUMPDEST PUSH1 0x1 DUP1 SLOAD PUSH1 0x1 PUSH1 0x1 PUSH1 0xA0 SHL SUB NOT DUP2 AND SWAP1 SWAP2 SSTORE PUSH1 0x0 SWAP1 PUSH1 0x1 PUSH1 0x1 PUSH1 0xA0 SHL SUB AND PUSH32 0x8BE0079C531659141344CD1FD0A4F28419497F9722A3DAAFE3B4186F6B6457E0 DUP3 DUP1 LOG3 STOP JUMPDEST CALLVALUE PUSH2 0x1D0 JUMPI PUSH1 0x20 CALLDATASIZE PUSH1 0x3 NOT ADD SLT PUSH2 0x1D0 JUMPI PUSH1 0x60 PUSH2 0x1A0 PUSH1 0x40 MLOAD PUSH2 0x946 DUP2 PUSH2 0x195B JUMP JUMPDEST PUSH1 0x0 DUP2 MSTORE PUSH1 0x0 PUSH1 0x20 DUP3 ADD MSTORE PUSH1 0x0 PUSH1 0x40 DUP3 ADD MSTORE PUSH1 0x0 DUP4 DUP3 ADD MSTORE PUSH1 0x0 PUSH1 0x80 DUP3 ADD MSTORE PUSH1 0x0 PUSH1 0xA0 DUP3 ADD MSTORE PUSH1 0x0 PUSH1 0xC0 DUP3 ADD MSTORE PUSH1 0x0 PUSH1 0xE0 DUP3 ADD MSTORE PUSH1 0x0 PUSH2 0x100 DUP3 ADD MSTORE PUSH1 0x0 PUSH2 0x120 DUP3 ADD MSTORE PUSH1 0x0 PUSH2 0x140 DUP3 ADD MSTORE PUSH1 0x0 PUSH2 0x160 DUP3 ADD MSTORE PUSH1 0x0 PUSH2 0x180 DUP3 ADD MSTORE ADD MSTORE PUSH1 0x4 CALLDATALOAD DUP1 ISZERO ISZERO DUP1 PUSH2 0xB41 JUMPI JUMPDEST PUSH2 0x9B9 SWAP1 PUSH2 0x1C91 JUMP JUMPDEST PUSH1 0x0 MSTORE PUSH1 0x3 PUSH1 0x20 MSTORE PUSH2 0x1A0 PUSH1 0x40 PUSH1 0x0 KECCAK256 PUSH2 0xA7A PUSH1 0xB PUSH1 0x40 MLOAD SWAP3 PUSH2 0x9DB DUP5 PUSH2 0x195B JUMP JUMPDEST DUP1 SLOAD DUP5 MSTORE PUSH1 0x1 DUP2 ADD SLOAD PUSH1 0x20 DUP6 ADD MSTORE PUSH1 0x2 DUP2 ADD SLOAD PUSH1 0x1 PUSH1 0x1 PUSH1 0xA0 SHL SUB SWAP1 DUP2 AND PUSH1 0x40 DUP7 ADD MSTORE PUSH1 0x3 DUP3 ADD SLOAD AND PUSH1 0x60 DUP6 ADD MSTORE PUSH1 0x4 DUP2 ADD SLOAD PUSH1 0x80 DUP6 ADD MSTORE PUSH1 0x5 DUP2 ADD SLOAD PUSH1 0xA0 DUP6 ADD MSTORE PUSH1 0x6 DUP2 ADD SLOAD PUSH1 0xC0 DUP6 ADD MSTORE PUSH1 0x7 DUP2 ADD SLOAD PUSH1 0xE0 DUP6 ADD MSTORE PUSH1 0x8 DUP1 DUP3 ADD SLOAD PUSH2 0x100 DUP7 ADD MSTORE PUSH1 0x9 DUP3 ADD SLOAD PUSH1 0xFF DUP2 DUP2 AND ISZERO ISZERO PUSH2 0x120 DUP9 ADD MSTORE SWAP2 DUP2 SWAP1 SHR DUP3 AND ISZERO ISZERO PUSH2 0x140 DUP8 ADD MSTORE PUSH1 0x10 SHR AND ISZERO ISZERO PUSH2 0x160 DUP6 ADD MSTORE PUSH1 0xA DUP2 ADD SLOAD PUSH2 0x180 DUP6 ADD MSTORE ADD PUSH2 0x1A57 JUMP JUMPDEST DUP3 DUP3 ADD MSTORE PUSH2 0xB3D PUSH1 0x40 MLOAD SWAP3 DUP4 SWAP3 PUSH1 0x20 DUP5 MSTORE DUP1 MLOAD PUSH1 0x20 DUP6 ADD MSTORE PUSH1 0x20 DUP2 ADD MLOAD PUSH1 0x40 DUP6 ADD MSTORE PUSH1 0x1 DUP1 PUSH1 0xA0 SHL SUB PUSH1 0x40 DUP3 ADD MLOAD AND PUSH1 0x60 DUP6 ADD MSTORE PUSH1 0x1 DUP1 PUSH1 0xA0 SHL SUB PUSH1 0x60 DUP3 ADD MLOAD AND PUSH1 0x80 DUP6 ADD MSTORE PUSH1 0x80 DUP2 ADD MLOAD PUSH1 0xA0 DUP6 ADD MSTORE PUSH1 0xA0 DUP2 ADD MLOAD PUSH1 0xC0 DUP6 ADD MSTORE PUSH1 0xC0 DUP2 ADD MLOAD PUSH1 0xE0 DUP6 ADD MSTORE PUSH1 0xE0 DUP2 ADD MLOAD PUSH2 0x100 DUP6 ADD MSTORE PUSH2 0x100 DUP2 ADD MLOAD PUSH2 0x120 DUP6 ADD MSTORE PUSH2 0x120 DUP2 ADD MLOAD ISZERO ISZERO PUSH2 0x140 DUP6 ADD MSTORE PUSH2 0x140 DUP2 ADD MLOAD ISZERO ISZERO PUSH2 0x160 DUP6 ADD MSTORE PUSH2 0x160 DUP2 ADD MLOAD ISZERO ISZERO PUSH2 0x180 DUP6 ADD MSTORE PUSH2 0x180 DUP2 ADD MLOAD DUP3 DUP6 ADD MSTORE ADD MLOAD PUSH2 0x1C0 DUP1 DUP5 ADD MSTORE PUSH2 0x1E0 DUP4 ADD SWAP1 PUSH2 0x1AFD JUMP JUMPDEST SUB SWAP1 RETURN JUMPDEST POP PUSH1 0x2 SLOAD DUP2 LT PUSH2 0x9B0 JUMP JUMPDEST CALLVALUE PUSH2 0x1D0 JUMPI PUSH1 0x20 DUP1 PUSH1 0x3 NOT CALLDATASIZE ADD SLT PUSH2 0x1D0 JUMPI PUSH1 0x1 PUSH1 0x1 PUSH1 0xA0 SHL SUB PUSH2 0xB6E PUSH2 0x1B22 JUMP JUMPDEST AND PUSH1 0x0 MSTORE PUSH1 0x4 DUP2 MSTORE PUSH1 0x40 PUSH1 0x0 KECCAK256 SWAP1 PUSH1 0x40 MLOAD SWAP1 DUP2 DUP2 DUP5 SLOAD SWAP2 DUP3 DUP2 MSTORE ADD SWAP4 PUSH1 0x0 MSTORE DUP2 PUSH1 0x0 KECCAK256 SWAP2 PUSH1 0x0 SWAP1 JUMPDEST DUP3 DUP3 LT PUSH2 0xBB9 JUMPI PUSH2 0xB3D DUP6 PUSH2 0xBAD DUP2 DUP10 SUB DUP3 PUSH2 0x1977 JUMP JUMPDEST PUSH1 0x40 MLOAD SWAP2 DUP3 SWAP2 DUP3 PUSH2 0x1920 JUMP JUMPDEST DUP4 SLOAD DUP7 MSTORE SWAP5 DUP6 ADD SWAP5 PUSH1 0x1 SWAP4 DUP5 ADD SWAP4 SWAP1 SWAP2 ADD SWAP1 PUSH2 0xB96 JUMP JUMPDEST CALLVALUE PUSH2 0x1D0 JUMPI PUSH1 0x20 CALLDATASIZE PUSH1 0x3 NOT ADD SLT PUSH2 0x1D0 JUMPI PUSH1 0x4 CALLDATALOAD DUP1 ISZERO ISZERO DUP1 PUSH2 0xCBD JUMPI JUMPDEST PUSH2 0xBF6 SWAP1 PUSH2 0x1C91 JUMP JUMPDEST DUP1 PUSH1 0x0 MSTORE PUSH1 0x3 PUSH1 0x20 MSTORE PUSH2 0xC1A PUSH1 0x1 DUP1 PUSH1 0xA0 SHL SUB PUSH1 0x3 PUSH1 0x40 PUSH1 0x0 KECCAK256 ADD SLOAD AND CALLER EQ PUSH2 0x1CD6 JUMP JUMPDEST DUP1 PUSH1 0x0 MSTORE PUSH1 0x3 PUSH1 0x20 MSTORE PUSH1 0x9 PUSH1 0x40 PUSH1 0x0 KECCAK256 ADD DUP1 SLOAD PUSH1 0xFF DUP2 AND PUSH2 0xC78 JUMPI DUP1 PUSH2 0xC48 PUSH1 0xFF PUSH1 0x1 SWAP4 PUSH1 0x8 SHR AND ISZERO PUSH2 0x1D19 JUMP JUMPDEST PUSH1 0xFF NOT AND OR SWAP1 SSTORE CALLER SWAP1 PUSH32 0x32A6EAB1F4A0177609CC24472E391822AAE8A497472601EF3F98523B4BC7BD31 PUSH1 0x0 DUP1 LOG3 STOP JUMPDEST PUSH1 0x40 MLOAD PUSH3 0x461BCD PUSH1 0xE5 SHL DUP2 MSTORE PUSH1 0x20 PUSH1 0x4 DUP3 ADD MSTORE PUSH1 0x19 PUSH1 0x24 DUP3 ADD MSTORE PUSH32 0x426F6F6B696E6720616C726561647920636F6E6669726D656400000000000000 PUSH1 0x44 DUP3 ADD MSTORE PUSH1 0x64 SWAP1 REVERT JUMPDEST POP PUSH1 0x2 SLOAD DUP2 LT PUSH2 0xBED JUMP JUMPDEST CALLVALUE PUSH2 0x1D0 JUMPI PUSH1 0x20 DUP1 PUSH1 0x3 NOT CALLDATASIZE ADD SLT PUSH2 0x1D0 JUMPI PUSH1 0x1 PUSH1 0x1 PUSH1 0xA0 SHL SUB PUSH2 0xCEA PUSH2 0x1B22 JUMP JUMPDEST AND PUSH1 0x0 MSTORE PUSH1 0x5 DUP2 MSTORE PUSH1 0x40 PUSH1 0x0 KECCAK256 SWAP1 PUSH1 0x40 MLOAD SWAP1 DUP2 DUP2 DUP5 SLOAD SWAP2 DUP3 DUP2 MSTORE ADD SWAP4 PUSH1 0x0 MSTORE DUP2 PUSH1 0x0 KECCAK256 SWAP2 PUSH1 0x0 SWAP1 JUMPDEST DUP3 DUP3 LT PUSH2 0xD29 JUMPI PUSH2 0xB3D DUP6 PUSH2 0xBAD DUP2 DUP10 SUB DUP3 PUSH2 0x1977 JUMP JUMPDEST DUP4 SLOAD DUP7 MSTORE SWAP5 DUP6 ADD SWAP5 PUSH1 0x1 SWAP4 DUP5 ADD SWAP4 SWAP1 SWAP2 ADD SWAP1 PUSH2 0xD12 JUMP JUMPDEST CALLVALUE PUSH2 0x1D0 JUMPI PUSH1 0x0 CALLDATASIZE PUSH1 0x3 NOT ADD SLT PUSH2 0x1D0 JUMPI PUSH1 0x20 PUSH1 0x2 SLOAD PUSH1 0x40 MLOAD SWAP1 DUP2 MSTORE RETURN JUMPDEST CALLVALUE PUSH2 0x1D0 JUMPI PUSH1 0x80 CALLDATASIZE PUSH1 0x3 NOT ADD SLT PUSH2 0x1D0 JUMPI PUSH1 0x64 CALLDATALOAD PUSH1 0x1 PUSH1 0x1 PUSH1 0x40 SHL SUB DUP2 GT PUSH2 0x1D0 JUMPI PUSH2 0xD8E SWAP1 CALLDATASIZE SWAP1 PUSH1 0x4 ADD PUSH2 0x19B3 JUMP JUMPDEST TIMESTAMP PUSH1 0x24 CALLDATALOAD LT PUSH2 0x14AE JUMPI PUSH1 0x24 CALLDATALOAD PUSH1 0x44 CALLDATALOAD GT ISZERO PUSH2 0x145B JUMPI PUSH4 0x1E13380 PUSH2 0xDB6 PUSH1 0x24 CALLDATALOAD PUSH1 0x44 CALLDATALOAD PUSH2 0x1BC0 JUMP JUMPDEST GT PUSH2 0x1416 JUMPI PUSH1 0x24 SWAP1 PUSH2 0xDC6 PUSH2 0x1C6E JUMP JUMPDEST PUSH1 0x8 SLOAD PUSH1 0x40 MLOAD PUSH4 0x32665FFB PUSH1 0xE0 SHL DUP2 MSTORE PUSH1 0x4 DUP1 CALLDATALOAD SWAP1 DUP3 ADD MSTORE SWAP3 PUSH1 0x0 SWAP2 DUP5 SWAP2 SWAP1 DUP3 SWAP1 PUSH1 0x1 PUSH1 0x1 PUSH1 0xA0 SHL SUB AND GAS STATICCALL SWAP2 DUP3 ISZERO PUSH2 0x140A JUMPI PUSH1 0x0 SWAP3 PUSH2 0x12D3 JUMPI JUMPDEST POP PUSH1 0xC0 DUP3 ADD MLOAD ISZERO PUSH2 0x1295 JUMPI PUSH1 0x20 DUP3 ADD MLOAD PUSH1 0x1 PUSH1 0x1 PUSH1 0xA0 SHL SUB AND ISZERO PUSH2 0x1250 JUMPI PUSH2 0xE30 PUSH1 0x44 CALLDATALOAD PUSH1 0x24 CALLDATALOAD PUSH1 0x4 CALLDATALOAD PUSH2 0x1D5C JUMP JUMPDEST ISZERO PUSH2 0x120B JUMPI PUSH2 0xE55 PUSH3 0x15180 PUSH2 0xE4A PUSH1 0x24 CALLDATALOAD PUSH1 0x44 CALLDATALOAD PUSH2 0x1BC0 JUMP JUMPDEST DIV PUSH1 0xA0 DUP5 ADD MLOAD PUSH2 0x1C12 JUMP JUMPDEST DUP1 ISZERO PUSH2 0x11CD JUMPI PUSH2 0x2710 PUSH2 0xE6A PUSH1 0x9 SLOAD DUP4 PUSH2 0x1C12 JUMP JUMPDEST DIV SWAP2 PUSH2 0xE76 DUP4 DUP4 PUSH2 0x1BC0 JUMP JUMPDEST PUSH1 0x40 MLOAD PUSH1 0x20 DUP2 DUP5 MLOAD PUSH2 0xE8B DUP2 DUP4 DUP6 DUP10 ADD PUSH2 0x19FA JUMP JUMPDEST DUP2 ADD PUSH1 0x7 DUP2 MSTORE SUB ADD SWAP1 KECCAK256 SLOAD PUSH2 0x1188 JUMPI PUSH1 0x2 SLOAD SWAP4 PUSH2 0xEA7 DUP6 PUSH2 0x1C25 JUMP JUMPDEST PUSH1 0x2 SSTORE DUP5 PUSH1 0x0 MSTORE PUSH1 0x3 PUSH1 0x20 MSTORE PUSH1 0x40 PUSH1 0x0 KECCAK256 DUP6 DUP2 SSTORE PUSH1 0x4 CALLDATALOAD PUSH1 0x1 DUP3 ADD SSTORE PUSH1 0x2 DUP2 ADD PUSH1 0x1 PUSH1 0x1 PUSH1 0x60 SHL SUB PUSH1 0xA0 SHL SWAP1 CALLER DUP3 DUP3 SLOAD AND OR SWAP1 SSTORE PUSH1 0x1 DUP1 PUSH1 0xA0 SHL SUB PUSH1 0x20 DUP10 ADD MLOAD AND PUSH1 0x3 DUP4 ADD SWAP2 DUP3 SLOAD AND OR SWAP1 SSTORE PUSH1 0x24 CALLDATALOAD PUSH1 0x4 DUP3 ADD SSTORE PUSH1 0x44 CALLDATALOAD PUSH1 0x5 DUP3 ADD SSTORE DUP5 PUSH1 0x6 DUP3 ADD SSTORE DUP2 PUSH1 0x7 DUP3 ADD SSTORE DUP3 PUSH1 0x8 DUP3 ADD SSTORE PUSH1 0x9 DUP2 ADD PUSH3 0xFFFFFF NOT DUP2 SLOAD AND SWAP1 SSTORE TIMESTAMP PUSH1 0xA DUP3 ADD SSTORE DUP4 MLOAD PUSH1 0x1 PUSH1 0x1 PUSH1 0x40 SHL SUB DUP2 GT PUSH2 0x1172 JUMPI PUSH2 0xF46 PUSH1 0xB DUP4 ADD SLOAD PUSH2 0x1A1D JUMP JUMPDEST PUSH1 0x1F DUP2 GT PUSH2 0x112B JUMPI JUMPDEST POP PUSH1 0x20 PUSH1 0x1F DUP3 GT PUSH1 0x1 EQ PUSH2 0x10BE JUMPI SWAP1 DUP1 PUSH1 0xB SWAP3 PUSH1 0x0 SWAP2 PUSH2 0x10B3 JUMPI JUMPDEST POP DUP2 PUSH1 0x1 SHL SWAP2 PUSH1 0x0 NOT SWAP1 PUSH1 0x3 SHL SHR NOT AND OR SWAP2 ADD SSTORE JUMPDEST CALLER PUSH1 0x0 MSTORE PUSH1 0x4 PUSH1 0x20 MSTORE PUSH2 0xF96 DUP6 PUSH1 0x40 PUSH1 0x0 KECCAK256 PUSH2 0x1C34 JUMP JUMPDEST PUSH1 0x1 DUP1 PUSH1 0xA0 SHL SUB PUSH1 0x20 DUP8 ADD MLOAD AND PUSH1 0x0 MSTORE PUSH1 0x5 PUSH1 0x20 MSTORE PUSH2 0xFB9 DUP6 PUSH1 0x40 PUSH1 0x0 KECCAK256 PUSH2 0x1C34 JUMP JUMPDEST PUSH1 0x24 CALLDATALOAD JUMPDEST PUSH1 0x44 CALLDATALOAD DUP2 LT PUSH2 0x1068 JUMPI POP PUSH1 0x20 SWAP6 DUP6 PUSH1 0x40 MLOAD DUP9 DUP2 DUP8 MLOAD PUSH2 0xFDF DUP2 DUP4 DUP6 DUP13 ADD PUSH2 0x19FA JUMP JUMPDEST DUP2 ADD PUSH1 0x7 DUP2 MSTORE SUB ADD SWAP1 KECCAK256 SSTORE DUP7 PUSH1 0x1 DUP1 PUSH1 0xA0 SHL SUB SWAP2 ADD MLOAD AND SWAP4 PUSH1 0x40 MLOAD SWAP5 DUP6 MSTORE PUSH1 0x24 CALLDATALOAD DUP8 DUP7 ADD MSTORE PUSH1 0x44 CALLDATALOAD PUSH1 0x40 DUP7 ADD MSTORE PUSH1 0x60 DUP6 ADD MSTORE PUSH1 0x80 DUP5 ADD MSTORE PUSH1 0xA0 DUP4 ADD MSTORE PUSH1 0xE0 PUSH1 0xC0 DUP4 ADD MSTORE DUP3 PUSH32 0xCF9663AFFFE3119215AF7B8329ABC00C2E2BB74F559F37188E7193EBD58EC14A CALLER SWAP4 DUP1 PUSH2 0x1058 PUSH1 0x4 CALLDATALOAD SWAP6 PUSH1 0xE0 DUP4 ADD SWAP1 PUSH2 0x1AFD JUMP JUMPDEST SUB SWAP1 LOG4 PUSH1 0x1 PUSH1 0x0 SSTORE PUSH1 0x40 MLOAD SWAP1 DUP2 MSTORE RETURN JUMPDEST PUSH1 0x4 CALLDATALOAD PUSH1 0x0 MSTORE PUSH1 0x6 PUSH1 0x20 MSTORE PUSH1 0x40 PUSH1 0x0 KECCAK256 DUP2 PUSH1 0x0 MSTORE PUSH1 0x20 MSTORE PUSH1 0x40 PUSH1 0x0 KECCAK256 PUSH1 0x1 PUSH1 0xFF NOT DUP3 SLOAD AND OR SWAP1 SSTORE PUSH3 0x15180 DUP2 ADD DUP1 SWAP2 GT ISZERO PUSH2 0xFBD JUMPI PUSH4 0x4E487B71 PUSH1 0xE0 SHL PUSH1 0x0 MSTORE PUSH1 0x11 PUSH1 0x4 MSTORE PUSH1 0x24 PUSH1 0x0 REVERT JUMPDEST SWAP1 POP DUP7 ADD MLOAD DUP11 PUSH2 0xF6A JUMP JUMPDEST PUSH1 0xB DUP4 ADD PUSH1 0x0 MSTORE PUSH1 0x20 PUSH1 0x0 KECCAK256 SWAP1 PUSH1 0x0 JUMPDEST PUSH1 0x1F NOT DUP5 AND DUP2 LT PUSH2 0x1113 JUMPI POP SWAP2 PUSH1 0x1 SWAP2 PUSH1 0xB SWAP4 DUP3 PUSH1 0x1F NOT DUP2 AND LT PUSH2 0x10FA JUMPI JUMPDEST POP POP DUP2 SHL ADD SWAP2 ADD SSTORE PUSH2 0xF7F JUMP JUMPDEST DUP9 ADD MLOAD PUSH1 0x0 NOT PUSH1 0xF8 DUP5 PUSH1 0x3 SHL AND SHR NOT AND SWAP1 SSTORE DUP11 DUP1 PUSH2 0x10ED JUMP JUMPDEST SWAP1 SWAP2 PUSH1 0x20 PUSH1 0x1 DUP2 SWAP3 DUP6 DUP12 ADD MLOAD DUP2 SSTORE ADD SWAP4 ADD SWAP2 ADD PUSH2 0x10CE JUMP JUMPDEST PUSH1 0xB DUP4 ADD PUSH1 0x0 MSTORE PUSH1 0x20 PUSH1 0x0 KECCAK256 PUSH1 0x1F DUP4 ADD PUSH1 0x5 SHR DUP2 ADD PUSH1 0x20 DUP5 LT PUSH2 0x116B JUMPI JUMPDEST PUSH1 0x1F DUP4 ADD PUSH1 0x5 SHR DUP3 ADD DUP2 LT PUSH2 0x115F JUMPI POP POP PUSH2 0xF4F JUMP JUMPDEST PUSH1 0x0 DUP2 SSTORE PUSH1 0x1 ADD PUSH2 0x1149 JUMP JUMPDEST POP DUP1 PUSH2 0x1149 JUMP JUMPDEST PUSH4 0x4E487B71 PUSH1 0xE0 SHL PUSH1 0x0 MSTORE PUSH1 0x41 PUSH1 0x4 MSTORE PUSH1 0x24 PUSH1 0x0 REVERT JUMPDEST PUSH1 0x40 MLOAD PUSH3 0x461BCD PUSH1 0xE5 SHL DUP2 MSTORE PUSH1 0x20 PUSH1 0x4 DUP3 ADD MSTORE PUSH1 0x1E PUSH1 0x24 DUP3 ADD MSTORE PUSH32 0x5061796D656E74207265666572656E636520616C726561647920757365640000 PUSH1 0x44 DUP3 ADD MSTORE PUSH1 0x64 SWAP1 REVERT JUMPDEST PUSH1 0x40 MLOAD PUSH3 0x461BCD PUSH1 0xE5 SHL DUP2 MSTORE PUSH1 0x20 PUSH1 0x4 DUP3 ADD MSTORE PUSH1 0x16 PUSH1 0x24 DUP3 ADD MSTORE PUSH22 0x125B9D985B1A5908189BDBDADA5B99C8185B5BDD5B9D PUSH1 0x52 SHL PUSH1 0x44 DUP3 ADD MSTORE PUSH1 0x64 SWAP1 REVERT JUMPDEST PUSH1 0x40 MLOAD PUSH3 0x461BCD PUSH1 0xE5 SHL DUP2 MSTORE PUSH1 0x20 PUSH1 0x4 DUP3 ADD MSTORE PUSH1 0x17 PUSH1 0x24 DUP3 ADD MSTORE PUSH32 0x446174657320617265206E6F7420617661696C61626C65000000000000000000 PUSH1 0x44 DUP3 ADD MSTORE PUSH1 0x64 SWAP1 REVERT JUMPDEST PUSH1 0x40 MLOAD PUSH3 0x461BCD PUSH1 0xE5 SHL DUP2 MSTORE PUSH1 0x20 PUSH1 0x4 DUP3 ADD MSTORE PUSH1 0x17 PUSH1 0x24 DUP3 ADD MSTORE PUSH32 0x50726F706572747920646F6573206E6F74206578697374000000000000000000 PUSH1 0x44 DUP3 ADD MSTORE PUSH1 0x64 SWAP1 REVERT JUMPDEST PUSH1 0x40 MLOAD PUSH3 0x461BCD PUSH1 0xE5 SHL DUP2 MSTORE PUSH1 0x20 PUSH1 0x4 DUP3 ADD MSTORE PUSH1 0x16 PUSH1 0x24 DUP3 ADD MSTORE PUSH22 0x50726F7065727479206973206E6F7420616374697665 PUSH1 0x50 SHL PUSH1 0x44 DUP3 ADD MSTORE PUSH1 0x64 SWAP1 REVERT JUMPDEST SWAP1 SWAP2 POP RETURNDATASIZE DUP1 PUSH1 0x0 DUP4 RETURNDATACOPY PUSH2 0x12E6 DUP2 DUP4 PUSH2 0x1977 JUMP JUMPDEST DUP2 ADD SWAP1 PUSH1 0x20 DUP2 DUP4 SUB SLT PUSH2 0x1D0 JUMPI DUP1 MLOAD SWAP1 PUSH1 0x1 PUSH1 0x1 PUSH1 0x40 SHL SUB DUP3 GT PUSH2 0x1D0 JUMPI ADD SWAP1 PUSH2 0x120 SWAP2 DUP3 DUP2 DUP4 SUB SLT PUSH2 0x1D0 JUMPI PUSH1 0x40 MLOAD SWAP3 DUP4 ADD DUP4 DUP2 LT PUSH1 0x1 PUSH1 0x1 PUSH1 0x40 SHL SUB DUP3 GT OR PUSH2 0x1172 JUMPI PUSH1 0x40 MSTORE DUP1 MLOAD DUP4 MSTORE PUSH1 0x20 DUP2 ADD MLOAD PUSH1 0x1 PUSH1 0x1 PUSH1 0xA0 SHL SUB DUP2 AND DUP2 SUB PUSH2 0x1D0 JUMPI PUSH1 0x20 DUP5 ADD MSTORE PUSH1 0x40 DUP2 ADD MLOAD PUSH1 0x1 PUSH1 0x1 PUSH1 0x40 SHL SUB DUP2 GT PUSH2 0x1D0 JUMPI DUP3 PUSH2 0x136B SWAP2 DUP4 ADD PUSH2 0x1BCD JUMP JUMPDEST PUSH1 0x40 DUP5 ADD MSTORE PUSH1 0x60 DUP2 ADD MLOAD PUSH1 0x1 PUSH1 0x1 PUSH1 0x40 SHL SUB DUP2 GT PUSH2 0x1D0 JUMPI DUP3 PUSH2 0x138F SWAP2 DUP4 ADD PUSH2 0x1BCD JUMP JUMPDEST PUSH1 0x60 DUP5 ADD MSTORE PUSH1 0x80 DUP2 ADD MLOAD PUSH1 0x1 PUSH1 0x1 PUSH1 0x40 SHL SUB DUP2 GT PUSH2 0x1D0 JUMPI DUP3 PUSH2 0x13B3 SWAP2 DUP4 ADD PUSH2 0x1BCD JUMP JUMPDEST PUSH1 0x80 DUP5 ADD MSTORE PUSH1 0xA0 DUP2 ADD MLOAD PUSH1 0xA0 DUP5 ADD MSTORE PUSH1 0xC0 DUP2 ADD MLOAD DUP1 ISZERO ISZERO DUP2 SUB PUSH2 0x1D0 JUMPI PUSH1 0xC0 DUP5 ADD MSTORE PUSH1 0xE0 DUP2 ADD MLOAD PUSH1 0xE0 DUP5 ADD MSTORE PUSH2 0x100 SWAP2 DUP3 DUP3 ADD MLOAD PUSH1 0x1 PUSH1 0x1 PUSH1 0x40 SHL SUB DUP2 GT PUSH2 0x1D0 JUMPI PUSH2 0x13FF SWAP3 ADD PUSH2 0x1BCD JUMP JUMPDEST SWAP1 DUP3 ADD MSTORE SWAP1 DUP3 PUSH2 0xE01 JUMP JUMPDEST PUSH1 0x40 MLOAD RETURNDATASIZE PUSH1 0x0 DUP3 RETURNDATACOPY RETURNDATASIZE SWAP1 REVERT JUMPDEST PUSH1 0x40 MLOAD PUSH3 0x461BCD PUSH1 0xE5 SHL DUP2 MSTORE PUSH1 0x20 PUSH1 0x4 DUP3 ADD MSTORE PUSH1 0x1B PUSH1 0x24 DUP3 ADD MSTORE PUSH32 0x537461792063616E6E6F74206578636565642033363520646179730000000000 PUSH1 0x44 DUP3 ADD MSTORE PUSH1 0x64 SWAP1 REVERT JUMPDEST PUSH1 0x40 MLOAD PUSH3 0x461BCD PUSH1 0xE5 SHL DUP2 MSTORE PUSH1 0x20 PUSH1 0x4 DUP3 ADD MSTORE PUSH1 0x25 PUSH1 0x24 DUP3 ADD MSTORE PUSH32 0x436865636B2D6F75742064617465206D75737420626520616674657220636865 PUSH1 0x44 DUP3 ADD MSTORE PUSH5 0x31B596B4B7 PUSH1 0xD9 SHL PUSH1 0x64 DUP3 ADD MSTORE PUSH1 0x84 SWAP1 REVERT JUMPDEST PUSH1 0x40 MLOAD PUSH3 0x461BCD PUSH1 0xE5 SHL DUP2 MSTORE PUSH1 0x20 PUSH1 0x4 DUP3 ADD MSTORE PUSH1 0x23 PUSH1 0x24 DUP3 ADD MSTORE PUSH32 0x436865636B2D696E2064617465206D75737420626520696E2074686520667574 PUSH1 0x44 DUP3 ADD MSTORE PUSH3 0x757265 PUSH1 0xE8 SHL PUSH1 0x64 DUP3 ADD MSTORE PUSH1 0x84 SWAP1 REVERT JUMPDEST CALLVALUE PUSH2 0x1D0 JUMPI PUSH1 0x20 DUP1 PUSH1 0x3 NOT CALLDATASIZE ADD SLT PUSH2 0x1D0 JUMPI PUSH1 0x4 CALLDATALOAD DUP1 ISZERO ISZERO DUP1 PUSH2 0x16C7 JUMPI JUMPDEST PUSH2 0x1526 SWAP1 PUSH2 0x1C91 JUMP JUMPDEST DUP1 PUSH1 0x0 MSTORE PUSH1 0x3 DUP3 MSTORE PUSH1 0x1 DUP1 PUSH1 0xA0 SHL SUB PUSH2 0x154A DUP2 PUSH1 0x3 PUSH1 0x40 PUSH1 0x0 KECCAK256 ADD SLOAD AND CALLER EQ PUSH2 0x1CD6 JUMP JUMPDEST PUSH2 0x1552 PUSH2 0x1C6E JUMP JUMPDEST DUP2 PUSH1 0x0 MSTORE PUSH1 0x3 DUP4 MSTORE PUSH1 0x40 PUSH1 0x0 KECCAK256 SWAP3 PUSH1 0x9 DUP5 ADD DUP1 SLOAD PUSH1 0xFF DUP2 AND ISZERO PUSH2 0x1682 JUMPI PUSH1 0xFF DUP2 PUSH1 0x10 SHR AND PUSH2 0x1645 JUMPI PUSH2 0x158A PUSH1 0xFF DUP3 PUSH1 0x8 SHR AND ISZERO PUSH2 0x1D19 JUMP JUMPDEST PUSH1 0x4 DUP7 ADD SLOAD TIMESTAMP LT PUSH2 0x1600 JUMPI PUSH3 0xFF0000 NOT AND PUSH3 0x10000 OR SWAP1 SSTORE PUSH1 0x7 DUP5 ADD SLOAD DUP1 PUSH2 0x15E9 JUMPI JUMPDEST POP PUSH1 0x8 PUSH32 0x6E3C6096795C8298A218B2CFB8BDE42726FF7C9A3D27B4D3BA41AB7F74FEB5FB SWAP3 PUSH1 0x3 DUP7 ADD SLOAD AND SWAP5 ADD SLOAD PUSH1 0x40 MLOAD SWAP1 DUP2 MSTORE LOG3 PUSH1 0x1 PUSH1 0x0 SSTORE STOP JUMPDEST PUSH1 0xB SLOAD SWAP1 DUP2 ADD DUP1 SWAP2 GT PUSH2 0x50B JUMPI PUSH1 0xB SSTORE PUSH1 0x8 PUSH2 0x15AD JUMP JUMPDEST PUSH1 0x40 MLOAD PUSH3 0x461BCD PUSH1 0xE5 SHL DUP2 MSTORE PUSH1 0x4 DUP2 ADD DUP5 SWAP1 MSTORE PUSH1 0x1C PUSH1 0x24 DUP3 ADD MSTORE PUSH32 0x43616E6E6F7420636C61696D206265666F726520636865636B2D696E00000000 PUSH1 0x44 DUP3 ADD MSTORE PUSH1 0x64 SWAP1 REVERT JUMPDEST PUSH1 0x40 MLOAD PUSH3 0x461BCD PUSH1 0xE5 SHL DUP2 MSTORE PUSH1 0x4 DUP2 ADD DUP5 SWAP1 MSTORE PUSH1 0x15 PUSH1 0x24 DUP3 ADD MSTORE PUSH21 0x119D5B991CC8185B1C9958591E4818DB185A5B5959 PUSH1 0x5A SHL PUSH1 0x44 DUP3 ADD MSTORE PUSH1 0x64 SWAP1 REVERT JUMPDEST PUSH1 0x40 MLOAD PUSH3 0x461BCD PUSH1 0xE5 SHL DUP2 MSTORE PUSH1 0x4 DUP2 ADD DUP5 SWAP1 MSTORE PUSH1 0x19 PUSH1 0x24 DUP3 ADD MSTORE PUSH32 0x426F6F6B696E67206D75737420626520636F6E6669726D656400000000000000 PUSH1 0x44 DUP3 ADD MSTORE PUSH1 0x64 SWAP1 REVERT JUMPDEST POP PUSH1 0x2 SLOAD DUP2 LT PUSH2 0x151D JUMP JUMPDEST CALLVALUE PUSH2 0x1D0 JUMPI PUSH1 0x20 CALLDATASIZE PUSH1 0x3 NOT ADD SLT PUSH2 0x1D0 JUMPI PUSH1 0x4 CALLDATALOAD PUSH1 0x0 MSTORE PUSH1 0x3 PUSH1 0x20 MSTORE PUSH1 0x20 PUSH1 0x40 PUSH1 0x0 KECCAK256 PUSH2 0xB3D DUP2 SLOAD SWAP2 PUSH1 0x1 DUP2 ADD SLOAD SWAP1 PUSH1 0xFF PUSH1 0x1 DUP1 PUSH1 0xA0 SHL SUB DUP1 PUSH1 0x2 DUP5 ADD SLOAD AND SWAP1 PUSH1 0x3 DUP5 ADD SLOAD AND PUSH1 0x4 DUP5 ADD SLOAD PUSH1 0x5 DUP6 ADD SLOAD PUSH1 0x6 DUP7 ADD SLOAD SWAP1 PUSH1 0x7 DUP8 ADD SLOAD SWAP3 PUSH1 0x8 DUP9 ADD SLOAD SWAP5 PUSH1 0x9 DUP10 ADD SLOAD SWAP7 PUSH2 0x174B PUSH1 0xB PUSH1 0xA DUP13 ADD SLOAD SWAP12 ADD PUSH2 0x1A57 JUMP JUMPDEST SWAP11 PUSH1 0x40 MLOAD SWAP15 DUP16 SWAP15 DUP16 SWAP1 DUP2 MSTORE ADD MSTORE PUSH1 0x40 DUP14 ADD MSTORE PUSH1 0x60 DUP13 ADD MSTORE PUSH1 0x80 DUP12 ADD MSTORE PUSH1 0xA0 DUP11 ADD MSTORE PUSH1 0xC0 DUP10 ADD MSTORE PUSH1 0xE0 DUP9 ADD MSTORE PUSH2 0x100 DUP8 ADD MSTORE DUP2 DUP2 AND ISZERO ISZERO PUSH2 0x120 DUP8 ADD MSTORE DUP2 DUP2 PUSH1 0x8 SHR AND ISZERO ISZERO PUSH2 0x140 DUP8 ADD MSTORE PUSH1 0x10 SHR AND ISZERO ISZERO PUSH2 0x160 DUP6 ADD MSTORE PUSH2 0x180 DUP5 ADD MSTORE PUSH2 0x1C0 DUP1 PUSH2 0x1A0 DUP6 ADD MSTORE DUP4 ADD SWAP1 PUSH2 0x1AFD JUMP JUMPDEST CALLVALUE PUSH2 0x1D0 JUMPI PUSH1 0x20 CALLDATASIZE PUSH1 0x3 NOT ADD SLT PUSH2 0x1D0 JUMPI PUSH1 0x4 CALLDATALOAD PUSH2 0x17D5 PUSH2 0x1B94 JUMP JUMPDEST PUSH2 0x3E8 DUP2 GT PUSH2 0x17E3 JUMPI PUSH1 0x9 SSTORE STOP JUMPDEST PUSH1 0x40 MLOAD PUSH3 0x461BCD PUSH1 0xE5 SHL DUP2 MSTORE PUSH1 0x20 PUSH1 0x4 DUP3 ADD MSTORE PUSH1 0x15 PUSH1 0x24 DUP3 ADD MSTORE PUSH21 0x4665652063616E6E6F742065786365656420313025 PUSH1 0x58 SHL PUSH1 0x44 DUP3 ADD MSTORE PUSH1 0x64 SWAP1 REVERT JUMPDEST CALLVALUE PUSH2 0x1D0 JUMPI PUSH1 0x20 DUP1 PUSH1 0x3 NOT CALLDATASIZE ADD SLT PUSH2 0x1D0 JUMPI PUSH1 0x4 CALLDATALOAD SWAP1 PUSH1 0x2 SLOAD PUSH1 0x0 NOT DUP2 ADD DUP2 DUP2 GT PUSH2 0x50B JUMPI PUSH2 0x184E SWAP1 PUSH2 0x1DD2 JUMP JUMPDEST SWAP3 PUSH1 0x0 SWAP3 PUSH1 0x1 SWAP1 DUP2 JUMPDEST DUP5 DUP2 LT PUSH2 0x18A6 JUMPI DUP7 DUP7 PUSH2 0x1869 DUP2 PUSH2 0x1DD2 JUMP JUMPDEST SWAP2 PUSH1 0x0 JUMPDEST DUP3 DUP2 LT PUSH2 0x1882 JUMPI PUSH1 0x40 MLOAD DUP1 PUSH2 0xB3D DUP7 DUP3 PUSH2 0x1920 JUMP JUMPDEST DUP1 PUSH2 0x1890 PUSH2 0x18A1 SWAP3 DUP5 PUSH2 0x1E04 JUMP JUMPDEST MLOAD PUSH2 0x189B DUP3 DUP8 PUSH2 0x1E04 JUMP JUMPDEST MSTORE PUSH2 0x1C25 JUMP JUMPDEST PUSH2 0x186D JUMP JUMPDEST DUP1 PUSH1 0x0 MSTORE PUSH1 0x3 DUP3 MSTORE DUP4 DUP4 PUSH1 0x40 PUSH1 0x0 KECCAK256 ADD SLOAD EQ PUSH2 0x18CB JUMPI JUMPDEST PUSH2 0x18C6 SWAP1 PUSH2 0x1C25 JUMP JUMPDEST PUSH2 0x1857 JUMP JUMPDEST SWAP5 PUSH2 0x18DE DUP2 DUP8 PUSH2 0x189B PUSH2 0x18C6 SWAP5 DUP12 PUSH2 0x1E04 JUMP JUMPDEST SWAP6 SWAP1 POP PUSH2 0x18BD JUMP JUMPDEST CALLVALUE PUSH2 0x1D0 JUMPI PUSH1 0x40 CALLDATASIZE PUSH1 0x3 NOT ADD SLT PUSH2 0x1D0 JUMPI PUSH1 0x20 SWAP1 PUSH1 0x4 CALLDATALOAD PUSH1 0x0 MSTORE PUSH1 0x6 DUP3 MSTORE PUSH1 0x40 PUSH1 0x0 KECCAK256 PUSH1 0x24 CALLDATALOAD PUSH1 0x0 MSTORE DUP3 MSTORE PUSH1 0xFF PUSH1 0x40 PUSH1 0x0 KECCAK256 SLOAD AND ISZERO ISZERO DUP2 MSTORE RETURN JUMPDEST PUSH1 0x20 SWAP1 DUP2 PUSH1 0x40 DUP2 DUP4 ADD SWAP3 DUP3 DUP2 MSTORE DUP6 MLOAD DUP1 SWAP5 MSTORE ADD SWAP4 ADD SWAP2 PUSH1 0x0 JUMPDEST DUP3 DUP2 LT PUSH2 0x1947 JUMPI POP POP POP POP SWAP1 JUMP JUMPDEST DUP4 MLOAD DUP6 MSTORE SWAP4 DUP2 ADD SWAP4 SWAP3 DUP2 ADD SWAP3 PUSH1 0x1 ADD PUSH2 0x1939 JUMP JUMPDEST PUSH2 0x1C0 DUP2 ADD SWAP1 DUP2 LT PUSH1 0x1 PUSH1 0x1 PUSH1 0x40 SHL SUB DUP3 GT OR PUSH2 0x1172 JUMPI PUSH1 0x40 MSTORE JUMP JUMPDEST SWAP1 PUSH1 0x1F DUP1 NOT SWAP2 ADD AND DUP2 ADD SWAP1 DUP2 LT PUSH1 0x1 PUSH1 0x1 PUSH1 0x40 SHL SUB DUP3 GT OR PUSH2 0x1172 JUMPI PUSH1 0x40 MSTORE JUMP JUMPDEST PUSH1 0x1 PUSH1 0x1 PUSH1 0x40 SHL SUB DUP2 GT PUSH2 0x1172 JUMPI PUSH1 0x1F ADD PUSH1 0x1F NOT AND PUSH1 0x20 ADD SWAP1 JUMP JUMPDEST DUP2 PUSH1 0x1F DUP3 ADD SLT ISZERO PUSH2 0x1D0 JUMPI DUP1 CALLDATALOAD SWAP1 PUSH2 0x19CA DUP3 PUSH2 0x1998 JUMP JUMPDEST SWAP3 PUSH2 0x19D8 PUSH1 0x40 MLOAD SWAP5 DUP6 PUSH2 0x1977 JUMP JUMPDEST DUP3 DUP5 MSTORE PUSH1 0x20 DUP4 DUP4 ADD ADD GT PUSH2 0x1D0 JUMPI DUP2 PUSH1 0x0 SWAP3 PUSH1 0x20 DUP1 SWAP4 ADD DUP4 DUP7 ADD CALLDATACOPY DUP4 ADD ADD MSTORE SWAP1 JUMP JUMPDEST PUSH1 0x0 JUMPDEST DUP4 DUP2 LT PUSH2 0x1A0D JUMPI POP POP PUSH1 0x0 SWAP2 ADD MSTORE JUMP JUMPDEST DUP2 DUP2 ADD MLOAD DUP4 DUP3 ADD MSTORE PUSH1 0x20 ADD PUSH2 0x19FD JUMP JUMPDEST SWAP1 PUSH1 0x1 DUP3 DUP2 SHR SWAP3 AND DUP1 ISZERO PUSH2 0x1A4D JUMPI JUMPDEST PUSH1 0x20 DUP4 LT EQ PUSH2 0x1A37 JUMPI JUMP JUMPDEST PUSH4 0x4E487B71 PUSH1 0xE0 SHL PUSH1 0x0 MSTORE PUSH1 0x22 PUSH1 0x4 MSTORE PUSH1 0x24 PUSH1 0x0 REVERT JUMPDEST SWAP2 PUSH1 0x7F AND SWAP2 PUSH2 0x1A2C JUMP JUMPDEST SWAP1 PUSH1 0x40 MLOAD SWAP2 DUP3 PUSH1 0x0 DUP3 SLOAD SWAP3 PUSH2 0x1A6B DUP5 PUSH2 0x1A1D JUMP JUMPDEST SWAP1 DUP2 DUP5 MSTORE PUSH1 0x1 SWAP5 DUP6 DUP2 AND SWAP1 DUP2 PUSH1 0x0 EQ PUSH2 0x1ADA JUMPI POP PUSH1 0x1 EQ PUSH2 0x1A97 JUMPI JUMPDEST POP POP PUSH2 0x1A95 SWAP3 POP SUB DUP4 PUSH2 0x1977 JUMP JUMPDEST JUMP JUMPDEST SWAP1 SWAP4 SWAP2 POP PUSH1 0x0 MSTORE PUSH1 0x20 SWAP1 DUP2 PUSH1 0x0 KECCAK256 SWAP4 PUSH1 0x0 SWAP2 JUMPDEST DUP2 DUP4 LT PUSH2 0x1AC2 JUMPI POP POP PUSH2 0x1A95 SWAP4 POP DUP3 ADD ADD CODESIZE DUP1 PUSH2 0x1A87 JUMP JUMPDEST DUP6 SLOAD DUP9 DUP5 ADD DUP6 ADD MSTORE SWAP5 DUP6 ADD SWAP5 DUP8 SWAP5 POP SWAP2 DUP4 ADD SWAP2 PUSH2 0x1AAA JUMP JUMPDEST SWAP2 POP POP PUSH2 0x1A95 SWAP5 POP PUSH1 0x20 SWAP3 POP PUSH1 0xFF NOT AND DUP3 DUP5 ADD MSTORE ISZERO ISZERO PUSH1 0x5 SHL DUP3 ADD ADD CODESIZE DUP1 PUSH2 0x1A87 JUMP JUMPDEST SWAP1 PUSH1 0x20 SWAP2 PUSH2 0x1B16 DUP2 MLOAD DUP1 SWAP3 DUP2 DUP6 MSTORE DUP6 DUP1 DUP7 ADD SWAP2 ADD PUSH2 0x19FA JUMP JUMPDEST PUSH1 0x1F ADD PUSH1 0x1F NOT AND ADD ADD SWAP1 JUMP JUMPDEST PUSH1 0x4 CALLDATALOAD SWAP1 PUSH1 0x1 PUSH1 0x1 PUSH1 0xA0 SHL SUB DUP3 AND DUP3 SUB PUSH2 0x1D0 JUMPI JUMP JUMPDEST DUP1 SLOAD DUP3 LT ISZERO PUSH2 0x1B50 JUMPI PUSH1 0x0 MSTORE PUSH1 0x20 PUSH1 0x0 KECCAK256 ADD SWAP1 PUSH1 0x0 SWAP1 JUMP JUMPDEST PUSH4 0x4E487B71 PUSH1 0xE0 SHL PUSH1 0x0 MSTORE PUSH1 0x32 PUSH1 0x4 MSTORE PUSH1 0x24 PUSH1 0x0 REVERT JUMPDEST CALLVALUE PUSH2 0x1D0 JUMPI PUSH1 0x60 CALLDATASIZE PUSH1 0x3 NOT ADD SLT PUSH2 0x1D0 JUMPI PUSH1 0x20 PUSH2 0x1B8A PUSH1 0x44 CALLDATALOAD PUSH1 0x24 CALLDATALOAD PUSH1 0x4 CALLDATALOAD PUSH2 0x1D5C JUMP JUMPDEST PUSH1 0x40 MLOAD SWAP1 ISZERO ISZERO DUP2 MSTORE RETURN JUMPDEST PUSH1 0x1 SLOAD PUSH1 0x1 PUSH1 0x1 PUSH1 0xA0 SHL SUB AND CALLER SUB PUSH2 0x1BA8 JUMPI JUMP JUMPDEST PUSH1 0x40 MLOAD PUSH4 0x118CDAA7 PUSH1 0xE0 SHL DUP2 MSTORE CALLER PUSH1 0x4 DUP3 ADD MSTORE PUSH1 0x24 SWAP1 REVERT JUMPDEST SWAP2 SWAP1 DUP3 SUB SWAP2 DUP3 GT PUSH2 0x50B JUMPI JUMP JUMPDEST DUP2 PUSH1 0x1F DUP3 ADD SLT ISZERO PUSH2 0x1D0 JUMPI DUP1 MLOAD PUSH2 0x1BE3 DUP2 PUSH2 0x1998 JUMP JUMPDEST SWAP3 PUSH2 0x1BF1 PUSH1 0x40 MLOAD SWAP5 DUP6 PUSH2 0x1977 JUMP JUMPDEST DUP2 DUP5 MSTORE PUSH1 0x20 DUP3 DUP5 ADD ADD GT PUSH2 0x1D0 JUMPI PUSH2 0x1C0F SWAP2 PUSH1 0x20 DUP1 DUP6 ADD SWAP2 ADD PUSH2 0x19FA JUMP JUMPDEST SWAP1 JUMP JUMPDEST DUP2 DUP2 MUL SWAP3 SWAP2 DUP2 ISZERO SWAP2 DUP5 DIV EQ OR ISZERO PUSH2 0x50B JUMPI JUMP JUMPDEST PUSH1 0x0 NOT DUP2 EQ PUSH2 0x50B JUMPI PUSH1 0x1 ADD SWAP1 JUMP JUMPDEST DUP1 SLOAD PUSH9 0x10000000000000000 DUP2 LT ISZERO PUSH2 0x1172 JUMPI PUSH2 0x1C56 SWAP2 PUSH1 0x1 DUP3 ADD DUP2 SSTORE PUSH2 0x1B38 JUMP JUMPDEST DUP2 SWAP3 SWAP2 SLOAD SWAP1 PUSH1 0x3 SHL SWAP2 DUP3 SHL SWAP2 PUSH1 0x0 NOT SWAP1 SHL NOT AND OR SWAP1 SSTORE JUMP JUMPDEST PUSH1 0x2 PUSH1 0x0 SLOAD EQ PUSH2 0x1C7F JUMPI PUSH1 0x2 PUSH1 0x0 SSTORE JUMP JUMPDEST PUSH1 0x40 MLOAD PUSH4 0x3EE5AEB5 PUSH1 0xE0 SHL DUP2 MSTORE PUSH1 0x4 SWAP1 REVERT JUMPDEST ISZERO PUSH2 0x1C98 JUMPI JUMP JUMPDEST PUSH1 0x40 MLOAD PUSH3 0x461BCD PUSH1 0xE5 SHL DUP2 MSTORE PUSH1 0x20 PUSH1 0x4 DUP3 ADD MSTORE PUSH1 0x16 PUSH1 0x24 DUP3 ADD MSTORE PUSH22 0x109BDBDADA5B99C8191BD95CC81B9BDD08195E1A5CDD PUSH1 0x52 SHL PUSH1 0x44 DUP3 ADD MSTORE PUSH1 0x64 SWAP1 REVERT JUMPDEST ISZERO PUSH2 0x1CDD JUMPI JUMP JUMPDEST PUSH1 0x40 MLOAD PUSH3 0x461BCD PUSH1 0xE5 SHL DUP2 MSTORE PUSH1 0x20 PUSH1 0x4 DUP3 ADD MSTORE PUSH1 0x14 PUSH1 0x24 DUP3 ADD MSTORE PUSH20 0x139BDD081D1A1948189BDBDADA5B99C81A1BDCDD PUSH1 0x62 SHL PUSH1 0x44 DUP3 ADD MSTORE PUSH1 0x64 SWAP1 REVERT JUMPDEST ISZERO PUSH2 0x1D20 JUMPI JUMP JUMPDEST PUSH1 0x40 MLOAD PUSH3 0x461BCD PUSH1 0xE5 SHL DUP2 MSTORE PUSH1 0x20 PUSH1 0x4 DUP3 ADD MSTORE PUSH1 0x14 PUSH1 0x24 DUP3 ADD MSTORE PUSH20 0x109BDBDADA5B99C81A5CC818D85B98D95B1B1959 PUSH1 0x62 SHL PUSH1 0x44 DUP3 ADD MSTORE PUSH1 0x64 SWAP1 REVERT JUMPDEST SWAP1 JUMPDEST DUP3 DUP2 LT PUSH2 0x1D6D JUMPI POP POP POP PUSH1 0x1 SWAP1 JUMP JUMPDEST PUSH1 0x0 DUP3 DUP2 MSTORE PUSH1 0xFF PUSH1 0x20 PUSH1 0x6 DUP2 MSTORE PUSH1 0x40 SWAP1 DUP2 DUP5 KECCAK256 SWAP1 DUP6 DUP6 MSTORE MSTORE DUP3 KECCAK256 SLOAD AND PUSH2 0x1DB4 JUMPI PUSH3 0x15180 DUP3 ADD DUP1 SWAP3 GT PUSH2 0x1DA0 JUMPI POP PUSH2 0x1D5E JUMP JUMPDEST PUSH4 0x4E487B71 PUSH1 0xE0 SHL DUP2 MSTORE PUSH1 0x11 PUSH1 0x4 MSTORE PUSH1 0x24 SWAP1 REVERT JUMPDEST SWAP3 POP POP POP SWAP1 JUMP JUMPDEST PUSH1 0x1 PUSH1 0x1 PUSH1 0x40 SHL SUB DUP2 GT PUSH2 0x1172 JUMPI PUSH1 0x5 SHL PUSH1 0x20 ADD SWAP1 JUMP JUMPDEST SWAP1 PUSH2 0x1DDC DUP3 PUSH2 0x1DBB JUMP JUMPDEST PUSH2 0x1DE9 PUSH1 0x40 MLOAD SWAP2 DUP3 PUSH2 0x1977 JUMP JUMPDEST DUP3 DUP2 MSTORE DUP1 SWAP3 PUSH2 0x1DFA PUSH1 0x1F NOT SWAP2 PUSH2 0x1DBB JUMP JUMPDEST ADD SWAP1 PUSH1 0x20 CALLDATASIZE SWAP2 ADD CALLDATACOPY JUMP JUMPDEST DUP1 MLOAD DUP3 LT ISZERO PUSH2 0x1B50 JUMPI PUSH1 0x20 SWAP2 PUSH1 0x5 SHL ADD ADD SWAP1 JUMP INVALID LOG2 PUSH5 0x6970667358 0x22 SLT KECCAK256 DUP1 CALLDATACOPY DUP15 0xF COINBASE JUMPI DUP3 BYTE STOP SWAP16 0xD2 MOD 0x21 ORIGIN SWAP15 0x1E SWAP3 0xB7 0xBE DUP10 CALLDATASIZE PUSH10 0xD3424D009147E6FF99AA PUSH5 0x736F6C6343 STOP ADDMOD EQ STOP CALLER "},"methodIdentifiers":{"bookings(uint256)":"1dab301e","cancelBooking(uint256,string)":"d27d559f","claimHostFunds(uint256)":"2026d98b","confirmBooking(uint256)":"54056b69","createBooking(uint256,uint256,uint256,string)":"22eb77ee","getBooking(uint256)":"6a5c841a","getBookingByPaymentReference(string)":"fe909cac","getBookingEscrowInfo(uint256)":"fb152eb4","getBookingsCount()":"d8012a2a","getGuestBookings(address)":"63809aef","getHostBookings(address)":"405505b1","getPropertyBookings(uint256)":"097b6be3","getTotalPlatformFees()":"31521d57","guestBookings(address,uint256)":"a41cfa69","hostBookings(address,uint256)":"f91f859a","isDateRangeAvailable(uint256,uint256,uint256)":"a93db7d0","isPropertyAvailable(uint256,uint256,uint256)":"e834016e","nextBookingId()":"26f20c79","owner()":"8da5cb5b","paymentReferenceToBooking(string)":"0f867798","platformFeeBasisPoints()":"c58bfb66","platformWallet()":"fa2af9da","propertyDateBooked(uint256,uint256)":"0642f89e","propertyHosting()":"794239cc","refundGuest(uint256)":"eb79f224","renounceOwnership()":"715018a6","setPlatformFee(uint256)":"12e8e2c3","setPlatformWallet(address)":"8831e9cf","totalPlatformFees()":"d3631fa5","transferOwnership(address)":"f2fde38b","withdrawPlatformFees()":"d0b7830b"}}}}}