{"contracts/PropertyBooking.sol":{"PropertyBooking":{"abi":[{"inputs":[{"internalType":"address","name":"_propertyHostingAddress","type":"address"}],"stateMutability":"nonpayable","type":"constructor"},{"inputs":[{"internalType":"address","name":"owner","type":"address"}],"name":"OwnableInvalidOwner","type":"error"},{"inputs":[{"internalType":"address","name":"account","type":"address"}],"name":"OwnableUnauthorizedAccount","type":"error"},{"inputs":[],"name":"ReentrancyGuardReentrantCall","type":"error"},{"anonymous":false,"inputs":[{"indexed":true,"internalType":"uint256","name":"bookingId","type":"uint256"},{"indexed":true,"internalType":"address","name":"guest","type":"address"},{"indexed":false,"internalType":"string","name":"reason","type":"string"}],"name":"BookingCancelled","type":"event"},{"anonymous":false,"inputs":[{"indexed":true,"internalType":"uint256","name":"bookingId","type":"uint256"},{"indexed":true,"internalType":"address","name":"host","type":"address"}],"name":"BookingConfirmed","type":"event"},{"anonymous":false,"inputs":[{"indexed":true,"internalType":"uint256","name":"bookingId","type":"uint256"},{"indexed":true,"internalType":"uint256","name":"propertyId","type":"uint256"},{"indexed":true,"internalType":"address","name":"guest","type":"address"},{"indexed":false,"internalType":"address","name":"host","type":"address"},{"indexed":false,"internalType":"uint256","name":"checkInDate","type":"uint256"},{"indexed":false,"internalType":"uint256","name":"checkOutDate","type":"uint256"},{"indexed":false,"internalType":"uint256","name":"totalAmount","type":"uint256"},{"indexed":false,"internalType":"string","name":"paymentReference","type":"string"}],"name":"BookingCreated","type":"event"},{"anonymous":false,"inputs":[{"indexed":true,"internalType":"address","name":"previousOwner","type":"address"},{"indexed":true,"internalType":"address","name":"newOwner","type":"address"}],"name":"OwnershipTransferred","type":"event"},{"inputs":[{"internalType":"uint256","name":"","type":"uint256"}],"name":"bookings","outputs":[{"internalType":"uint256","name":"id","type":"uint256"},{"internalType":"uint256","name":"propertyId","type":"uint256"},{"internalType":"address","name":"guest","type":"address"},{"internalType":"address","name":"host","type":"address"},{"internalType":"uint256","name":"checkInDate","type":"uint256"},{"internalType":"uint256","name":"checkOutDate","type":"uint256"},{"internalType":"uint256","name":"totalAmount","type":"uint256"},{"internalType":"bool","name":"isConfirmed","type":"bool"},{"internalType":"bool","name":"isCancelled","type":"bool"},{"internalType":"uint256","name":"createdAt","type":"uint256"},{"internalType":"string","name":"paymentReference","type":"string"}],"stateMutability":"view","type":"function"},{"inputs":[{"internalType":"uint256","name":"_bookingId","type":"uint256"},{"internalType":"string","name":"_reason","type":"string"}],"name":"cancelBooking","outputs":[],"stateMutability":"nonpayable","type":"function"},{"inputs":[{"internalType":"uint256","name":"_bookingId","type":"uint256"}],"name":"confirmBooking","outputs":[],"stateMutability":"nonpayable","type":"function"},{"inputs":[{"internalType":"uint256","name":"_propertyId","type":"uint256"},{"internalType":"uint256","name":"_checkInDate","type":"uint256"},{"internalType":"uint256","name":"_checkOutDate","type":"uint256"},{"internalType":"string","name":"_paymentReference","type":"string"}],"name":"createBooking","outputs":[{"internalType":"uint256","name":"","type":"uint256"}],"stateMutability":"nonpayable","type":"function"},{"inputs":[{"internalType":"uint256","name":"_bookingId","type":"uint256"}],"name":"getBooking","outputs":[{"components":[{"internalType":"uint256","name":"id","type":"uint256"},{"internalType":"uint256","name":"propertyId","type":"uint256"},{"internalType":"address","name":"guest","type":"address"},{"internalType":"address","name":"host","type":"address"},{"internalType":"uint256","name":"checkInDate","type":"uint256"},{"internalType":"uint256","name":"checkOutDate","type":"uint256"},{"internalType":"uint256","name":"totalAmount","type":"uint256"},{"internalType":"bool","name":"isConfirmed","type":"bool"},{"internalType":"bool","name":"isCancelled","type":"bool"},{"internalType":"uint256","name":"createdAt","type":"uint256"},{"internalType":"string","name":"paymentReference","type":"string"}],"internalType":"struct PropertyBooking.Booking","name":"","type":"tuple"}],"stateMutability":"view","type":"function"},{"inputs":[{"internalType":"string","name":"_paymentReference","type":"string"}],"name":"getBookingByPaymentReference","outputs":[{"internalType":"uint256","name":"","type":"uint256"}],"stateMutability":"view","type":"function"},{"inputs":[],"name":"getBookingsCount","outputs":[{"internalType":"uint256","name":"","type":"uint256"}],"stateMutability":"view","type":"function"},{"inputs":[{"internalType":"address","name":"_guest","type":"address"}],"name":"getGuestBookings","outputs":[{"internalType":"uint256[]","name":"","type":"uint256[]"}],"stateMutability":"view","type":"function"},{"inputs":[{"internalType":"address","name":"_host","type":"address"}],"name":"getHostBookings","outputs":[{"internalType":"uint256[]","name":"","type":"uint256[]"}],"stateMutability":"view","type":"function"},{"inputs":[{"internalType":"uint256","name":"_propertyId","type":"uint256"}],"name":"getPropertyBookings","outputs":[{"internalType":"uint256[]","name":"","type":"uint256[]"}],"stateMutability":"view","type":"function"},{"inputs":[{"internalType":"address","name":"","type":"address"},{"internalType":"uint256","name":"","type":"uint256"}],"name":"guestBookings","outputs":[{"internalType":"uint256","name":"","type":"uint256"}],"stateMutability":"view","type":"function"},{"inputs":[{"internalType":"address","name":"","type":"address"},{"internalType":"uint256","name":"","type":"uint256"}],"name":"hostBookings","outputs":[{"internalType":"uint256","name":"","type":"uint256"}],"stateMutability":"view","type":"function"},{"inputs":[{"internalType":"uint256","name":"_propertyId","type":"uint256"},{"internalType":"uint256","name":"_checkIn","type":"uint256"},{"internalType":"uint256","name":"_checkOut","type":"uint256"}],"name":"isDateRangeAvailable","outputs":[{"internalType":"bool","name":"","type":"bool"}],"stateMutability":"view","type":"function"},{"inputs":[{"internalType":"uint256","name":"_propertyId","type":"uint256"},{"internalType":"uint256","name":"_checkIn","type":"uint256"},{"internalType":"uint256","name":"_checkOut","type":"uint256"}],"name":"isPropertyAvailable","outputs":[{"internalType":"bool","name":"","type":"bool"}],"stateMutability":"view","type":"function"},{"inputs":[],"name":"nextBookingId","outputs":[{"internalType":"uint256","name":"","type":"uint256"}],"stateMutability":"view","type":"function"},{"inputs":[],"name":"owner","outputs":[{"internalType":"address","name":"","type":"address"}],"stateMutability":"view","type":"function"},{"inputs":[{"internalType":"string","name":"","type":"string"}],"name":"paymentReferenceToBooking","outputs":[{"internalType":"uint256","name":"","type":"uint256"}],"stateMutability":"view","type":"function"},{"inputs":[{"internalType":"uint256","name":"","type":"uint256"},{"internalType":"uint256","name":"","type":"uint256"}],"name":"propertyDateBooked","outputs":[{"internalType":"bool","name":"","type":"bool"}],"stateMutability":"view","type":"function"},{"inputs":[],"name":"propertyHosting","outputs":[{"internalType":"contract PropertyHosting","name":"","type":"address"}],"stateMutability":"view","type":"function"},{"inputs":[],"name":"renounceOwnership","outputs":[],"stateMutability":"nonpayable","type":"function"},{"inputs":[{"internalType":"address","name":"newOwner","type":"address"}],"name":"transferOwnership","outputs":[],"stateMutability":"nonpayable","type":"function"}],"evm":{"bytecode":{"linkReferences":{},"object":"6080346100d257601f61188e38819003918201601f19168301916001600160401b038311848410176100d7578084926020946040528339810103126100d257516001600160a01b0390818116908190036100d257600160005533156100b95760018054336001600160a01b03198083168217909355604051949091167f8be0079c531659141344cd1fd0a4f28419497f9722a3daafe3b4186f6b6457e0600080a3600160025560085416176008556117a090816100ee8239f35b604051631e4fbdf760e01b815260006004820152602490fd5b600080fd5b634e487b7160e01b600052604160045260246000fdfe608080604052600436101561001357600080fd5b60003560e01c9081630642f89e146112f457508063097b6be31461122e5780630f867798146101065780631dab301e1461116e57806322eb77ee146109b057806326f20c7914610992578063405505b11461091a57806354056b69146107b357806363809aef1461072f5780636a5c841a1461056a578063715018a61461050d578063794239cc146104e45780638da5cb5b146104bb578063a41cfa6914610471578063a93db7d01461024d578063d27d559f14610293578063d8012a2a14610252578063e834016e1461024d578063f2fde38b146101bf578063f91f859a146101675763fe909cac1461010657600080fd5b34610162576020366003190112610162576004356001600160401b0381116101625761014f602061013c819336906004016113c1565b8160405193828580945193849201611408565b8101600781520301902054604051908152f35b600080fd5b3461016257604036600319011261016257610180611530565b6001600160a01b0316600090815260056020526040902080546024359190821015610162576020916101b191611546565b90546040519160031b1c8152f35b34610162576020366003190112610162576101d8611530565b6101e06115a2565b6001600160a01b0390811690811561023457600154826bffffffffffffffffffffffff60a01b821617600155167f8be0079c531659141344cd1fd0a4f28419497f9722a3daafe3b4186f6b6457e0600080a3005b604051631e4fbdf760e01b815260006004820152602490fd5b611574565b3461016257600036600319011261016257600254600019810190811161027d57602090604051908152f35b634e487b7160e01b600052601160045260246000fd5b3461016257604036600319011261016257602460043581356001600160401b038111610162576102c79036906004016113c1565b81151580610466575b6102d990611669565b816000526020926003845260406000209060078201805460ff8160081c16610422576002840154336001600160a01b0391821614908115610412575b50156103c05761ff00191661010017905560018201546004830154600590930154925b83811061037d57604051878152339087907f91e5bffd4ffdc5b054ce786ea6269e6e8c1fe4bb5cdb4d14f249c1ec59e3908c9080610378818d018b61150b565b0390a3005b81600052600687526040600020816000528752604060002060ff198154169055620151808101809111156103385782634e487b7160e01b60005260116004526000fd5b60405162461bcd60e51b8152600481018890526025818501527f4e6f7420617574686f72697a656420746f2063616e63656c207468697320626f6044820152646f6b696e6760d81b6064820152608490fd5b9050600385015416331488610315565b60405162461bcd60e51b8152600481018890526019818501527f426f6f6b696e6720616c72656164792063616e63656c6c6564000000000000006044820152606490fd5b5060025482106102d0565b346101625760403660031901126101625761048a611530565b6001600160a01b0316600090815260046020526040902080546024359190821015610162576020916101b191611546565b34610162576000366003190112610162576001546040516001600160a01b039091168152602090f35b34610162576000366003190112610162576008546040516001600160a01b039091168152602090f35b34610162576000366003190112610162576105266115a2565b600180546001600160a01b031981169091556000906001600160a01b03167f8be0079c531659141344cd1fd0a4f28419497f9722a3daafe3b4186f6b6457e08280a3005b3461016257602036600319011261016257600435606061014060405161058f81611369565b60008152600060208201526000604082015260008382015260006080820152600060a0820152600060c0820152600060e082015260006101008201526000610120820152015280151580610724575b6105e790611669565b6000526003602052610140604060002061068360096040519261060984611369565b805484526001810154602085015260028101546001600160a01b039081166040860152600382015416606085015260048101546080850152600581015460a0850152600681015460c0850152600781015460ff818116151560e0870152600891821c16151561010086015281015461012085015201611465565b8282015261072060405192839260208452805160208501526020810151604085015260018060a01b03604082015116606085015260018060a01b036060820151166080850152608081015160a085015260a081015160c085015260c081015160e085015260e0810151151561010085015261010081015115156101208501526101208101518285015201516101608084015261018083019061150b565b0390f35b5060025481106105de565b3461016257602080600319360112610162576001600160a01b03610751611530565b1660005260048152604060002090604051908181845491828152019360005281600020916000905b82821061079c576107208561079081890382611385565b6040519182918261132e565b835486529485019460019384019390910190610779565b346101625760208060031936011261016257600435908115158061090f575b6107db90611669565b60008281526003808352604090912001546001600160a01b031633036108d457816000526003815260076040600020019081549060ff82166108905760ff8260081c16610855575060ff1916600117905533907f32a6eab1f4a0177609cc24472e391822aae8a497472601ef3f98523b4bc7bd31600080a3005b6064906040519062461bcd60e51b825260048201526014602482015273109bdbdada5b99c81a5cc818d85b98d95b1b195960621b6044820152fd5b6064906040519062461bcd60e51b82526004820152601960248201527f426f6f6b696e6720616c726561647920636f6e6669726d6564000000000000006044820152fd5b6064906040519062461bcd60e51b825260048201526014602482015273139bdd081d1a1948189bdbdada5b99c81a1bdcdd60621b6044820152fd5b5060025482106107d2565b3461016257602080600319360112610162576001600160a01b0361093c611530565b1660005260058152604060002090604051908181845491828152019360005281600020916000905b82821061097b576107208561079081890382611385565b835486529485019460019384019390910190610964565b34610162576000366003190112610162576020600254604051908152f35b34610162576080366003190112610162576064356001600160401b038111610162576109e09036906004016113c1565b426024351061111d5760243560443511156110ca576301e13380610a086024356044356115ce565b116110855760026000541461107357600260009081556008546040516332665ffb60e01b81526004803590820152929190839060249082906001600160a01b03165afa91821561106757600092610f0d575b5060c082015115610ecf5760208201516001600160a01b031615610e8a57610a896044356024356004356116ae565b15610e455762015180610aa06024356044356115ce565b049060a083015190818381020483148215171561027d5782820215610e07576040516020818351610ad48183858801611408565b8101600781520301902054610dc25760025492610af084611620565b60025583600052600360205260406000208481556004356001820155600281016bffffffffffffffffffffffff60a01b90338282541617905560018060a01b0360208801511660038301918254161790556024356004820155604435600582015581840260068201556007810161ffff19815416905542600882015582516001600160401b038111610dac57610b89600983015461142b565b601f8111610d65575b506020601f8211600114610cf8579080600992600091610ced575b508160011b916000199060031b1c1916179101555b336000526004602052610bd984604060002061162f565b60018060a01b036020860151166000526005602052610bfc84604060002061162f565b6024355b6044358110610ca257506020948460405187818651610c228183858b01611408565b81016007815203019020558560018060a01b03910151169260405193845260243586850152604435604085015202606083015260a06080830152827f9f1b7faa054a0e9ad5d65692eb3c5f6123f8255c76e52589a673128083f8e0af339380610c926004359560a083019061150b565b0390a46001600055604051908152f35b60043560005260066020526040600020816000526020526040600020600160ff1982541617905562015180810180911115610c0057634e487b7160e01b600052601160045260246000fd5b905085015189610bad565b6009830160005260206000209060005b601f1984168110610d4d57509160019160099382601f19811610610d34575b5050811b01910155610bc2565b87015160001960f88460031b161c191690558980610d27565b9091602060018192858a015181550193019101610d08565b600983016000526020600020601f830160051c810160208410610da5575b601f830160051c82018110610d99575050610b92565b60008155600101610d83565b5080610d83565b634e487b7160e01b600052604160045260246000fd5b60405162461bcd60e51b815260206004820152601e60248201527f5061796d656e74207265666572656e636520616c7265616479207573656400006044820152606490fd5b60405162461bcd60e51b8152602060048201526016602482015275125b9d985b1a5908189bdbdada5b99c8185b5bdd5b9d60521b6044820152606490fd5b60405162461bcd60e51b815260206004820152601760248201527f446174657320617265206e6f7420617661696c61626c650000000000000000006044820152606490fd5b60405162461bcd60e51b815260206004820152601760248201527f50726f706572747920646f6573206e6f742065786973740000000000000000006044820152606490fd5b60405162461bcd60e51b815260206004820152601660248201527550726f7065727479206973206e6f742061637469766560501b6044820152606490fd5b9091503d806000833e610f208183611385565b6020828281010312610162578151906001600160401b0382116101625761012092838382018383010312610162576040519384018481106001600160401b03821117610dac5760405280830180518552602001516001600160a01b0381168103610162576020850152604083820101516001600160401b03811161016257610faf9083830190858401016115db565b6040850152606083820101516001600160401b03811161016257610fda9083830190858401016115db565b6060850152608083820101516001600160401b038111610162576110059083830190858401016115db565b608085015280830160a0818101519086015260c0015180151581036101625760c085015260e0838201015160e085015261010092838183010151906001600160401b0382116101625761105c9383019201016115db565b908201529082610a5a565b6040513d6000823e3d90fd5b604051633ee5aeb560e01b8152600490fd5b60405162461bcd60e51b815260206004820152601b60248201527f537461792063616e6e6f742065786365656420333635206461797300000000006044820152606490fd5b60405162461bcd60e51b815260206004820152602560248201527f436865636b2d6f75742064617465206d7573742062652061667465722063686560448201526431b596b4b760d91b6064820152608490fd5b60405162461bcd60e51b815260206004820152602360248201527f436865636b2d696e2064617465206d75737420626520696e207468652066757460448201526275726560e81b6064820152608490fd5b346101625760203660031901126101625760043560005260036020526040600020805461072060018301549260018060a01b039060ff8260028301541692600383015416600483015460058401546006850154916007860154936111d9600960088901549801611465565b976040519b8c9b8c5260208c015260408b015260608a0152608089015260a088015260c0870152818116151560e087015260081c1615156101008501526101208401526101608061014085015283019061150b565b34610162576020806003193601126101625760043590600254600019810181811161027d5761125c90611724565b92600092600190815b8481106112b457868661127781611724565b9160005b8281106112905760405180610720868261132e565b8061129e6112af9284611756565b516112a98287611756565b52611620565b61127b565b8060005260038252838360406000200154146112d9575b6112d490611620565b611265565b946112ec81876112a96112d4948b611756565b9590506112cb565b3461016257604036600319011261016257602090600435600052600682526040600020602435600052825260ff6040600020541615158152f35b6020908160408183019282815285518094520193019160005b828110611355575050505090565b835185529381019392810192600101611347565b61016081019081106001600160401b03821117610dac57604052565b90601f801991011681019081106001600160401b03821117610dac57604052565b6001600160401b038111610dac57601f01601f191660200190565b81601f82011215610162578035906113d8826113a6565b926113e66040519485611385565b8284526020838301011161016257816000926020809301838601378301015290565b60005b83811061141b5750506000910152565b818101518382015260200161140b565b90600182811c9216801561145b575b602083101461144557565b634e487b7160e01b600052602260045260246000fd5b91607f169161143a565b90604051918260008254926114798461142b565b9081845260019485811690816000146114e857506001146114a5575b50506114a392500383611385565b565b9093915060005260209081600020936000915b8183106114d05750506114a393508201013880611495565b855488840185015294850194879450918301916114b8565b9150506114a394506020925060ff191682840152151560051b8201013880611495565b9060209161152481518092818552858086019101611408565b601f01601f1916010190565b600435906001600160a01b038216820361016257565b805482101561155e5760005260206000200190600090565b634e487b7160e01b600052603260045260246000fd5b346101625760603660031901126101625760206115986044356024356004356116ae565b6040519015158152f35b6001546001600160a01b031633036115b657565b60405163118cdaa760e01b8152336004820152602490fd5b9190820391821161027d57565b81601f820112156101625780516115f1816113a6565b926115ff6040519485611385565b818452602082840101116101625761161d9160208085019101611408565b90565b600019811461027d5760010190565b805468010000000000000000811015610dac5761165191600182018155611546565b819291549060031b91821b91600019901b1916179055565b1561167057565b60405162461bcd60e51b8152602060048201526016602482015275109bdbdada5b99c8191bd95cc81b9bdd08195e1a5cdd60521b6044820152606490fd5b905b8281106116bf57505050600190565b600082815260ff602060068152604090818420908585525282205416611706576201518082018092116116f257506116b0565b634e487b7160e01b81526011600452602490fd5b9250505090565b6001600160401b038111610dac5760051b60200190565b9061172e8261170d565b61173b6040519182611385565b828152809261174c601f199161170d565b0190602036910137565b805182101561155e5760209160051b01019056fea2646970667358221220dcf5f4b42f5df75cf73bd68beb4bb413d99b3ff19521dc731a9e92d269a6d02d64736f6c63430008140033","opcodes":"PUSH1 0x80 CALLVALUE PUSH2 0xD2 JUMPI PUSH1 0x1F PUSH2 0x188E CODESIZE DUP2 SWAP1 SUB SWAP2 DUP3 ADD PUSH1 0x1F NOT AND DUP4 ADD SWAP2 PUSH1 0x1 PUSH1 0x1 PUSH1 0x40 SHL SUB DUP4 GT DUP5 DUP5 LT OR PUSH2 0xD7 JUMPI DUP1 DUP5 SWAP3 PUSH1 0x20 SWAP5 PUSH1 0x40 MSTORE DUP4 CODECOPY DUP2 ADD SUB SLT PUSH2 0xD2 JUMPI MLOAD PUSH1 0x1 PUSH1 0x1 PUSH1 0xA0 SHL SUB SWAP1 DUP2 DUP2 AND SWAP1 DUP2 SWAP1 SUB PUSH2 0xD2 JUMPI PUSH1 0x1 PUSH1 0x0 SSTORE CALLER ISZERO PUSH2 0xB9 JUMPI PUSH1 0x1 DUP1 SLOAD CALLER PUSH1 0x1 PUSH1 0x1 PUSH1 0xA0 SHL SUB NOT DUP1 DUP4 AND DUP3 OR SWAP1 SWAP4 SSTORE PUSH1 0x40 MLOAD SWAP5 SWAP1 SWAP2 AND PUSH32 0x8BE0079C531659141344CD1FD0A4F28419497F9722A3DAAFE3B4186F6B6457E0 PUSH1 0x0 DUP1 LOG3 PUSH1 0x1 PUSH1 0x2 SSTORE PUSH1 0x8 SLOAD AND OR PUSH1 0x8 SSTORE PUSH2 0x17A0 SWAP1 DUP2 PUSH2 0xEE DUP3 CODECOPY RETURN JUMPDEST PUSH1 0x40 MLOAD PUSH4 0x1E4FBDF7 PUSH1 0xE0 SHL DUP2 MSTORE PUSH1 0x0 PUSH1 0x4 DUP3 ADD MSTORE PUSH1 0x24 SWAP1 REVERT JUMPDEST PUSH1 0x0 DUP1 REVERT JUMPDEST PUSH4 0x4E487B71 PUSH1 0xE0 SHL PUSH1 0x0 MSTORE PUSH1 0x41 PUSH1 0x4 MSTORE PUSH1 0x24 PUSH1 0x0 REVERT INVALID PUSH1 0x80 DUP1 PUSH1 0x40 MSTORE PUSH1 0x4 CALLDATASIZE LT ISZERO PUSH2 0x13 JUMPI PUSH1 0x0 DUP1 REVERT JUMPDEST PUSH1 0x0 CALLDATALOAD PUSH1 0xE0 SHR SWAP1 DUP2 PUSH4 0x642F89E EQ PUSH2 0x12F4 JUMPI POP DUP1 PUSH4 0x97B6BE3 EQ PUSH2 0x122E JUMPI DUP1 PUSH4 0xF867798 EQ PUSH2 0x106 JUMPI DUP1 PUSH4 0x1DAB301E EQ PUSH2 0x116E JUMPI DUP1 PUSH4 0x22EB77EE EQ PUSH2 0x9B0 JUMPI DUP1 PUSH4 0x26F20C79 EQ PUSH2 0x992 JUMPI DUP1 PUSH4 0x405505B1 EQ PUSH2 0x91A JUMPI DUP1 PUSH4 0x54056B69 EQ PUSH2 0x7B3 JUMPI DUP1 PUSH4 0x63809AEF EQ PUSH2 0x72F JUMPI DUP1 PUSH4 0x6A5C841A EQ PUSH2 0x56A JUMPI DUP1 PUSH4 0x715018A6 EQ PUSH2 0x50D JUMPI DUP1 PUSH4 0x794239CC EQ PUSH2 0x4E4 JUMPI DUP1 PUSH4 0x8DA5CB5B EQ PUSH2 0x4BB JUMPI DUP1 PUSH4 0xA41CFA69 EQ PUSH2 0x471 JUMPI DUP1 PUSH4 0xA93DB7D0 EQ PUSH2 0x24D JUMPI DUP1 PUSH4 0xD27D559F EQ PUSH2 0x293 JUMPI DUP1 PUSH4 0xD8012A2A EQ PUSH2 0x252 JUMPI DUP1 PUSH4 0xE834016E EQ PUSH2 0x24D JUMPI DUP1 PUSH4 0xF2FDE38B EQ PUSH2 0x1BF JUMPI DUP1 PUSH4 0xF91F859A EQ PUSH2 0x167 JUMPI PUSH4 0xFE909CAC EQ PUSH2 0x106 JUMPI PUSH1 0x0 DUP1 REVERT JUMPDEST CALLVALUE PUSH2 0x162 JUMPI PUSH1 0x20 CALLDATASIZE PUSH1 0x3 NOT ADD SLT PUSH2 0x162 JUMPI PUSH1 0x4 CALLDATALOAD PUSH1 0x1 PUSH1 0x1 PUSH1 0x40 SHL SUB DUP2 GT PUSH2 0x162 JUMPI PUSH2 0x14F PUSH1 0x20 PUSH2 0x13C DUP2 SWAP4 CALLDATASIZE SWAP1 PUSH1 0x4 ADD PUSH2 0x13C1 JUMP JUMPDEST DUP2 PUSH1 0x40 MLOAD SWAP4 DUP3 DUP6 DUP1 SWAP5 MLOAD SWAP4 DUP5 SWAP3 ADD PUSH2 0x1408 JUMP JUMPDEST DUP2 ADD PUSH1 0x7 DUP2 MSTORE SUB ADD SWAP1 KECCAK256 SLOAD PUSH1 0x40 MLOAD SWAP1 DUP2 MSTORE RETURN JUMPDEST PUSH1 0x0 DUP1 REVERT JUMPDEST CALLVALUE PUSH2 0x162 JUMPI PUSH1 0x40 CALLDATASIZE PUSH1 0x3 NOT ADD SLT PUSH2 0x162 JUMPI PUSH2 0x180 PUSH2 0x1530 JUMP JUMPDEST PUSH1 0x1 PUSH1 0x1 PUSH1 0xA0 SHL SUB AND PUSH1 0x0 SWAP1 DUP2 MSTORE PUSH1 0x5 PUSH1 0x20 MSTORE PUSH1 0x40 SWAP1 KECCAK256 DUP1 SLOAD PUSH1 0x24 CALLDATALOAD SWAP2 SWAP1 DUP3 LT ISZERO PUSH2 0x162 JUMPI PUSH1 0x20 SWAP2 PUSH2 0x1B1 SWAP2 PUSH2 0x1546 JUMP JUMPDEST SWAP1 SLOAD PUSH1 0x40 MLOAD SWAP2 PUSH1 0x3 SHL SHR DUP2 MSTORE RETURN JUMPDEST CALLVALUE PUSH2 0x162 JUMPI PUSH1 0x20 CALLDATASIZE PUSH1 0x3 NOT ADD SLT PUSH2 0x162 JUMPI PUSH2 0x1D8 PUSH2 0x1530 JUMP JUMPDEST PUSH2 0x1E0 PUSH2 0x15A2 JUMP JUMPDEST PUSH1 0x1 PUSH1 0x1 PUSH1 0xA0 SHL SUB SWAP1 DUP2 AND SWAP1 DUP2 ISZERO PUSH2 0x234 JUMPI PUSH1 0x1 SLOAD DUP3 PUSH12 0xFFFFFFFFFFFFFFFFFFFFFFFF PUSH1 0xA0 SHL DUP3 AND OR PUSH1 0x1 SSTORE AND PUSH32 0x8BE0079C531659141344CD1FD0A4F28419497F9722A3DAAFE3B4186F6B6457E0 PUSH1 0x0 DUP1 LOG3 STOP JUMPDEST PUSH1 0x40 MLOAD PUSH4 0x1E4FBDF7 PUSH1 0xE0 SHL DUP2 MSTORE PUSH1 0x0 PUSH1 0x4 DUP3 ADD MSTORE PUSH1 0x24 SWAP1 REVERT JUMPDEST PUSH2 0x1574 JUMP JUMPDEST CALLVALUE PUSH2 0x162 JUMPI PUSH1 0x0 CALLDATASIZE PUSH1 0x3 NOT ADD SLT PUSH2 0x162 JUMPI PUSH1 0x2 SLOAD PUSH1 0x0 NOT DUP2 ADD SWAP1 DUP2 GT PUSH2 0x27D JUMPI PUSH1 0x20 SWAP1 PUSH1 0x40 MLOAD SWAP1 DUP2 MSTORE RETURN JUMPDEST PUSH4 0x4E487B71 PUSH1 0xE0 SHL PUSH1 0x0 MSTORE PUSH1 0x11 PUSH1 0x4 MSTORE PUSH1 0x24 PUSH1 0x0 REVERT JUMPDEST CALLVALUE PUSH2 0x162 JUMPI PUSH1 0x40 CALLDATASIZE PUSH1 0x3 NOT ADD SLT PUSH2 0x162 JUMPI PUSH1 0x24 PUSH1 0x4 CALLDATALOAD DUP2 CALLDATALOAD PUSH1 0x1 PUSH1 0x1 PUSH1 0x40 SHL SUB DUP2 GT PUSH2 0x162 JUMPI PUSH2 0x2C7 SWAP1 CALLDATASIZE SWAP1 PUSH1 0x4 ADD PUSH2 0x13C1 JUMP JUMPDEST DUP2 ISZERO ISZERO DUP1 PUSH2 0x466 JUMPI JUMPDEST PUSH2 0x2D9 SWAP1 PUSH2 0x1669 JUMP JUMPDEST DUP2 PUSH1 0x0 MSTORE PUSH1 0x20 SWAP3 PUSH1 0x3 DUP5 MSTORE PUSH1 0x40 PUSH1 0x0 KECCAK256 SWAP1 PUSH1 0x7 DUP3 ADD DUP1 SLOAD PUSH1 0xFF DUP2 PUSH1 0x8 SHR AND PUSH2 0x422 JUMPI PUSH1 0x2 DUP5 ADD SLOAD CALLER PUSH1 0x1 PUSH1 0x1 PUSH1 0xA0 SHL SUB SWAP2 DUP3 AND EQ SWAP1 DUP2 ISZERO PUSH2 0x412 JUMPI JUMPDEST POP ISZERO PUSH2 0x3C0 JUMPI PUSH2 0xFF00 NOT AND PUSH2 0x100 OR SWAP1 SSTORE PUSH1 0x1 DUP3 ADD SLOAD PUSH1 0x4 DUP4 ADD SLOAD PUSH1 0x5 SWAP1 SWAP4 ADD SLOAD SWAP3 JUMPDEST DUP4 DUP2 LT PUSH2 0x37D JUMPI PUSH1 0x40 MLOAD DUP8 DUP2 MSTORE CALLER SWAP1 DUP8 SWAP1 PUSH32 0x91E5BFFD4FFDC5B054CE786EA6269E6E8C1FE4BB5CDB4D14F249C1EC59E3908C SWAP1 DUP1 PUSH2 0x378 DUP2 DUP14 ADD DUP12 PUSH2 0x150B JUMP JUMPDEST SUB SWAP1 LOG3 STOP JUMPDEST DUP2 PUSH1 0x0 MSTORE PUSH1 0x6 DUP8 MSTORE PUSH1 0x40 PUSH1 0x0 KECCAK256 DUP2 PUSH1 0x0 MSTORE DUP8 MSTORE PUSH1 0x40 PUSH1 0x0 KECCAK256 PUSH1 0xFF NOT DUP2 SLOAD AND SWAP1 SSTORE PUSH3 0x15180 DUP2 ADD DUP1 SWAP2 GT ISZERO PUSH2 0x338 JUMPI DUP3 PUSH4 0x4E487B71 PUSH1 0xE0 SHL PUSH1 0x0 MSTORE PUSH1 0x11 PUSH1 0x4 MSTORE PUSH1 0x0 REVERT JUMPDEST PUSH1 0x40 MLOAD PUSH3 0x461BCD PUSH1 0xE5 SHL DUP2 MSTORE PUSH1 0x4 DUP2 ADD DUP9 SWAP1 MSTORE PUSH1 0x25 DUP2 DUP6 ADD MSTORE PUSH32 0x4E6F7420617574686F72697A656420746F2063616E63656C207468697320626F PUSH1 0x44 DUP3 ADD MSTORE PUSH5 0x6F6B696E67 PUSH1 0xD8 SHL PUSH1 0x64 DUP3 ADD MSTORE PUSH1 0x84 SWAP1 REVERT JUMPDEST SWAP1 POP PUSH1 0x3 DUP6 ADD SLOAD AND CALLER EQ DUP9 PUSH2 0x315 JUMP JUMPDEST PUSH1 0x40 MLOAD PUSH3 0x461BCD PUSH1 0xE5 SHL DUP2 MSTORE PUSH1 0x4 DUP2 ADD DUP9 SWAP1 MSTORE PUSH1 0x19 DUP2 DUP6 ADD MSTORE PUSH32 0x426F6F6B696E6720616C72656164792063616E63656C6C656400000000000000 PUSH1 0x44 DUP3 ADD MSTORE PUSH1 0x64 SWAP1 REVERT JUMPDEST POP PUSH1 0x2 SLOAD DUP3 LT PUSH2 0x2D0 JUMP JUMPDEST CALLVALUE PUSH2 0x162 JUMPI PUSH1 0x40 CALLDATASIZE PUSH1 0x3 NOT ADD SLT PUSH2 0x162 JUMPI PUSH2 0x48A PUSH2 0x1530 JUMP JUMPDEST PUSH1 0x1 PUSH1 0x1 PUSH1 0xA0 SHL SUB AND PUSH1 0x0 SWAP1 DUP2 MSTORE PUSH1 0x4 PUSH1 0x20 MSTORE PUSH1 0x40 SWAP1 KECCAK256 DUP1 SLOAD PUSH1 0x24 CALLDATALOAD SWAP2 SWAP1 DUP3 LT ISZERO PUSH2 0x162 JUMPI PUSH1 0x20 SWAP2 PUSH2 0x1B1 SWAP2 PUSH2 0x1546 JUMP JUMPDEST CALLVALUE PUSH2 0x162 JUMPI PUSH1 0x0 CALLDATASIZE PUSH1 0x3 NOT ADD SLT PUSH2 0x162 JUMPI PUSH1 0x1 SLOAD PUSH1 0x40 MLOAD PUSH1 0x1 PUSH1 0x1 PUSH1 0xA0 SHL SUB SWAP1 SWAP2 AND DUP2 MSTORE PUSH1 0x20 SWAP1 RETURN JUMPDEST CALLVALUE PUSH2 0x162 JUMPI PUSH1 0x0 CALLDATASIZE PUSH1 0x3 NOT ADD SLT PUSH2 0x162 JUMPI PUSH1 0x8 SLOAD PUSH1 0x40 MLOAD PUSH1 0x1 PUSH1 0x1 PUSH1 0xA0 SHL SUB SWAP1 SWAP2 AND DUP2 MSTORE PUSH1 0x20 SWAP1 RETURN JUMPDEST CALLVALUE PUSH2 0x162 JUMPI PUSH1 0x0 CALLDATASIZE PUSH1 0x3 NOT ADD SLT PUSH2 0x162 JUMPI PUSH2 0x526 PUSH2 0x15A2 JUMP JUMPDEST PUSH1 0x1 DUP1 SLOAD PUSH1 0x1 PUSH1 0x1 PUSH1 0xA0 SHL SUB NOT DUP2 AND SWAP1 SWAP2 SSTORE PUSH1 0x0 SWAP1 PUSH1 0x1 PUSH1 0x1 PUSH1 0xA0 SHL SUB AND PUSH32 0x8BE0079C531659141344CD1FD0A4F28419497F9722A3DAAFE3B4186F6B6457E0 DUP3 DUP1 LOG3 STOP JUMPDEST CALLVALUE PUSH2 0x162 JUMPI PUSH1 0x20 CALLDATASIZE PUSH1 0x3 NOT ADD SLT PUSH2 0x162 JUMPI PUSH1 0x4 CALLDATALOAD PUSH1 0x60 PUSH2 0x140 PUSH1 0x40 MLOAD PUSH2 0x58F DUP2 PUSH2 0x1369 JUMP JUMPDEST PUSH1 0x0 DUP2 MSTORE PUSH1 0x0 PUSH1 0x20 DUP3 ADD MSTORE PUSH1 0x0 PUSH1 0x40 DUP3 ADD MSTORE PUSH1 0x0 DUP4 DUP3 ADD MSTORE PUSH1 0x0 PUSH1 0x80 DUP3 ADD MSTORE PUSH1 0x0 PUSH1 0xA0 DUP3 ADD MSTORE PUSH1 0x0 PUSH1 0xC0 DUP3 ADD MSTORE PUSH1 0x0 PUSH1 0xE0 DUP3 ADD MSTORE PUSH1 0x0 PUSH2 0x100 DUP3 ADD MSTORE PUSH1 0x0 PUSH2 0x120 DUP3 ADD MSTORE ADD MSTORE DUP1 ISZERO ISZERO DUP1 PUSH2 0x724 JUMPI JUMPDEST PUSH2 0x5E7 SWAP1 PUSH2 0x1669 JUMP JUMPDEST PUSH1 0x0 MSTORE PUSH1 0x3 PUSH1 0x20 MSTORE PUSH2 0x140 PUSH1 0x40 PUSH1 0x0 KECCAK256 PUSH2 0x683 PUSH1 0x9 PUSH1 0x40 MLOAD SWAP3 PUSH2 0x609 DUP5 PUSH2 0x1369 JUMP JUMPDEST DUP1 SLOAD DUP5 MSTORE PUSH1 0x1 DUP2 ADD SLOAD PUSH1 0x20 DUP6 ADD MSTORE PUSH1 0x2 DUP2 ADD SLOAD PUSH1 0x1 PUSH1 0x1 PUSH1 0xA0 SHL SUB SWAP1 DUP2 AND PUSH1 0x40 DUP7 ADD MSTORE PUSH1 0x3 DUP3 ADD SLOAD AND PUSH1 0x60 DUP6 ADD MSTORE PUSH1 0x4 DUP2 ADD SLOAD PUSH1 0x80 DUP6 ADD MSTORE PUSH1 0x5 DUP2 ADD SLOAD PUSH1 0xA0 DUP6 ADD MSTORE PUSH1 0x6 DUP2 ADD SLOAD PUSH1 0xC0 DUP6 ADD MSTORE PUSH1 0x7 DUP2 ADD SLOAD PUSH1 0xFF DUP2 DUP2 AND ISZERO ISZERO PUSH1 0xE0 DUP8 ADD MSTORE PUSH1 0x8 SWAP2 DUP3 SHR AND ISZERO ISZERO PUSH2 0x100 DUP7 ADD MSTORE DUP2 ADD SLOAD PUSH2 0x120 DUP6 ADD MSTORE ADD PUSH2 0x1465 JUMP JUMPDEST DUP3 DUP3 ADD MSTORE PUSH2 0x720 PUSH1 0x40 MLOAD SWAP3 DUP4 SWAP3 PUSH1 0x20 DUP5 MSTORE DUP1 MLOAD PUSH1 0x20 DUP6 ADD MSTORE PUSH1 0x20 DUP2 ADD MLOAD PUSH1 0x40 DUP6 ADD MSTORE PUSH1 0x1 DUP1 PUSH1 0xA0 SHL SUB PUSH1 0x40 DUP3 ADD MLOAD AND PUSH1 0x60 DUP6 ADD MSTORE PUSH1 0x1 DUP1 PUSH1 0xA0 SHL SUB PUSH1 0x60 DUP3 ADD MLOAD AND PUSH1 0x80 DUP6 ADD MSTORE PUSH1 0x80 DUP2 ADD MLOAD PUSH1 0xA0 DUP6 ADD MSTORE PUSH1 0xA0 DUP2 ADD MLOAD PUSH1 0xC0 DUP6 ADD MSTORE PUSH1 0xC0 DUP2 ADD MLOAD PUSH1 0xE0 DUP6 ADD MSTORE PUSH1 0xE0 DUP2 ADD MLOAD ISZERO ISZERO PUSH2 0x100 DUP6 ADD MSTORE PUSH2 0x100 DUP2 ADD MLOAD ISZERO ISZERO PUSH2 0x120 DUP6 ADD MSTORE PUSH2 0x120 DUP2 ADD MLOAD DUP3 DUP6 ADD MSTORE ADD MLOAD PUSH2 0x160 DUP1 DUP5 ADD MSTORE PUSH2 0x180 DUP4 ADD SWAP1 PUSH2 0x150B JUMP JUMPDEST SUB SWAP1 RETURN JUMPDEST POP PUSH1 0x2 SLOAD DUP2 LT PUSH2 0x5DE JUMP JUMPDEST CALLVALUE PUSH2 0x162 JUMPI PUSH1 0x20 DUP1 PUSH1 0x3 NOT CALLDATASIZE ADD SLT PUSH2 0x162 JUMPI PUSH1 0x1 PUSH1 0x1 PUSH1 0xA0 SHL SUB PUSH2 0x751 PUSH2 0x1530 JUMP JUMPDEST AND PUSH1 0x0 MSTORE PUSH1 0x4 DUP2 MSTORE PUSH1 0x40 PUSH1 0x0 KECCAK256 SWAP1 PUSH1 0x40 MLOAD SWAP1 DUP2 DUP2 DUP5 SLOAD SWAP2 DUP3 DUP2 MSTORE ADD SWAP4 PUSH1 0x0 MSTORE DUP2 PUSH1 0x0 KECCAK256 SWAP2 PUSH1 0x0 SWAP1 JUMPDEST DUP3 DUP3 LT PUSH2 0x79C JUMPI PUSH2 0x720 DUP6 PUSH2 0x790 DUP2 DUP10 SUB DUP3 PUSH2 0x1385 JUMP JUMPDEST PUSH1 0x40 MLOAD SWAP2 DUP3 SWAP2 DUP3 PUSH2 0x132E JUMP JUMPDEST DUP4 SLOAD DUP7 MSTORE SWAP5 DUP6 ADD SWAP5 PUSH1 0x1 SWAP4 DUP5 ADD SWAP4 SWAP1 SWAP2 ADD SWAP1 PUSH2 0x779 JUMP JUMPDEST CALLVALUE PUSH2 0x162 JUMPI PUSH1 0x20 DUP1 PUSH1 0x3 NOT CALLDATASIZE ADD SLT PUSH2 0x162 JUMPI PUSH1 0x4 CALLDATALOAD SWAP1 DUP2 ISZERO ISZERO DUP1 PUSH2 0x90F JUMPI JUMPDEST PUSH2 0x7DB SWAP1 PUSH2 0x1669 JUMP JUMPDEST PUSH1 0x0 DUP3 DUP2 MSTORE PUSH1 0x3 DUP1 DUP4 MSTORE PUSH1 0x40 SWAP1 SWAP2 KECCAK256 ADD SLOAD PUSH1 0x1 PUSH1 0x1 PUSH1 0xA0 SHL SUB AND CALLER SUB PUSH2 0x8D4 JUMPI DUP2 PUSH1 0x0 MSTORE PUSH1 0x3 DUP2 MSTORE PUSH1 0x7 PUSH1 0x40 PUSH1 0x0 KECCAK256 ADD SWAP1 DUP2 SLOAD SWAP1 PUSH1 0xFF DUP3 AND PUSH2 0x890 JUMPI PUSH1 0xFF DUP3 PUSH1 0x8 SHR AND PUSH2 0x855 JUMPI POP PUSH1 0xFF NOT AND PUSH1 0x1 OR SWAP1 SSTORE CALLER SWAP1 PUSH32 0x32A6EAB1F4A0177609CC24472E391822AAE8A497472601EF3F98523B4BC7BD31 PUSH1 0x0 DUP1 LOG3 STOP JUMPDEST PUSH1 0x64 SWAP1 PUSH1 0x40 MLOAD SWAP1 PUSH3 0x461BCD PUSH1 0xE5 SHL DUP3 MSTORE PUSH1 0x4 DUP3 ADD MSTORE PUSH1 0x14 PUSH1 0x24 DUP3 ADD MSTORE PUSH20 0x109BDBDADA5B99C81A5CC818D85B98D95B1B1959 PUSH1 0x62 SHL PUSH1 0x44 DUP3 ADD MSTORE REVERT JUMPDEST PUSH1 0x64 SWAP1 PUSH1 0x40 MLOAD SWAP1 PUSH3 0x461BCD PUSH1 0xE5 SHL DUP3 MSTORE PUSH1 0x4 DUP3 ADD MSTORE PUSH1 0x19 PUSH1 0x24 DUP3 ADD MSTORE PUSH32 0x426F6F6B696E6720616C726561647920636F6E6669726D656400000000000000 PUSH1 0x44 DUP3 ADD MSTORE REVERT JUMPDEST PUSH1 0x64 SWAP1 PUSH1 0x40 MLOAD SWAP1 PUSH3 0x461BCD PUSH1 0xE5 SHL DUP3 MSTORE PUSH1 0x4 DUP3 ADD MSTORE PUSH1 0x14 PUSH1 0x24 DUP3 ADD MSTORE PUSH20 0x139BDD081D1A1948189BDBDADA5B99C81A1BDCDD PUSH1 0x62 SHL PUSH1 0x44 DUP3 ADD MSTORE REVERT JUMPDEST POP PUSH1 0x2 SLOAD DUP3 LT PUSH2 0x7D2 JUMP JUMPDEST CALLVALUE PUSH2 0x162 JUMPI PUSH1 0x20 DUP1 PUSH1 0x3 NOT CALLDATASIZE ADD SLT PUSH2 0x162 JUMPI PUSH1 0x1 PUSH1 0x1 PUSH1 0xA0 SHL SUB PUSH2 0x93C PUSH2 0x1530 JUMP JUMPDEST AND PUSH1 0x0 MSTORE PUSH1 0x5 DUP2 MSTORE PUSH1 0x40 PUSH1 0x0 KECCAK256 SWAP1 PUSH1 0x40 MLOAD SWAP1 DUP2 DUP2 DUP5 SLOAD SWAP2 DUP3 DUP2 MSTORE ADD SWAP4 PUSH1 0x0 MSTORE DUP2 PUSH1 0x0 KECCAK256 SWAP2 PUSH1 0x0 SWAP1 JUMPDEST DUP3 DUP3 LT PUSH2 0x97B JUMPI PUSH2 0x720 DUP6 PUSH2 0x790 DUP2 DUP10 SUB DUP3 PUSH2 0x1385 JUMP JUMPDEST DUP4 SLOAD DUP7 MSTORE SWAP5 DUP6 ADD SWAP5 PUSH1 0x1 SWAP4 DUP5 ADD SWAP4 SWAP1 SWAP2 ADD SWAP1 PUSH2 0x964 JUMP JUMPDEST CALLVALUE PUSH2 0x162 JUMPI PUSH1 0x0 CALLDATASIZE PUSH1 0x3 NOT ADD SLT PUSH2 0x162 JUMPI PUSH1 0x20 PUSH1 0x2 SLOAD PUSH1 0x40 MLOAD SWAP1 DUP2 MSTORE RETURN JUMPDEST CALLVALUE PUSH2 0x162 JUMPI PUSH1 0x80 CALLDATASIZE PUSH1 0x3 NOT ADD SLT PUSH2 0x162 JUMPI PUSH1 0x64 CALLDATALOAD PUSH1 0x1 PUSH1 0x1 PUSH1 0x40 SHL SUB DUP2 GT PUSH2 0x162 JUMPI PUSH2 0x9E0 SWAP1 CALLDATASIZE SWAP1 PUSH1 0x4 ADD PUSH2 0x13C1 JUMP JUMPDEST TIMESTAMP PUSH1 0x24 CALLDATALOAD LT PUSH2 0x111D JUMPI PUSH1 0x24 CALLDATALOAD PUSH1 0x44 CALLDATALOAD GT ISZERO PUSH2 0x10CA JUMPI PUSH4 0x1E13380 PUSH2 0xA08 PUSH1 0x24 CALLDATALOAD PUSH1 0x44 CALLDATALOAD PUSH2 0x15CE JUMP JUMPDEST GT PUSH2 0x1085 JUMPI PUSH1 0x2 PUSH1 0x0 SLOAD EQ PUSH2 0x1073 JUMPI PUSH1 0x2 PUSH1 0x0 SWAP1 DUP2 SSTORE PUSH1 0x8 SLOAD PUSH1 0x40 MLOAD PUSH4 0x32665FFB PUSH1 0xE0 SHL DUP2 MSTORE PUSH1 0x4 DUP1 CALLDATALOAD SWAP1 DUP3 ADD MSTORE SWAP3 SWAP2 SWAP1 DUP4 SWAP1 PUSH1 0x24 SWAP1 DUP3 SWAP1 PUSH1 0x1 PUSH1 0x1 PUSH1 0xA0 SHL SUB AND GAS STATICCALL SWAP2 DUP3 ISZERO PUSH2 0x1067 JUMPI PUSH1 0x0 SWAP3 PUSH2 0xF0D JUMPI JUMPDEST POP PUSH1 0xC0 DUP3 ADD MLOAD ISZERO PUSH2 0xECF JUMPI PUSH1 0x20 DUP3 ADD MLOAD PUSH1 0x1 PUSH1 0x1 PUSH1 0xA0 SHL SUB AND ISZERO PUSH2 0xE8A JUMPI PUSH2 0xA89 PUSH1 0x44 CALLDATALOAD PUSH1 0x24 CALLDATALOAD PUSH1 0x4 CALLDATALOAD PUSH2 0x16AE JUMP JUMPDEST ISZERO PUSH2 0xE45 JUMPI PUSH3 0x15180 PUSH2 0xAA0 PUSH1 0x24 CALLDATALOAD PUSH1 0x44 CALLDATALOAD PUSH2 0x15CE JUMP JUMPDEST DIV SWAP1 PUSH1 0xA0 DUP4 ADD MLOAD SWAP1 DUP2 DUP4 DUP2 MUL DIV DUP4 EQ DUP3 ISZERO OR ISZERO PUSH2 0x27D JUMPI DUP3 DUP3 MUL ISZERO PUSH2 0xE07 JUMPI PUSH1 0x40 MLOAD PUSH1 0x20 DUP2 DUP4 MLOAD PUSH2 0xAD4 DUP2 DUP4 DUP6 DUP9 ADD PUSH2 0x1408 JUMP JUMPDEST DUP2 ADD PUSH1 0x7 DUP2 MSTORE SUB ADD SWAP1 KECCAK256 SLOAD PUSH2 0xDC2 JUMPI PUSH1 0x2 SLOAD SWAP3 PUSH2 0xAF0 DUP5 PUSH2 0x1620 JUMP JUMPDEST PUSH1 0x2 SSTORE DUP4 PUSH1 0x0 MSTORE PUSH1 0x3 PUSH1 0x20 MSTORE PUSH1 0x40 PUSH1 0x0 KECCAK256 DUP5 DUP2 SSTORE PUSH1 0x4 CALLDATALOAD PUSH1 0x1 DUP3 ADD SSTORE PUSH1 0x2 DUP2 ADD PUSH12 0xFFFFFFFFFFFFFFFFFFFFFFFF PUSH1 0xA0 SHL SWAP1 CALLER DUP3 DUP3 SLOAD AND OR SWAP1 SSTORE PUSH1 0x1 DUP1 PUSH1 0xA0 SHL SUB PUSH1 0x20 DUP9 ADD MLOAD AND PUSH1 0x3 DUP4 ADD SWAP2 DUP3 SLOAD AND OR SWAP1 SSTORE PUSH1 0x24 CALLDATALOAD PUSH1 0x4 DUP3 ADD SSTORE PUSH1 0x44 CALLDATALOAD PUSH1 0x5 DUP3 ADD SSTORE DUP2 DUP5 MUL PUSH1 0x6 DUP3 ADD SSTORE PUSH1 0x7 DUP2 ADD PUSH2 0xFFFF NOT DUP2 SLOAD AND SWAP1 SSTORE TIMESTAMP PUSH1 0x8 DUP3 ADD SSTORE DUP3 MLOAD PUSH1 0x1 PUSH1 0x1 PUSH1 0x40 SHL SUB DUP2 GT PUSH2 0xDAC JUMPI PUSH2 0xB89 PUSH1 0x9 DUP4 ADD SLOAD PUSH2 0x142B JUMP JUMPDEST PUSH1 0x1F DUP2 GT PUSH2 0xD65 JUMPI JUMPDEST POP PUSH1 0x20 PUSH1 0x1F DUP3 GT PUSH1 0x1 EQ PUSH2 0xCF8 JUMPI SWAP1 DUP1 PUSH1 0x9 SWAP3 PUSH1 0x0 SWAP2 PUSH2 0xCED JUMPI JUMPDEST POP DUP2 PUSH1 0x1 SHL SWAP2 PUSH1 0x0 NOT SWAP1 PUSH1 0x3 SHL SHR NOT AND OR SWAP2 ADD SSTORE JUMPDEST CALLER PUSH1 0x0 MSTORE PUSH1 0x4 PUSH1 0x20 MSTORE PUSH2 0xBD9 DUP5 PUSH1 0x40 PUSH1 0x0 KECCAK256 PUSH2 0x162F JUMP JUMPDEST PUSH1 0x1 DUP1 PUSH1 0xA0 SHL SUB PUSH1 0x20 DUP7 ADD MLOAD AND PUSH1 0x0 MSTORE PUSH1 0x5 PUSH1 0x20 MSTORE PUSH2 0xBFC DUP5 PUSH1 0x40 PUSH1 0x0 KECCAK256 PUSH2 0x162F JUMP JUMPDEST PUSH1 0x24 CALLDATALOAD JUMPDEST PUSH1 0x44 CALLDATALOAD DUP2 LT PUSH2 0xCA2 JUMPI POP PUSH1 0x20 SWAP5 DUP5 PUSH1 0x40 MLOAD DUP8 DUP2 DUP7 MLOAD PUSH2 0xC22 DUP2 DUP4 DUP6 DUP12 ADD PUSH2 0x1408 JUMP JUMPDEST DUP2 ADD PUSH1 0x7 DUP2 MSTORE SUB ADD SWAP1 KECCAK256 SSTORE DUP6 PUSH1 0x1 DUP1 PUSH1 0xA0 SHL SUB SWAP2 ADD MLOAD AND SWAP3 PUSH1 0x40 MLOAD SWAP4 DUP5 MSTORE PUSH1 0x24 CALLDATALOAD DUP7 DUP6 ADD MSTORE PUSH1 0x44 CALLDATALOAD PUSH1 0x40 DUP6 ADD MSTORE MUL PUSH1 0x60 DUP4 ADD MSTORE PUSH1 0xA0 PUSH1 0x80 DUP4 ADD MSTORE DUP3 PUSH32 0x9F1B7FAA054A0E9AD5D65692EB3C5F6123F8255C76E52589A673128083F8E0AF CALLER SWAP4 DUP1 PUSH2 0xC92 PUSH1 0x4 CALLDATALOAD SWAP6 PUSH1 0xA0 DUP4 ADD SWAP1 PUSH2 0x150B JUMP JUMPDEST SUB SWAP1 LOG4 PUSH1 0x1 PUSH1 0x0 SSTORE PUSH1 0x40 MLOAD SWAP1 DUP2 MSTORE RETURN JUMPDEST PUSH1 0x4 CALLDATALOAD PUSH1 0x0 MSTORE PUSH1 0x6 PUSH1 0x20 MSTORE PUSH1 0x40 PUSH1 0x0 KECCAK256 DUP2 PUSH1 0x0 MSTORE PUSH1 0x20 MSTORE PUSH1 0x40 PUSH1 0x0 KECCAK256 PUSH1 0x1 PUSH1 0xFF NOT DUP3 SLOAD AND OR SWAP1 SSTORE PUSH3 0x15180 DUP2 ADD DUP1 SWAP2 GT ISZERO PUSH2 0xC00 JUMPI PUSH4 0x4E487B71 PUSH1 0xE0 SHL PUSH1 0x0 MSTORE PUSH1 0x11 PUSH1 0x4 MSTORE PUSH1 0x24 PUSH1 0x0 REVERT JUMPDEST SWAP1 POP DUP6 ADD MLOAD DUP10 PUSH2 0xBAD JUMP JUMPDEST PUSH1 0x9 DUP4 ADD PUSH1 0x0 MSTORE PUSH1 0x20 PUSH1 0x0 KECCAK256 SWAP1 PUSH1 0x0 JUMPDEST PUSH1 0x1F NOT DUP5 AND DUP2 LT PUSH2 0xD4D JUMPI POP SWAP2 PUSH1 0x1 SWAP2 PUSH1 0x9 SWAP4 DUP3 PUSH1 0x1F NOT DUP2 AND LT PUSH2 0xD34 JUMPI JUMPDEST POP POP DUP2 SHL ADD SWAP2 ADD SSTORE PUSH2 0xBC2 JUMP JUMPDEST DUP8 ADD MLOAD PUSH1 0x0 NOT PUSH1 0xF8 DUP5 PUSH1 0x3 SHL AND SHR NOT AND SWAP1 SSTORE DUP10 DUP1 PUSH2 0xD27 JUMP JUMPDEST SWAP1 SWAP2 PUSH1 0x20 PUSH1 0x1 DUP2 SWAP3 DUP6 DUP11 ADD MLOAD DUP2 SSTORE ADD SWAP4 ADD SWAP2 ADD PUSH2 0xD08 JUMP JUMPDEST PUSH1 0x9 DUP4 ADD PUSH1 0x0 MSTORE PUSH1 0x20 PUSH1 0x0 KECCAK256 PUSH1 0x1F DUP4 ADD PUSH1 0x5 SHR DUP2 ADD PUSH1 0x20 DUP5 LT PUSH2 0xDA5 JUMPI JUMPDEST PUSH1 0x1F DUP4 ADD PUSH1 0x5 SHR DUP3 ADD DUP2 LT PUSH2 0xD99 JUMPI POP POP PUSH2 0xB92 JUMP JUMPDEST PUSH1 0x0 DUP2 SSTORE PUSH1 0x1 ADD PUSH2 0xD83 JUMP JUMPDEST POP DUP1 PUSH2 0xD83 JUMP JUMPDEST PUSH4 0x4E487B71 PUSH1 0xE0 SHL PUSH1 0x0 MSTORE PUSH1 0x41 PUSH1 0x4 MSTORE PUSH1 0x24 PUSH1 0x0 REVERT JUMPDEST PUSH1 0x40 MLOAD PUSH3 0x461BCD PUSH1 0xE5 SHL DUP2 MSTORE PUSH1 0x20 PUSH1 0x4 DUP3 ADD MSTORE PUSH1 0x1E PUSH1 0x24 DUP3 ADD MSTORE PUSH32 0x5061796D656E74207265666572656E636520616C726561647920757365640000 PUSH1 0x44 DUP3 ADD MSTORE PUSH1 0x64 SWAP1 REVERT JUMPDEST PUSH1 0x40 MLOAD PUSH3 0x461BCD PUSH1 0xE5 SHL DUP2 MSTORE PUSH1 0x20 PUSH1 0x4 DUP3 ADD MSTORE PUSH1 0x16 PUSH1 0x24 DUP3 ADD MSTORE PUSH22 0x125B9D985B1A5908189BDBDADA5B99C8185B5BDD5B9D PUSH1 0x52 SHL PUSH1 0x44 DUP3 ADD MSTORE PUSH1 0x64 SWAP1 REVERT JUMPDEST PUSH1 0x40 MLOAD PUSH3 0x461BCD PUSH1 0xE5 SHL DUP2 MSTORE PUSH1 0x20 PUSH1 0x4 DUP3 ADD MSTORE PUSH1 0x17 PUSH1 0x24 DUP3 ADD MSTORE PUSH32 0x446174657320617265206E6F7420617661696C61626C65000000000000000000 PUSH1 0x44 DUP3 ADD MSTORE PUSH1 0x64 SWAP1 REVERT JUMPDEST PUSH1 0x40 MLOAD PUSH3 0x461BCD PUSH1 0xE5 SHL DUP2 MSTORE PUSH1 0x20 PUSH1 0x4 DUP3 ADD MSTORE PUSH1 0x17 PUSH1 0x24 DUP3 ADD MSTORE PUSH32 0x50726F706572747920646F6573206E6F74206578697374000000000000000000 PUSH1 0x44 DUP3 ADD MSTORE PUSH1 0x64 SWAP1 REVERT JUMPDEST PUSH1 0x40 MLOAD PUSH3 0x461BCD PUSH1 0xE5 SHL DUP2 MSTORE PUSH1 0x20 PUSH1 0x4 DUP3 ADD MSTORE PUSH1 0x16 PUSH1 0x24 DUP3 ADD MSTORE PUSH22 0x50726F7065727479206973206E6F7420616374697665 PUSH1 0x50 SHL PUSH1 0x44 DUP3 ADD MSTORE PUSH1 0x64 SWAP1 REVERT JUMPDEST SWAP1 SWAP2 POP RETURNDATASIZE DUP1 PUSH1 0x0 DUP4 RETURNDATACOPY PUSH2 0xF20 DUP2 DUP4 PUSH2 0x1385 JUMP JUMPDEST PUSH1 0x20 DUP3 DUP3 DUP2 ADD SUB SLT PUSH2 0x162 JUMPI DUP2 MLOAD SWAP1 PUSH1 0x1 PUSH1 0x1 PUSH1 0x40 SHL SUB DUP3 GT PUSH2 0x162 JUMPI PUSH2 0x120 SWAP3 DUP4 DUP4 DUP3 ADD DUP4 DUP4 ADD SUB SLT PUSH2 0x162 JUMPI PUSH1 0x40 MLOAD SWAP4 DUP5 ADD DUP5 DUP2 LT PUSH1 0x1 PUSH1 0x1 PUSH1 0x40 SHL SUB DUP3 GT OR PUSH2 0xDAC JUMPI PUSH1 0x40 MSTORE DUP1 DUP4 ADD DUP1 MLOAD DUP6 MSTORE PUSH1 0x20 ADD MLOAD PUSH1 0x1 PUSH1 0x1 PUSH1 0xA0 SHL SUB DUP2 AND DUP2 SUB PUSH2 0x162 JUMPI PUSH1 0x20 DUP6 ADD MSTORE PUSH1 0x40 DUP4 DUP3 ADD ADD MLOAD PUSH1 0x1 PUSH1 0x1 PUSH1 0x40 SHL SUB DUP2 GT PUSH2 0x162 JUMPI PUSH2 0xFAF SWAP1 DUP4 DUP4 ADD SWAP1 DUP6 DUP5 ADD ADD PUSH2 0x15DB JUMP JUMPDEST PUSH1 0x40 DUP6 ADD MSTORE PUSH1 0x60 DUP4 DUP3 ADD ADD MLOAD PUSH1 0x1 PUSH1 0x1 PUSH1 0x40 SHL SUB DUP2 GT PUSH2 0x162 JUMPI PUSH2 0xFDA SWAP1 DUP4 DUP4 ADD SWAP1 DUP6 DUP5 ADD ADD PUSH2 0x15DB JUMP JUMPDEST PUSH1 0x60 DUP6 ADD MSTORE PUSH1 0x80 DUP4 DUP3 ADD ADD MLOAD PUSH1 0x1 PUSH1 0x1 PUSH1 0x40 SHL SUB DUP2 GT PUSH2 0x162 JUMPI PUSH2 0x1005 SWAP1 DUP4 DUP4 ADD SWAP1 DUP6 DUP5 ADD ADD PUSH2 0x15DB JUMP JUMPDEST PUSH1 0x80 DUP6 ADD MSTORE DUP1 DUP4 ADD PUSH1 0xA0 DUP2 DUP2 ADD MLOAD SWAP1 DUP7 ADD MSTORE PUSH1 0xC0 ADD MLOAD DUP1 ISZERO ISZERO DUP2 SUB PUSH2 0x162 JUMPI PUSH1 0xC0 DUP6 ADD MSTORE PUSH1 0xE0 DUP4 DUP3 ADD ADD MLOAD PUSH1 0xE0 DUP6 ADD MSTORE PUSH2 0x100 SWAP3 DUP4 DUP2 DUP4 ADD ADD MLOAD SWAP1 PUSH1 0x1 PUSH1 0x1 PUSH1 0x40 SHL SUB DUP3 GT PUSH2 0x162 JUMPI PUSH2 0x105C SWAP4 DUP4 ADD SWAP3 ADD ADD PUSH2 0x15DB JUMP JUMPDEST SWAP1 DUP3 ADD MSTORE SWAP1 DUP3 PUSH2 0xA5A JUMP JUMPDEST PUSH1 0x40 MLOAD RETURNDATASIZE PUSH1 0x0 DUP3 RETURNDATACOPY RETURNDATASIZE SWAP1 REVERT JUMPDEST PUSH1 0x40 MLOAD PUSH4 0x3EE5AEB5 PUSH1 0xE0 SHL DUP2 MSTORE PUSH1 0x4 SWAP1 REVERT JUMPDEST PUSH1 0x40 MLOAD PUSH3 0x461BCD PUSH1 0xE5 SHL DUP2 MSTORE PUSH1 0x20 PUSH1 0x4 DUP3 ADD MSTORE PUSH1 0x1B PUSH1 0x24 DUP3 ADD MSTORE PUSH32 0x537461792063616E6E6F74206578636565642033363520646179730000000000 PUSH1 0x44 DUP3 ADD MSTORE PUSH1 0x64 SWAP1 REVERT JUMPDEST PUSH1 0x40 MLOAD PUSH3 0x461BCD PUSH1 0xE5 SHL DUP2 MSTORE PUSH1 0x20 PUSH1 0x4 DUP3 ADD MSTORE PUSH1 0x25 PUSH1 0x24 DUP3 ADD MSTORE PUSH32 0x436865636B2D6F75742064617465206D75737420626520616674657220636865 PUSH1 0x44 DUP3 ADD MSTORE PUSH5 0x31B596B4B7 PUSH1 0xD9 SHL PUSH1 0x64 DUP3 ADD MSTORE PUSH1 0x84 SWAP1 REVERT JUMPDEST PUSH1 0x40 MLOAD PUSH3 0x461BCD PUSH1 0xE5 SHL DUP2 MSTORE PUSH1 0x20 PUSH1 0x4 DUP3 ADD MSTORE PUSH1 0x23 PUSH1 0x24 DUP3 ADD MSTORE PUSH32 0x436865636B2D696E2064617465206D75737420626520696E2074686520667574 PUSH1 0x44 DUP3 ADD MSTORE PUSH3 0x757265 PUSH1 0xE8 SHL PUSH1 0x64 DUP3 ADD MSTORE PUSH1 0x84 SWAP1 REVERT JUMPDEST CALLVALUE PUSH2 0x162 JUMPI PUSH1 0x20 CALLDATASIZE PUSH1 0x3 NOT ADD SLT PUSH2 0x162 JUMPI PUSH1 0x4 CALLDATALOAD PUSH1 0x0 MSTORE PUSH1 0x3 PUSH1 0x20 MSTORE PUSH1 0x40 PUSH1 0x0 KECCAK256 DUP1 SLOAD PUSH2 0x720 PUSH1 0x1 DUP4 ADD SLOAD SWAP3 PUSH1 0x1 DUP1 PUSH1 0xA0 SHL SUB SWAP1 PUSH1 0xFF DUP3 PUSH1 0x2 DUP4 ADD SLOAD AND SWAP3 PUSH1 0x3 DUP4 ADD SLOAD AND PUSH1 0x4 DUP4 ADD SLOAD PUSH1 0x5 DUP5 ADD SLOAD PUSH1 0x6 DUP6 ADD SLOAD SWAP2 PUSH1 0x7 DUP7 ADD SLOAD SWAP4 PUSH2 0x11D9 PUSH1 0x9 PUSH1 0x8 DUP10 ADD SLOAD SWAP9 ADD PUSH2 0x1465 JUMP JUMPDEST SWAP8 PUSH1 0x40 MLOAD SWAP12 DUP13 SWAP12 DUP13 MSTORE PUSH1 0x20 DUP13 ADD MSTORE PUSH1 0x40 DUP12 ADD MSTORE PUSH1 0x60 DUP11 ADD MSTORE PUSH1 0x80 DUP10 ADD MSTORE PUSH1 0xA0 DUP9 ADD MSTORE PUSH1 0xC0 DUP8 ADD MSTORE DUP2 DUP2 AND ISZERO ISZERO PUSH1 0xE0 DUP8 ADD MSTORE PUSH1 0x8 SHR AND ISZERO ISZERO PUSH2 0x100 DUP6 ADD MSTORE PUSH2 0x120 DUP5 ADD MSTORE PUSH2 0x160 DUP1 PUSH2 0x140 DUP6 ADD MSTORE DUP4 ADD SWAP1 PUSH2 0x150B JUMP JUMPDEST CALLVALUE PUSH2 0x162 JUMPI PUSH1 0x20 DUP1 PUSH1 0x3 NOT CALLDATASIZE ADD SLT PUSH2 0x162 JUMPI PUSH1 0x4 CALLDATALOAD SWAP1 PUSH1 0x2 SLOAD PUSH1 0x0 NOT DUP2 ADD DUP2 DUP2 GT PUSH2 0x27D JUMPI PUSH2 0x125C SWAP1 PUSH2 0x1724 JUMP JUMPDEST SWAP3 PUSH1 0x0 SWAP3 PUSH1 0x1 SWAP1 DUP2 JUMPDEST DUP5 DUP2 LT PUSH2 0x12B4 JUMPI DUP7 DUP7 PUSH2 0x1277 DUP2 PUSH2 0x1724 JUMP JUMPDEST SWAP2 PUSH1 0x0 JUMPDEST DUP3 DUP2 LT PUSH2 0x1290 JUMPI PUSH1 0x40 MLOAD DUP1 PUSH2 0x720 DUP7 DUP3 PUSH2 0x132E JUMP JUMPDEST DUP1 PUSH2 0x129E PUSH2 0x12AF SWAP3 DUP5 PUSH2 0x1756 JUMP JUMPDEST MLOAD PUSH2 0x12A9 DUP3 DUP8 PUSH2 0x1756 JUMP JUMPDEST MSTORE PUSH2 0x1620 JUMP JUMPDEST PUSH2 0x127B JUMP JUMPDEST DUP1 PUSH1 0x0 MSTORE PUSH1 0x3 DUP3 MSTORE DUP4 DUP4 PUSH1 0x40 PUSH1 0x0 KECCAK256 ADD SLOAD EQ PUSH2 0x12D9 JUMPI JUMPDEST PUSH2 0x12D4 SWAP1 PUSH2 0x1620 JUMP JUMPDEST PUSH2 0x1265 JUMP JUMPDEST SWAP5 PUSH2 0x12EC DUP2 DUP8 PUSH2 0x12A9 PUSH2 0x12D4 SWAP5 DUP12 PUSH2 0x1756 JUMP JUMPDEST SWAP6 SWAP1 POP PUSH2 0x12CB JUMP JUMPDEST CALLVALUE PUSH2 0x162 JUMPI PUSH1 0x40 CALLDATASIZE PUSH1 0x3 NOT ADD SLT PUSH2 0x162 JUMPI PUSH1 0x20 SWAP1 PUSH1 0x4 CALLDATALOAD PUSH1 0x0 MSTORE PUSH1 0x6 DUP3 MSTORE PUSH1 0x40 PUSH1 0x0 KECCAK256 PUSH1 0x24 CALLDATALOAD PUSH1 0x0 MSTORE DUP3 MSTORE PUSH1 0xFF PUSH1 0x40 PUSH1 0x0 KECCAK256 SLOAD AND ISZERO ISZERO DUP2 MSTORE RETURN JUMPDEST PUSH1 0x20 SWAP1 DUP2 PUSH1 0x40 DUP2 DUP4 ADD SWAP3 DUP3 DUP2 MSTORE DUP6 MLOAD DUP1 SWAP5 MSTORE ADD SWAP4 ADD SWAP2 PUSH1 0x0 JUMPDEST DUP3 DUP2 LT PUSH2 0x1355 JUMPI POP POP POP POP SWAP1 JUMP JUMPDEST DUP4 MLOAD DUP6 MSTORE SWAP4 DUP2 ADD SWAP4 SWAP3 DUP2 ADD SWAP3 PUSH1 0x1 ADD PUSH2 0x1347 JUMP JUMPDEST PUSH2 0x160 DUP2 ADD SWAP1 DUP2 LT PUSH1 0x1 PUSH1 0x1 PUSH1 0x40 SHL SUB DUP3 GT OR PUSH2 0xDAC JUMPI PUSH1 0x40 MSTORE JUMP JUMPDEST SWAP1 PUSH1 0x1F DUP1 NOT SWAP2 ADD AND DUP2 ADD SWAP1 DUP2 LT PUSH1 0x1 PUSH1 0x1 PUSH1 0x40 SHL SUB DUP3 GT OR PUSH2 0xDAC JUMPI PUSH1 0x40 MSTORE JUMP JUMPDEST PUSH1 0x1 PUSH1 0x1 PUSH1 0x40 SHL SUB DUP2 GT PUSH2 0xDAC JUMPI PUSH1 0x1F ADD PUSH1 0x1F NOT AND PUSH1 0x20 ADD SWAP1 JUMP JUMPDEST DUP2 PUSH1 0x1F DUP3 ADD SLT ISZERO PUSH2 0x162 JUMPI DUP1 CALLDATALOAD SWAP1 PUSH2 0x13D8 DUP3 PUSH2 0x13A6 JUMP JUMPDEST SWAP3 PUSH2 0x13E6 PUSH1 0x40 MLOAD SWAP5 DUP6 PUSH2 0x1385 JUMP JUMPDEST DUP3 DUP5 MSTORE PUSH1 0x20 DUP4 DUP4 ADD ADD GT PUSH2 0x162 JUMPI DUP2 PUSH1 0x0 SWAP3 PUSH1 0x20 DUP1 SWAP4 ADD DUP4 DUP7 ADD CALLDATACOPY DUP4 ADD ADD MSTORE SWAP1 JUMP JUMPDEST PUSH1 0x0 JUMPDEST DUP4 DUP2 LT PUSH2 0x141B JUMPI POP POP PUSH1 0x0 SWAP2 ADD MSTORE JUMP JUMPDEST DUP2 DUP2 ADD MLOAD DUP4 DUP3 ADD MSTORE PUSH1 0x20 ADD PUSH2 0x140B JUMP JUMPDEST SWAP1 PUSH1 0x1 DUP3 DUP2 SHR SWAP3 AND DUP1 ISZERO PUSH2 0x145B JUMPI JUMPDEST PUSH1 0x20 DUP4 LT EQ PUSH2 0x1445 JUMPI JUMP JUMPDEST PUSH4 0x4E487B71 PUSH1 0xE0 SHL PUSH1 0x0 MSTORE PUSH1 0x22 PUSH1 0x4 MSTORE PUSH1 0x24 PUSH1 0x0 REVERT JUMPDEST SWAP2 PUSH1 0x7F AND SWAP2 PUSH2 0x143A JUMP JUMPDEST SWAP1 PUSH1 0x40 MLOAD SWAP2 DUP3 PUSH1 0x0 DUP3 SLOAD SWAP3 PUSH2 0x1479 DUP5 PUSH2 0x142B JUMP JUMPDEST SWAP1 DUP2 DUP5 MSTORE PUSH1 0x1 SWAP5 DUP6 DUP2 AND SWAP1 DUP2 PUSH1 0x0 EQ PUSH2 0x14E8 JUMPI POP PUSH1 0x1 EQ PUSH2 0x14A5 JUMPI JUMPDEST POP POP PUSH2 0x14A3 SWAP3 POP SUB DUP4 PUSH2 0x1385 JUMP JUMPDEST JUMP JUMPDEST SWAP1 SWAP4 SWAP2 POP PUSH1 0x0 MSTORE PUSH1 0x20 SWAP1 DUP2 PUSH1 0x0 KECCAK256 SWAP4 PUSH1 0x0 SWAP2 JUMPDEST DUP2 DUP4 LT PUSH2 0x14D0 JUMPI POP POP PUSH2 0x14A3 SWAP4 POP DUP3 ADD ADD CODESIZE DUP1 PUSH2 0x1495 JUMP JUMPDEST DUP6 SLOAD DUP9 DUP5 ADD DUP6 ADD MSTORE SWAP5 DUP6 ADD SWAP5 DUP8 SWAP5 POP SWAP2 DUP4 ADD SWAP2 PUSH2 0x14B8 JUMP JUMPDEST SWAP2 POP POP PUSH2 0x14A3 SWAP5 POP PUSH1 0x20 SWAP3 POP PUSH1 0xFF NOT AND DUP3 DUP5 ADD MSTORE ISZERO ISZERO PUSH1 0x5 SHL DUP3 ADD ADD CODESIZE DUP1 PUSH2 0x1495 JUMP JUMPDEST SWAP1 PUSH1 0x20 SWAP2 PUSH2 0x1524 DUP2 MLOAD DUP1 SWAP3 DUP2 DUP6 MSTORE DUP6 DUP1 DUP7 ADD SWAP2 ADD PUSH2 0x1408 JUMP JUMPDEST PUSH1 0x1F ADD PUSH1 0x1F NOT AND ADD ADD SWAP1 JUMP JUMPDEST PUSH1 0x4 CALLDATALOAD SWAP1 PUSH1 0x1 PUSH1 0x1 PUSH1 0xA0 SHL SUB DUP3 AND DUP3 SUB PUSH2 0x162 JUMPI JUMP JUMPDEST DUP1 SLOAD DUP3 LT ISZERO PUSH2 0x155E JUMPI PUSH1 0x0 MSTORE PUSH1 0x20 PUSH1 0x0 KECCAK256 ADD SWAP1 PUSH1 0x0 SWAP1 JUMP JUMPDEST PUSH4 0x4E487B71 PUSH1 0xE0 SHL PUSH1 0x0 MSTORE PUSH1 0x32 PUSH1 0x4 MSTORE PUSH1 0x24 PUSH1 0x0 REVERT JUMPDEST CALLVALUE PUSH2 0x162 JUMPI PUSH1 0x60 CALLDATASIZE PUSH1 0x3 NOT ADD SLT PUSH2 0x162 JUMPI PUSH1 0x20 PUSH2 0x1598 PUSH1 0x44 CALLDATALOAD PUSH1 0x24 CALLDATALOAD PUSH1 0x4 CALLDATALOAD PUSH2 0x16AE JUMP JUMPDEST PUSH1 0x40 MLOAD SWAP1 ISZERO ISZERO DUP2 MSTORE RETURN JUMPDEST PUSH1 0x1 SLOAD PUSH1 0x1 PUSH1 0x1 PUSH1 0xA0 SHL SUB AND CALLER SUB PUSH2 0x15B6 JUMPI JUMP JUMPDEST PUSH1 0x40 MLOAD PUSH4 0x118CDAA7 PUSH1 0xE0 SHL DUP2 MSTORE CALLER PUSH1 0x4 DUP3 ADD MSTORE PUSH1 0x24 SWAP1 REVERT JUMPDEST SWAP2 SWAP1 DUP3 SUB SWAP2 DUP3 GT PUSH2 0x27D JUMPI JUMP JUMPDEST DUP2 PUSH1 0x1F DUP3 ADD SLT ISZERO PUSH2 0x162 JUMPI DUP1 MLOAD PUSH2 0x15F1 DUP2 PUSH2 0x13A6 JUMP JUMPDEST SWAP3 PUSH2 0x15FF PUSH1 0x40 MLOAD SWAP5 DUP6 PUSH2 0x1385 JUMP JUMPDEST DUP2 DUP5 MSTORE PUSH1 0x20 DUP3 DUP5 ADD ADD GT PUSH2 0x162 JUMPI PUSH2 0x161D SWAP2 PUSH1 0x20 DUP1 DUP6 ADD SWAP2 ADD PUSH2 0x1408 JUMP JUMPDEST SWAP1 JUMP JUMPDEST PUSH1 0x0 NOT DUP2 EQ PUSH2 0x27D JUMPI PUSH1 0x1 ADD SWAP1 JUMP JUMPDEST DUP1 SLOAD PUSH9 0x10000000000000000 DUP2 LT ISZERO PUSH2 0xDAC JUMPI PUSH2 0x1651 SWAP2 PUSH1 0x1 DUP3 ADD DUP2 SSTORE PUSH2 0x1546 JUMP JUMPDEST DUP2 SWAP3 SWAP2 SLOAD SWAP1 PUSH1 0x3 SHL SWAP2 DUP3 SHL SWAP2 PUSH1 0x0 NOT SWAP1 SHL NOT AND OR SWAP1 SSTORE JUMP JUMPDEST ISZERO PUSH2 0x1670 JUMPI JUMP JUMPDEST PUSH1 0x40 MLOAD PUSH3 0x461BCD PUSH1 0xE5 SHL DUP2 MSTORE PUSH1 0x20 PUSH1 0x4 DUP3 ADD MSTORE PUSH1 0x16 PUSH1 0x24 DUP3 ADD MSTORE PUSH22 0x109BDBDADA5B99C8191BD95CC81B9BDD08195E1A5CDD PUSH1 0x52 SHL PUSH1 0x44 DUP3 ADD MSTORE PUSH1 0x64 SWAP1 REVERT JUMPDEST SWAP1 JUMPDEST DUP3 DUP2 LT PUSH2 0x16BF JUMPI POP POP POP PUSH1 0x1 SWAP1 JUMP JUMPDEST PUSH1 0x0 DUP3 DUP2 MSTORE PUSH1 0xFF PUSH1 0x20 PUSH1 0x6 DUP2 MSTORE PUSH1 0x40 SWAP1 DUP2 DUP5 KECCAK256 SWAP1 DUP6 DUP6 MSTORE MSTORE DUP3 KECCAK256 SLOAD AND PUSH2 0x1706 JUMPI PUSH3 0x15180 DUP3 ADD DUP1 SWAP3 GT PUSH2 0x16F2 JUMPI POP PUSH2 0x16B0 JUMP JUMPDEST PUSH4 0x4E487B71 PUSH1 0xE0 SHL DUP2 MSTORE PUSH1 0x11 PUSH1 0x4 MSTORE PUSH1 0x24 SWAP1 REVERT JUMPDEST SWAP3 POP POP POP SWAP1 JUMP JUMPDEST PUSH1 0x1 PUSH1 0x1 PUSH1 0x40 SHL SUB DUP2 GT PUSH2 0xDAC JUMPI PUSH1 0x5 SHL PUSH1 0x20 ADD SWAP1 JUMP JUMPDEST SWAP1 PUSH2 0x172E DUP3 PUSH2 0x170D JUMP JUMPDEST PUSH2 0x173B PUSH1 0x40 MLOAD SWAP2 DUP3 PUSH2 0x1385 JUMP JUMPDEST DUP3 DUP2 MSTORE DUP1 SWAP3 PUSH2 0x174C PUSH1 0x1F NOT SWAP2 PUSH2 0x170D JUMP JUMPDEST ADD SWAP1 PUSH1 0x20 CALLDATASIZE SWAP2 ADD CALLDATACOPY JUMP JUMPDEST DUP1 MLOAD DUP3 LT ISZERO PUSH2 0x155E JUMPI PUSH1 0x20 SWAP2 PUSH1 0x5 SHL ADD ADD SWAP1 JUMP INVALID LOG2 PUSH5 0x6970667358 0x22 SLT KECCAK256 0xDC CREATE2 DELEGATECALL 0xB4 0x2F 0x5D 0xF7 0x5C 0xF7 EXTCODESIZE 0xD6 DUP12 0xEB 0x4B 0xB4 SGT 0xD9 SWAP12 EXTCODEHASH CALL SWAP6 0x21 0xDC PUSH20 0x1A9E92D269A6D02D64736F6C6343000814003300 "},"methodIdentifiers":{"bookings(uint256)":"1dab301e","cancelBooking(uint256,string)":"d27d559f","confirmBooking(uint256)":"54056b69","createBooking(uint256,uint256,uint256,string)":"22eb77ee","getBooking(uint256)":"6a5c841a","getBookingByPaymentReference(string)":"fe909cac","getBookingsCount()":"d8012a2a","getGuestBookings(address)":"63809aef","getHostBookings(address)":"405505b1","getPropertyBookings(uint256)":"097b6be3","guestBookings(address,uint256)":"a41cfa69","hostBookings(address,uint256)":"f91f859a","isDateRangeAvailable(uint256,uint256,uint256)":"a93db7d0","isPropertyAvailable(uint256,uint256,uint256)":"e834016e","nextBookingId()":"26f20c79","owner()":"8da5cb5b","paymentReferenceToBooking(string)":"0f867798","propertyDateBooked(uint256,uint256)":"0642f89e","propertyHosting()":"794239cc","renounceOwnership()":"715018a6","transferOwnership(address)":"f2fde38b"}}}}}