{"contracts/WorldBNBStaking.sol":{"WorldBNBStaking":{"abi":[{"inputs":[],"stateMutability":"nonpayable","type":"constructor"},{"inputs":[{"internalType":"address","name":"owner","type":"address"}],"name":"OwnableInvalidOwner","type":"error"},{"inputs":[{"internalType":"address","name":"account","type":"address"}],"name":"OwnableUnauthorizedAccount","type":"error"},{"inputs":[],"name":"ReentrancyGuardReentrantCall","type":"error"},{"anonymous":false,"inputs":[{"indexed":true,"internalType":"address","name":"previousOwner","type":"address"},{"indexed":true,"internalType":"address","name":"newOwner","type":"address"}],"name":"OwnershipTransferred","type":"event"},{"anonymous":false,"inputs":[{"indexed":true,"internalType":"address","name":"user","type":"address"},{"indexed":false,"internalType":"uint256","name":"amount","type":"uint256"},{"indexed":false,"internalType":"string","name":"reason","type":"string"}],"name":"StakeSlashed","type":"event"},{"anonymous":false,"inputs":[{"indexed":true,"internalType":"address","name":"user","type":"address"},{"indexed":false,"internalType":"uint256","name":"amount","type":"uint256"}],"name":"UserStaked","type":"event"},{"anonymous":false,"inputs":[{"indexed":true,"internalType":"address","name":"user","type":"address"},{"indexed":false,"internalType":"uint256","name":"amount","type":"uint256"}],"name":"UserUnstaked","type":"event"},{"inputs":[{"internalType":"address","name":"user","type":"address"}],"name":"getUserStake","outputs":[{"internalType":"uint256","name":"","type":"uint256"}],"stateMutability":"view","type":"function"},{"inputs":[{"internalType":"address","name":"","type":"address"}],"name":"isStaked","outputs":[{"internalType":"bool","name":"","type":"bool"}],"stateMutability":"view","type":"function"},{"inputs":[{"internalType":"address","name":"user","type":"address"}],"name":"isUserStaked","outputs":[{"internalType":"bool","name":"","type":"bool"}],"stateMutability":"view","type":"function"},{"inputs":[],"name":"owner","outputs":[{"internalType":"address","name":"","type":"address"}],"stateMutability":"view","type":"function"},{"inputs":[],"name":"renounceOwnership","outputs":[],"stateMutability":"nonpayable","type":"function"},{"inputs":[],"name":"requiredStake","outputs":[{"internalType":"uint256","name":"","type":"uint256"}],"stateMutability":"view","type":"function"},{"inputs":[{"internalType":"uint256","name":"_stake","type":"uint256"}],"name":"setRequiredStake","outputs":[],"stateMutability":"nonpayable","type":"function"},{"inputs":[{"internalType":"address","name":"user","type":"address"},{"internalType":"uint256","name":"amount","type":"uint256"},{"internalType":"string","name":"reason","type":"string"}],"name":"slashStake","outputs":[],"stateMutability":"nonpayable","type":"function"},{"inputs":[{"internalType":"address","name":"","type":"address"}],"name":"slashedAmounts","outputs":[{"internalType":"uint256","name":"","type":"uint256"}],"stateMutability":"view","type":"function"},{"inputs":[],"name":"stake","outputs":[],"stateMutability":"payable","type":"function"},{"inputs":[],"name":"totalSlashed","outputs":[{"internalType":"uint256","name":"","type":"uint256"}],"stateMutability":"view","type":"function"},{"inputs":[],"name":"totalStakes","outputs":[{"internalType":"uint256","name":"","type":"uint256"}],"stateMutability":"view","type":"function"},{"inputs":[{"internalType":"address","name":"newOwner","type":"address"}],"name":"transferOwnership","outputs":[],"stateMutability":"nonpayable","type":"function"},{"inputs":[],"name":"unstake","outputs":[],"stateMutability":"nonpayable","type":"function"},{"inputs":[{"internalType":"address","name":"","type":"address"}],"name":"userStakes","outputs":[{"internalType":"uint256","name":"","type":"uint256"}],"stateMutability":"view","type":"function"},{"inputs":[],"name":"withdrawSlashedFunds","outputs":[],"stateMutability":"nonpayable","type":"function"}],"evm":{"bytecode":{"linkReferences":{},"object":"6080806040523461008b57600160005533156100755760018054336001600160a01b03198216811790925560405191906001600160a01b03167f8be0079c531659141344cd1fd0a4f28419497f9722a3daafe3b4186f6b6457e0600080a367016345785d8a00006002556108e090816100918239f35b631e4fbdf760e01b815260006004820152602490fd5b600080fdfe6040608081526004908136101561001557600080fd5b600091823560e01c8063080da133146107805780630cedba7b1461054957806319cb355d1461052a5780632def6620146103fe5780633a4b66f1146102fc5780634409aa53146102c45780636177fd18146101e0578063715018a6146102645780638da5cb5b1461023b5780638da7ad2314610186578063a201bbdd1461021c578063a44c341a146101e0578063af9cb9f6146101be578063bbadc93a14610186578063bf9befb1146101635763f2fde38b146100d157600080fd5b3461015f57602036600319011261015f576100ea610810565b906100f361082b565b6001600160a01b03918216928315610149575050600154826bffffffffffffffffffffffff60a01b821617600155167f8be0079c531659141344cd1fd0a4f28419497f9722a3daafe3b4186f6b6457e08380a380f35b51631e4fbdf760e01b8152908101849052602490fd5b8280fd5b5050346101825781600319360112610182576020906005549051908152f35b5080fd5b5050346101825760203660031901126101825760209181906001600160a01b036101ae610810565b1681526003845220549051908152f35b838234610182576020366003190112610182576101d961082b565b3560025580f35b503461015f57602036600319011261015f5760209260ff918391906001600160a01b0361020b610810565b168252855220541690519015158152f35b5050346101825781600319360112610182576020906007549051908152f35b50503461018257816003193601126101825760015490516001600160a01b039091168152602090f35b83346102c157806003193601126102c15761027d61082b565b600180546001600160a01b0319811690915581906001600160a01b03167f8be0079c531659141344cd1fd0a4f28419497f9722a3daafe3b4186f6b6457e08280a380f35b80fd5b5050346101825760203660031901126101825760209181906001600160a01b036102ec610810565b1681526006845220549051908152f35b508260031936011261015f5761031061087a565b60025434106103bc573383528060205260ff82842054166103895733835260036020523482842055602052808220600160ff1982541617905561035534600554610857565b600555513481527f8c265adcfa641899d6632b86254dda7a76f27701f1d21a732621d51f2328c46060203392a26001815580f35b6020606492519162461bcd60e51b8352820152600e60248201526d105b1c9958591e481cdd185ad95960921b6044820152fd5b6020606492519162461bcd60e51b8352820152601960248201527f496e73756666696369656e74207374616b6520616d6f756e74000000000000006044820152fd5b503461015f578260031936011261015f5761041761087a565b338352602081815260ff8385205416156104fd573384526003815282842054156104c65733845260038152828420918483549355815282842060ff1981541690556104648260055461089d565b60055583808380156104bc575b8280929181923390f1156104b0577f668647a3bf871c3ff8779af5157eda0c0d6de3f7af4a3468d3ecc571fc413adb9192519283523392a26001815580f35b505051903d90823e3d90fd5b6108fc9150610471565b606492519162461bcd60e51b835282015260146024820152734e6f207374616b6520746f20776974686472617760601b6044820152fd5b606492519162461bcd60e51b8352820152600a602482015269139bdd081cdd185ad95960b21b6044820152fd5b5050346101825781600319360112610182576020906002549051908152f35b508290346101825760608060031936011261015f57610566610810565b9160249485359360443567ffffffffffffffff9384821161077c573660238301121561077c57818101359285841161076a57845192601f199687603f81601f89011601168501908582109082111761075857908a9b9a918752858552368b878301011161018257858b9660209788930183880137850101526105e661082b565b6001600160a01b0316808a52818452848a205490989060ff161561072457888a526003845287858b2054106106e257508789526003835283892061062b88825461089d565b905587895260068352838920610642888254610857565b905561065087600754610857565b6007558789526003835283892054156106cf575b508251958652828287015280518093870152875b8381106106bc57505050928291601f858884967fc32d81504c00ce92eaeed0852b187e372b250d24935ca5a510426adbd42cc257988601015201168101030190a280f35b8181018301518782018701528201610678565b8252828820805460ff1916905588610664565b845162461bcd60e51b8152918201849052601b908201527f496e73756666696369656e74207374616b6520746f20736c61736800000000006044820152606490fd5b845162461bcd60e51b8152918201849052600f908201526e155cd95c881b9bdd081cdd185ad959608a1b6044820152606490fd5b634e487b7160e01b8b52604184528b8bfd5b634e487b7160e01b8952604182528989fd5b8780fd5b503461015f578260031936011261015f5761079961082b565b6007549081156107cd575082808080938160075560018060a01b036001541682f1156107c3575080f35b51903d90823e3d90fd5b606490602084519162461bcd60e51b8352820152601c60248201527f4e6f20736c61736865642066756e647320746f207769746864726177000000006044820152fd5b600435906001600160a01b038216820361082657565b600080fd5b6001546001600160a01b0316330361083f57565b60405163118cdaa760e01b8152336004820152602490fd5b9190820180921161086457565b634e487b7160e01b600052601160045260246000fd5b60026000541461088b576002600055565b604051633ee5aeb560e01b8152600490fd5b919082039182116108645756fea26469706673582212205fbc82c0ea7a51ea59fa56551833f1636567edfeb3e891b227ff4ccfb7fad01364736f6c63430008140033","opcodes":"PUSH1 0x80 DUP1 PUSH1 0x40 MSTORE CALLVALUE PUSH2 0x8B JUMPI PUSH1 0x1 PUSH1 0x0 SSTORE CALLER ISZERO PUSH2 0x75 JUMPI PUSH1 0x1 DUP1 SLOAD CALLER PUSH1 0x1 PUSH1 0x1 PUSH1 0xA0 SHL SUB NOT DUP3 AND DUP2 OR SWAP1 SWAP3 SSTORE PUSH1 0x40 MLOAD SWAP2 SWAP1 PUSH1 0x1 PUSH1 0x1 PUSH1 0xA0 SHL SUB AND PUSH32 0x8BE0079C531659141344CD1FD0A4F28419497F9722A3DAAFE3B4186F6B6457E0 PUSH1 0x0 DUP1 LOG3 PUSH8 0x16345785D8A0000 PUSH1 0x2 SSTORE PUSH2 0x8E0 SWAP1 DUP2 PUSH2 0x91 DUP3 CODECOPY RETURN JUMPDEST PUSH4 0x1E4FBDF7 PUSH1 0xE0 SHL DUP2 MSTORE PUSH1 0x0 PUSH1 0x4 DUP3 ADD MSTORE PUSH1 0x24 SWAP1 REVERT JUMPDEST PUSH1 0x0 DUP1 REVERT INVALID PUSH1 0x40 PUSH1 0x80 DUP2 MSTORE PUSH1 0x4 SWAP1 DUP2 CALLDATASIZE LT ISZERO PUSH2 0x15 JUMPI PUSH1 0x0 DUP1 REVERT JUMPDEST PUSH1 0x0 SWAP2 DUP3 CALLDATALOAD PUSH1 0xE0 SHR DUP1 PUSH4 0x80DA133 EQ PUSH2 0x780 JUMPI DUP1 PUSH4 0xCEDBA7B EQ PUSH2 0x549 JUMPI DUP1 PUSH4 0x19CB355D EQ PUSH2 0x52A JUMPI DUP1 PUSH4 0x2DEF6620 EQ PUSH2 0x3FE JUMPI DUP1 PUSH4 0x3A4B66F1 EQ PUSH2 0x2FC JUMPI DUP1 PUSH4 0x4409AA53 EQ PUSH2 0x2C4 JUMPI DUP1 PUSH4 0x6177FD18 EQ PUSH2 0x1E0 JUMPI DUP1 PUSH4 0x715018A6 EQ PUSH2 0x264 JUMPI DUP1 PUSH4 0x8DA5CB5B EQ PUSH2 0x23B JUMPI DUP1 PUSH4 0x8DA7AD23 EQ PUSH2 0x186 JUMPI DUP1 PUSH4 0xA201BBDD EQ PUSH2 0x21C JUMPI DUP1 PUSH4 0xA44C341A EQ PUSH2 0x1E0 JUMPI DUP1 PUSH4 0xAF9CB9F6 EQ PUSH2 0x1BE JUMPI DUP1 PUSH4 0xBBADC93A EQ PUSH2 0x186 JUMPI DUP1 PUSH4 0xBF9BEFB1 EQ PUSH2 0x163 JUMPI PUSH4 0xF2FDE38B EQ PUSH2 0xD1 JUMPI PUSH1 0x0 DUP1 REVERT JUMPDEST CALLVALUE PUSH2 0x15F JUMPI PUSH1 0x20 CALLDATASIZE PUSH1 0x3 NOT ADD SLT PUSH2 0x15F JUMPI PUSH2 0xEA PUSH2 0x810 JUMP JUMPDEST SWAP1 PUSH2 0xF3 PUSH2 0x82B JUMP JUMPDEST PUSH1 0x1 PUSH1 0x1 PUSH1 0xA0 SHL SUB SWAP2 DUP3 AND SWAP3 DUP4 ISZERO PUSH2 0x149 JUMPI POP POP PUSH1 0x1 SLOAD DUP3 PUSH12 0xFFFFFFFFFFFFFFFFFFFFFFFF PUSH1 0xA0 SHL DUP3 AND OR PUSH1 0x1 SSTORE AND PUSH32 0x8BE0079C531659141344CD1FD0A4F28419497F9722A3DAAFE3B4186F6B6457E0 DUP4 DUP1 LOG3 DUP1 RETURN JUMPDEST MLOAD PUSH4 0x1E4FBDF7 PUSH1 0xE0 SHL DUP2 MSTORE SWAP1 DUP2 ADD DUP5 SWAP1 MSTORE PUSH1 0x24 SWAP1 REVERT JUMPDEST DUP3 DUP1 REVERT JUMPDEST POP POP CALLVALUE PUSH2 0x182 JUMPI DUP2 PUSH1 0x3 NOT CALLDATASIZE ADD SLT PUSH2 0x182 JUMPI PUSH1 0x20 SWAP1 PUSH1 0x5 SLOAD SWAP1 MLOAD SWAP1 DUP2 MSTORE RETURN JUMPDEST POP DUP1 REVERT JUMPDEST POP POP CALLVALUE PUSH2 0x182 JUMPI PUSH1 0x20 CALLDATASIZE PUSH1 0x3 NOT ADD SLT PUSH2 0x182 JUMPI PUSH1 0x20 SWAP2 DUP2 SWAP1 PUSH1 0x1 PUSH1 0x1 PUSH1 0xA0 SHL SUB PUSH2 0x1AE PUSH2 0x810 JUMP JUMPDEST AND DUP2 MSTORE PUSH1 0x3 DUP5 MSTORE KECCAK256 SLOAD SWAP1 MLOAD SWAP1 DUP2 MSTORE RETURN JUMPDEST DUP4 DUP3 CALLVALUE PUSH2 0x182 JUMPI PUSH1 0x20 CALLDATASIZE PUSH1 0x3 NOT ADD SLT PUSH2 0x182 JUMPI PUSH2 0x1D9 PUSH2 0x82B JUMP JUMPDEST CALLDATALOAD PUSH1 0x2 SSTORE DUP1 RETURN JUMPDEST POP CALLVALUE PUSH2 0x15F JUMPI PUSH1 0x20 CALLDATASIZE PUSH1 0x3 NOT ADD SLT PUSH2 0x15F JUMPI PUSH1 0x20 SWAP3 PUSH1 0xFF SWAP2 DUP4 SWAP2 SWAP1 PUSH1 0x1 PUSH1 0x1 PUSH1 0xA0 SHL SUB PUSH2 0x20B PUSH2 0x810 JUMP JUMPDEST AND DUP3 MSTORE DUP6 MSTORE KECCAK256 SLOAD AND SWAP1 MLOAD SWAP1 ISZERO ISZERO DUP2 MSTORE RETURN JUMPDEST POP POP CALLVALUE PUSH2 0x182 JUMPI DUP2 PUSH1 0x3 NOT CALLDATASIZE ADD SLT PUSH2 0x182 JUMPI PUSH1 0x20 SWAP1 PUSH1 0x7 SLOAD SWAP1 MLOAD SWAP1 DUP2 MSTORE RETURN JUMPDEST POP POP CALLVALUE PUSH2 0x182 JUMPI DUP2 PUSH1 0x3 NOT CALLDATASIZE ADD SLT PUSH2 0x182 JUMPI PUSH1 0x1 SLOAD SWAP1 MLOAD PUSH1 0x1 PUSH1 0x1 PUSH1 0xA0 SHL SUB SWAP1 SWAP2 AND DUP2 MSTORE PUSH1 0x20 SWAP1 RETURN JUMPDEST DUP4 CALLVALUE PUSH2 0x2C1 JUMPI DUP1 PUSH1 0x3 NOT CALLDATASIZE ADD SLT PUSH2 0x2C1 JUMPI PUSH2 0x27D PUSH2 0x82B JUMP JUMPDEST PUSH1 0x1 DUP1 SLOAD PUSH1 0x1 PUSH1 0x1 PUSH1 0xA0 SHL SUB NOT DUP2 AND SWAP1 SWAP2 SSTORE DUP2 SWAP1 PUSH1 0x1 PUSH1 0x1 PUSH1 0xA0 SHL SUB AND PUSH32 0x8BE0079C531659141344CD1FD0A4F28419497F9722A3DAAFE3B4186F6B6457E0 DUP3 DUP1 LOG3 DUP1 RETURN JUMPDEST DUP1 REVERT JUMPDEST POP POP CALLVALUE PUSH2 0x182 JUMPI PUSH1 0x20 CALLDATASIZE PUSH1 0x3 NOT ADD SLT PUSH2 0x182 JUMPI PUSH1 0x20 SWAP2 DUP2 SWAP1 PUSH1 0x1 PUSH1 0x1 PUSH1 0xA0 SHL SUB PUSH2 0x2EC PUSH2 0x810 JUMP JUMPDEST AND DUP2 MSTORE PUSH1 0x6 DUP5 MSTORE KECCAK256 SLOAD SWAP1 MLOAD SWAP1 DUP2 MSTORE RETURN JUMPDEST POP DUP3 PUSH1 0x3 NOT CALLDATASIZE ADD SLT PUSH2 0x15F JUMPI PUSH2 0x310 PUSH2 0x87A JUMP JUMPDEST PUSH1 0x2 SLOAD CALLVALUE LT PUSH2 0x3BC JUMPI CALLER DUP4 MSTORE DUP1 PUSH1 0x20 MSTORE PUSH1 0xFF DUP3 DUP5 KECCAK256 SLOAD AND PUSH2 0x389 JUMPI CALLER DUP4 MSTORE PUSH1 0x3 PUSH1 0x20 MSTORE CALLVALUE DUP3 DUP5 KECCAK256 SSTORE PUSH1 0x20 MSTORE DUP1 DUP3 KECCAK256 PUSH1 0x1 PUSH1 0xFF NOT DUP3 SLOAD AND OR SWAP1 SSTORE PUSH2 0x355 CALLVALUE PUSH1 0x5 SLOAD PUSH2 0x857 JUMP JUMPDEST PUSH1 0x5 SSTORE MLOAD CALLVALUE DUP2 MSTORE PUSH32 0x8C265ADCFA641899D6632B86254DDA7A76F27701F1D21A732621D51F2328C460 PUSH1 0x20 CALLER SWAP3 LOG2 PUSH1 0x1 DUP2 SSTORE DUP1 RETURN JUMPDEST PUSH1 0x20 PUSH1 0x64 SWAP3 MLOAD SWAP2 PUSH3 0x461BCD PUSH1 0xE5 SHL DUP4 MSTORE DUP3 ADD MSTORE PUSH1 0xE PUSH1 0x24 DUP3 ADD MSTORE PUSH14 0x105B1C9958591E481CDD185AD959 PUSH1 0x92 SHL PUSH1 0x44 DUP3 ADD MSTORE REVERT JUMPDEST PUSH1 0x20 PUSH1 0x64 SWAP3 MLOAD SWAP2 PUSH3 0x461BCD PUSH1 0xE5 SHL DUP4 MSTORE DUP3 ADD MSTORE PUSH1 0x19 PUSH1 0x24 DUP3 ADD MSTORE PUSH32 0x496E73756666696369656E74207374616B6520616D6F756E7400000000000000 PUSH1 0x44 DUP3 ADD MSTORE REVERT JUMPDEST POP CALLVALUE PUSH2 0x15F JUMPI DUP3 PUSH1 0x3 NOT CALLDATASIZE ADD SLT PUSH2 0x15F JUMPI PUSH2 0x417 PUSH2 0x87A JUMP JUMPDEST CALLER DUP4 MSTORE PUSH1 0x20 DUP2 DUP2 MSTORE PUSH1 0xFF DUP4 DUP6 KECCAK256 SLOAD AND ISZERO PUSH2 0x4FD JUMPI CALLER DUP5 MSTORE PUSH1 0x3 DUP2 MSTORE DUP3 DUP5 KECCAK256 SLOAD ISZERO PUSH2 0x4C6 JUMPI CALLER DUP5 MSTORE PUSH1 0x3 DUP2 MSTORE DUP3 DUP5 KECCAK256 SWAP2 DUP5 DUP4 SLOAD SWAP4 SSTORE DUP2 MSTORE DUP3 DUP5 KECCAK256 PUSH1 0xFF NOT DUP2 SLOAD AND SWAP1 SSTORE PUSH2 0x464 DUP3 PUSH1 0x5 SLOAD PUSH2 0x89D JUMP JUMPDEST PUSH1 0x5 SSTORE DUP4 DUP1 DUP4 DUP1 ISZERO PUSH2 0x4BC JUMPI JUMPDEST DUP3 DUP1 SWAP3 SWAP2 DUP2 SWAP3 CALLER SWAP1 CALL ISZERO PUSH2 0x4B0 JUMPI PUSH32 0x668647A3BF871C3FF8779AF5157EDA0C0D6DE3F7AF4A3468D3ECC571FC413ADB SWAP2 SWAP3 MLOAD SWAP3 DUP4 MSTORE CALLER SWAP3 LOG2 PUSH1 0x1 DUP2 SSTORE DUP1 RETURN JUMPDEST POP POP MLOAD SWAP1 RETURNDATASIZE SWAP1 DUP3 RETURNDATACOPY RETURNDATASIZE SWAP1 REVERT JUMPDEST PUSH2 0x8FC SWAP2 POP PUSH2 0x471 JUMP JUMPDEST PUSH1 0x64 SWAP3 MLOAD SWAP2 PUSH3 0x461BCD PUSH1 0xE5 SHL DUP4 MSTORE DUP3 ADD MSTORE PUSH1 0x14 PUSH1 0x24 DUP3 ADD MSTORE PUSH20 0x4E6F207374616B6520746F207769746864726177 PUSH1 0x60 SHL PUSH1 0x44 DUP3 ADD MSTORE REVERT JUMPDEST PUSH1 0x64 SWAP3 MLOAD SWAP2 PUSH3 0x461BCD PUSH1 0xE5 SHL DUP4 MSTORE DUP3 ADD MSTORE PUSH1 0xA PUSH1 0x24 DUP3 ADD MSTORE PUSH10 0x139BDD081CDD185AD959 PUSH1 0xB2 SHL PUSH1 0x44 DUP3 ADD MSTORE REVERT JUMPDEST POP POP CALLVALUE PUSH2 0x182 JUMPI DUP2 PUSH1 0x3 NOT CALLDATASIZE ADD SLT PUSH2 0x182 JUMPI PUSH1 0x20 SWAP1 PUSH1 0x2 SLOAD SWAP1 MLOAD SWAP1 DUP2 MSTORE RETURN JUMPDEST POP DUP3 SWAP1 CALLVALUE PUSH2 0x182 JUMPI PUSH1 0x60 DUP1 PUSH1 0x3 NOT CALLDATASIZE ADD SLT PUSH2 0x15F JUMPI PUSH2 0x566 PUSH2 0x810 JUMP JUMPDEST SWAP2 PUSH1 0x24 SWAP5 DUP6 CALLDATALOAD SWAP4 PUSH1 0x44 CALLDATALOAD PUSH8 0xFFFFFFFFFFFFFFFF SWAP4 DUP5 DUP3 GT PUSH2 0x77C JUMPI CALLDATASIZE PUSH1 0x23 DUP4 ADD SLT ISZERO PUSH2 0x77C JUMPI DUP2 DUP2 ADD CALLDATALOAD SWAP3 DUP6 DUP5 GT PUSH2 0x76A JUMPI DUP5 MLOAD SWAP3 PUSH1 0x1F NOT SWAP7 DUP8 PUSH1 0x3F DUP2 PUSH1 0x1F DUP10 ADD AND ADD AND DUP6 ADD SWAP1 DUP6 DUP3 LT SWAP1 DUP3 GT OR PUSH2 0x758 JUMPI SWAP1 DUP11 SWAP12 SWAP11 SWAP2 DUP8 MSTORE DUP6 DUP6 MSTORE CALLDATASIZE DUP12 DUP8 DUP4 ADD ADD GT PUSH2 0x182 JUMPI DUP6 DUP12 SWAP7 PUSH1 0x20 SWAP8 DUP9 SWAP4 ADD DUP4 DUP9 ADD CALLDATACOPY DUP6 ADD ADD MSTORE PUSH2 0x5E6 PUSH2 0x82B JUMP JUMPDEST PUSH1 0x1 PUSH1 0x1 PUSH1 0xA0 SHL SUB AND DUP1 DUP11 MSTORE DUP2 DUP5 MSTORE DUP5 DUP11 KECCAK256 SLOAD SWAP1 SWAP9 SWAP1 PUSH1 0xFF AND ISZERO PUSH2 0x724 JUMPI DUP9 DUP11 MSTORE PUSH1 0x3 DUP5 MSTORE DUP8 DUP6 DUP12 KECCAK256 SLOAD LT PUSH2 0x6E2 JUMPI POP DUP8 DUP10 MSTORE PUSH1 0x3 DUP4 MSTORE DUP4 DUP10 KECCAK256 PUSH2 0x62B DUP9 DUP3 SLOAD PUSH2 0x89D JUMP JUMPDEST SWAP1 SSTORE DUP8 DUP10 MSTORE PUSH1 0x6 DUP4 MSTORE DUP4 DUP10 KECCAK256 PUSH2 0x642 DUP9 DUP3 SLOAD PUSH2 0x857 JUMP JUMPDEST SWAP1 SSTORE PUSH2 0x650 DUP8 PUSH1 0x7 SLOAD PUSH2 0x857 JUMP JUMPDEST PUSH1 0x7 SSTORE DUP8 DUP10 MSTORE PUSH1 0x3 DUP4 MSTORE DUP4 DUP10 KECCAK256 SLOAD ISZERO PUSH2 0x6CF JUMPI JUMPDEST POP DUP3 MLOAD SWAP6 DUP7 MSTORE DUP3 DUP3 DUP8 ADD MSTORE DUP1 MLOAD DUP1 SWAP4 DUP8 ADD MSTORE DUP8 JUMPDEST DUP4 DUP2 LT PUSH2 0x6BC JUMPI POP POP POP SWAP3 DUP3 SWAP2 PUSH1 0x1F DUP6 DUP9 DUP5 SWAP7 PUSH32 0xC32D81504C00CE92EAEED0852B187E372B250D24935CA5A510426ADBD42CC257 SWAP9 DUP7 ADD ADD MSTORE ADD AND DUP2 ADD SUB ADD SWAP1 LOG2 DUP1 RETURN JUMPDEST DUP2 DUP2 ADD DUP4 ADD MLOAD DUP8 DUP3 ADD DUP8 ADD MSTORE DUP3 ADD PUSH2 0x678 JUMP JUMPDEST DUP3 MSTORE DUP3 DUP9 KECCAK256 DUP1 SLOAD PUSH1 0xFF NOT AND SWAP1 SSTORE DUP9 PUSH2 0x664 JUMP JUMPDEST DUP5 MLOAD PUSH3 0x461BCD PUSH1 0xE5 SHL DUP2 MSTORE SWAP2 DUP3 ADD DUP5 SWAP1 MSTORE PUSH1 0x1B SWAP1 DUP3 ADD MSTORE PUSH32 0x496E73756666696369656E74207374616B6520746F20736C6173680000000000 PUSH1 0x44 DUP3 ADD MSTORE PUSH1 0x64 SWAP1 REVERT JUMPDEST DUP5 MLOAD PUSH3 0x461BCD PUSH1 0xE5 SHL DUP2 MSTORE SWAP2 DUP3 ADD DUP5 SWAP1 MSTORE PUSH1 0xF SWAP1 DUP3 ADD MSTORE PUSH15 0x155CD95C881B9BDD081CDD185AD959 PUSH1 0x8A SHL PUSH1 0x44 DUP3 ADD MSTORE PUSH1 0x64 SWAP1 REVERT JUMPDEST PUSH4 0x4E487B71 PUSH1 0xE0 SHL DUP12 MSTORE PUSH1 0x41 DUP5 MSTORE DUP12 DUP12 REVERT JUMPDEST PUSH4 0x4E487B71 PUSH1 0xE0 SHL DUP10 MSTORE PUSH1 0x41 DUP3 MSTORE DUP10 DUP10 REVERT JUMPDEST DUP8 DUP1 REVERT JUMPDEST POP CALLVALUE PUSH2 0x15F JUMPI DUP3 PUSH1 0x3 NOT CALLDATASIZE ADD SLT PUSH2 0x15F JUMPI PUSH2 0x799 PUSH2 0x82B JUMP JUMPDEST PUSH1 0x7 SLOAD SWAP1 DUP2 ISZERO PUSH2 0x7CD JUMPI POP DUP3 DUP1 DUP1 DUP1 SWAP4 DUP2 PUSH1 0x7 SSTORE PUSH1 0x1 DUP1 PUSH1 0xA0 SHL SUB PUSH1 0x1 SLOAD AND DUP3 CALL ISZERO PUSH2 0x7C3 JUMPI POP DUP1 RETURN JUMPDEST MLOAD SWAP1 RETURNDATASIZE SWAP1 DUP3 RETURNDATACOPY RETURNDATASIZE SWAP1 REVERT JUMPDEST PUSH1 0x64 SWAP1 PUSH1 0x20 DUP5 MLOAD SWAP2 PUSH3 0x461BCD PUSH1 0xE5 SHL DUP4 MSTORE DUP3 ADD MSTORE PUSH1 0x1C PUSH1 0x24 DUP3 ADD MSTORE PUSH32 0x4E6F20736C61736865642066756E647320746F20776974686472617700000000 PUSH1 0x44 DUP3 ADD MSTORE REVERT JUMPDEST PUSH1 0x4 CALLDATALOAD SWAP1 PUSH1 0x1 PUSH1 0x1 PUSH1 0xA0 SHL SUB DUP3 AND DUP3 SUB PUSH2 0x826 JUMPI JUMP JUMPDEST PUSH1 0x0 DUP1 REVERT JUMPDEST PUSH1 0x1 SLOAD PUSH1 0x1 PUSH1 0x1 PUSH1 0xA0 SHL SUB AND CALLER SUB PUSH2 0x83F JUMPI JUMP JUMPDEST PUSH1 0x40 MLOAD PUSH4 0x118CDAA7 PUSH1 0xE0 SHL DUP2 MSTORE CALLER PUSH1 0x4 DUP3 ADD MSTORE PUSH1 0x24 SWAP1 REVERT JUMPDEST SWAP2 SWAP1 DUP3 ADD DUP1 SWAP3 GT PUSH2 0x864 JUMPI JUMP JUMPDEST PUSH4 0x4E487B71 PUSH1 0xE0 SHL PUSH1 0x0 MSTORE PUSH1 0x11 PUSH1 0x4 MSTORE PUSH1 0x24 PUSH1 0x0 REVERT JUMPDEST PUSH1 0x2 PUSH1 0x0 SLOAD EQ PUSH2 0x88B JUMPI PUSH1 0x2 PUSH1 0x0 SSTORE JUMP JUMPDEST PUSH1 0x40 MLOAD PUSH4 0x3EE5AEB5 PUSH1 0xE0 SHL DUP2 MSTORE PUSH1 0x4 SWAP1 REVERT JUMPDEST SWAP2 SWAP1 DUP3 SUB SWAP2 DUP3 GT PUSH2 0x864 JUMPI JUMP INVALID LOG2 PUSH5 0x6970667358 0x22 SLT KECCAK256 PUSH0 0xBC DUP3 0xC0 0xEA PUSH27 0x51EA59FA56551833F1636567EDFEB3E891B227FF4CCFB7FAD01364 PUSH20 0x6F6C634300081400330000000000000000000000 "},"methodIdentifiers":{"getUserStake(address)":"bbadc93a","isStaked(address)":"6177fd18","isUserStaked(address)":"a44c341a","owner()":"8da5cb5b","renounceOwnership()":"715018a6","requiredStake()":"19cb355d","setRequiredStake(uint256)":"af9cb9f6","slashStake(address,uint256,string)":"0cedba7b","slashedAmounts(address)":"4409aa53","stake()":"3a4b66f1","totalSlashed()":"a201bbdd","totalStakes()":"bf9befb1","transferOwnership(address)":"f2fde38b","unstake()":"2def6620","userStakes(address)":"8da7ad23","withdrawSlashedFunds()":"080da133"}}}}}