{"contracts/DisputeResolution.sol":{"DisputeResolution":{"abi":[{"inputs":[{"internalType":"address","name":"_stakingContract","type":"address"}],"stateMutability":"nonpayable","type":"constructor"},{"inputs":[{"internalType":"address","name":"owner","type":"address"}],"name":"OwnableInvalidOwner","type":"error"},{"inputs":[{"internalType":"address","name":"account","type":"address"}],"name":"OwnableUnauthorizedAccount","type":"error"},{"inputs":[],"name":"ReentrancyGuardReentrantCall","type":"error"},{"anonymous":false,"inputs":[{"indexed":true,"internalType":"uint256","name":"disputeId","type":"uint256"}],"name":"DisputeCancelled","type":"event"},{"anonymous":false,"inputs":[{"indexed":true,"internalType":"uint256","name":"disputeId","type":"uint256"},{"indexed":true,"internalType":"uint256","name":"bookingId","type":"uint256"},{"indexed":true,"internalType":"address","name":"initiator","type":"address"}],"name":"DisputeCreated","type":"event"},{"anonymous":false,"inputs":[{"indexed":true,"internalType":"uint256","name":"disputeId","type":"uint256"},{"indexed":false,"internalType":"bool","name":"hostAtFault","type":"bool"},{"indexed":false,"internalType":"uint256","name":"slashedAmount","type":"uint256"}],"name":"DisputeResolved","type":"event"},{"anonymous":false,"inputs":[{"indexed":true,"internalType":"address","name":"previousOwner","type":"address"},{"indexed":true,"internalType":"address","name":"newOwner","type":"address"}],"name":"OwnershipTransferred","type":"event"},{"inputs":[{"internalType":"uint256","name":"","type":"uint256"}],"name":"bookingToDispute","outputs":[{"internalType":"uint256","name":"","type":"uint256"}],"stateMutability":"view","type":"function"},{"inputs":[{"internalType":"address","name":"_user","type":"address"},{"internalType":"bool","name":"_isGuest","type":"bool"}],"name":"canCreateDispute","outputs":[{"internalType":"bool","name":"","type":"bool"}],"stateMutability":"view","type":"function"},{"inputs":[{"internalType":"uint256","name":"_disputeId","type":"uint256"}],"name":"cancelDispute","outputs":[],"stateMutability":"nonpayable","type":"function"},{"inputs":[{"internalType":"uint256","name":"_bookingId","type":"uint256"},{"internalType":"bool","name":"_isGuestDispute","type":"bool"},{"internalType":"string","name":"_reason","type":"string"},{"internalType":"string","name":"_evidence","type":"string"}],"name":"createDispute","outputs":[],"stateMutability":"nonpayable","type":"function"},{"inputs":[{"internalType":"uint256","name":"","type":"uint256"}],"name":"disputes","outputs":[{"internalType":"uint256","name":"id","type":"uint256"},{"internalType":"uint256","name":"bookingId","type":"uint256"},{"internalType":"address","name":"initiator","type":"address"},{"internalType":"address","name":"otherParty","type":"address"},{"internalType":"enum DisputeResolution.DisputeType","name":"disputeType","type":"uint8"},{"internalType":"string","name":"reason","type":"string"},{"internalType":"string","name":"evidence","type":"string"},{"internalType":"enum DisputeResolution.DisputeStatus","name":"status","type":"uint8"},{"internalType":"address","name":"arbitrator","type":"address"},{"internalType":"uint256","name":"createdAt","type":"uint256"},{"internalType":"uint256","name":"resolvedAt","type":"uint256"},{"internalType":"bool","name":"hostAtFault","type":"bool"},{"internalType":"uint256","name":"slashedAmount","type":"uint256"}],"stateMutability":"view","type":"function"},{"inputs":[{"internalType":"uint256","name":"_bookingId","type":"uint256"}],"name":"getBookingDispute","outputs":[{"internalType":"uint256","name":"","type":"uint256"}],"stateMutability":"view","type":"function"},{"inputs":[{"internalType":"uint256","name":"_disputeId","type":"uint256"}],"name":"getDispute","outputs":[{"components":[{"internalType":"uint256","name":"id","type":"uint256"},{"internalType":"uint256","name":"bookingId","type":"uint256"},{"internalType":"address","name":"initiator","type":"address"},{"internalType":"address","name":"otherParty","type":"address"},{"internalType":"enum DisputeResolution.DisputeType","name":"disputeType","type":"uint8"},{"internalType":"string","name":"reason","type":"string"},{"internalType":"string","name":"evidence","type":"string"},{"internalType":"enum DisputeResolution.DisputeStatus","name":"status","type":"uint8"},{"internalType":"address","name":"arbitrator","type":"address"},{"internalType":"uint256","name":"createdAt","type":"uint256"},{"internalType":"uint256","name":"resolvedAt","type":"uint256"},{"internalType":"bool","name":"hostAtFault","type":"bool"},{"internalType":"uint256","name":"slashedAmount","type":"uint256"}],"internalType":"struct DisputeResolution.Dispute","name":"","type":"tuple"}],"stateMutability":"view","type":"function"},{"inputs":[],"name":"getDisputesCount","outputs":[{"internalType":"uint256","name":"","type":"uint256"}],"stateMutability":"view","type":"function"},{"inputs":[{"internalType":"address","name":"_user","type":"address"}],"name":"getUserDisputes","outputs":[{"internalType":"uint256[]","name":"","type":"uint256[]"}],"stateMutability":"view","type":"function"},{"inputs":[],"name":"nextDisputeId","outputs":[{"internalType":"uint256","name":"","type":"uint256"}],"stateMutability":"view","type":"function"},{"inputs":[],"name":"owner","outputs":[{"internalType":"address","name":"","type":"address"}],"stateMutability":"view","type":"function"},{"inputs":[],"name":"renounceOwnership","outputs":[],"stateMutability":"nonpayable","type":"function"},{"inputs":[{"internalType":"uint256","name":"_disputeId","type":"uint256"},{"internalType":"bool","name":"_hostAtFault","type":"bool"},{"internalType":"string","name":"_resolution","type":"string"}],"name":"resolveDispute","outputs":[],"stateMutability":"nonpayable","type":"function"},{"inputs":[],"name":"stakingContract","outputs":[{"internalType":"contract WorldBNBStaking","name":"","type":"address"}],"stateMutability":"view","type":"function"},{"inputs":[{"internalType":"address","name":"newOwner","type":"address"}],"name":"transferOwnership","outputs":[],"stateMutability":"nonpayable","type":"function"},{"inputs":[{"internalType":"address","name":"","type":"address"},{"internalType":"uint256","name":"","type":"uint256"}],"name":"userDisputes","outputs":[{"internalType":"uint256","name":"","type":"uint256"}],"stateMutability":"view","type":"function"}],"evm":{"bytecode":{"linkReferences":{},"object":"6080346100d257601f6114c138819003918201601f19168301916001600160401b038311848410176100d7578084926020946040528339810103126100d257516001600160a01b0390818116908190036100d257600160005533156100b95760018054336001600160a01b03198083168217909355604051949091167f8be0079c531659141344cd1fd0a4f28419497f9722a3daafe3b4186f6b6457e0600080a3600160025560065416176006556113d390816100ee8239f35b604051631e4fbdf760e01b815260006004820152602490fd5b600080fd5b634e487b7160e01b600052604160045260246000fdfe608080604052600436101561001357600080fd5b600090813560e01c9081630db3993414610f8c575080632840662d14610d305780633dc0415914610cda5780634897e98714610b15578063564a565d14610bd457806364d501eb14610b9d578063715018a614610b3f57806386725fe914610b155780638da5cb5b14610aec5780639c63558a14610aac578063ad3304191461055a578063bfb0a55b146104a8578063df02935c146103cd578063e3a96cbd1461018c578063ee99205c146101635763f2fde38b146100d157600080fd5b34610160576020366003190112610160576100ea61107c565b6100f2611210565b6001600160a01b0390811690811561014757600154826bffffffffffffffffffffffff60a01b821617600155167f8be0079c531659141344cd1fd0a4f28419497f9722a3daafe3b4186f6b6457e0600080a380f35b604051631e4fbdf760e01b815260048101849052602490fd5b80fd5b50346101605780600319360112610160576006546040516001600160a01b039091168152602090f35b503461016057602036600319011261016057806101806040516101ae81610fe6565b828152826020820152826040820152826060820152826080820152606060a0820152606060c08201528260e082015282610100820152826101208201528261014082015282610160820152015260043581526003602052604081206040519061021682610fe6565b80548252600181015460208301526002808201546001600160a01b0390811660408501526003830154908116606085015260a01c60ff16908110156103b9576080830152610266600482016110fa565b60a0830152610277600582016110fa565b60c08301526006810154600360ff821610156103b957908160ff600a931660e085015260018060a01b039060081c166101008401526007810154610120840152600881015461014084015260ff60098201541615156101608401520154610180820152604051809160208252805160208301526020810151604083015260018060a01b03604082015116606083015260018060a01b03606082015116608083015261032a608082015160a08401906111a0565b60a081015161018061036361034d6101a0938460c08801526101c08701906111c3565b60c0850151868203601f190160e08801526111c3565b9261037760e0820151610100870190611203565b60018060a01b03610100820151166101208601526101208101516101408601526101408101516101608601526101608101511515828601520151908301520390f35b634e487b7160e01b84526021600452602484fd5b50346101605760203660031901126101605760043580825260036020526040822060028101546001600160a01b0316330361046357600601805460ff8116600381101561044f5790610421600292156112ae565b60ff19161790557f7fe0314ddd8432eac273e729cc289f5a8f8a7860761b74472f4782fbaccd2c5f8280a280f35b634e487b7160e01b85526021600452602485fd5b60405162461bcd60e51b815260206004820152601960248201527f4f6e6c7920696e69746961746f722063616e2063616e63656c000000000000006044820152606490fd5b503461016057602080600319360112610556576001600160a01b036104cb61107c565b168252600581526040822060405192838383549182815201908193835284832090835b8181106105425750505084610504910385611003565b60405193838594850191818652518092526040850193925b82811061052b57505050500390f35b83518552869550938101939281019260010161051c565b8254845292860192600192830192016104ee565b5080fd5b503461016057608036600319011261016057610574610fa8565b9060443567ffffffffffffffff811161055657610595903690600401611025565b60643567ffffffffffffffff8111610aa8576105b5903690600401611025565b9260029182845414610a9657828455600435845260046020526040842054610a415781156109f8576006546040516352261a0d60e11b815233600482015290602090829060249082906001600160a01b03165afa9081156109ed57906106229186916109be575b50611254565b82549260001984146109aa57600184018155838552600360205260408520928484556004356001850155818401336bffffffffffffffffffffffff60a01b8254161790556000146109a25784905b81101561044f5760038301805460ff60a01b191660a09290921b60ff60a01b1691909117905580519067ffffffffffffffff821161098e5781906106b760048501546110c0565b601f811161093d575b50602090601f83116001146108ce5786926108c3575b50508160011b916000199060031b1c19161760048201555b835167ffffffffffffffff81116107f35761070c60058301546110c0565b601f811161087e575b506020601f82116001146108125784958293949592610807575b50508160011b916000199060031b1c19161760058201555b60068101805460ff1916905542600782015560030180546001600160a01b031916301790556004803583526020908152604080842083905533845260059091528220805490680100000000000000008210156107f357906107ad91600182018155611092565b81549060031b9083821b91600019901b19161790553390600435907f89b79bdd21d92f99bbf75358698d6a2b7a0a48fe9467a9ff8e5bac1ac638a3fc8480a46001815580f35b634e487b7160e01b84526041600452602484fd5b01519050388061072f565b6005830185526020852090855b601f1984168110610866575060019394959683601f1981161061084d575b505050811b016005820155610747565b015160001960f88460031b161c1916905538808061083d565b9091602060018192858b01518155019301910161081f565b60058301855260208520601f830160051c8101602084106108bc575b601f830160051c820181106108b0575050610715565b6000815560010161089a565b508061089a565b0151905038806106d6565b9250600484018652602086209086935b601f1984168510610922576001945083601f19811610610909575b505050811b0160048201556106ee565b015160001960f88460031b161c191690553880806108f9565b818101518355602094850194600190930192909101906108de565b90915060048401865260208620601f840160051c810160208510610987575b90849392915b601f830160051c820181106109785750506106c0565b60008155859450600101610962565b508061095c565b634e487b7160e01b85526041600452602485fd5b600190610670565b634e487b7160e01b85526011600452602485fd5b6109e0915060203d6020116109e6575b6109d88183611003565b81019061123c565b3861061c565b503d6109ce565b6040513d87823e3d90fd5b6006546040516352261a0d60e11b815233600482015290602090829060249082906001600160a01b03165afa9081156109ed5790610a3c9186916109be5750611254565b610622565b60405162461bcd60e51b815260206004820152602760248201527f4469737075746520616c72656164792065786973747320666f72207468697320604482015266626f6f6b696e6760c81b6064820152608490fd5b604051633ee5aeb560e01b8152600490fd5b8280fd5b5034610160578060031936011261016057600254600019810191908211610ad857602082604051908152f35b634e487b7160e01b81526011600452602490fd5b50346101605780600319360112610160576001546040516001600160a01b039091168152602090f35b50346101605760203660031901126101605760406020916004358152600483522054604051908152f35b5034610160578060031936011261016057610b58611210565b600180546001600160a01b031981169091556000906001600160a01b03167f8be0079c531659141344cd1fd0a4f28419497f9722a3daafe3b4186f6b6457e08280a380f35b5034610160576040366003190112610160576020610bca610bbc61107c565b610bc4610fa8565b906112f0565b6040519015158152f35b50346101605760203660031901126101605760043581526003602052604090208054600182015491600160a01b60019003908160028201541690600381015460048201610c20906110fa565b610c2c600584016110fa565b94600684015495600785015492600886015494600987015460ff1696600a0154976040519b8c9b8c5260208c015260408b015283811660608b015260808a019060a01c60ff1690610c7c916111a0565b6101a08060a08b01528901610c90916111c3565b88810360c08a0152610ca1916111c3565b95610cb260e0890160ff8316611203565b60081c1661010087015261012086015261014085015215156101608401526101808301520390f35b503461016057604036600319011261016057610cf461107c565b6001600160a01b0316815260056020526040812080546024359290831015610160576020610d228484611092565b90546040519160031b1c8152f35b503461016057606036600319011261016057600435610d4d610fa8565b60443567ffffffffffffffff8111610ee157610d6d903690600401611025565b90610d76611210565b82845260036020526040842090600682019081549160ff83166003811015610f7857610da290156112ae565b600160098501938315159460ff1981541660ff87161790554260088701556101008260a81b033360081b16906affffffffffffffffffffff60a81b1617179055600014610ee5578460018060a01b03938460038501541685600286015416956006541691823b15610ee157610e4b92849283604051809681958294630cedba7b60e01b8452600484015267016345785d8a000060248401526060604484015260648301906111c3565b03925af18015610ed657610ebe575b50505b8480808067016345785d8a0000809760018060a01b031682f115610eb357827f5add0b1fc2a3dfd95be33d1d5feb6709087e50213b7a73c3c3b2c387001221e793600a604094015582519182526020820152a280f35b6040513d86823e3d90fd5b610ec790610fbc565b610ed2578438610e5a565b8480fd5b6040513d84823e3d90fd5b8380fd5b60018060a01b0392858460028501541691856003860154169560065416803b15610aa857610f459383604051809681958294630cedba7b60e01b8452600484015267016345785d8a000060248401526060604484015260648301906111c3565b03925af18015610f6d57610f5a575b50610e5d565b610f6690959195610fbc565b9338610f54565b6040513d88823e3d90fd5b634e487b7160e01b88526021600452602488fd5b9050346105565781600319360112610556576020906002548152f35b602435908115158203610fb757565b600080fd5b67ffffffffffffffff8111610fd057604052565b634e487b7160e01b600052604160045260246000fd5b6101a0810190811067ffffffffffffffff821117610fd057604052565b90601f8019910116810190811067ffffffffffffffff821117610fd057604052565b81601f82011215610fb75780359067ffffffffffffffff8211610fd0576040519261105a601f8401601f191660200185611003565b82845260208383010111610fb757816000926020809301838601378301015290565b600435906001600160a01b0382168203610fb757565b80548210156110aa5760005260206000200190600090565b634e487b7160e01b600052603260045260246000fd5b90600182811c921680156110f0575b60208310146110da57565b634e487b7160e01b600052602260045260246000fd5b91607f16916110cf565b906040519182600082549261110e846110c0565b90818452600194858116908160001461117d575060011461113a575b505061113892500383611003565b565b9093915060005260209081600020936000915b8183106111655750506111389350820101388061112a565b8554888401850152948501948794509183019161114d565b91505061113894506020925060ff191682840152151560051b820101388061112a565b9060028210156111ad5752565b634e487b7160e01b600052602160045260246000fd5b919082519283825260005b8481106111ef575050826000602080949584010152601f8019910116010190565b6020818301810151848301820152016111ce565b9060038210156111ad5752565b6001546001600160a01b0316330361122457565b60405163118cdaa760e01b8152336004820152602490fd5b90816020910312610fb757518015158103610fb75790565b1561125b57565b60405162461bcd60e51b815260206004820152602560248201527f55736572206d757374206265207374616b656420746f20637265617465206469604482015264737075746560d81b6064820152608490fd5b156112b557565b60405162461bcd60e51b815260206004820152601360248201527244697370757465206e6f742070656e64696e6760681b6044820152606490fd5b901561135d576006546040516352261a0d60e11b81526001600160a01b0392831660048201529160209183916024918391165afa90811561135157600091611336575090565b61134e915060203d81116109e6576109d88183611003565b90565b6040513d6000823e3d90fd5b6006546040516352261a0d60e11b81526001600160a01b0392831660048201529160209183916024918391165afa9081156113515760009161133657509056fea2646970667358221220b4688a3cab4bb3f6e1338a177ebd34d2e71d507df0bc744fcee89c37b06c9e7164736f6c63430008140033","opcodes":"PUSH1 0x80 CALLVALUE PUSH2 0xD2 JUMPI PUSH1 0x1F PUSH2 0x14C1 CODESIZE DUP2 SWAP1 SUB SWAP2 DUP3 ADD PUSH1 0x1F NOT AND DUP4 ADD SWAP2 PUSH1 0x1 PUSH1 0x1 PUSH1 0x40 SHL SUB DUP4 GT DUP5 DUP5 LT OR PUSH2 0xD7 JUMPI DUP1 DUP5 SWAP3 PUSH1 0x20 SWAP5 PUSH1 0x40 MSTORE DUP4 CODECOPY DUP2 ADD SUB SLT PUSH2 0xD2 JUMPI MLOAD PUSH1 0x1 PUSH1 0x1 PUSH1 0xA0 SHL SUB SWAP1 DUP2 DUP2 AND SWAP1 DUP2 SWAP1 SUB PUSH2 0xD2 JUMPI PUSH1 0x1 PUSH1 0x0 SSTORE CALLER ISZERO PUSH2 0xB9 JUMPI PUSH1 0x1 DUP1 SLOAD CALLER PUSH1 0x1 PUSH1 0x1 PUSH1 0xA0 SHL SUB NOT DUP1 DUP4 AND DUP3 OR SWAP1 SWAP4 SSTORE PUSH1 0x40 MLOAD SWAP5 SWAP1 SWAP2 AND PUSH32 0x8BE0079C531659141344CD1FD0A4F28419497F9722A3DAAFE3B4186F6B6457E0 PUSH1 0x0 DUP1 LOG3 PUSH1 0x1 PUSH1 0x2 SSTORE PUSH1 0x6 SLOAD AND OR PUSH1 0x6 SSTORE PUSH2 0x13D3 SWAP1 DUP2 PUSH2 0xEE DUP3 CODECOPY RETURN JUMPDEST PUSH1 0x40 MLOAD PUSH4 0x1E4FBDF7 PUSH1 0xE0 SHL DUP2 MSTORE PUSH1 0x0 PUSH1 0x4 DUP3 ADD MSTORE PUSH1 0x24 SWAP1 REVERT JUMPDEST PUSH1 0x0 DUP1 REVERT JUMPDEST PUSH4 0x4E487B71 PUSH1 0xE0 SHL PUSH1 0x0 MSTORE PUSH1 0x41 PUSH1 0x4 MSTORE PUSH1 0x24 PUSH1 0x0 REVERT INVALID PUSH1 0x80 DUP1 PUSH1 0x40 MSTORE PUSH1 0x4 CALLDATASIZE LT ISZERO PUSH2 0x13 JUMPI PUSH1 0x0 DUP1 REVERT JUMPDEST PUSH1 0x0 SWAP1 DUP2 CALLDATALOAD PUSH1 0xE0 SHR SWAP1 DUP2 PUSH4 0xDB39934 EQ PUSH2 0xF8C JUMPI POP DUP1 PUSH4 0x2840662D EQ PUSH2 0xD30 JUMPI DUP1 PUSH4 0x3DC04159 EQ PUSH2 0xCDA JUMPI DUP1 PUSH4 0x4897E987 EQ PUSH2 0xB15 JUMPI DUP1 PUSH4 0x564A565D EQ PUSH2 0xBD4 JUMPI DUP1 PUSH4 0x64D501EB EQ PUSH2 0xB9D JUMPI DUP1 PUSH4 0x715018A6 EQ PUSH2 0xB3F JUMPI DUP1 PUSH4 0x86725FE9 EQ PUSH2 0xB15 JUMPI DUP1 PUSH4 0x8DA5CB5B EQ PUSH2 0xAEC JUMPI DUP1 PUSH4 0x9C63558A EQ PUSH2 0xAAC JUMPI DUP1 PUSH4 0xAD330419 EQ PUSH2 0x55A JUMPI DUP1 PUSH4 0xBFB0A55B EQ PUSH2 0x4A8 JUMPI DUP1 PUSH4 0xDF02935C EQ PUSH2 0x3CD JUMPI DUP1 PUSH4 0xE3A96CBD EQ PUSH2 0x18C JUMPI DUP1 PUSH4 0xEE99205C EQ PUSH2 0x163 JUMPI PUSH4 0xF2FDE38B EQ PUSH2 0xD1 JUMPI PUSH1 0x0 DUP1 REVERT JUMPDEST CALLVALUE PUSH2 0x160 JUMPI PUSH1 0x20 CALLDATASIZE PUSH1 0x3 NOT ADD SLT PUSH2 0x160 JUMPI PUSH2 0xEA PUSH2 0x107C JUMP JUMPDEST PUSH2 0xF2 PUSH2 0x1210 JUMP JUMPDEST PUSH1 0x1 PUSH1 0x1 PUSH1 0xA0 SHL SUB SWAP1 DUP2 AND SWAP1 DUP2 ISZERO PUSH2 0x147 JUMPI PUSH1 0x1 SLOAD DUP3 PUSH12 0xFFFFFFFFFFFFFFFFFFFFFFFF PUSH1 0xA0 SHL DUP3 AND OR PUSH1 0x1 SSTORE AND PUSH32 0x8BE0079C531659141344CD1FD0A4F28419497F9722A3DAAFE3B4186F6B6457E0 PUSH1 0x0 DUP1 LOG3 DUP1 RETURN JUMPDEST PUSH1 0x40 MLOAD PUSH4 0x1E4FBDF7 PUSH1 0xE0 SHL DUP2 MSTORE PUSH1 0x4 DUP2 ADD DUP5 SWAP1 MSTORE PUSH1 0x24 SWAP1 REVERT JUMPDEST DUP1 REVERT JUMPDEST POP CALLVALUE PUSH2 0x160 JUMPI DUP1 PUSH1 0x3 NOT CALLDATASIZE ADD SLT PUSH2 0x160 JUMPI PUSH1 0x6 SLOAD PUSH1 0x40 MLOAD PUSH1 0x1 PUSH1 0x1 PUSH1 0xA0 SHL SUB SWAP1 SWAP2 AND DUP2 MSTORE PUSH1 0x20 SWAP1 RETURN JUMPDEST POP CALLVALUE PUSH2 0x160 JUMPI PUSH1 0x20 CALLDATASIZE PUSH1 0x3 NOT ADD SLT PUSH2 0x160 JUMPI DUP1 PUSH2 0x180 PUSH1 0x40 MLOAD PUSH2 0x1AE DUP2 PUSH2 0xFE6 JUMP JUMPDEST DUP3 DUP2 MSTORE DUP3 PUSH1 0x20 DUP3 ADD MSTORE DUP3 PUSH1 0x40 DUP3 ADD MSTORE DUP3 PUSH1 0x60 DUP3 ADD MSTORE DUP3 PUSH1 0x80 DUP3 ADD MSTORE PUSH1 0x60 PUSH1 0xA0 DUP3 ADD MSTORE PUSH1 0x60 PUSH1 0xC0 DUP3 ADD MSTORE DUP3 PUSH1 0xE0 DUP3 ADD MSTORE DUP3 PUSH2 0x100 DUP3 ADD MSTORE DUP3 PUSH2 0x120 DUP3 ADD MSTORE DUP3 PUSH2 0x140 DUP3 ADD MSTORE DUP3 PUSH2 0x160 DUP3 ADD MSTORE ADD MSTORE PUSH1 0x4 CALLDATALOAD DUP2 MSTORE PUSH1 0x3 PUSH1 0x20 MSTORE PUSH1 0x40 DUP2 KECCAK256 PUSH1 0x40 MLOAD SWAP1 PUSH2 0x216 DUP3 PUSH2 0xFE6 JUMP JUMPDEST DUP1 SLOAD DUP3 MSTORE PUSH1 0x1 DUP2 ADD SLOAD PUSH1 0x20 DUP4 ADD MSTORE PUSH1 0x2 DUP1 DUP3 ADD SLOAD PUSH1 0x1 PUSH1 0x1 PUSH1 0xA0 SHL SUB SWAP1 DUP2 AND PUSH1 0x40 DUP6 ADD MSTORE PUSH1 0x3 DUP4 ADD SLOAD SWAP1 DUP2 AND PUSH1 0x60 DUP6 ADD MSTORE PUSH1 0xA0 SHR PUSH1 0xFF AND SWAP1 DUP2 LT ISZERO PUSH2 0x3B9 JUMPI PUSH1 0x80 DUP4 ADD MSTORE PUSH2 0x266 PUSH1 0x4 DUP3 ADD PUSH2 0x10FA JUMP JUMPDEST PUSH1 0xA0 DUP4 ADD MSTORE PUSH2 0x277 PUSH1 0x5 DUP3 ADD PUSH2 0x10FA JUMP JUMPDEST PUSH1 0xC0 DUP4 ADD MSTORE PUSH1 0x6 DUP2 ADD SLOAD PUSH1 0x3 PUSH1 0xFF DUP3 AND LT ISZERO PUSH2 0x3B9 JUMPI SWAP1 DUP2 PUSH1 0xFF PUSH1 0xA SWAP4 AND PUSH1 0xE0 DUP6 ADD MSTORE PUSH1 0x1 DUP1 PUSH1 0xA0 SHL SUB SWAP1 PUSH1 0x8 SHR AND PUSH2 0x100 DUP5 ADD MSTORE PUSH1 0x7 DUP2 ADD SLOAD PUSH2 0x120 DUP5 ADD MSTORE PUSH1 0x8 DUP2 ADD SLOAD PUSH2 0x140 DUP5 ADD MSTORE PUSH1 0xFF PUSH1 0x9 DUP3 ADD SLOAD AND ISZERO ISZERO PUSH2 0x160 DUP5 ADD MSTORE ADD SLOAD PUSH2 0x180 DUP3 ADD MSTORE PUSH1 0x40 MLOAD DUP1 SWAP2 PUSH1 0x20 DUP3 MSTORE DUP1 MLOAD PUSH1 0x20 DUP4 ADD MSTORE PUSH1 0x20 DUP2 ADD MLOAD PUSH1 0x40 DUP4 ADD MSTORE PUSH1 0x1 DUP1 PUSH1 0xA0 SHL SUB PUSH1 0x40 DUP3 ADD MLOAD AND PUSH1 0x60 DUP4 ADD MSTORE PUSH1 0x1 DUP1 PUSH1 0xA0 SHL SUB PUSH1 0x60 DUP3 ADD MLOAD AND PUSH1 0x80 DUP4 ADD MSTORE PUSH2 0x32A PUSH1 0x80 DUP3 ADD MLOAD PUSH1 0xA0 DUP5 ADD SWAP1 PUSH2 0x11A0 JUMP JUMPDEST PUSH1 0xA0 DUP2 ADD MLOAD PUSH2 0x180 PUSH2 0x363 PUSH2 0x34D PUSH2 0x1A0 SWAP4 DUP5 PUSH1 0xC0 DUP9 ADD MSTORE PUSH2 0x1C0 DUP8 ADD SWAP1 PUSH2 0x11C3 JUMP JUMPDEST PUSH1 0xC0 DUP6 ADD MLOAD DUP7 DUP3 SUB PUSH1 0x1F NOT ADD PUSH1 0xE0 DUP9 ADD MSTORE PUSH2 0x11C3 JUMP JUMPDEST SWAP3 PUSH2 0x377 PUSH1 0xE0 DUP3 ADD MLOAD PUSH2 0x100 DUP8 ADD SWAP1 PUSH2 0x1203 JUMP JUMPDEST PUSH1 0x1 DUP1 PUSH1 0xA0 SHL SUB PUSH2 0x100 DUP3 ADD MLOAD AND PUSH2 0x120 DUP7 ADD MSTORE PUSH2 0x120 DUP2 ADD MLOAD PUSH2 0x140 DUP7 ADD MSTORE PUSH2 0x140 DUP2 ADD MLOAD PUSH2 0x160 DUP7 ADD MSTORE PUSH2 0x160 DUP2 ADD MLOAD ISZERO ISZERO DUP3 DUP7 ADD MSTORE ADD MLOAD SWAP1 DUP4 ADD MSTORE SUB SWAP1 RETURN JUMPDEST PUSH4 0x4E487B71 PUSH1 0xE0 SHL DUP5 MSTORE PUSH1 0x21 PUSH1 0x4 MSTORE PUSH1 0x24 DUP5 REVERT JUMPDEST POP CALLVALUE PUSH2 0x160 JUMPI PUSH1 0x20 CALLDATASIZE PUSH1 0x3 NOT ADD SLT PUSH2 0x160 JUMPI PUSH1 0x4 CALLDATALOAD DUP1 DUP3 MSTORE PUSH1 0x3 PUSH1 0x20 MSTORE PUSH1 0x40 DUP3 KECCAK256 PUSH1 0x2 DUP2 ADD SLOAD PUSH1 0x1 PUSH1 0x1 PUSH1 0xA0 SHL SUB AND CALLER SUB PUSH2 0x463 JUMPI PUSH1 0x6 ADD DUP1 SLOAD PUSH1 0xFF DUP2 AND PUSH1 0x3 DUP2 LT ISZERO PUSH2 0x44F JUMPI SWAP1 PUSH2 0x421 PUSH1 0x2 SWAP3 ISZERO PUSH2 0x12AE JUMP JUMPDEST PUSH1 0xFF NOT AND OR SWAP1 SSTORE PUSH32 0x7FE0314DDD8432EAC273E729CC289F5A8F8A7860761B74472F4782FBACCD2C5F DUP3 DUP1 LOG2 DUP1 RETURN JUMPDEST PUSH4 0x4E487B71 PUSH1 0xE0 SHL DUP6 MSTORE PUSH1 0x21 PUSH1 0x4 MSTORE PUSH1 0x24 DUP6 REVERT JUMPDEST PUSH1 0x40 MLOAD PUSH3 0x461BCD PUSH1 0xE5 SHL DUP2 MSTORE PUSH1 0x20 PUSH1 0x4 DUP3 ADD MSTORE PUSH1 0x19 PUSH1 0x24 DUP3 ADD MSTORE PUSH32 0x4F6E6C7920696E69746961746F722063616E2063616E63656C00000000000000 PUSH1 0x44 DUP3 ADD MSTORE PUSH1 0x64 SWAP1 REVERT JUMPDEST POP CALLVALUE PUSH2 0x160 JUMPI PUSH1 0x20 DUP1 PUSH1 0x3 NOT CALLDATASIZE ADD SLT PUSH2 0x556 JUMPI PUSH1 0x1 PUSH1 0x1 PUSH1 0xA0 SHL SUB PUSH2 0x4CB PUSH2 0x107C JUMP JUMPDEST AND DUP3 MSTORE PUSH1 0x5 DUP2 MSTORE PUSH1 0x40 DUP3 KECCAK256 PUSH1 0x40 MLOAD SWAP3 DUP4 DUP4 DUP4 SLOAD SWAP2 DUP3 DUP2 MSTORE ADD SWAP1 DUP2 SWAP4 DUP4 MSTORE DUP5 DUP4 KECCAK256 SWAP1 DUP4 JUMPDEST DUP2 DUP2 LT PUSH2 0x542 JUMPI POP POP POP DUP5 PUSH2 0x504 SWAP2 SUB DUP6 PUSH2 0x1003 JUMP JUMPDEST PUSH1 0x40 MLOAD SWAP4 DUP4 DUP6 SWAP5 DUP6 ADD SWAP2 DUP2 DUP7 MSTORE MLOAD DUP1 SWAP3 MSTORE PUSH1 0x40 DUP6 ADD SWAP4 SWAP3 JUMPDEST DUP3 DUP2 LT PUSH2 0x52B JUMPI POP POP POP POP SUB SWAP1 RETURN JUMPDEST DUP4 MLOAD DUP6 MSTORE DUP7 SWAP6 POP SWAP4 DUP2 ADD SWAP4 SWAP3 DUP2 ADD SWAP3 PUSH1 0x1 ADD PUSH2 0x51C JUMP JUMPDEST DUP3 SLOAD DUP5 MSTORE SWAP3 DUP7 ADD SWAP3 PUSH1 0x1 SWAP3 DUP4 ADD SWAP3 ADD PUSH2 0x4EE JUMP JUMPDEST POP DUP1 REVERT JUMPDEST POP CALLVALUE PUSH2 0x160 JUMPI PUSH1 0x80 CALLDATASIZE PUSH1 0x3 NOT ADD SLT PUSH2 0x160 JUMPI PUSH2 0x574 PUSH2 0xFA8 JUMP JUMPDEST SWAP1 PUSH1 0x44 CALLDATALOAD PUSH8 0xFFFFFFFFFFFFFFFF DUP2 GT PUSH2 0x556 JUMPI PUSH2 0x595 SWAP1 CALLDATASIZE SWAP1 PUSH1 0x4 ADD PUSH2 0x1025 JUMP JUMPDEST PUSH1 0x64 CALLDATALOAD PUSH8 0xFFFFFFFFFFFFFFFF DUP2 GT PUSH2 0xAA8 JUMPI PUSH2 0x5B5 SWAP1 CALLDATASIZE SWAP1 PUSH1 0x4 ADD PUSH2 0x1025 JUMP JUMPDEST SWAP3 PUSH1 0x2 SWAP2 DUP3 DUP5 SLOAD EQ PUSH2 0xA96 JUMPI DUP3 DUP5 SSTORE PUSH1 0x4 CALLDATALOAD DUP5 MSTORE PUSH1 0x4 PUSH1 0x20 MSTORE PUSH1 0x40 DUP5 KECCAK256 SLOAD PUSH2 0xA41 JUMPI DUP2 ISZERO PUSH2 0x9F8 JUMPI PUSH1 0x6 SLOAD PUSH1 0x40 MLOAD PUSH4 0x52261A0D PUSH1 0xE1 SHL DUP2 MSTORE CALLER PUSH1 0x4 DUP3 ADD MSTORE SWAP1 PUSH1 0x20 SWAP1 DUP3 SWAP1 PUSH1 0x24 SWAP1 DUP3 SWAP1 PUSH1 0x1 PUSH1 0x1 PUSH1 0xA0 SHL SUB AND GAS STATICCALL SWAP1 DUP2 ISZERO PUSH2 0x9ED JUMPI SWAP1 PUSH2 0x622 SWAP2 DUP7 SWAP2 PUSH2 0x9BE JUMPI JUMPDEST POP PUSH2 0x1254 JUMP JUMPDEST DUP3 SLOAD SWAP3 PUSH1 0x0 NOT DUP5 EQ PUSH2 0x9AA JUMPI PUSH1 0x1 DUP5 ADD DUP2 SSTORE DUP4 DUP6 MSTORE PUSH1 0x3 PUSH1 0x20 MSTORE PUSH1 0x40 DUP6 KECCAK256 SWAP3 DUP5 DUP5 SSTORE PUSH1 0x4 CALLDATALOAD PUSH1 0x1 DUP6 ADD SSTORE DUP2 DUP5 ADD CALLER PUSH12 0xFFFFFFFFFFFFFFFFFFFFFFFF PUSH1 0xA0 SHL DUP3 SLOAD AND OR SWAP1 SSTORE PUSH1 0x0 EQ PUSH2 0x9A2 JUMPI DUP5 SWAP1 JUMPDEST DUP2 LT ISZERO PUSH2 0x44F JUMPI PUSH1 0x3 DUP4 ADD DUP1 SLOAD PUSH1 0xFF PUSH1 0xA0 SHL NOT AND PUSH1 0xA0 SWAP3 SWAP1 SWAP3 SHL PUSH1 0xFF PUSH1 0xA0 SHL AND SWAP2 SWAP1 SWAP2 OR SWAP1 SSTORE DUP1 MLOAD SWAP1 PUSH8 0xFFFFFFFFFFFFFFFF DUP3 GT PUSH2 0x98E JUMPI DUP2 SWAP1 PUSH2 0x6B7 PUSH1 0x4 DUP6 ADD SLOAD PUSH2 0x10C0 JUMP JUMPDEST PUSH1 0x1F DUP2 GT PUSH2 0x93D JUMPI JUMPDEST POP PUSH1 0x20 SWAP1 PUSH1 0x1F DUP4 GT PUSH1 0x1 EQ PUSH2 0x8CE JUMPI DUP7 SWAP3 PUSH2 0x8C3 JUMPI JUMPDEST POP POP DUP2 PUSH1 0x1 SHL SWAP2 PUSH1 0x0 NOT SWAP1 PUSH1 0x3 SHL SHR NOT AND OR PUSH1 0x4 DUP3 ADD SSTORE JUMPDEST DUP4 MLOAD PUSH8 0xFFFFFFFFFFFFFFFF DUP2 GT PUSH2 0x7F3 JUMPI PUSH2 0x70C PUSH1 0x5 DUP4 ADD SLOAD PUSH2 0x10C0 JUMP JUMPDEST PUSH1 0x1F DUP2 GT PUSH2 0x87E JUMPI JUMPDEST POP PUSH1 0x20 PUSH1 0x1F DUP3 GT PUSH1 0x1 EQ PUSH2 0x812 JUMPI DUP5 SWAP6 DUP3 SWAP4 SWAP5 SWAP6 SWAP3 PUSH2 0x807 JUMPI JUMPDEST POP POP DUP2 PUSH1 0x1 SHL SWAP2 PUSH1 0x0 NOT SWAP1 PUSH1 0x3 SHL SHR NOT AND OR PUSH1 0x5 DUP3 ADD SSTORE JUMPDEST PUSH1 0x6 DUP2 ADD DUP1 SLOAD PUSH1 0xFF NOT AND SWAP1 SSTORE TIMESTAMP PUSH1 0x7 DUP3 ADD SSTORE PUSH1 0x3 ADD DUP1 SLOAD PUSH1 0x1 PUSH1 0x1 PUSH1 0xA0 SHL SUB NOT AND ADDRESS OR SWAP1 SSTORE PUSH1 0x4 DUP1 CALLDATALOAD DUP4 MSTORE PUSH1 0x20 SWAP1 DUP2 MSTORE PUSH1 0x40 DUP1 DUP5 KECCAK256 DUP4 SWAP1 SSTORE CALLER DUP5 MSTORE PUSH1 0x5 SWAP1 SWAP2 MSTORE DUP3 KECCAK256 DUP1 SLOAD SWAP1 PUSH9 0x10000000000000000 DUP3 LT ISZERO PUSH2 0x7F3 JUMPI SWAP1 PUSH2 0x7AD SWAP2 PUSH1 0x1 DUP3 ADD DUP2 SSTORE PUSH2 0x1092 JUMP JUMPDEST DUP2 SLOAD SWAP1 PUSH1 0x3 SHL SWAP1 DUP4 DUP3 SHL SWAP2 PUSH1 0x0 NOT SWAP1 SHL NOT AND OR SWAP1 SSTORE CALLER SWAP1 PUSH1 0x4 CALLDATALOAD SWAP1 PUSH32 0x89B79BDD21D92F99BBF75358698D6A2B7A0A48FE9467A9FF8E5BAC1AC638A3FC DUP5 DUP1 LOG4 PUSH1 0x1 DUP2 SSTORE DUP1 RETURN JUMPDEST PUSH4 0x4E487B71 PUSH1 0xE0 SHL DUP5 MSTORE PUSH1 0x41 PUSH1 0x4 MSTORE PUSH1 0x24 DUP5 REVERT JUMPDEST ADD MLOAD SWAP1 POP CODESIZE DUP1 PUSH2 0x72F JUMP JUMPDEST PUSH1 0x5 DUP4 ADD DUP6 MSTORE PUSH1 0x20 DUP6 KECCAK256 SWAP1 DUP6 JUMPDEST PUSH1 0x1F NOT DUP5 AND DUP2 LT PUSH2 0x866 JUMPI POP PUSH1 0x1 SWAP4 SWAP5 SWAP6 SWAP7 DUP4 PUSH1 0x1F NOT DUP2 AND LT PUSH2 0x84D JUMPI JUMPDEST POP POP POP DUP2 SHL ADD PUSH1 0x5 DUP3 ADD SSTORE PUSH2 0x747 JUMP JUMPDEST ADD MLOAD PUSH1 0x0 NOT PUSH1 0xF8 DUP5 PUSH1 0x3 SHL AND SHR NOT AND SWAP1 SSTORE CODESIZE DUP1 DUP1 PUSH2 0x83D JUMP JUMPDEST SWAP1 SWAP2 PUSH1 0x20 PUSH1 0x1 DUP2 SWAP3 DUP6 DUP12 ADD MLOAD DUP2 SSTORE ADD SWAP4 ADD SWAP2 ADD PUSH2 0x81F JUMP JUMPDEST PUSH1 0x5 DUP4 ADD DUP6 MSTORE PUSH1 0x20 DUP6 KECCAK256 PUSH1 0x1F DUP4 ADD PUSH1 0x5 SHR DUP2 ADD PUSH1 0x20 DUP5 LT PUSH2 0x8BC JUMPI JUMPDEST PUSH1 0x1F DUP4 ADD PUSH1 0x5 SHR DUP3 ADD DUP2 LT PUSH2 0x8B0 JUMPI POP POP PUSH2 0x715 JUMP JUMPDEST PUSH1 0x0 DUP2 SSTORE PUSH1 0x1 ADD PUSH2 0x89A JUMP JUMPDEST POP DUP1 PUSH2 0x89A JUMP JUMPDEST ADD MLOAD SWAP1 POP CODESIZE DUP1 PUSH2 0x6D6 JUMP JUMPDEST SWAP3 POP PUSH1 0x4 DUP5 ADD DUP7 MSTORE PUSH1 0x20 DUP7 KECCAK256 SWAP1 DUP7 SWAP4 JUMPDEST PUSH1 0x1F NOT DUP5 AND DUP6 LT PUSH2 0x922 JUMPI PUSH1 0x1 SWAP5 POP DUP4 PUSH1 0x1F NOT DUP2 AND LT PUSH2 0x909 JUMPI JUMPDEST POP POP POP DUP2 SHL ADD PUSH1 0x4 DUP3 ADD SSTORE PUSH2 0x6EE JUMP JUMPDEST ADD MLOAD PUSH1 0x0 NOT PUSH1 0xF8 DUP5 PUSH1 0x3 SHL AND SHR NOT AND SWAP1 SSTORE CODESIZE DUP1 DUP1 PUSH2 0x8F9 JUMP JUMPDEST DUP2 DUP2 ADD MLOAD DUP4 SSTORE PUSH1 0x20 SWAP5 DUP6 ADD SWAP5 PUSH1 0x1 SWAP1 SWAP4 ADD SWAP3 SWAP1 SWAP2 ADD SWAP1 PUSH2 0x8DE JUMP JUMPDEST SWAP1 SWAP2 POP PUSH1 0x4 DUP5 ADD DUP7 MSTORE PUSH1 0x20 DUP7 KECCAK256 PUSH1 0x1F DUP5 ADD PUSH1 0x5 SHR DUP2 ADD PUSH1 0x20 DUP6 LT PUSH2 0x987 JUMPI JUMPDEST SWAP1 DUP5 SWAP4 SWAP3 SWAP2 JUMPDEST PUSH1 0x1F DUP4 ADD PUSH1 0x5 SHR DUP3 ADD DUP2 LT PUSH2 0x978 JUMPI POP POP PUSH2 0x6C0 JUMP JUMPDEST PUSH1 0x0 DUP2 SSTORE DUP6 SWAP5 POP PUSH1 0x1 ADD PUSH2 0x962 JUMP JUMPDEST POP DUP1 PUSH2 0x95C JUMP JUMPDEST PUSH4 0x4E487B71 PUSH1 0xE0 SHL DUP6 MSTORE PUSH1 0x41 PUSH1 0x4 MSTORE PUSH1 0x24 DUP6 REVERT JUMPDEST PUSH1 0x1 SWAP1 PUSH2 0x670 JUMP JUMPDEST PUSH4 0x4E487B71 PUSH1 0xE0 SHL DUP6 MSTORE PUSH1 0x11 PUSH1 0x4 MSTORE PUSH1 0x24 DUP6 REVERT JUMPDEST PUSH2 0x9E0 SWAP2 POP PUSH1 0x20 RETURNDATASIZE PUSH1 0x20 GT PUSH2 0x9E6 JUMPI JUMPDEST PUSH2 0x9D8 DUP2 DUP4 PUSH2 0x1003 JUMP JUMPDEST DUP2 ADD SWAP1 PUSH2 0x123C JUMP JUMPDEST CODESIZE PUSH2 0x61C JUMP JUMPDEST POP RETURNDATASIZE PUSH2 0x9CE JUMP JUMPDEST PUSH1 0x40 MLOAD RETURNDATASIZE DUP8 DUP3 RETURNDATACOPY RETURNDATASIZE SWAP1 REVERT JUMPDEST PUSH1 0x6 SLOAD PUSH1 0x40 MLOAD PUSH4 0x52261A0D PUSH1 0xE1 SHL DUP2 MSTORE CALLER PUSH1 0x4 DUP3 ADD MSTORE SWAP1 PUSH1 0x20 SWAP1 DUP3 SWAP1 PUSH1 0x24 SWAP1 DUP3 SWAP1 PUSH1 0x1 PUSH1 0x1 PUSH1 0xA0 SHL SUB AND GAS STATICCALL SWAP1 DUP2 ISZERO PUSH2 0x9ED JUMPI SWAP1 PUSH2 0xA3C SWAP2 DUP7 SWAP2 PUSH2 0x9BE JUMPI POP PUSH2 0x1254 JUMP JUMPDEST PUSH2 0x622 JUMP JUMPDEST PUSH1 0x40 MLOAD PUSH3 0x461BCD PUSH1 0xE5 SHL DUP2 MSTORE PUSH1 0x20 PUSH1 0x4 DUP3 ADD MSTORE PUSH1 0x27 PUSH1 0x24 DUP3 ADD MSTORE PUSH32 0x4469737075746520616C72656164792065786973747320666F72207468697320 PUSH1 0x44 DUP3 ADD MSTORE PUSH7 0x626F6F6B696E67 PUSH1 0xC8 SHL PUSH1 0x64 DUP3 ADD MSTORE PUSH1 0x84 SWAP1 REVERT JUMPDEST PUSH1 0x40 MLOAD PUSH4 0x3EE5AEB5 PUSH1 0xE0 SHL DUP2 MSTORE PUSH1 0x4 SWAP1 REVERT JUMPDEST DUP3 DUP1 REVERT JUMPDEST POP CALLVALUE PUSH2 0x160 JUMPI DUP1 PUSH1 0x3 NOT CALLDATASIZE ADD SLT PUSH2 0x160 JUMPI PUSH1 0x2 SLOAD PUSH1 0x0 NOT DUP2 ADD SWAP2 SWAP1 DUP3 GT PUSH2 0xAD8 JUMPI PUSH1 0x20 DUP3 PUSH1 0x40 MLOAD SWAP1 DUP2 MSTORE RETURN JUMPDEST PUSH4 0x4E487B71 PUSH1 0xE0 SHL DUP2 MSTORE PUSH1 0x11 PUSH1 0x4 MSTORE PUSH1 0x24 SWAP1 REVERT JUMPDEST POP CALLVALUE PUSH2 0x160 JUMPI DUP1 PUSH1 0x3 NOT CALLDATASIZE ADD SLT PUSH2 0x160 JUMPI PUSH1 0x1 SLOAD PUSH1 0x40 MLOAD PUSH1 0x1 PUSH1 0x1 PUSH1 0xA0 SHL SUB SWAP1 SWAP2 AND DUP2 MSTORE PUSH1 0x20 SWAP1 RETURN JUMPDEST POP CALLVALUE PUSH2 0x160 JUMPI PUSH1 0x20 CALLDATASIZE PUSH1 0x3 NOT ADD SLT PUSH2 0x160 JUMPI PUSH1 0x40 PUSH1 0x20 SWAP2 PUSH1 0x4 CALLDATALOAD DUP2 MSTORE PUSH1 0x4 DUP4 MSTORE KECCAK256 SLOAD PUSH1 0x40 MLOAD SWAP1 DUP2 MSTORE RETURN JUMPDEST POP CALLVALUE PUSH2 0x160 JUMPI DUP1 PUSH1 0x3 NOT CALLDATASIZE ADD SLT PUSH2 0x160 JUMPI PUSH2 0xB58 PUSH2 0x1210 JUMP JUMPDEST PUSH1 0x1 DUP1 SLOAD PUSH1 0x1 PUSH1 0x1 PUSH1 0xA0 SHL SUB NOT DUP2 AND SWAP1 SWAP2 SSTORE PUSH1 0x0 SWAP1 PUSH1 0x1 PUSH1 0x1 PUSH1 0xA0 SHL SUB AND PUSH32 0x8BE0079C531659141344CD1FD0A4F28419497F9722A3DAAFE3B4186F6B6457E0 DUP3 DUP1 LOG3 DUP1 RETURN JUMPDEST POP CALLVALUE PUSH2 0x160 JUMPI PUSH1 0x40 CALLDATASIZE PUSH1 0x3 NOT ADD SLT PUSH2 0x160 JUMPI PUSH1 0x20 PUSH2 0xBCA PUSH2 0xBBC PUSH2 0x107C JUMP JUMPDEST PUSH2 0xBC4 PUSH2 0xFA8 JUMP JUMPDEST SWAP1 PUSH2 0x12F0 JUMP JUMPDEST PUSH1 0x40 MLOAD SWAP1 ISZERO ISZERO DUP2 MSTORE RETURN JUMPDEST POP CALLVALUE PUSH2 0x160 JUMPI PUSH1 0x20 CALLDATASIZE PUSH1 0x3 NOT ADD SLT PUSH2 0x160 JUMPI PUSH1 0x4 CALLDATALOAD DUP2 MSTORE PUSH1 0x3 PUSH1 0x20 MSTORE PUSH1 0x40 SWAP1 KECCAK256 DUP1 SLOAD PUSH1 0x1 DUP3 ADD SLOAD SWAP2 PUSH1 0x1 PUSH1 0xA0 SHL PUSH1 0x1 SWAP1 SUB SWAP1 DUP2 PUSH1 0x2 DUP3 ADD SLOAD AND SWAP1 PUSH1 0x3 DUP2 ADD SLOAD PUSH1 0x4 DUP3 ADD PUSH2 0xC20 SWAP1 PUSH2 0x10FA JUMP JUMPDEST PUSH2 0xC2C PUSH1 0x5 DUP5 ADD PUSH2 0x10FA JUMP JUMPDEST SWAP5 PUSH1 0x6 DUP5 ADD SLOAD SWAP6 PUSH1 0x7 DUP6 ADD SLOAD SWAP3 PUSH1 0x8 DUP7 ADD SLOAD SWAP5 PUSH1 0x9 DUP8 ADD SLOAD PUSH1 0xFF AND SWAP7 PUSH1 0xA ADD SLOAD SWAP8 PUSH1 0x40 MLOAD SWAP12 DUP13 SWAP12 DUP13 MSTORE PUSH1 0x20 DUP13 ADD MSTORE PUSH1 0x40 DUP12 ADD MSTORE DUP4 DUP2 AND PUSH1 0x60 DUP12 ADD MSTORE PUSH1 0x80 DUP11 ADD SWAP1 PUSH1 0xA0 SHR PUSH1 0xFF AND SWAP1 PUSH2 0xC7C SWAP2 PUSH2 0x11A0 JUMP JUMPDEST PUSH2 0x1A0 DUP1 PUSH1 0xA0 DUP12 ADD MSTORE DUP10 ADD PUSH2 0xC90 SWAP2 PUSH2 0x11C3 JUMP JUMPDEST DUP9 DUP2 SUB PUSH1 0xC0 DUP11 ADD MSTORE PUSH2 0xCA1 SWAP2 PUSH2 0x11C3 JUMP JUMPDEST SWAP6 PUSH2 0xCB2 PUSH1 0xE0 DUP10 ADD PUSH1 0xFF DUP4 AND PUSH2 0x1203 JUMP JUMPDEST PUSH1 0x8 SHR AND PUSH2 0x100 DUP8 ADD MSTORE PUSH2 0x120 DUP7 ADD MSTORE PUSH2 0x140 DUP6 ADD MSTORE ISZERO ISZERO PUSH2 0x160 DUP5 ADD MSTORE PUSH2 0x180 DUP4 ADD MSTORE SUB SWAP1 RETURN JUMPDEST POP CALLVALUE PUSH2 0x160 JUMPI PUSH1 0x40 CALLDATASIZE PUSH1 0x3 NOT ADD SLT PUSH2 0x160 JUMPI PUSH2 0xCF4 PUSH2 0x107C JUMP JUMPDEST PUSH1 0x1 PUSH1 0x1 PUSH1 0xA0 SHL SUB AND DUP2 MSTORE PUSH1 0x5 PUSH1 0x20 MSTORE PUSH1 0x40 DUP2 KECCAK256 DUP1 SLOAD PUSH1 0x24 CALLDATALOAD SWAP3 SWAP1 DUP4 LT ISZERO PUSH2 0x160 JUMPI PUSH1 0x20 PUSH2 0xD22 DUP5 DUP5 PUSH2 0x1092 JUMP JUMPDEST SWAP1 SLOAD PUSH1 0x40 MLOAD SWAP2 PUSH1 0x3 SHL SHR DUP2 MSTORE RETURN JUMPDEST POP CALLVALUE PUSH2 0x160 JUMPI PUSH1 0x60 CALLDATASIZE PUSH1 0x3 NOT ADD SLT PUSH2 0x160 JUMPI PUSH1 0x4 CALLDATALOAD PUSH2 0xD4D PUSH2 0xFA8 JUMP JUMPDEST PUSH1 0x44 CALLDATALOAD PUSH8 0xFFFFFFFFFFFFFFFF DUP2 GT PUSH2 0xEE1 JUMPI PUSH2 0xD6D SWAP1 CALLDATASIZE SWAP1 PUSH1 0x4 ADD PUSH2 0x1025 JUMP JUMPDEST SWAP1 PUSH2 0xD76 PUSH2 0x1210 JUMP JUMPDEST DUP3 DUP5 MSTORE PUSH1 0x3 PUSH1 0x20 MSTORE PUSH1 0x40 DUP5 KECCAK256 SWAP1 PUSH1 0x6 DUP3 ADD SWAP1 DUP2 SLOAD SWAP2 PUSH1 0xFF DUP4 AND PUSH1 0x3 DUP2 LT ISZERO PUSH2 0xF78 JUMPI PUSH2 0xDA2 SWAP1 ISZERO PUSH2 0x12AE JUMP JUMPDEST PUSH1 0x1 PUSH1 0x9 DUP6 ADD SWAP4 DUP4 ISZERO ISZERO SWAP5 PUSH1 0xFF NOT DUP2 SLOAD AND PUSH1 0xFF DUP8 AND OR SWAP1 SSTORE TIMESTAMP PUSH1 0x8 DUP8 ADD SSTORE PUSH2 0x100 DUP3 PUSH1 0xA8 SHL SUB CALLER PUSH1 0x8 SHL AND SWAP1 PUSH11 0xFFFFFFFFFFFFFFFFFFFFFF PUSH1 0xA8 SHL AND OR OR SWAP1 SSTORE PUSH1 0x0 EQ PUSH2 0xEE5 JUMPI DUP5 PUSH1 0x1 DUP1 PUSH1 0xA0 SHL SUB SWAP4 DUP5 PUSH1 0x3 DUP6 ADD SLOAD AND DUP6 PUSH1 0x2 DUP7 ADD SLOAD AND SWAP6 PUSH1 0x6 SLOAD AND SWAP2 DUP3 EXTCODESIZE ISZERO PUSH2 0xEE1 JUMPI PUSH2 0xE4B SWAP3 DUP5 SWAP3 DUP4 PUSH1 0x40 MLOAD DUP1 SWAP7 DUP2 SWAP6 DUP3 SWAP5 PUSH4 0xCEDBA7B PUSH1 0xE0 SHL DUP5 MSTORE PUSH1 0x4 DUP5 ADD MSTORE PUSH8 0x16345785D8A0000 PUSH1 0x24 DUP5 ADD MSTORE PUSH1 0x60 PUSH1 0x44 DUP5 ADD MSTORE PUSH1 0x64 DUP4 ADD SWAP1 PUSH2 0x11C3 JUMP JUMPDEST SUB SWAP3 GAS CALL DUP1 ISZERO PUSH2 0xED6 JUMPI PUSH2 0xEBE JUMPI JUMPDEST POP POP JUMPDEST DUP5 DUP1 DUP1 DUP1 PUSH8 0x16345785D8A0000 DUP1 SWAP8 PUSH1 0x1 DUP1 PUSH1 0xA0 SHL SUB AND DUP3 CALL ISZERO PUSH2 0xEB3 JUMPI DUP3 PUSH32 0x5ADD0B1FC2A3DFD95BE33D1D5FEB6709087E50213B7A73C3C3B2C387001221E7 SWAP4 PUSH1 0xA PUSH1 0x40 SWAP5 ADD SSTORE DUP3 MLOAD SWAP2 DUP3 MSTORE PUSH1 0x20 DUP3 ADD MSTORE LOG2 DUP1 RETURN JUMPDEST PUSH1 0x40 MLOAD RETURNDATASIZE DUP7 DUP3 RETURNDATACOPY RETURNDATASIZE SWAP1 REVERT JUMPDEST PUSH2 0xEC7 SWAP1 PUSH2 0xFBC JUMP JUMPDEST PUSH2 0xED2 JUMPI DUP5 CODESIZE PUSH2 0xE5A JUMP JUMPDEST DUP5 DUP1 REVERT JUMPDEST PUSH1 0x40 MLOAD RETURNDATASIZE DUP5 DUP3 RETURNDATACOPY RETURNDATASIZE SWAP1 REVERT JUMPDEST DUP4 DUP1 REVERT JUMPDEST PUSH1 0x1 DUP1 PUSH1 0xA0 SHL SUB SWAP3 DUP6 DUP5 PUSH1 0x2 DUP6 ADD SLOAD AND SWAP2 DUP6 PUSH1 0x3 DUP7 ADD SLOAD AND SWAP6 PUSH1 0x6 SLOAD AND DUP1 EXTCODESIZE ISZERO PUSH2 0xAA8 JUMPI PUSH2 0xF45 SWAP4 DUP4 PUSH1 0x40 MLOAD DUP1 SWAP7 DUP2 SWAP6 DUP3 SWAP5 PUSH4 0xCEDBA7B PUSH1 0xE0 SHL DUP5 MSTORE PUSH1 0x4 DUP5 ADD MSTORE PUSH8 0x16345785D8A0000 PUSH1 0x24 DUP5 ADD MSTORE PUSH1 0x60 PUSH1 0x44 DUP5 ADD MSTORE PUSH1 0x64 DUP4 ADD SWAP1 PUSH2 0x11C3 JUMP JUMPDEST SUB SWAP3 GAS CALL DUP1 ISZERO PUSH2 0xF6D JUMPI PUSH2 0xF5A JUMPI JUMPDEST POP PUSH2 0xE5D JUMP JUMPDEST PUSH2 0xF66 SWAP1 SWAP6 SWAP2 SWAP6 PUSH2 0xFBC JUMP JUMPDEST SWAP4 CODESIZE PUSH2 0xF54 JUMP JUMPDEST PUSH1 0x40 MLOAD RETURNDATASIZE DUP9 DUP3 RETURNDATACOPY RETURNDATASIZE SWAP1 REVERT JUMPDEST PUSH4 0x4E487B71 PUSH1 0xE0 SHL DUP9 MSTORE PUSH1 0x21 PUSH1 0x4 MSTORE PUSH1 0x24 DUP9 REVERT JUMPDEST SWAP1 POP CALLVALUE PUSH2 0x556 JUMPI DUP2 PUSH1 0x3 NOT CALLDATASIZE ADD SLT PUSH2 0x556 JUMPI PUSH1 0x20 SWAP1 PUSH1 0x2 SLOAD DUP2 MSTORE RETURN JUMPDEST PUSH1 0x24 CALLDATALOAD SWAP1 DUP2 ISZERO ISZERO DUP3 SUB PUSH2 0xFB7 JUMPI JUMP JUMPDEST PUSH1 0x0 DUP1 REVERT JUMPDEST PUSH8 0xFFFFFFFFFFFFFFFF DUP2 GT PUSH2 0xFD0 JUMPI PUSH1 0x40 MSTORE JUMP JUMPDEST PUSH4 0x4E487B71 PUSH1 0xE0 SHL PUSH1 0x0 MSTORE PUSH1 0x41 PUSH1 0x4 MSTORE PUSH1 0x24 PUSH1 0x0 REVERT JUMPDEST PUSH2 0x1A0 DUP2 ADD SWAP1 DUP2 LT PUSH8 0xFFFFFFFFFFFFFFFF DUP3 GT OR PUSH2 0xFD0 JUMPI PUSH1 0x40 MSTORE JUMP JUMPDEST SWAP1 PUSH1 0x1F DUP1 NOT SWAP2 ADD AND DUP2 ADD SWAP1 DUP2 LT PUSH8 0xFFFFFFFFFFFFFFFF DUP3 GT OR PUSH2 0xFD0 JUMPI PUSH1 0x40 MSTORE JUMP JUMPDEST DUP2 PUSH1 0x1F DUP3 ADD SLT ISZERO PUSH2 0xFB7 JUMPI DUP1 CALLDATALOAD SWAP1 PUSH8 0xFFFFFFFFFFFFFFFF DUP3 GT PUSH2 0xFD0 JUMPI PUSH1 0x40 MLOAD SWAP3 PUSH2 0x105A PUSH1 0x1F DUP5 ADD PUSH1 0x1F NOT AND PUSH1 0x20 ADD DUP6 PUSH2 0x1003 JUMP JUMPDEST DUP3 DUP5 MSTORE PUSH1 0x20 DUP4 DUP4 ADD ADD GT PUSH2 0xFB7 JUMPI DUP2 PUSH1 0x0 SWAP3 PUSH1 0x20 DUP1 SWAP4 ADD DUP4 DUP7 ADD CALLDATACOPY DUP4 ADD ADD MSTORE SWAP1 JUMP JUMPDEST PUSH1 0x4 CALLDATALOAD SWAP1 PUSH1 0x1 PUSH1 0x1 PUSH1 0xA0 SHL SUB DUP3 AND DUP3 SUB PUSH2 0xFB7 JUMPI JUMP JUMPDEST DUP1 SLOAD DUP3 LT ISZERO PUSH2 0x10AA JUMPI PUSH1 0x0 MSTORE PUSH1 0x20 PUSH1 0x0 KECCAK256 ADD SWAP1 PUSH1 0x0 SWAP1 JUMP JUMPDEST PUSH4 0x4E487B71 PUSH1 0xE0 SHL PUSH1 0x0 MSTORE PUSH1 0x32 PUSH1 0x4 MSTORE PUSH1 0x24 PUSH1 0x0 REVERT JUMPDEST SWAP1 PUSH1 0x1 DUP3 DUP2 SHR SWAP3 AND DUP1 ISZERO PUSH2 0x10F0 JUMPI JUMPDEST PUSH1 0x20 DUP4 LT EQ PUSH2 0x10DA JUMPI JUMP JUMPDEST PUSH4 0x4E487B71 PUSH1 0xE0 SHL PUSH1 0x0 MSTORE PUSH1 0x22 PUSH1 0x4 MSTORE PUSH1 0x24 PUSH1 0x0 REVERT JUMPDEST SWAP2 PUSH1 0x7F AND SWAP2 PUSH2 0x10CF JUMP JUMPDEST SWAP1 PUSH1 0x40 MLOAD SWAP2 DUP3 PUSH1 0x0 DUP3 SLOAD SWAP3 PUSH2 0x110E DUP5 PUSH2 0x10C0 JUMP JUMPDEST SWAP1 DUP2 DUP5 MSTORE PUSH1 0x1 SWAP5 DUP6 DUP2 AND SWAP1 DUP2 PUSH1 0x0 EQ PUSH2 0x117D JUMPI POP PUSH1 0x1 EQ PUSH2 0x113A JUMPI JUMPDEST POP POP PUSH2 0x1138 SWAP3 POP SUB DUP4 PUSH2 0x1003 JUMP JUMPDEST JUMP JUMPDEST SWAP1 SWAP4 SWAP2 POP PUSH1 0x0 MSTORE PUSH1 0x20 SWAP1 DUP2 PUSH1 0x0 KECCAK256 SWAP4 PUSH1 0x0 SWAP2 JUMPDEST DUP2 DUP4 LT PUSH2 0x1165 JUMPI POP POP PUSH2 0x1138 SWAP4 POP DUP3 ADD ADD CODESIZE DUP1 PUSH2 0x112A JUMP JUMPDEST DUP6 SLOAD DUP9 DUP5 ADD DUP6 ADD MSTORE SWAP5 DUP6 ADD SWAP5 DUP8 SWAP5 POP SWAP2 DUP4 ADD SWAP2 PUSH2 0x114D JUMP JUMPDEST SWAP2 POP POP PUSH2 0x1138 SWAP5 POP PUSH1 0x20 SWAP3 POP PUSH1 0xFF NOT AND DUP3 DUP5 ADD MSTORE ISZERO ISZERO PUSH1 0x5 SHL DUP3 ADD ADD CODESIZE DUP1 PUSH2 0x112A JUMP JUMPDEST SWAP1 PUSH1 0x2 DUP3 LT ISZERO PUSH2 0x11AD JUMPI MSTORE JUMP JUMPDEST PUSH4 0x4E487B71 PUSH1 0xE0 SHL PUSH1 0x0 MSTORE PUSH1 0x21 PUSH1 0x4 MSTORE PUSH1 0x24 PUSH1 0x0 REVERT JUMPDEST SWAP2 SWAP1 DUP3 MLOAD SWAP3 DUP4 DUP3 MSTORE PUSH1 0x0 JUMPDEST DUP5 DUP2 LT PUSH2 0x11EF JUMPI POP POP DUP3 PUSH1 0x0 PUSH1 0x20 DUP1 SWAP5 SWAP6 DUP5 ADD ADD MSTORE PUSH1 0x1F DUP1 NOT SWAP2 ADD AND ADD ADD SWAP1 JUMP JUMPDEST PUSH1 0x20 DUP2 DUP4 ADD DUP2 ADD MLOAD DUP5 DUP4 ADD DUP3 ADD MSTORE ADD PUSH2 0x11CE JUMP JUMPDEST SWAP1 PUSH1 0x3 DUP3 LT ISZERO PUSH2 0x11AD JUMPI MSTORE JUMP JUMPDEST PUSH1 0x1 SLOAD PUSH1 0x1 PUSH1 0x1 PUSH1 0xA0 SHL SUB AND CALLER SUB PUSH2 0x1224 JUMPI JUMP JUMPDEST PUSH1 0x40 MLOAD PUSH4 0x118CDAA7 PUSH1 0xE0 SHL DUP2 MSTORE CALLER PUSH1 0x4 DUP3 ADD MSTORE PUSH1 0x24 SWAP1 REVERT JUMPDEST SWAP1 DUP2 PUSH1 0x20 SWAP2 SUB SLT PUSH2 0xFB7 JUMPI MLOAD DUP1 ISZERO ISZERO DUP2 SUB PUSH2 0xFB7 JUMPI SWAP1 JUMP JUMPDEST ISZERO PUSH2 0x125B JUMPI JUMP JUMPDEST PUSH1 0x40 MLOAD PUSH3 0x461BCD PUSH1 0xE5 SHL DUP2 MSTORE PUSH1 0x20 PUSH1 0x4 DUP3 ADD MSTORE PUSH1 0x25 PUSH1 0x24 DUP3 ADD MSTORE PUSH32 0x55736572206D757374206265207374616B656420746F20637265617465206469 PUSH1 0x44 DUP3 ADD MSTORE PUSH5 0x7370757465 PUSH1 0xD8 SHL PUSH1 0x64 DUP3 ADD MSTORE PUSH1 0x84 SWAP1 REVERT JUMPDEST ISZERO PUSH2 0x12B5 JUMPI JUMP JUMPDEST PUSH1 0x40 MLOAD PUSH3 0x461BCD PUSH1 0xE5 SHL DUP2 MSTORE PUSH1 0x20 PUSH1 0x4 DUP3 ADD MSTORE PUSH1 0x13 PUSH1 0x24 DUP3 ADD MSTORE PUSH19 0x44697370757465206E6F742070656E64696E67 PUSH1 0x68 SHL PUSH1 0x44 DUP3 ADD MSTORE PUSH1 0x64 SWAP1 REVERT JUMPDEST SWAP1 ISZERO PUSH2 0x135D JUMPI PUSH1 0x6 SLOAD PUSH1 0x40 MLOAD PUSH4 0x52261A0D PUSH1 0xE1 SHL DUP2 MSTORE PUSH1 0x1 PUSH1 0x1 PUSH1 0xA0 SHL SUB SWAP3 DUP4 AND PUSH1 0x4 DUP3 ADD MSTORE SWAP2 PUSH1 0x20 SWAP2 DUP4 SWAP2 PUSH1 0x24 SWAP2 DUP4 SWAP2 AND GAS STATICCALL SWAP1 DUP2 ISZERO PUSH2 0x1351 JUMPI PUSH1 0x0 SWAP2 PUSH2 0x1336 JUMPI POP SWAP1 JUMP JUMPDEST PUSH2 0x134E SWAP2 POP PUSH1 0x20 RETURNDATASIZE DUP2 GT PUSH2 0x9E6 JUMPI PUSH2 0x9D8 DUP2 DUP4 PUSH2 0x1003 JUMP JUMPDEST SWAP1 JUMP JUMPDEST PUSH1 0x40 MLOAD RETURNDATASIZE PUSH1 0x0 DUP3 RETURNDATACOPY RETURNDATASIZE SWAP1 REVERT JUMPDEST PUSH1 0x6 SLOAD PUSH1 0x40 MLOAD PUSH4 0x52261A0D PUSH1 0xE1 SHL DUP2 MSTORE PUSH1 0x1 PUSH1 0x1 PUSH1 0xA0 SHL SUB SWAP3 DUP4 AND PUSH1 0x4 DUP3 ADD MSTORE SWAP2 PUSH1 0x20 SWAP2 DUP4 SWAP2 PUSH1 0x24 SWAP2 DUP4 SWAP2 AND GAS STATICCALL SWAP1 DUP2 ISZERO PUSH2 0x1351 JUMPI PUSH1 0x0 SWAP2 PUSH2 0x1336 JUMPI POP SWAP1 JUMP INVALID LOG2 PUSH5 0x6970667358 0x22 SLT KECCAK256 0xB4 PUSH9 0x8A3CAB4BB3F6E1338A OR PUSH31 0xBD34D2E71D507DF0BC744FCEE89C37B06C9E7164736F6C6343000814003300 "},"methodIdentifiers":{"bookingToDispute(uint256)":"86725fe9","canCreateDispute(address,bool)":"64d501eb","cancelDispute(uint256)":"df02935c","createDispute(uint256,bool,string,string)":"ad330419","disputes(uint256)":"564a565d","getBookingDispute(uint256)":"4897e987","getDispute(uint256)":"e3a96cbd","getDisputesCount()":"9c63558a","getUserDisputes(address)":"bfb0a55b","nextDisputeId()":"0db39934","owner()":"8da5cb5b","renounceOwnership()":"715018a6","resolveDispute(uint256,bool,string)":"2840662d","stakingContract()":"ee99205c","transferOwnership(address)":"f2fde38b","userDisputes(address,uint256)":"3dc04159"}}}}}