{
  "_format": "hh-sol-artifact-1",
  "contractName": "DisputeResolution",
  "sourceName": "contracts/DisputeResolution.sol",
  "abi": [
    {
      "inputs": [
        {
          "internalType": "address",
          "name": "_stakingContract",
          "type": "address"
        }
      ],
      "stateMutability": "nonpayable",
      "type": "constructor"
    },
    {
      "inputs": [
        {
          "internalType": "address",
          "name": "owner",
          "type": "address"
        }
      ],
      "name": "OwnableInvalidOwner",
      "type": "error"
    },
    {
      "inputs": [
        {
          "internalType": "address",
          "name": "account",
          "type": "address"
        }
      ],
      "name": "OwnableUnauthorizedAccount",
      "type": "error"
    },
    {
      "inputs": [],
      "name": "ReentrancyGuardReentrantCall",
      "type": "error"
    },
    {
      "anonymous": false,
      "inputs": [
        {
          "indexed": true,
          "internalType": "uint256",
          "name": "disputeId",
          "type": "uint256"
        }
      ],
      "name": "DisputeCancelled",
      "type": "event"
    },
    {
      "anonymous": false,
      "inputs": [
        {
          "indexed": true,
          "internalType": "uint256",
          "name": "disputeId",
          "type": "uint256"
        },
        {
          "indexed": true,
          "internalType": "uint256",
          "name": "bookingId",
          "type": "uint256"
        },
        {
          "indexed": true,
          "internalType": "address",
          "name": "initiator",
          "type": "address"
        }
      ],
      "name": "DisputeCreated",
      "type": "event"
    },
    {
      "anonymous": false,
      "inputs": [
        {
          "indexed": true,
          "internalType": "uint256",
          "name": "disputeId",
          "type": "uint256"
        },
        {
          "indexed": false,
          "internalType": "bool",
          "name": "hostAtFault",
          "type": "bool"
        },
        {
          "indexed": false,
          "internalType": "uint256",
          "name": "slashedAmount",
          "type": "uint256"
        }
      ],
      "name": "DisputeResolved",
      "type": "event"
    },
    {
      "anonymous": false,
      "inputs": [
        {
          "indexed": true,
          "internalType": "address",
          "name": "previousOwner",
          "type": "address"
        },
        {
          "indexed": true,
          "internalType": "address",
          "name": "newOwner",
          "type": "address"
        }
      ],
      "name": "OwnershipTransferred",
      "type": "event"
    },
    {
      "inputs": [
        {
          "internalType": "uint256",
          "name": "",
          "type": "uint256"
        }
      ],
      "name": "bookingToDispute",
      "outputs": [
        {
          "internalType": "uint256",
          "name": "",
          "type": "uint256"
        }
      ],
      "stateMutability": "view",
      "type": "function"
    },
    {
      "inputs": [
        {
          "internalType": "address",
          "name": "_user",
          "type": "address"
        },
        {
          "internalType": "bool",
          "name": "_isGuest",
          "type": "bool"
        }
      ],
      "name": "canCreateDispute",
      "outputs": [
        {
          "internalType": "bool",
          "name": "",
          "type": "bool"
        }
      ],
      "stateMutability": "view",
      "type": "function"
    },
    {
      "inputs": [
        {
          "internalType": "uint256",
          "name": "_disputeId",
          "type": "uint256"
        }
      ],
      "name": "cancelDispute",
      "outputs": [],
      "stateMutability": "nonpayable",
      "type": "function"
    },
    {
      "inputs": [
        {
          "internalType": "uint256",
          "name": "_bookingId",
          "type": "uint256"
        },
        {
          "internalType": "bool",
          "name": "_isGuestDispute",
          "type": "bool"
        },
        {
          "internalType": "string",
          "name": "_reason",
          "type": "string"
        },
        {
          "internalType": "string",
          "name": "_evidence",
          "type": "string"
        }
      ],
      "name": "createDispute",
      "outputs": [],
      "stateMutability": "nonpayable",
      "type": "function"
    },
    {
      "inputs": [
        {
          "internalType": "uint256",
          "name": "",
          "type": "uint256"
        }
      ],
      "name": "disputes",
      "outputs": [
        {
          "internalType": "uint256",
          "name": "id",
          "type": "uint256"
        },
        {
          "internalType": "uint256",
          "name": "bookingId",
          "type": "uint256"
        },
        {
          "internalType": "address",
          "name": "initiator",
          "type": "address"
        },
        {
          "internalType": "address",
          "name": "otherParty",
          "type": "address"
        },
        {
          "internalType": "enum DisputeResolution.DisputeType",
          "name": "disputeType",
          "type": "uint8"
        },
        {
          "internalType": "string",
          "name": "reason",
          "type": "string"
        },
        {
          "internalType": "string",
          "name": "evidence",
          "type": "string"
        },
        {
          "internalType": "enum DisputeResolution.DisputeStatus",
          "name": "status",
          "type": "uint8"
        },
        {
          "internalType": "address",
          "name": "arbitrator",
          "type": "address"
        },
        {
          "internalType": "uint256",
          "name": "createdAt",
          "type": "uint256"
        },
        {
          "internalType": "uint256",
          "name": "resolvedAt",
          "type": "uint256"
        },
        {
          "internalType": "bool",
          "name": "hostAtFault",
          "type": "bool"
        },
        {
          "internalType": "uint256",
          "name": "slashedAmount",
          "type": "uint256"
        }
      ],
      "stateMutability": "view",
      "type": "function"
    },
    {
      "inputs": [
        {
          "internalType": "uint256",
          "name": "_bookingId",
          "type": "uint256"
        }
      ],
      "name": "getBookingDispute",
      "outputs": [
        {
          "internalType": "uint256",
          "name": "",
          "type": "uint256"
        }
      ],
      "stateMutability": "view",
      "type": "function"
    },
    {
      "inputs": [
        {
          "internalType": "uint256",
          "name": "_disputeId",
          "type": "uint256"
        }
      ],
      "name": "getDispute",
      "outputs": [
        {
          "components": [
            {
              "internalType": "uint256",
              "name": "id",
              "type": "uint256"
            },
            {
              "internalType": "uint256",
              "name": "bookingId",
              "type": "uint256"
            },
            {
              "internalType": "address",
              "name": "initiator",
              "type": "address"
            },
            {
              "internalType": "address",
              "name": "otherParty",
              "type": "address"
            },
            {
              "internalType": "enum DisputeResolution.DisputeType",
              "name": "disputeType",
              "type": "uint8"
            },
            {
              "internalType": "string",
              "name": "reason",
              "type": "string"
            },
            {
              "internalType": "string",
              "name": "evidence",
              "type": "string"
            },
            {
              "internalType": "enum DisputeResolution.DisputeStatus",
              "name": "status",
              "type": "uint8"
            },
            {
              "internalType": "address",
              "name": "arbitrator",
              "type": "address"
            },
            {
              "internalType": "uint256",
              "name": "createdAt",
              "type": "uint256"
            },
            {
              "internalType": "uint256",
              "name": "resolvedAt",
              "type": "uint256"
            },
            {
              "internalType": "bool",
              "name": "hostAtFault",
              "type": "bool"
            },
            {
              "internalType": "uint256",
              "name": "slashedAmount",
              "type": "uint256"
            }
          ],
          "internalType": "struct DisputeResolution.Dispute",
          "name": "",
          "type": "tuple"
        }
      ],
      "stateMutability": "view",
      "type": "function"
    },
    {
      "inputs": [],
      "name": "getDisputesCount",
      "outputs": [
        {
          "internalType": "uint256",
          "name": "",
          "type": "uint256"
        }
      ],
      "stateMutability": "view",
      "type": "function"
    },
    {
      "inputs": [
        {
          "internalType": "address",
          "name": "_user",
          "type": "address"
        }
      ],
      "name": "getUserDisputes",
      "outputs": [
        {
          "internalType": "uint256[]",
          "name": "",
          "type": "uint256[]"
        }
      ],
      "stateMutability": "view",
      "type": "function"
    },
    {
      "inputs": [],
      "name": "nextDisputeId",
      "outputs": [
        {
          "internalType": "uint256",
          "name": "",
          "type": "uint256"
        }
      ],
      "stateMutability": "view",
      "type": "function"
    },
    {
      "inputs": [],
      "name": "owner",
      "outputs": [
        {
          "internalType": "address",
          "name": "",
          "type": "address"
        }
      ],
      "stateMutability": "view",
      "type": "function"
    },
    {
      "inputs": [],
      "name": "renounceOwnership",
      "outputs": [],
      "stateMutability": "nonpayable",
      "type": "function"
    },
    {
      "inputs": [
        {
          "internalType": "uint256",
          "name": "_disputeId",
          "type": "uint256"
        },
        {
          "internalType": "bool",
          "name": "_hostAtFault",
          "type": "bool"
        },
        {
          "internalType": "string",
          "name": "_resolution",
          "type": "string"
        }
      ],
      "name": "resolveDispute",
      "outputs": [],
      "stateMutability": "nonpayable",
      "type": "function"
    },
    {
      "inputs": [],
      "name": "stakingContract",
      "outputs": [
        {
          "internalType": "contract WorldBNBStaking",
          "name": "",
          "type": "address"
        }
      ],
      "stateMutability": "view",
      "type": "function"
    },
    {
      "inputs": [
        {
          "internalType": "address",
          "name": "newOwner",
          "type": "address"
        }
      ],
      "name": "transferOwnership",
      "outputs": [],
      "stateMutability": "nonpayable",
      "type": "function"
    },
    {
      "inputs": [
        {
          "internalType": "address",
          "name": "",
          "type": "address"
        },
        {
          "internalType": "uint256",
          "name": "",
          "type": "uint256"
        }
      ],
      "name": "userDisputes",
      "outputs": [
        {
          "internalType": "uint256",
          "name": "",
          "type": "uint256"
        }
      ],
      "stateMutability": "view",
      "type": "function"
    }
  ],
  "bytecode": "0x6080346100d257601f6114c138819003918201601f19168301916001600160401b038311848410176100d7578084926020946040528339810103126100d257516001600160a01b0390818116908190036100d257600160005533156100b95760018054336001600160a01b03198083168217909355604051949091167f8be0079c531659141344cd1fd0a4f28419497f9722a3daafe3b4186f6b6457e0600080a3600160025560065416176006556113d390816100ee8239f35b604051631e4fbdf760e01b815260006004820152602490fd5b600080fd5b634e487b7160e01b600052604160045260246000fdfe608080604052600436101561001357600080fd5b600090813560e01c9081630db3993414610f8c575080632840662d14610d305780633dc0415914610cda5780634897e98714610b15578063564a565d14610bd457806364d501eb14610b9d578063715018a614610b3f57806386725fe914610b155780638da5cb5b14610aec5780639c63558a14610aac578063ad3304191461055a578063bfb0a55b146104a8578063df02935c146103cd578063e3a96cbd1461018c578063ee99205c146101635763f2fde38b146100d157600080fd5b34610160576020366003190112610160576100ea61107c565b6100f2611210565b6001600160a01b0390811690811561014757600154826bffffffffffffffffffffffff60a01b821617600155167f8be0079c531659141344cd1fd0a4f28419497f9722a3daafe3b4186f6b6457e0600080a380f35b604051631e4fbdf760e01b815260048101849052602490fd5b80fd5b50346101605780600319360112610160576006546040516001600160a01b039091168152602090f35b503461016057602036600319011261016057806101806040516101ae81610fe6565b828152826020820152826040820152826060820152826080820152606060a0820152606060c08201528260e082015282610100820152826101208201528261014082015282610160820152015260043581526003602052604081206040519061021682610fe6565b80548252600181015460208301526002808201546001600160a01b0390811660408501526003830154908116606085015260a01c60ff16908110156103b9576080830152610266600482016110fa565b60a0830152610277600582016110fa565b60c08301526006810154600360ff821610156103b957908160ff600a931660e085015260018060a01b039060081c166101008401526007810154610120840152600881015461014084015260ff60098201541615156101608401520154610180820152604051809160208252805160208301526020810151604083015260018060a01b03604082015116606083015260018060a01b03606082015116608083015261032a608082015160a08401906111a0565b60a081015161018061036361034d6101a0938460c08801526101c08701906111c3565b60c0850151868203601f190160e08801526111c3565b9261037760e0820151610100870190611203565b60018060a01b03610100820151166101208601526101208101516101408601526101408101516101608601526101608101511515828601520151908301520390f35b634e487b7160e01b84526021600452602484fd5b50346101605760203660031901126101605760043580825260036020526040822060028101546001600160a01b0316330361046357600601805460ff8116600381101561044f5790610421600292156112ae565b60ff19161790557f7fe0314ddd8432eac273e729cc289f5a8f8a7860761b74472f4782fbaccd2c5f8280a280f35b634e487b7160e01b85526021600452602485fd5b60405162461bcd60e51b815260206004820152601960248201527f4f6e6c7920696e69746961746f722063616e2063616e63656c000000000000006044820152606490fd5b503461016057602080600319360112610556576001600160a01b036104cb61107c565b168252600581526040822060405192838383549182815201908193835284832090835b8181106105425750505084610504910385611003565b60405193838594850191818652518092526040850193925b82811061052b57505050500390f35b83518552869550938101939281019260010161051c565b8254845292860192600192830192016104ee565b5080fd5b503461016057608036600319011261016057610574610fa8565b9060443567ffffffffffffffff811161055657610595903690600401611025565b60643567ffffffffffffffff8111610aa8576105b5903690600401611025565b9260029182845414610a9657828455600435845260046020526040842054610a415781156109f8576006546040516352261a0d60e11b815233600482015290602090829060249082906001600160a01b03165afa9081156109ed57906106229186916109be575b50611254565b82549260001984146109aa57600184018155838552600360205260408520928484556004356001850155818401336bffffffffffffffffffffffff60a01b8254161790556000146109a25784905b81101561044f5760038301805460ff60a01b191660a09290921b60ff60a01b1691909117905580519067ffffffffffffffff821161098e5781906106b760048501546110c0565b601f811161093d575b50602090601f83116001146108ce5786926108c3575b50508160011b916000199060031b1c19161760048201555b835167ffffffffffffffff81116107f35761070c60058301546110c0565b601f811161087e575b506020601f82116001146108125784958293949592610807575b50508160011b916000199060031b1c19161760058201555b60068101805460ff1916905542600782015560030180546001600160a01b031916301790556004803583526020908152604080842083905533845260059091528220805490680100000000000000008210156107f357906107ad91600182018155611092565b81549060031b9083821b91600019901b19161790553390600435907f89b79bdd21d92f99bbf75358698d6a2b7a0a48fe9467a9ff8e5bac1ac638a3fc8480a46001815580f35b634e487b7160e01b84526041600452602484fd5b01519050388061072f565b6005830185526020852090855b601f1984168110610866575060019394959683601f1981161061084d575b505050811b016005820155610747565b015160001960f88460031b161c1916905538808061083d565b9091602060018192858b01518155019301910161081f565b60058301855260208520601f830160051c8101602084106108bc575b601f830160051c820181106108b0575050610715565b6000815560010161089a565b508061089a565b0151905038806106d6565b9250600484018652602086209086935b601f1984168510610922576001945083601f19811610610909575b505050811b0160048201556106ee565b015160001960f88460031b161c191690553880806108f9565b818101518355602094850194600190930192909101906108de565b90915060048401865260208620601f840160051c810160208510610987575b90849392915b601f830160051c820181106109785750506106c0565b60008155859450600101610962565b508061095c565b634e487b7160e01b85526041600452602485fd5b600190610670565b634e487b7160e01b85526011600452602485fd5b6109e0915060203d6020116109e6575b6109d88183611003565b81019061123c565b3861061c565b503d6109ce565b6040513d87823e3d90fd5b6006546040516352261a0d60e11b815233600482015290602090829060249082906001600160a01b03165afa9081156109ed5790610a3c9186916109be5750611254565b610622565b60405162461bcd60e51b815260206004820152602760248201527f4469737075746520616c72656164792065786973747320666f72207468697320604482015266626f6f6b696e6760c81b6064820152608490fd5b604051633ee5aeb560e01b8152600490fd5b8280fd5b5034610160578060031936011261016057600254600019810191908211610ad857602082604051908152f35b634e487b7160e01b81526011600452602490fd5b50346101605780600319360112610160576001546040516001600160a01b039091168152602090f35b50346101605760203660031901126101605760406020916004358152600483522054604051908152f35b5034610160578060031936011261016057610b58611210565b600180546001600160a01b031981169091556000906001600160a01b03167f8be0079c531659141344cd1fd0a4f28419497f9722a3daafe3b4186f6b6457e08280a380f35b5034610160576040366003190112610160576020610bca610bbc61107c565b610bc4610fa8565b906112f0565b6040519015158152f35b50346101605760203660031901126101605760043581526003602052604090208054600182015491600160a01b60019003908160028201541690600381015460048201610c20906110fa565b610c2c600584016110fa565b94600684015495600785015492600886015494600987015460ff1696600a0154976040519b8c9b8c5260208c015260408b015283811660608b015260808a019060a01c60ff1690610c7c916111a0565b6101a08060a08b01528901610c90916111c3565b88810360c08a0152610ca1916111c3565b95610cb260e0890160ff8316611203565b60081c1661010087015261012086015261014085015215156101608401526101808301520390f35b503461016057604036600319011261016057610cf461107c565b6001600160a01b0316815260056020526040812080546024359290831015610160576020610d228484611092565b90546040519160031b1c8152f35b503461016057606036600319011261016057600435610d4d610fa8565b60443567ffffffffffffffff8111610ee157610d6d903690600401611025565b90610d76611210565b82845260036020526040842090600682019081549160ff83166003811015610f7857610da290156112ae565b600160098501938315159460ff1981541660ff87161790554260088701556101008260a81b033360081b16906affffffffffffffffffffff60a81b1617179055600014610ee5578460018060a01b03938460038501541685600286015416956006541691823b15610ee157610e4b92849283604051809681958294630cedba7b60e01b8452600484015267016345785d8a000060248401526060604484015260648301906111c3565b03925af18015610ed657610ebe575b50505b8480808067016345785d8a0000809760018060a01b031682f115610eb357827f5add0b1fc2a3dfd95be33d1d5feb6709087e50213b7a73c3c3b2c387001221e793600a604094015582519182526020820152a280f35b6040513d86823e3d90fd5b610ec790610fbc565b610ed2578438610e5a565b8480fd5b6040513d84823e3d90fd5b8380fd5b60018060a01b0392858460028501541691856003860154169560065416803b15610aa857610f459383604051809681958294630cedba7b60e01b8452600484015267016345785d8a000060248401526060604484015260648301906111c3565b03925af18015610f6d57610f5a575b50610e5d565b610f6690959195610fbc565b9338610f54565b6040513d88823e3d90fd5b634e487b7160e01b88526021600452602488fd5b9050346105565781600319360112610556576020906002548152f35b602435908115158203610fb757565b600080fd5b67ffffffffffffffff8111610fd057604052565b634e487b7160e01b600052604160045260246000fd5b6101a0810190811067ffffffffffffffff821117610fd057604052565b90601f8019910116810190811067ffffffffffffffff821117610fd057604052565b81601f82011215610fb75780359067ffffffffffffffff8211610fd0576040519261105a601f8401601f191660200185611003565b82845260208383010111610fb757816000926020809301838601378301015290565b600435906001600160a01b0382168203610fb757565b80548210156110aa5760005260206000200190600090565b634e487b7160e01b600052603260045260246000fd5b90600182811c921680156110f0575b60208310146110da57565b634e487b7160e01b600052602260045260246000fd5b91607f16916110cf565b906040519182600082549261110e846110c0565b90818452600194858116908160001461117d575060011461113a575b505061113892500383611003565b565b9093915060005260209081600020936000915b8183106111655750506111389350820101388061112a565b8554888401850152948501948794509183019161114d565b91505061113894506020925060ff191682840152151560051b820101388061112a565b9060028210156111ad5752565b634e487b7160e01b600052602160045260246000fd5b919082519283825260005b8481106111ef575050826000602080949584010152601f8019910116010190565b6020818301810151848301820152016111ce565b9060038210156111ad5752565b6001546001600160a01b0316330361122457565b60405163118cdaa760e01b8152336004820152602490fd5b90816020910312610fb757518015158103610fb75790565b1561125b57565b60405162461bcd60e51b815260206004820152602560248201527f55736572206d757374206265207374616b656420746f20637265617465206469604482015264737075746560d81b6064820152608490fd5b156112b557565b60405162461bcd60e51b815260206004820152601360248201527244697370757465206e6f742070656e64696e6760681b6044820152606490fd5b901561135d576006546040516352261a0d60e11b81526001600160a01b0392831660048201529160209183916024918391165afa90811561135157600091611336575090565b61134e915060203d81116109e6576109d88183611003565b90565b6040513d6000823e3d90fd5b6006546040516352261a0d60e11b81526001600160a01b0392831660048201529160209183916024918391165afa9081156113515760009161133657509056fea2646970667358221220b4688a3cab4bb3f6e1338a177ebd34d2e71d507df0bc744fcee89c37b06c9e7164736f6c63430008140033",
  "linkReferences": {},
  "deployedLinkReferences": {}
}