{
  "_format": "hh-sol-artifact-1",
  "contractName": "WorldBNBStaking",
  "sourceName": "contracts/WorldBNBStaking.sol",
  "abi": [
    {
      "inputs": [],
      "stateMutability": "nonpayable",
      "type": "constructor"
    },
    {
      "inputs": [
        {
          "internalType": "address",
          "name": "owner",
          "type": "address"
        }
      ],
      "name": "OwnableInvalidOwner",
      "type": "error"
    },
    {
      "inputs": [
        {
          "internalType": "address",
          "name": "account",
          "type": "address"
        }
      ],
      "name": "OwnableUnauthorizedAccount",
      "type": "error"
    },
    {
      "inputs": [],
      "name": "ReentrancyGuardReentrantCall",
      "type": "error"
    },
    {
      "anonymous": false,
      "inputs": [
        {
          "indexed": true,
          "internalType": "address",
          "name": "previousOwner",
          "type": "address"
        },
        {
          "indexed": true,
          "internalType": "address",
          "name": "newOwner",
          "type": "address"
        }
      ],
      "name": "OwnershipTransferred",
      "type": "event"
    },
    {
      "anonymous": false,
      "inputs": [
        {
          "indexed": true,
          "internalType": "address",
          "name": "user",
          "type": "address"
        },
        {
          "indexed": false,
          "internalType": "uint256",
          "name": "amount",
          "type": "uint256"
        },
        {
          "indexed": false,
          "internalType": "string",
          "name": "reason",
          "type": "string"
        }
      ],
      "name": "StakeSlashed",
      "type": "event"
    },
    {
      "anonymous": false,
      "inputs": [
        {
          "indexed": true,
          "internalType": "address",
          "name": "user",
          "type": "address"
        },
        {
          "indexed": false,
          "internalType": "uint256",
          "name": "amount",
          "type": "uint256"
        }
      ],
      "name": "UserStaked",
      "type": "event"
    },
    {
      "anonymous": false,
      "inputs": [
        {
          "indexed": true,
          "internalType": "address",
          "name": "user",
          "type": "address"
        },
        {
          "indexed": false,
          "internalType": "uint256",
          "name": "amount",
          "type": "uint256"
        }
      ],
      "name": "UserUnstaked",
      "type": "event"
    },
    {
      "inputs": [
        {
          "internalType": "address",
          "name": "user",
          "type": "address"
        }
      ],
      "name": "getUserStake",
      "outputs": [
        {
          "internalType": "uint256",
          "name": "",
          "type": "uint256"
        }
      ],
      "stateMutability": "view",
      "type": "function"
    },
    {
      "inputs": [
        {
          "internalType": "address",
          "name": "",
          "type": "address"
        }
      ],
      "name": "isStaked",
      "outputs": [
        {
          "internalType": "bool",
          "name": "",
          "type": "bool"
        }
      ],
      "stateMutability": "view",
      "type": "function"
    },
    {
      "inputs": [
        {
          "internalType": "address",
          "name": "user",
          "type": "address"
        }
      ],
      "name": "isUserStaked",
      "outputs": [
        {
          "internalType": "bool",
          "name": "",
          "type": "bool"
        }
      ],
      "stateMutability": "view",
      "type": "function"
    },
    {
      "inputs": [],
      "name": "owner",
      "outputs": [
        {
          "internalType": "address",
          "name": "",
          "type": "address"
        }
      ],
      "stateMutability": "view",
      "type": "function"
    },
    {
      "inputs": [],
      "name": "renounceOwnership",
      "outputs": [],
      "stateMutability": "nonpayable",
      "type": "function"
    },
    {
      "inputs": [],
      "name": "requiredStake",
      "outputs": [
        {
          "internalType": "uint256",
          "name": "",
          "type": "uint256"
        }
      ],
      "stateMutability": "view",
      "type": "function"
    },
    {
      "inputs": [
        {
          "internalType": "uint256",
          "name": "_stake",
          "type": "uint256"
        }
      ],
      "name": "setRequiredStake",
      "outputs": [],
      "stateMutability": "nonpayable",
      "type": "function"
    },
    {
      "inputs": [
        {
          "internalType": "address",
          "name": "user",
          "type": "address"
        },
        {
          "internalType": "uint256",
          "name": "amount",
          "type": "uint256"
        },
        {
          "internalType": "string",
          "name": "reason",
          "type": "string"
        }
      ],
      "name": "slashStake",
      "outputs": [],
      "stateMutability": "nonpayable",
      "type": "function"
    },
    {
      "inputs": [
        {
          "internalType": "address",
          "name": "",
          "type": "address"
        }
      ],
      "name": "slashedAmounts",
      "outputs": [
        {
          "internalType": "uint256",
          "name": "",
          "type": "uint256"
        }
      ],
      "stateMutability": "view",
      "type": "function"
    },
    {
      "inputs": [],
      "name": "stake",
      "outputs": [],
      "stateMutability": "payable",
      "type": "function"
    },
    {
      "inputs": [],
      "name": "totalSlashed",
      "outputs": [
        {
          "internalType": "uint256",
          "name": "",
          "type": "uint256"
        }
      ],
      "stateMutability": "view",
      "type": "function"
    },
    {
      "inputs": [],
      "name": "totalStakes",
      "outputs": [
        {
          "internalType": "uint256",
          "name": "",
          "type": "uint256"
        }
      ],
      "stateMutability": "view",
      "type": "function"
    },
    {
      "inputs": [
        {
          "internalType": "address",
          "name": "newOwner",
          "type": "address"
        }
      ],
      "name": "transferOwnership",
      "outputs": [],
      "stateMutability": "nonpayable",
      "type": "function"
    },
    {
      "inputs": [],
      "name": "unstake",
      "outputs": [],
      "stateMutability": "nonpayable",
      "type": "function"
    },
    {
      "inputs": [
        {
          "internalType": "address",
          "name": "",
          "type": "address"
        }
      ],
      "name": "userStakes",
      "outputs": [
        {
          "internalType": "uint256",
          "name": "",
          "type": "uint256"
        }
      ],
      "stateMutability": "view",
      "type": "function"
    },
    {
      "inputs": [],
      "name": "withdrawSlashedFunds",
      "outputs": [],
      "stateMutability": "nonpayable",
      "type": "function"
    }
  ],
  "bytecode": "0x6080806040523461008b57600160005533156100755760018054336001600160a01b03198216811790925560405191906001600160a01b03167f8be0079c531659141344cd1fd0a4f28419497f9722a3daafe3b4186f6b6457e0600080a367016345785d8a00006002556108e090816100918239f35b631e4fbdf760e01b815260006004820152602490fd5b600080fdfe6040608081526004908136101561001557600080fd5b600091823560e01c8063080da133146107805780630cedba7b1461054957806319cb355d1461052a5780632def6620146103fe5780633a4b66f1146102fc5780634409aa53146102c45780636177fd18146101e0578063715018a6146102645780638da5cb5b1461023b5780638da7ad2314610186578063a201bbdd1461021c578063a44c341a146101e0578063af9cb9f6146101be578063bbadc93a14610186578063bf9befb1146101635763f2fde38b146100d157600080fd5b3461015f57602036600319011261015f576100ea610810565b906100f361082b565b6001600160a01b03918216928315610149575050600154826bffffffffffffffffffffffff60a01b821617600155167f8be0079c531659141344cd1fd0a4f28419497f9722a3daafe3b4186f6b6457e08380a380f35b51631e4fbdf760e01b8152908101849052602490fd5b8280fd5b5050346101825781600319360112610182576020906005549051908152f35b5080fd5b5050346101825760203660031901126101825760209181906001600160a01b036101ae610810565b1681526003845220549051908152f35b838234610182576020366003190112610182576101d961082b565b3560025580f35b503461015f57602036600319011261015f5760209260ff918391906001600160a01b0361020b610810565b168252855220541690519015158152f35b5050346101825781600319360112610182576020906007549051908152f35b50503461018257816003193601126101825760015490516001600160a01b039091168152602090f35b83346102c157806003193601126102c15761027d61082b565b600180546001600160a01b0319811690915581906001600160a01b03167f8be0079c531659141344cd1fd0a4f28419497f9722a3daafe3b4186f6b6457e08280a380f35b80fd5b5050346101825760203660031901126101825760209181906001600160a01b036102ec610810565b1681526006845220549051908152f35b508260031936011261015f5761031061087a565b60025434106103bc573383528060205260ff82842054166103895733835260036020523482842055602052808220600160ff1982541617905561035534600554610857565b600555513481527f8c265adcfa641899d6632b86254dda7a76f27701f1d21a732621d51f2328c46060203392a26001815580f35b6020606492519162461bcd60e51b8352820152600e60248201526d105b1c9958591e481cdd185ad95960921b6044820152fd5b6020606492519162461bcd60e51b8352820152601960248201527f496e73756666696369656e74207374616b6520616d6f756e74000000000000006044820152fd5b503461015f578260031936011261015f5761041761087a565b338352602081815260ff8385205416156104fd573384526003815282842054156104c65733845260038152828420918483549355815282842060ff1981541690556104648260055461089d565b60055583808380156104bc575b8280929181923390f1156104b0577f668647a3bf871c3ff8779af5157eda0c0d6de3f7af4a3468d3ecc571fc413adb9192519283523392a26001815580f35b505051903d90823e3d90fd5b6108fc9150610471565b606492519162461bcd60e51b835282015260146024820152734e6f207374616b6520746f20776974686472617760601b6044820152fd5b606492519162461bcd60e51b8352820152600a602482015269139bdd081cdd185ad95960b21b6044820152fd5b5050346101825781600319360112610182576020906002549051908152f35b508290346101825760608060031936011261015f57610566610810565b9160249485359360443567ffffffffffffffff9384821161077c573660238301121561077c57818101359285841161076a57845192601f199687603f81601f89011601168501908582109082111761075857908a9b9a918752858552368b878301011161018257858b9660209788930183880137850101526105e661082b565b6001600160a01b0316808a52818452848a205490989060ff161561072457888a526003845287858b2054106106e257508789526003835283892061062b88825461089d565b905587895260068352838920610642888254610857565b905561065087600754610857565b6007558789526003835283892054156106cf575b508251958652828287015280518093870152875b8381106106bc57505050928291601f858884967fc32d81504c00ce92eaeed0852b187e372b250d24935ca5a510426adbd42cc257988601015201168101030190a280f35b8181018301518782018701528201610678565b8252828820805460ff1916905588610664565b845162461bcd60e51b8152918201849052601b908201527f496e73756666696369656e74207374616b6520746f20736c61736800000000006044820152606490fd5b845162461bcd60e51b8152918201849052600f908201526e155cd95c881b9bdd081cdd185ad959608a1b6044820152606490fd5b634e487b7160e01b8b52604184528b8bfd5b634e487b7160e01b8952604182528989fd5b8780fd5b503461015f578260031936011261015f5761079961082b565b6007549081156107cd575082808080938160075560018060a01b036001541682f1156107c3575080f35b51903d90823e3d90fd5b606490602084519162461bcd60e51b8352820152601c60248201527f4e6f20736c61736865642066756e647320746f207769746864726177000000006044820152fd5b600435906001600160a01b038216820361082657565b600080fd5b6001546001600160a01b0316330361083f57565b60405163118cdaa760e01b8152336004820152602490fd5b9190820180921161086457565b634e487b7160e01b600052601160045260246000fd5b60026000541461088b576002600055565b604051633ee5aeb560e01b8152600490fd5b919082039182116108645756fea26469706673582212205fbc82c0ea7a51ea59fa56551833f1636567edfeb3e891b227ff4ccfb7fad01364736f6c63430008140033",
  "linkReferences": {},
  "deployedLinkReferences": {}
}