{
  "_format": "hh-sol-artifact-1",
  "contractName": "PropertyHosting",
  "sourceName": "contracts/PropertyHosting.sol",
  "abi": [
    {
      "inputs": [],
      "stateMutability": "nonpayable",
      "type": "constructor"
    },
    {
      "inputs": [
        {
          "internalType": "address",
          "name": "owner",
          "type": "address"
        }
      ],
      "name": "OwnableInvalidOwner",
      "type": "error"
    },
    {
      "inputs": [
        {
          "internalType": "address",
          "name": "account",
          "type": "address"
        }
      ],
      "name": "OwnableUnauthorizedAccount",
      "type": "error"
    },
    {
      "inputs": [],
      "name": "ReentrancyGuardReentrantCall",
      "type": "error"
    },
    {
      "anonymous": false,
      "inputs": [
        {
          "indexed": true,
          "internalType": "address",
          "name": "previousOwner",
          "type": "address"
        },
        {
          "indexed": true,
          "internalType": "address",
          "name": "newOwner",
          "type": "address"
        }
      ],
      "name": "OwnershipTransferred",
      "type": "event"
    },
    {
      "anonymous": false,
      "inputs": [
        {
          "indexed": true,
          "internalType": "uint256",
          "name": "propertyId",
          "type": "uint256"
        },
        {
          "indexed": true,
          "internalType": "address",
          "name": "host",
          "type": "address"
        }
      ],
      "name": "PropertyDeactivated",
      "type": "event"
    },
    {
      "anonymous": false,
      "inputs": [
        {
          "indexed": true,
          "internalType": "uint256",
          "name": "propertyId",
          "type": "uint256"
        },
        {
          "indexed": true,
          "internalType": "address",
          "name": "host",
          "type": "address"
        },
        {
          "indexed": false,
          "internalType": "string",
          "name": "name",
          "type": "string"
        },
        {
          "indexed": false,
          "internalType": "uint256",
          "name": "price",
          "type": "uint256"
        }
      ],
      "name": "PropertyListed",
      "type": "event"
    },
    {
      "anonymous": false,
      "inputs": [
        {
          "indexed": true,
          "internalType": "uint256",
          "name": "propertyId",
          "type": "uint256"
        },
        {
          "indexed": true,
          "internalType": "address",
          "name": "host",
          "type": "address"
        }
      ],
      "name": "PropertyUpdated",
      "type": "event"
    },
    {
      "inputs": [
        {
          "internalType": "uint256",
          "name": "",
          "type": "uint256"
        }
      ],
      "name": "allPropertyIds",
      "outputs": [
        {
          "internalType": "uint256",
          "name": "",
          "type": "uint256"
        }
      ],
      "stateMutability": "view",
      "type": "function"
    },
    {
      "inputs": [
        {
          "internalType": "uint256",
          "name": "_propertyId",
          "type": "uint256"
        }
      ],
      "name": "deactivateProperty",
      "outputs": [],
      "stateMutability": "nonpayable",
      "type": "function"
    },
    {
      "inputs": [],
      "name": "getActiveProperties",
      "outputs": [
        {
          "internalType": "uint256[]",
          "name": "",
          "type": "uint256[]"
        }
      ],
      "stateMutability": "view",
      "type": "function"
    },
    {
      "inputs": [],
      "name": "getActivePropertiesCount",
      "outputs": [
        {
          "internalType": "uint256",
          "name": "",
          "type": "uint256"
        }
      ],
      "stateMutability": "view",
      "type": "function"
    },
    {
      "inputs": [],
      "name": "getAllProperties",
      "outputs": [
        {
          "internalType": "uint256[]",
          "name": "",
          "type": "uint256[]"
        }
      ],
      "stateMutability": "view",
      "type": "function"
    },
    {
      "inputs": [
        {
          "internalType": "address",
          "name": "_host",
          "type": "address"
        }
      ],
      "name": "getHostProperties",
      "outputs": [
        {
          "internalType": "uint256[]",
          "name": "",
          "type": "uint256[]"
        }
      ],
      "stateMutability": "view",
      "type": "function"
    },
    {
      "inputs": [],
      "name": "getPropertiesCount",
      "outputs": [
        {
          "internalType": "uint256",
          "name": "",
          "type": "uint256"
        }
      ],
      "stateMutability": "view",
      "type": "function"
    },
    {
      "inputs": [
        {
          "internalType": "uint256",
          "name": "_propertyId",
          "type": "uint256"
        }
      ],
      "name": "getProperty",
      "outputs": [
        {
          "components": [
            {
              "internalType": "uint256",
              "name": "id",
              "type": "uint256"
            },
            {
              "internalType": "address",
              "name": "host",
              "type": "address"
            },
            {
              "internalType": "string",
              "name": "name",
              "type": "string"
            },
            {
              "internalType": "string",
              "name": "description",
              "type": "string"
            },
            {
              "internalType": "string",
              "name": "location",
              "type": "string"
            },
            {
              "internalType": "uint256",
              "name": "pricePerNight",
              "type": "uint256"
            },
            {
              "internalType": "bool",
              "name": "isActive",
              "type": "bool"
            },
            {
              "internalType": "uint256",
              "name": "createdAt",
              "type": "uint256"
            },
            {
              "internalType": "string",
              "name": "imageHash",
              "type": "string"
            }
          ],
          "internalType": "struct PropertyHosting.Property",
          "name": "",
          "type": "tuple"
        }
      ],
      "stateMutability": "view",
      "type": "function"
    },
    {
      "inputs": [
        {
          "internalType": "address",
          "name": "",
          "type": "address"
        },
        {
          "internalType": "uint256",
          "name": "",
          "type": "uint256"
        }
      ],
      "name": "hostProperties",
      "outputs": [
        {
          "internalType": "uint256",
          "name": "",
          "type": "uint256"
        }
      ],
      "stateMutability": "view",
      "type": "function"
    },
    {
      "inputs": [
        {
          "internalType": "string",
          "name": "_name",
          "type": "string"
        },
        {
          "internalType": "string",
          "name": "_description",
          "type": "string"
        },
        {
          "internalType": "string",
          "name": "_location",
          "type": "string"
        },
        {
          "internalType": "uint256",
          "name": "_pricePerNight",
          "type": "uint256"
        },
        {
          "internalType": "string",
          "name": "_imageHash",
          "type": "string"
        }
      ],
      "name": "listProperty",
      "outputs": [
        {
          "internalType": "uint256",
          "name": "",
          "type": "uint256"
        }
      ],
      "stateMutability": "nonpayable",
      "type": "function"
    },
    {
      "inputs": [
        {
          "internalType": "address",
          "name": "_host",
          "type": "address"
        },
        {
          "internalType": "string",
          "name": "_name",
          "type": "string"
        },
        {
          "internalType": "string",
          "name": "_description",
          "type": "string"
        },
        {
          "internalType": "string",
          "name": "_location",
          "type": "string"
        },
        {
          "internalType": "uint256",
          "name": "_pricePerNight",
          "type": "uint256"
        },
        {
          "internalType": "string",
          "name": "_imageHash",
          "type": "string"
        }
      ],
      "name": "listPropertyForHost",
      "outputs": [
        {
          "internalType": "uint256",
          "name": "",
          "type": "uint256"
        }
      ],
      "stateMutability": "nonpayable",
      "type": "function"
    },
    {
      "inputs": [],
      "name": "nextPropertyId",
      "outputs": [
        {
          "internalType": "uint256",
          "name": "",
          "type": "uint256"
        }
      ],
      "stateMutability": "view",
      "type": "function"
    },
    {
      "inputs": [],
      "name": "owner",
      "outputs": [
        {
          "internalType": "address",
          "name": "",
          "type": "address"
        }
      ],
      "stateMutability": "view",
      "type": "function"
    },
    {
      "inputs": [
        {
          "internalType": "uint256",
          "name": "",
          "type": "uint256"
        }
      ],
      "name": "properties",
      "outputs": [
        {
          "internalType": "uint256",
          "name": "id",
          "type": "uint256"
        },
        {
          "internalType": "address",
          "name": "host",
          "type": "address"
        },
        {
          "internalType": "string",
          "name": "name",
          "type": "string"
        },
        {
          "internalType": "string",
          "name": "description",
          "type": "string"
        },
        {
          "internalType": "string",
          "name": "location",
          "type": "string"
        },
        {
          "internalType": "uint256",
          "name": "pricePerNight",
          "type": "uint256"
        },
        {
          "internalType": "bool",
          "name": "isActive",
          "type": "bool"
        },
        {
          "internalType": "uint256",
          "name": "createdAt",
          "type": "uint256"
        },
        {
          "internalType": "string",
          "name": "imageHash",
          "type": "string"
        }
      ],
      "stateMutability": "view",
      "type": "function"
    },
    {
      "inputs": [
        {
          "internalType": "uint256",
          "name": "_propertyId",
          "type": "uint256"
        }
      ],
      "name": "reactivateProperty",
      "outputs": [],
      "stateMutability": "nonpayable",
      "type": "function"
    },
    {
      "inputs": [],
      "name": "renounceOwnership",
      "outputs": [],
      "stateMutability": "nonpayable",
      "type": "function"
    },
    {
      "inputs": [
        {
          "internalType": "address",
          "name": "newOwner",
          "type": "address"
        }
      ],
      "name": "transferOwnership",
      "outputs": [],
      "stateMutability": "nonpayable",
      "type": "function"
    },
    {
      "inputs": [
        {
          "internalType": "uint256",
          "name": "_propertyId",
          "type": "uint256"
        },
        {
          "internalType": "string",
          "name": "_name",
          "type": "string"
        },
        {
          "internalType": "string",
          "name": "_description",
          "type": "string"
        },
        {
          "internalType": "string",
          "name": "_location",
          "type": "string"
        },
        {
          "internalType": "uint256",
          "name": "_pricePerNight",
          "type": "uint256"
        },
        {
          "internalType": "string",
          "name": "_imageHash",
          "type": "string"
        }
      ],
      "name": "updateProperty",
      "outputs": [],
      "stateMutability": "nonpayable",
      "type": "function"
    }
  ],
  "bytecode": "0x60808060405234610084576001600055331561006e5760018054336001600160a01b03198216811790925560405191906001600160a01b03167f8be0079c531659141344cd1fd0a4f28419497f9722a3daafe3b4186f6b6457e0600080a360016002556121a8908161008a8239f35b631e4fbdf760e01b815260006004820152602490fd5b600080fdfe6080604052600436101561001257600080fd5b60003560e01c806307fc77e2146115a4578063174000bc1461158657806332665ffb146113dc57806339500f34146113be578063396a6deb146113465780633d51402c146112bf578063473ce77014610cad5780634efcaca514610c84578063603ddf1114610c0e578063715018a614610bb15780637ca28bc614610abb5780638d82fada14610a635780638da5cb5b14610a3a578063b416eaa514610942578063bdcf79fe1461032f578063eb81e0981461025c578063f2fde38b146101ce5763f7b10808146100e257600080fd5b346101c95760203660031901126101c9576004356000908152600360205260409020805460018201546001600160a01b0316916101c59061012560028201611e08565b61013160038301611e08565b9161013e60048201611e08565b926101a560058301549461019760ff60068601541693610189610168600860078901549801611e08565b976040519c8d9c8d5260208d015260408c61012091829101528c0190611cee565b908a820360608c0152611cee565b9088820360808a0152611cee565b9360a0870152151560c086015260e0850152838203610100850152611cee565b0390f35b600080fd5b346101c95760203660031901126101c9576101e7611c45565b6101ef611eae565b6001600160a01b0390811690811561024357600154826bffffffffffffffffffffffff60a01b821617600155167f8be0079c531659141344cd1fd0a4f28419497f9722a3daafe3b4186f6b6457e0600080a3005b604051631e4fbdf760e01b815260006004820152602490fd5b346101c95760003660031901126101c9576005546102798161212c565b9060009060005b8181106102cf5750506102928161212c565b9160005b8281106102ab57604051806101c58682611d2e565b806102b96102ca928461215e565b516102c4828761215e565b52612001565b610296565b6102d881611d69565b9054600391821b1c6000528060205260ff60066040600020015416610307575b5061030290612001565b610280565b81936103289161031961030294611d69565b9054911b1c6102c4828861215e565b92906102f8565b346101c95760a03660031901126101c9576004356001600160401b0381116101c95761035f903690600401611c98565b6024356001600160401b0381116101c95761037e903690600401611c98565b906044356001600160401b0381116101c95761039e903690600401611c98565b906084356001600160401b0381116101c9576103be903690600401611c98565b926103cb82511515611eda565b6103d781511515611f1d565b6103e383511515611f69565b6103f06064351515611fb5565b600254926103fd84612001565b60025583600052600360205260406000209184835560018301336bffffffffffffffffffffffff60a01b82541617905583516001600160401b0381116106d75761044a6002850154611dce565b601f81116108fb575b50806020601f821160011461088e57600091610883575b508160011b916000199060031b1c19161760028401555b8051906001600160401b0382116106d75781906104a16003860154611dce565b601f8111610830575b50602090601f83116001146107c3576000926107b8575b50508160011b916000199060031b1c19161760038301555b8051906001600160401b0382116106d75781906104f96004850154611dce565b601f8111610765575b50602090601f83116001146106f8576000926106ed575b50508160011b916000199060031b1c19161760048201555b606435600582015560068101805460ff1916600117905542600782015583516001600160401b0381116106d75761056b6008830154611dce565b94601f861161068c575b602095508590601f8311600114610620576008929160009183610615575b50508160011b916000199060031b1c1916179101555b33600052600483526105bf826040600020612062565b6105c882612026565b817f4faf3c72065aaaddb6b745e48ea5a8933818b2a856fb6b21dd04b6ac9812b0426105ff60405193604085526040850190611cee565b92606435868201528033940390a3604051908152f35b015190508780610593565b90601f1983169160088501600052876000209260005b8181106106755750916001939185600896941061065c575b505050811b019101556105a9565b015160001960f88460031b161c1916905587808061064e565b929389600181928786015181550195019301610636565b600883016000526020600020601f830160051c810196602084106106cd575b601f0160051c01955b8681106106c15750610575565b600081556001016106b4565b90965086906106ab565b634e487b7160e01b600052604160045260246000fd5b015190508680610519565b600485016000908152602081209350601f198516905b81811061074d5750908460019594939210610734575b505050811b016004820155610531565b015160001960f88460031b161c19169055868080610724565b9293602060018192878601518155019501930161070e565b909150600484016000526020600020601f840160051c8101602085106107b1575b90849392915b601f830160051c820181106107a2575050610502565b6000815585945060010161078c565b5080610786565b0151905087806104c1565b600386016000908152602081209350601f198516905b81811061081857509084600195949392106107ff575b505050811b0160038301556104d9565b015160001960f88460031b161c191690558780806107ef565b929360206001819287860151815501950193016107d9565b909150600385016000526020600020601f840160051c81016020851061087c575b90849392915b601f830160051c8201811061086d5750506104aa565b60008155859450600101610857565b5080610851565b90508501518861046a565b91506002850160005260206000206000925b601f19831684106108e3576001935082601f198116106108ca575b5050811b016002840155610481565b87015160001960f88460031b161c1916905588806108bb565b878101518255602093840193600190920191016108a0565b600285016000526020600020601f830160051c81016020841061093b575b601f830160051c8201811061092f575050610453565b60008155600101610919565b5080610919565b346101c95760203660031901126101c95760043580151580610a2f575b61096890612085565b80600052600360205261098c60018060a01b036001604060002001541633146120d1565b80600052600360205260ff600660406000200154166109ea578060005260036020526006604060002001600160ff1982541617905533907f885782b6fe94c078f3ed4cb815a599a818040cc046f696e901a6b03df8dc917a600080a3005b60405162461bcd60e51b815260206004820152601760248201527f50726f706572747920616c7265616479206163746976650000000000000000006044820152606490fd5b50600254811061095f565b346101c95760003660031901126101c9576001546040516001600160a01b039091168152602090f35b346101c95760403660031901126101c957610a7c611c45565b6001600160a01b03166000908152600460205260409020805460243591908210156101c957602091610aad91611db6565b90546040519160031b1c8152f35b346101c95760203660031901126101c95760043580151580610ba6575b610ae190612085565b806000526003602052610b0560018060a01b036001604060002001541633146120d1565b80600052600360205260ff6006604060002001541615610b6157806000526003602052600660406000200160ff19815416905533907ff39d3b59eafc983e858c88044c0f5b4dab6f687310c0830e10d96f47c80eb902600080a3005b60405162461bcd60e51b815260206004820152601960248201527f50726f706572747920616c726561647920696e616374697665000000000000006044820152606490fd5b506002548110610ad8565b346101c95760003660031901126101c957610bca611eae565b600180546001600160a01b031981169091556000906001600160a01b03167f8be0079c531659141344cd1fd0a4f28419497f9722a3daafe3b4186f6b6457e08280a3005b346101c95760003660031901126101c957600080600554905b818110610c3957602083604051908152f35b610c4281611d69565b9054600391821b1c60005260205260ff60066040600020015416610c6f575b610c6a90612001565b610c27565b91610c7c610c6a91612001565b929050610c61565b346101c95760203660031901126101c9576004356005548110156101c957610aad602091611d69565b346101c95760c03660031901126101c9576024356001600160401b0381116101c957610cdd903690600401611c98565b6044356001600160401b0381116101c957610cfc903690600401611c98565b906064356001600160401b0381116101c957610d1c903690600401611c98565b9060a4356001600160401b0381116101c957610d3c903690600401611c98565b916004351515806112b2575b610d5190612085565b6004356000526003602052610d7760018060a01b036001604060002001541633146120d1565b600435600052600360205260ff600660406000200154161561127457610d9f82511515611eda565b610dab84511515611f1d565b610db781511515611f69565b610dc46084351515611fb5565b60043560005260036020526040600020918051906001600160401b0382116106d7578190610df56002860154611dce565b601f8111611221575b50602090601f83116001146111af576000926111a4575b50508160011b916000199060031b1c19161760028301555b83516001600160401b0381116106d757610e4a6003840154611dce565b601f811161115d575b506020601f82116001146110ee5781929394956000926110e3575b50508160011b916000199060031b1c19161760038301555b8051906001600160401b0382116106d757610ea46004840154611dce565b601f811161109c575b50602090601f831160011461102b57600893929160009183611020575b50508160011b916000199060031b1c19161760048201555b60843560058201550181516001600160401b0381116106d757610f058254611dce565b601f8111610fd8575b50602092601f8211600114610f745792819293600092610f69575b50508160011b916000199060031b1c19161790555b336004357f885782b6fe94c078f3ed4cb815a599a818040cc046f696e901a6b03df8dc917a600080a3005b015190508380610f29565b601f198216938360005260206000209160005b868110610fc05750836001959610610fa7575b505050811b019055610f3e565b015160001960f88460031b161c19169055838080610f9a565b91926020600181928685015181550194019201610f87565b826000526020600020601f830160051c81019160208410611016575b601f0160051c01905b81811061100a5750610f0e565b60008155600101610ffd565b9091508190610ff4565b015190508580610eca565b90601f198316916004850160005260206000209260005b818110611084575091600193918560089796941061106b575b505050811b016004820155610ee2565b015160001960f88460031b161c1916905585808061105b565b92936020600181928786015181550195019301611042565b600484016000526020600020601f840160051c8101602085106110dc575b601f830160051c820181106110d0575050610ead565b600081556001016110ba565b50806110ba565b015190508580610e6e565b6003840160005260206000209060005b601f1984168110611145575060019394959683601f1981161061112c575b505050811b016003830155610e86565b015160001960f88460031b161c1916905585808061111c565b9091602060018192858b0151815501930191016110fe565b600384016000526020600020601f830160051c81016020841061119d575b601f830160051c82018110611191575050610e53565b6000815560010161117b565b508061117b565b015190508680610e15565b9250600285016000526020600020906000935b601f1984168510611206576001945083601f198116106111ed575b505050811b016002830155610e2d565b015160001960f88460031b161c191690558680806111dd565b818101518355602094850194600190930192909101906111c2565b909150600285016000526020600020601f840160051c81016020851061126d575b90849392915b601f830160051c8201811061125e575050610dfe565b60008155859450600101611248565b5080611242565b60405162461bcd60e51b815260206004820152601660248201527550726f7065727479206973206e6f742061637469766560501b6044820152606490fd5b5060025460043510610d48565b346101c95760003660031901126101c957604051806005549182815260208091019260056000527f036b6384b5eca791c62761152d0c79bb0604c104a5fb6f4eb0703f3154bb3db0916000905b82821061132f576101c58561132381890382611c77565b60405191829182611d2e565b83548652948501946001938401939091019061130c565b346101c9576020806003193601126101c9576001600160a01b03611368611c45565b1660005260048152604060002090604051908181845491828152019360005281600020916000905b8282106113a7576101c58561132381890382611c77565b835486529485019460019384019390910190611390565b346101c95760003660031901126101c9576020600254604051908152f35b346101c9576020806003193601126101c957600435906040516113fe81611c5b565b600081526000828201526060928360408301528380830152836080830152600060a0830152600060c0830152600060e083015283610100809301528015158061157b575b61144b90612085565b6000526003825260406000206040519361146485611c5b565b8154855260018201546001600160a01b03908116858701908152909361148c60028501611e08565b60408801908152936114a060038201611e08565b888501908152956114b360048301611e08565b60808a0190815260058301549660a08b01978852600684015460ff169260c08c01931515845260078501549460e08d019586526008016114f290611e08565b96868d019788528b6040519d8e9d8e5251908d0152511660408b01525161012080978b01526101408a0161152591611cee565b9751601f1998898b82030160808c015261153e91611cee565b905190888a82030160a08b015261155491611cee565b955160c089015251151560e08801525190860152519284830301908401526101c591611cee565b506002548110611442565b346101c95760003660031901126101c9576020600554604051908152f35b346101c95760c03660031901126101c9576115bd611c45565b6024356001600160401b0381116101c9576115dc903690600401611c98565b906044356001600160401b0381116101c9576115fc903690600401611c98565b906064356001600160401b0381116101c95761161c903690600401611c98565b9160a4356001600160401b0381116101c95761163c903690600401611c98565b6001600160a01b03831615611c005761165785511515611eda565b61166382511515611f1d565b61166f84511515611f69565b61167c6084351515611fb5565b6002549361168985612001565b60025560008581526003602052604090208581556001810180546001600160a01b0319166001600160a01b03871617905586519093906001600160401b0381116106d7576116da6002860154611dce565b601f8111611bb9575b50806020601f8211600114611b4b57600091611b40575b508160011b916000199060031b1c19161760028501555b8051906001600160401b0382116106d75781906117316003870154611dce565b601f8111611aed575b50602090601f8311600114611a8057600092611a75575b50508160011b916000199060031b1c19161760038401555b8051906001600160401b0382116106d75781906117896004860154611dce565b601f8111611a22575b50602090601f83116001146119b5576000926119aa575b50508160011b916000199060031b1c19161760048301555b608435600583015560068201805460ff191660011790554260078301558051906001600160401b0382116106d7576117fc6008840154611dce565b601f811161195f575b50916020959185938790601f83116001146118c857827f4faf3c72065aaaddb6b745e48ea5a8933818b2a856fb6b21dd04b6ac9812b042959361189f95936008936000926118bd575b50508160011b916000199060031b1c1916179101555b60018060a01b03851660005260048752611882846040600020612062565b61188b84612026565b604051918291604083526040830190611cee565b608435828901526001600160a01b03909516940390a3604051908152f35b015190508b8061184e565b9060088401600052886000209160005b601f198516811061194557508361189f95936008936001937f4faf3c72065aaaddb6b745e48ea5a8933818b2a856fb6b21dd04b6ac9812b0429997601f1981161061192c575b505050811b01910155611864565b015160001960f88460031b161c191690558b808061191e565b818301518455899750600190930192918a01918a016118d8565b600884016000526020600020601f840160051c810191602085106119a0575b601f0160051c01905b8181106119945750611805565b60008155600101611987565b909150819061197e565b0151905087806117a9565b600486016000908152602081209350601f198516905b818110611a0a57509084600195949392106119f1575b505050811b0160048301556117c1565b015160001960f88460031b161c191690558780806119e1565b929360206001819287860151815501950193016119cb565b909150600485016000526020600020601f840160051c810160208510611a6e575b90849392915b601f830160051c82018110611a5f575050611792565b60008155859450600101611a49565b5080611a43565b015190508880611751565b600387016000908152602081209350601f198516905b818110611ad55750908460019594939210611abc575b505050811b016003840155611769565b015160001960f88460031b161c19169055888080611aac565b92936020600181928786015181550195019301611a96565b909150600386016000526020600020601f840160051c810160208510611b39575b90849392915b601f830160051c82018110611b2a57505061173a565b60008155859450600101611b14565b5080611b0e565b9050880151896116fa565b91506002860160005260206000206000925b8a601f1984168510611ba257506001935082601f19811610611b89575b5050811b016002850155611711565b8a015160001960f88460031b161c191690558980611b7a565b810151825560209384019360019092019101611b5d565b600286016000526020600020601f830160051c810160208410611bf9575b601f830160051c82018110611bed5750506116e3565b60008155600101611bd7565b5080611bd7565b60405162461bcd60e51b815260206004820152601b60248201527f486f737420616464726573732063616e6e6f74206265207a65726f00000000006044820152606490fd5b600435906001600160a01b03821682036101c957565b61012081019081106001600160401b038211176106d757604052565b90601f801991011681019081106001600160401b038211176106d757604052565b81601f820112156101c9578035906001600160401b0382116106d75760405192611ccc601f8401601f191660200185611c77565b828452602083830101116101c957816000926020809301838601378301015290565b919082519283825260005b848110611d1a575050826000602080949584010152601f8019910116010190565b602081830181015184830182015201611cf9565b6020908160408183019282815285518094520193019160005b828110611d55575050505090565b835185529381019392810192600101611d47565b600554811015611da05760056000527f036b6384b5eca791c62761152d0c79bb0604c104a5fb6f4eb0703f3154bb3db00190600090565b634e487b7160e01b600052603260045260246000fd5b8054821015611da05760005260206000200190600090565b90600182811c92168015611dfe575b6020831014611de857565b634e487b7160e01b600052602260045260246000fd5b91607f1691611ddd565b9060405191826000825492611e1c84611dce565b908184526001948581169081600014611e8b5750600114611e48575b5050611e4692500383611c77565b565b9093915060005260209081600020936000915b818310611e73575050611e4693508201013880611e38565b85548884018501529485019487945091830191611e5b565b915050611e4694506020925060ff191682840152151560051b8201013880611e38565b6001546001600160a01b03163303611ec257565b60405163118cdaa760e01b8152336004820152602490fd5b15611ee157565b60405162461bcd60e51b81526020600482015260146024820152734e616d652063616e6e6f7420626520656d70747960601b6044820152606490fd5b15611f2457565b60405162461bcd60e51b815260206004820152601b60248201527f4465736372697074696f6e2063616e6e6f7420626520656d70747900000000006044820152606490fd5b15611f7057565b60405162461bcd60e51b815260206004820152601860248201527f4c6f636174696f6e2063616e6e6f7420626520656d70747900000000000000006044820152606490fd5b15611fbc57565b60405162461bcd60e51b815260206004820152601c60248201527f5072696365206d7573742062652067726561746572207468616e2030000000006044820152606490fd5b60001981146120105760010190565b634e487b7160e01b600052601160045260246000fd5b60055490600160401b8210156106d757612049826001611e469401600555611d69565b90919082549060031b91821b91600019901b1916179055565b90815491600160401b8310156106d75782612049916001611e4695018155611db6565b1561208c57565b60405162461bcd60e51b815260206004820152601760248201527f50726f706572747920646f6573206e6f742065786973740000000000000000006044820152606490fd5b156120d857565b60405162461bcd60e51b8152602060048201526015602482015274139bdd081d1a19481c1c9bdc195c9d1e481a1bdcdd605a1b6044820152606490fd5b6001600160401b0381116106d75760051b60200190565b9061213682612115565b6121436040519182611c77565b8281528092612154601f1991612115565b0190602036910137565b8051821015611da05760209160051b01019056fea2646970667358221220543815c967d6a652cd5f9a76d50f2e6b43c7fb2e01e896bc3a934e90aa72410a64736f6c63430008140033",
  "linkReferences": {},
  "deployedLinkReferences": {}
}