{
  "_format": "hh-sol-artifact-1",
  "contractName": "PropertyHosting",
  "sourceName": "contracts/PropertyHosting.sol",
  "abi": [
    {
      "inputs": [],
      "stateMutability": "nonpayable",
      "type": "constructor"
    },
    {
      "inputs": [
        {
          "internalType": "address",
          "name": "owner",
          "type": "address"
        }
      ],
      "name": "OwnableInvalidOwner",
      "type": "error"
    },
    {
      "inputs": [
        {
          "internalType": "address",
          "name": "account",
          "type": "address"
        }
      ],
      "name": "OwnableUnauthorizedAccount",
      "type": "error"
    },
    {
      "inputs": [],
      "name": "ReentrancyGuardReentrantCall",
      "type": "error"
    },
    {
      "anonymous": false,
      "inputs": [
        {
          "indexed": true,
          "internalType": "address",
          "name": "previousOwner",
          "type": "address"
        },
        {
          "indexed": true,
          "internalType": "address",
          "name": "newOwner",
          "type": "address"
        }
      ],
      "name": "OwnershipTransferred",
      "type": "event"
    },
    {
      "anonymous": false,
      "inputs": [
        {
          "indexed": true,
          "internalType": "uint256",
          "name": "propertyId",
          "type": "uint256"
        },
        {
          "indexed": true,
          "internalType": "address",
          "name": "host",
          "type": "address"
        }
      ],
      "name": "PropertyDeactivated",
      "type": "event"
    },
    {
      "anonymous": false,
      "inputs": [
        {
          "indexed": true,
          "internalType": "uint256",
          "name": "propertyId",
          "type": "uint256"
        },
        {
          "indexed": true,
          "internalType": "address",
          "name": "host",
          "type": "address"
        },
        {
          "indexed": false,
          "internalType": "string",
          "name": "name",
          "type": "string"
        },
        {
          "indexed": false,
          "internalType": "uint256",
          "name": "price",
          "type": "uint256"
        }
      ],
      "name": "PropertyListed",
      "type": "event"
    },
    {
      "anonymous": false,
      "inputs": [
        {
          "indexed": true,
          "internalType": "uint256",
          "name": "propertyId",
          "type": "uint256"
        },
        {
          "indexed": true,
          "internalType": "address",
          "name": "host",
          "type": "address"
        }
      ],
      "name": "PropertyUpdated",
      "type": "event"
    },
    {
      "inputs": [
        {
          "internalType": "uint256",
          "name": "",
          "type": "uint256"
        }
      ],
      "name": "allPropertyIds",
      "outputs": [
        {
          "internalType": "uint256",
          "name": "",
          "type": "uint256"
        }
      ],
      "stateMutability": "view",
      "type": "function"
    },
    {
      "inputs": [
        {
          "internalType": "uint256",
          "name": "_propertyId",
          "type": "uint256"
        }
      ],
      "name": "deactivateProperty",
      "outputs": [],
      "stateMutability": "nonpayable",
      "type": "function"
    },
    {
      "inputs": [],
      "name": "getActiveProperties",
      "outputs": [
        {
          "internalType": "uint256[]",
          "name": "",
          "type": "uint256[]"
        }
      ],
      "stateMutability": "view",
      "type": "function"
    },
    {
      "inputs": [],
      "name": "getActivePropertiesCount",
      "outputs": [
        {
          "internalType": "uint256",
          "name": "",
          "type": "uint256"
        }
      ],
      "stateMutability": "view",
      "type": "function"
    },
    {
      "inputs": [],
      "name": "getAllProperties",
      "outputs": [
        {
          "internalType": "uint256[]",
          "name": "",
          "type": "uint256[]"
        }
      ],
      "stateMutability": "view",
      "type": "function"
    },
    {
      "inputs": [
        {
          "internalType": "address",
          "name": "_host",
          "type": "address"
        }
      ],
      "name": "getHostProperties",
      "outputs": [
        {
          "internalType": "uint256[]",
          "name": "",
          "type": "uint256[]"
        }
      ],
      "stateMutability": "view",
      "type": "function"
    },
    {
      "inputs": [],
      "name": "getPropertiesCount",
      "outputs": [
        {
          "internalType": "uint256",
          "name": "",
          "type": "uint256"
        }
      ],
      "stateMutability": "view",
      "type": "function"
    },
    {
      "inputs": [
        {
          "internalType": "uint256",
          "name": "_propertyId",
          "type": "uint256"
        }
      ],
      "name": "getProperty",
      "outputs": [
        {
          "components": [
            {
              "internalType": "uint256",
              "name": "id",
              "type": "uint256"
            },
            {
              "internalType": "address",
              "name": "host",
              "type": "address"
            },
            {
              "internalType": "string",
              "name": "name",
              "type": "string"
            },
            {
              "internalType": "string",
              "name": "description",
              "type": "string"
            },
            {
              "internalType": "string",
              "name": "location",
              "type": "string"
            },
            {
              "internalType": "uint256",
              "name": "pricePerNight",
              "type": "uint256"
            },
            {
              "internalType": "bool",
              "name": "isActive",
              "type": "bool"
            },
            {
              "internalType": "uint256",
              "name": "createdAt",
              "type": "uint256"
            },
            {
              "internalType": "string",
              "name": "imageHash",
              "type": "string"
            }
          ],
          "internalType": "struct PropertyHosting.Property",
          "name": "",
          "type": "tuple"
        }
      ],
      "stateMutability": "view",
      "type": "function"
    },
    {
      "inputs": [
        {
          "internalType": "address",
          "name": "",
          "type": "address"
        },
        {
          "internalType": "uint256",
          "name": "",
          "type": "uint256"
        }
      ],
      "name": "hostProperties",
      "outputs": [
        {
          "internalType": "uint256",
          "name": "",
          "type": "uint256"
        }
      ],
      "stateMutability": "view",
      "type": "function"
    },
    {
      "inputs": [
        {
          "internalType": "string",
          "name": "_name",
          "type": "string"
        },
        {
          "internalType": "string",
          "name": "_description",
          "type": "string"
        },
        {
          "internalType": "string",
          "name": "_location",
          "type": "string"
        },
        {
          "internalType": "uint256",
          "name": "_pricePerNight",
          "type": "uint256"
        },
        {
          "internalType": "string",
          "name": "_imageHash",
          "type": "string"
        }
      ],
      "name": "listProperty",
      "outputs": [
        {
          "internalType": "uint256",
          "name": "",
          "type": "uint256"
        }
      ],
      "stateMutability": "nonpayable",
      "type": "function"
    },
    {
      "inputs": [],
      "name": "nextPropertyId",
      "outputs": [
        {
          "internalType": "uint256",
          "name": "",
          "type": "uint256"
        }
      ],
      "stateMutability": "view",
      "type": "function"
    },
    {
      "inputs": [],
      "name": "owner",
      "outputs": [
        {
          "internalType": "address",
          "name": "",
          "type": "address"
        }
      ],
      "stateMutability": "view",
      "type": "function"
    },
    {
      "inputs": [
        {
          "internalType": "uint256",
          "name": "",
          "type": "uint256"
        }
      ],
      "name": "properties",
      "outputs": [
        {
          "internalType": "uint256",
          "name": "id",
          "type": "uint256"
        },
        {
          "internalType": "address",
          "name": "host",
          "type": "address"
        },
        {
          "internalType": "string",
          "name": "name",
          "type": "string"
        },
        {
          "internalType": "string",
          "name": "description",
          "type": "string"
        },
        {
          "internalType": "string",
          "name": "location",
          "type": "string"
        },
        {
          "internalType": "uint256",
          "name": "pricePerNight",
          "type": "uint256"
        },
        {
          "internalType": "bool",
          "name": "isActive",
          "type": "bool"
        },
        {
          "internalType": "uint256",
          "name": "createdAt",
          "type": "uint256"
        },
        {
          "internalType": "string",
          "name": "imageHash",
          "type": "string"
        }
      ],
      "stateMutability": "view",
      "type": "function"
    },
    {
      "inputs": [
        {
          "internalType": "uint256",
          "name": "_propertyId",
          "type": "uint256"
        }
      ],
      "name": "reactivateProperty",
      "outputs": [],
      "stateMutability": "nonpayable",
      "type": "function"
    },
    {
      "inputs": [],
      "name": "renounceOwnership",
      "outputs": [],
      "stateMutability": "nonpayable",
      "type": "function"
    },
    {
      "inputs": [
        {
          "internalType": "address",
          "name": "newOwner",
          "type": "address"
        }
      ],
      "name": "transferOwnership",
      "outputs": [],
      "stateMutability": "nonpayable",
      "type": "function"
    },
    {
      "inputs": [
        {
          "internalType": "uint256",
          "name": "_propertyId",
          "type": "uint256"
        },
        {
          "internalType": "string",
          "name": "_name",
          "type": "string"
        },
        {
          "internalType": "string",
          "name": "_description",
          "type": "string"
        },
        {
          "internalType": "string",
          "name": "_location",
          "type": "string"
        },
        {
          "internalType": "uint256",
          "name": "_pricePerNight",
          "type": "uint256"
        },
        {
          "internalType": "string",
          "name": "_imageHash",
          "type": "string"
        }
      ],
      "name": "updateProperty",
      "outputs": [],
      "stateMutability": "nonpayable",
      "type": "function"
    }
  ],
  "bytecode": "0x60808060405234610084576001600055331561006e5760018054336001600160a01b03198216811790925560405191906001600160a01b03167f8be0079c531659141344cd1fd0a4f28419497f9722a3daafe3b4186f6b6457e0600080a36001600255611af4908161008a8239f35b631e4fbdf760e01b815260006004820152602490fd5b600080fdfe608080604052600436101561001357600080fd5b60003560e01c908163174000bc146115d55750806332665ffb1461142b57806339500f341461140d578063396a6deb146113955780633d51402c1461130e578063473ce77014610cfc5780634efcaca514610cd3578063603ddf1114610c5d578063715018a614610c005780637ca28bc614610b0a5780638d82fada14610ab25780638da5cb5b14610a89578063b416eaa514610991578063bdcf79fe14610327578063eb81e09814610254578063f2fde38b146101c65763f7b10808146100da57600080fd5b346101c15760203660031901126101c1576004356000908152600360205260409020805460018201546001600160a01b0316916101bd9061011d600282016117b3565b610129600383016117b3565b91610136600482016117b3565b9261019d60058301549461018f60ff600686015416936101816101606008600789015498016117b3565b976040519c8d9c8d5260208d015260408c61012091829101528c01906115f0565b908a820360608c01526115f0565b9088820360808a01526115f0565b9360a0870152151560c086015260e08501528382036101008501526115f0565b0390f35b600080fd5b346101c15760203660031901126101c1576101df611630565b6101e7611859565b6001600160a01b0390811690811561023b57600154826bffffffffffffffffffffffff60a01b821617600155167f8be0079c531659141344cd1fd0a4f28419497f9722a3daafe3b4186f6b6457e0600080a3005b604051631e4fbdf760e01b815260006004820152602490fd5b346101c15760003660031901126101c15760055461027181611a78565b9060009060005b8181106102c757505061028a81611a78565b9160005b8281106102a357604051806101bd8682611646565b806102b16102c29284611aaa565b516102bc8287611aaa565b526119ac565b61028e565b6102d081611714565b9054600391821b1c6000528060205260ff600660406000200154166102ff575b506102fa906119ac565b610278565b8193610320916103116102fa94611714565b9054911b1c6102bc8288611aaa565b92906102f0565b346101c15760a03660031901126101c1576004356001600160401b0381116101c1576103579036906004016116be565b6024356001600160401b0381116101c1576103769036906004016116be565b6044356001600160401b0381116101c1576103959036906004016116be565b906084356001600160401b0381116101c1576103b59036906004016116be565b6103c184511515611885565b6103cd825115156118c8565b6103d983511515611914565b6103e66064351515611960565b600254926103f3846119ac565b60025583600052600360205260406000209284845560018401336bffffffffffffffffffffffff60a01b82541617905585516001600160401b03811161065d576104406002860154611779565b601f811161094a575b50806020601f82116001146108dd576000916108d2575b508160011b916000199060031b1c19161760028501555b8051906001600160401b03821161065d5781906104976003870154611779565b601f811161087f575b50602090601f831160011461080d57600092610802575b50508160011b916000199060031b1c19161760038401555b8051906001600160401b03821161065d5781906104ef6004860154611779565b601f81116107af575b50602090601f831160011461074257600092610737575b50508160011b916000199060031b1c19161760048301555b606435600583015560068201805460ff191660011790554260078301558051906001600160401b03821161065d576105626008840154611779565b601f81116106ec575b50602090601f831160011461067e576008929160009183610673575b50508160011b916000199060031b1c1916179101555b33600052600460205260406000209182549268010000000000000000938481101561065d576105d6816105ef9360018794018155611761565b90919082549060031b91821b91600019901b1916179055565b6005549283101561065d57610610826105d685600160209701600555611714565b817f4faf3c72065aaaddb6b745e48ea5a8933818b2a856fb6b21dd04b6ac9812b042610647604051936040855260408501906115f0565b92606435868201528033940390a3604051908152f35b634e487b7160e01b600052604160045260246000fd5b015190508680610587565b90601f198316916008850160005260206000209260005b8181106106d4575091600193918560089694106106bb575b505050811b0191015561059d565b015160001960f88460031b161c191690558680806106ad565b92936020600181928786015181550195019301610695565b600884016000526020600020601f840160051c8101916020851061072d575b601f0160051c01905b818110610721575061056b565b60008155600101610714565b909150819061070b565b01519050868061050f565b600486016000908152602081209350601f198516905b818110610797575090846001959493921061077e575b505050811b016004830155610527565b015160001960f88460031b161c1916905586808061076e565b92936020600181928786015181550195019301610758565b909150600485016000526020600020601f840160051c8101602085106107fb575b90849392915b601f830160051c820181106107ec5750506104f8565b600081558594506001016107d6565b50806107d0565b0151905087806104b7565b9250600386016000526020600020906000935b601f1984168510610864576001945083601f1981161061084b575b505050811b0160038401556104cf565b015160001960f88460031b161c1916905587808061083b565b81810151835560209485019460019093019290910190610820565b909150600386016000526020600020601f840160051c8101602085106108cb575b90849392915b601f830160051c820181106108bc5750506104a0565b600081558594506001016108a6565b50806108a0565b905087015188610460565b91506002860160005260206000206000925b601f1983168410610932576001935082601f19811610610919575b5050811b016002850155610477565b89015160001960f88460031b161c19169055888061090a565b898101518255602093840193600190920191016108ef565b600286016000526020600020601f830160051c81016020841061098a575b601f830160051c8201811061097e575050610449565b60008155600101610968565b5080610968565b346101c15760203660031901126101c15760043580151580610a7e575b6109b7906119d1565b8060005260036020526109db60018060a01b03600160406000200154163314611a1d565b80600052600360205260ff60066040600020015416610a39578060005260036020526006604060002001600160ff1982541617905533907f885782b6fe94c078f3ed4cb815a599a818040cc046f696e901a6b03df8dc917a600080a3005b60405162461bcd60e51b815260206004820152601760248201527f50726f706572747920616c7265616479206163746976650000000000000000006044820152606490fd5b5060025481106109ae565b346101c15760003660031901126101c1576001546040516001600160a01b039091168152602090f35b346101c15760403660031901126101c157610acb611630565b6001600160a01b03166000908152600460205260409020805460243591908210156101c157602091610afc91611761565b90546040519160031b1c8152f35b346101c15760203660031901126101c15760043580151580610bf5575b610b30906119d1565b806000526003602052610b5460018060a01b03600160406000200154163314611a1d565b80600052600360205260ff6006604060002001541615610bb057806000526003602052600660406000200160ff19815416905533907ff39d3b59eafc983e858c88044c0f5b4dab6f687310c0830e10d96f47c80eb902600080a3005b60405162461bcd60e51b815260206004820152601960248201527f50726f706572747920616c726561647920696e616374697665000000000000006044820152606490fd5b506002548110610b27565b346101c15760003660031901126101c157610c19611859565b600180546001600160a01b031981169091556000906001600160a01b03167f8be0079c531659141344cd1fd0a4f28419497f9722a3daafe3b4186f6b6457e08280a3005b346101c15760003660031901126101c157600080600554905b818110610c8857602083604051908152f35b610c9181611714565b9054600391821b1c60005260205260ff60066040600020015416610cbe575b610cb9906119ac565b610c76565b91610ccb610cb9916119ac565b929050610cb0565b346101c15760203660031901126101c1576004356005548110156101c157610afc602091611714565b346101c15760c03660031901126101c1576024356001600160401b0381116101c157610d2c9036906004016116be565b6044356001600160401b0381116101c157610d4b9036906004016116be565b906064356001600160401b0381116101c157610d6b9036906004016116be565b9060a4356001600160401b0381116101c157610d8b9036906004016116be565b91600435151580611301575b610da0906119d1565b6004356000526003602052610dc660018060a01b03600160406000200154163314611a1d565b600435600052600360205260ff60066040600020015416156112c357610dee82511515611885565b610dfa845115156118c8565b610e0681511515611914565b610e136084351515611960565b60043560005260036020526040600020918051906001600160401b03821161065d578190610e446002860154611779565b601f8111611270575b50602090601f83116001146111fe576000926111f3575b50508160011b916000199060031b1c19161760028301555b83516001600160401b03811161065d57610e996003840154611779565b601f81116111ac575b506020601f821160011461113d578192939495600092611132575b50508160011b916000199060031b1c19161760038301555b8051906001600160401b03821161065d57610ef36004840154611779565b601f81116110eb575b50602090601f831160011461107a5760089392916000918361106f575b50508160011b916000199060031b1c19161760048201555b60843560058201550181516001600160401b03811161065d57610f548254611779565b601f8111611027575b50602092601f8211600114610fc35792819293600092610fb8575b50508160011b916000199060031b1c19161790555b336004357f885782b6fe94c078f3ed4cb815a599a818040cc046f696e901a6b03df8dc917a600080a3005b015190508380610f78565b601f198216938360005260206000209160005b86811061100f5750836001959610610ff6575b505050811b019055610f8d565b015160001960f88460031b161c19169055838080610fe9565b91926020600181928685015181550194019201610fd6565b826000526020600020601f830160051c81019160208410611065575b601f0160051c01905b8181106110595750610f5d565b6000815560010161104c565b9091508190611043565b015190508580610f19565b90601f198316916004850160005260206000209260005b8181106110d357509160019391856008979694106110ba575b505050811b016004820155610f31565b015160001960f88460031b161c191690558580806110aa565b92936020600181928786015181550195019301611091565b600484016000526020600020601f840160051c81016020851061112b575b601f830160051c8201811061111f575050610efc565b60008155600101611109565b5080611109565b015190508580610ebd565b6003840160005260206000209060005b601f1984168110611194575060019394959683601f1981161061117b575b505050811b016003830155610ed5565b015160001960f88460031b161c1916905585808061116b565b9091602060018192858b01518155019301910161114d565b600384016000526020600020601f830160051c8101602084106111ec575b601f830160051c820181106111e0575050610ea2565b600081556001016111ca565b50806111ca565b015190508680610e64565b9250600285016000526020600020906000935b601f1984168510611255576001945083601f1981161061123c575b505050811b016002830155610e7c565b015160001960f88460031b161c1916905586808061122c565b81810151835560209485019460019093019290910190611211565b909150600285016000526020600020601f840160051c8101602085106112bc575b90849392915b601f830160051c820181106112ad575050610e4d565b60008155859450600101611297565b5080611291565b60405162461bcd60e51b815260206004820152601660248201527550726f7065727479206973206e6f742061637469766560501b6044820152606490fd5b5060025460043510610d97565b346101c15760003660031901126101c157604051806005549182815260208091019260056000527f036b6384b5eca791c62761152d0c79bb0604c104a5fb6f4eb0703f3154bb3db0916000905b82821061137e576101bd856113728189038261169d565b60405191829182611646565b83548652948501946001938401939091019061135b565b346101c1576020806003193601126101c1576001600160a01b036113b7611630565b1660005260048152604060002090604051908181845491828152019360005281600020916000905b8282106113f6576101bd856113728189038261169d565b8354865294850194600193840193909101906113df565b346101c15760003660031901126101c1576020600254604051908152f35b346101c1576020806003193601126101c1576004359060405161144d81611681565b600081526000828201526060928360408301528380830152836080830152600060a0830152600060c0830152600060e08301528361010080930152801515806115ca575b61149a906119d1565b600052600382526040600020604051936114b385611681565b8154855260018201546001600160a01b0390811685870190815290936114db600285016117b3565b60408801908152936114ef600382016117b3565b88850190815295611502600483016117b3565b60808a0190815260058301549660a08b01978852600684015460ff169260c08c01931515845260078501549460e08d01958652600801611541906117b3565b96868d019788528b6040519d8e9d8e5251908d0152511660408b01525161012080978b01526101408a01611574916115f0565b9751601f1998898b82030160808c015261158d916115f0565b905190888a82030160a08b01526115a3916115f0565b955160c089015251151560e08801525190860152519284830301908401526101bd916115f0565b506002548110611491565b346101c15760003660031901126101c1576020906005548152f35b919082519283825260005b84811061161c575050826000602080949584010152601f8019910116010190565b6020818301810151848301820152016115fb565b600435906001600160a01b03821682036101c157565b6020908160408183019282815285518094520193019160005b82811061166d575050505090565b83518552938101939281019260010161165f565b61012081019081106001600160401b0382111761065d57604052565b90601f801991011681019081106001600160401b0382111761065d57604052565b81601f820112156101c1578035906001600160401b03821161065d57604051926116f2601f8401601f19166020018561169d565b828452602083830101116101c157816000926020809301838601378301015290565b60055481101561174b5760056000527f036b6384b5eca791c62761152d0c79bb0604c104a5fb6f4eb0703f3154bb3db00190600090565b634e487b7160e01b600052603260045260246000fd5b805482101561174b5760005260206000200190600090565b90600182811c921680156117a9575b602083101461179357565b634e487b7160e01b600052602260045260246000fd5b91607f1691611788565b90604051918260008254926117c784611779565b90818452600194858116908160001461183657506001146117f3575b50506117f19250038361169d565b565b9093915060005260209081600020936000915b81831061181e5750506117f1935082010138806117e3565b85548884018501529485019487945091830191611806565b9150506117f194506020925060ff191682840152151560051b82010138806117e3565b6001546001600160a01b0316330361186d57565b60405163118cdaa760e01b8152336004820152602490fd5b1561188c57565b60405162461bcd60e51b81526020600482015260146024820152734e616d652063616e6e6f7420626520656d70747960601b6044820152606490fd5b156118cf57565b60405162461bcd60e51b815260206004820152601b60248201527f4465736372697074696f6e2063616e6e6f7420626520656d70747900000000006044820152606490fd5b1561191b57565b60405162461bcd60e51b815260206004820152601860248201527f4c6f636174696f6e2063616e6e6f7420626520656d70747900000000000000006044820152606490fd5b1561196757565b60405162461bcd60e51b815260206004820152601c60248201527f5072696365206d7573742062652067726561746572207468616e2030000000006044820152606490fd5b60001981146119bb5760010190565b634e487b7160e01b600052601160045260246000fd5b156119d857565b60405162461bcd60e51b815260206004820152601760248201527f50726f706572747920646f6573206e6f742065786973740000000000000000006044820152606490fd5b15611a2457565b60405162461bcd60e51b8152602060048201526015602482015274139bdd081d1a19481c1c9bdc195c9d1e481a1bdcdd605a1b6044820152606490fd5b6001600160401b03811161065d5760051b60200190565b90611a8282611a61565b611a8f604051918261169d565b8281528092611aa0601f1991611a61565b0190602036910137565b805182101561174b5760209160051b01019056fea264697066735822122011caf53bc3a7494104e32bc336a1cd2789e957897dcfa7db696ac48c37819e6b64736f6c63430008140033",
  "linkReferences": {},
  "deployedLinkReferences": {}
}