{
  "_format": "hh-sol-artifact-1",
  "contractName": "SimpleStaking",
  "sourceName": "contracts/SimpleStaking.sol",
  "abi": [
    {
      "anonymous": false,
      "inputs": [
        {
          "indexed": true,
          "internalType": "address",
          "name": "user",
          "type": "address"
        },
        {
          "indexed": false,
          "internalType": "uint256",
          "name": "amount",
          "type": "uint256"
        }
      ],
      "name": "Staked",
      "type": "event"
    },
    {
      "anonymous": false,
      "inputs": [
        {
          "indexed": true,
          "internalType": "address",
          "name": "user",
          "type": "address"
        },
        {
          "indexed": false,
          "internalType": "uint256",
          "name": "amount",
          "type": "uint256"
        }
      ],
      "name": "Unstaked",
      "type": "event"
    },
    {
      "inputs": [],
      "name": "REQUIRED_STAKE",
      "outputs": [
        {
          "internalType": "uint256",
          "name": "",
          "type": "uint256"
        }
      ],
      "stateMutability": "view",
      "type": "function"
    },
    {
      "inputs": [
        {
          "internalType": "address",
          "name": "user",
          "type": "address"
        }
      ],
      "name": "checkStakeStatus",
      "outputs": [
        {
          "internalType": "bool",
          "name": "",
          "type": "bool"
        }
      ],
      "stateMutability": "view",
      "type": "function"
    },
    {
      "inputs": [
        {
          "internalType": "address",
          "name": "",
          "type": "address"
        }
      ],
      "name": "isStaked",
      "outputs": [
        {
          "internalType": "bool",
          "name": "",
          "type": "bool"
        }
      ],
      "stateMutability": "view",
      "type": "function"
    },
    {
      "inputs": [],
      "name": "stake",
      "outputs": [],
      "stateMutability": "payable",
      "type": "function"
    },
    {
      "inputs": [
        {
          "internalType": "address",
          "name": "",
          "type": "address"
        }
      ],
      "name": "stakeAmount",
      "outputs": [
        {
          "internalType": "uint256",
          "name": "",
          "type": "uint256"
        }
      ],
      "stateMutability": "view",
      "type": "function"
    },
    {
      "inputs": [],
      "name": "unstake",
      "outputs": [],
      "stateMutability": "nonpayable",
      "type": "function"
    }
  ],
  "bytecode": "0x6080806040523461001657610306908161001c8239f35b600080fdfe608060408181526004918236101561001657600080fd5b600092833560e01c9182632def6620146101f8575081633a4b66f1146101085781636177fd181461008c578163bf135267146100ce578163e17fe1771461008c575063e32994f91461006757600080fd5b346100885781600319360112610088576020905167016345785d8a00008152f35b5080fd5b9050346100ca5760203660031901126100ca57356001600160a01b038116908190036100ca57818360ff926020955280855220541690519015158152f35b8280fd5b9050346100ca5760203660031901126100ca57356001600160a01b038116908190036100ca57828291602094526001845220549051908152f35b9050826003193601126100ca5767016345785d8a000034036101b6573383528260205260ff8284205416610183575033825281602052808220600160ff1982541617905560016020523481832055513481527f9e71bc8eea02a63969f509818f2dafb9254532904319f9dbda79b67bd34a5f3d60203392a280f35b6020606492519162461bcd60e51b8352820152600e60248201526d105b1c9958591e481cdd185ad95960921b6044820152fd5b6020606492519162461bcd60e51b8352820152601a60248201527f4d757374207374616b652065786163746c7920302e3120574c440000000000006044820152fd5b909150346102cc57836003193601126102cc5733845260209184835260ff8486205416156102a057505033835260018152818320549083815282842060ff1981541690556001815283838120558380838015610296575b8280929181923390f11561028a577f0f5bb82176feb1b5e747e28471aa92156a04d9f3ab9f45f28e2d704232b93f759192519283523392a280f35b505051903d90823e3d90fd5b6108fc915061024f565b9160649262461bcd60e51b8352820152600a602482015269139bdd081cdd185ad95960b21b6044820152fd5b8380fdfea26469706673582212205f204eb1024737fe8f5744ebec316ecf1577642280959b1e1c50e05f5978c64064736f6c63430008140033",
  "linkReferences": {},
  "deployedLinkReferences": {}
}